:020000040000FA
:06000000020B220201DBED
:03002B0002097651
:0300330002074879
:030043000208129E
:0300530002010C9B
:03005B0002029806
:03006B0002072E5B
:100083000201700101FF01010503010F10FEFFAC26
:1000930013AC13AC13AC1362125C12AC13912700B4
:1000A300000000F327000000000C0000000C00011A
:1000B30000007A1500000000000034160000000064
:1000C300000000000000FFFF414C44323533302074
:1000D3004C45440001000102006705000000DA05F9
:1000E3006400020200080000050207051E02051E47
:1000F300020A0A03B80B02803E0102FFFF141F002D
:10010300E00796511800020206C0E074F212048060
:10011300A2AFE433FED2AFE5A7FFE5A1F5085F5434
:10012300106006121D8A75A1EFE5085F5408600888
:10013300121D9075A1F7802BEFA2E0C0D0E508A2B5
:10014300E092F0120A5F158182F05017906198E0F7
:10015300F89008B7E0C398A2D265D0335002E8F014
:1001630075A1FEEEA2E092AF7F01020537C0E074F5
:10017300F2120480A2AFE433FED2AF9061A4E0F8A0
:10018300759B00E59158540860087591F7121DD8C6
:10019300802AE59158541060087591EF121DDE8096
:1001A3001BE8A2E0C0D0E591A2E092F0120A5F152D
:1001B3008182F05007E0C2E0F0121F229061A3E0B9
:1001C300F8E5E9585404600E121EF875E9FB9061D6
:1001D30093E0A2E640F2808BC0E074F2120480A2A6
:1001E300AFE433FED2AF9061A5E0F8E5BF58540405
:1001F300600675BFFB121F3A020166C3E498F8E478
:1002030099F912023F8026C3E49AFAE49BFBE920A2
:10021300E7E912023FE498F8E499F922C3E498F875
:10022300E499F912023FE498F8E499F9C3E49AFADD
:10023300E49BFB22EB20E7CFE920E7E0B90010BB0A
:100243000008E88AF084F8AAF022E4FBC8FA22EB5B
:1002530070227B10C833C8C933C9335007C39AC34C
:10026300DBF280069A50012ADBEAC833F4C8C933AB
:10027300F4C9FA2275F008E4C833C8C933C933C9CD
:100283009AC99B5004C92AC93BD5F0ECFBC833F487
:10029300C8E4C9FA22C0E0C0D0E8C0E0E9C0E0EA9F
:1002A300C0E0EBC0E0C082C08375C000900545E0AC
:1002B300F8A3E0F9E82401FAE93400FB900545EAE4
:1002C300F0A3EBF0C3E89403E99400A2D265D03322
:1002D300403A900545E4F0A3F0900ECFE06402703D
:1002E30002A3E07027900543E0F8A3E0F9E8499002
:1002F3000543700E7401F0A3E4F075DB0075DAFFBB
:10030300800AE4F0A3F075DB0075DA00D083D082B5
:10031300D0E0FBD0E0FAD0E0F9D0E0F8D0D0D0E0E4
:1003230032080808EAC0E0EBC0E086F0E7A4FA1858
:100333000986F0E7A42AFA180986F0E7A42AFA182E
:100343000986F0E7A42AFA1986F0E7A4FBE5F02A68
:10035300FA190886F0E7A42BFBE5F03AFA190886A8
:10036300F0E7A42BFBE5F03AFA18180986F0E7A4A6
:10037300C5F02BFBE43AFA1908E7C5F0C6A426F644
:10038300E5F03BFBE43AFA1886F0E7A4F6E5F0085B
:1003930026F6E43B08F6E43A08F6D0E0FBD0E0FAB0
:1003A30022E4CFC0E0E4CEC0E0E4CDC0E0E4CCC0C2
:1003B300E075F020C3E633F608E633F608E633F6D5
:1003C30008E633F6181818EC33FCED33FDEE33FE74
:1003D300EF33FFC3EC9709ED9709EE9709EF9719F0
:1003E3001919400FFFEC97FC09ED97FD09EE97FEF5
:1003F300191906D5F0BEECF709EDF709EEF709EF89
:10040300F7191919D0E0FCD0E0FDD0E0FED0E0FFF1
:10041300222518C582C0E0E51934FFC583C0E0E595
:1004230018C3958224F810AF088583198582188034
:1004330008858319858218D2AFCEF0A3E520F0A3F7
:100443007808E608F0A3DEFAEFF0A3E58124FAF8D2
:10045300E608F0A3E608F0A3E608F0A30808E60818
:10046300F0A3E608F0A315811581D0E0FED0E0F8F3
:10047300158115811581E8C0E0EEC0E022C0D025CA
:1004830018C582C0E0E51934FFC583C0E0E518C391
:10049300958224F310AF0885831985821880088517
:1004A3008319858218D2AFC8F0A3E9F0A3EAF0A3B9
:1004B300EBF0A37908E709F0A3D8FAECF0A3EDF089
:1004C300A3EEF0A3EFF0A3D0E0F0A3D0E0F0A3D02D
:1004D300E0F0A3E520F0A3E5F0F0A322120B84B92A
:1004E3000003020521E4900301787E790C8002F079
:1004F300A3D8FCD9FA900E7EAA82AB8390008678AB
:100503008779018015E493A3AC82AD838A828B83C0
:10051300F0A3AA82AB838C828D83D8E9D9E7758255
:100523001675838E74041208D57582F2758321744F
:10053300001208D5851983851882E0C0E0A3E0F98D
:10054300A3E0FAA3E0FBA37808E0F608A3DFFAE050
:10055300FCA3E0FDA3E0FEA3E0FFA3E0C0E0A3E073
:10056300C0E0A3E0F5D0A3E0F520A3E0A3F5F010ED
:10057300AF088583198582188008858319858218B9
:10058300D2AFD082D083D0E0F8D0E0320975F0103A
:100593008E1A8F1B85821F85831E8518828519837A
:1005A300E0CEA3E0CF851F82851E83EBC9EAC8EDA9
:1005B300CBECCAC3E833C8E933C9EA33CAEB33CB5C
:1005C300C3EA9EF51DEB9FF51CB35004AB1CAA1D9B
:1005D300EC33CCED33CDD5F0DAAE1AAF1B22D0839A
:1005E300D082ECC0E0EDC0E0E493A3FCE493A3FD70
:1005F300ED4C600D1206B9EC24FFFCED34FFFD80D9
:10060300EFE493A3FCE493A3FDED4C600D1207BD4F
:10061300EC24FFFCED34FFFD80EFD0E0FDD0E0FCE7
:10062300E493A3C0E0E493C0E02285198385188294
:10063300E0A3FEE0A3F5207808E0A3F608DFFAE0E4
:10064300A3FFE0A3C0E0E0A3C0E0E0A3C0E0E0A319
:10065300C0E0E0A3C0E010AF08858218858319804D
:1006630008858218858319D2AFD083D0820208DB34
:10067300D083D082E9C0E0E493A3C386F0C5F095AC
:10068300F0F908E493A386F0C5F095F0700BE493BA
:10069300A3C3994005E9048002A3E475F002A425ED
:1006A30082F582E5F03583F583D0E0F9E493A3C0C6
:1006B300E0E493C0E022C0E0C3E49396087401939E
:1006C3009618400FE49366700808740193661870D7
:1006D300007019A3A3C3E49396087401939618A317
:1006E300A3400DD0E0D0E0D0E002061DA3A3A3A356
:1006F300A3A3D0E022D083D082C5F0E493A3C5F0B6
:10070300C395F0F5F0E493A3C395F04005E5F00439
:100713008001E475F002A42582F582E5F03583F5C6
:1007230083E493A3C0E0E493C0E022C0E074F21238
:100733000480E589A2E15003121C40758900C2C5FB
:100743007F01020537C0E074F2120480E58BA2E05A
:100753005003121C40758B00C2E880E474048004CB
:1007630074028000CCC0E0EDC0E0E518C39CCCADC2
:100773001950011D10AF068C188D1980068C188D29
:1007830019D2AF120857D0E0FDD0E0FC22740280EA
:1007930000CCC0E0EDC0E0E518C39CCCAD1950011E
:1007A3001D10AF068C188D1980068C188D19D2AFC9
:1007B300120835D0E0FDD0E0FC22C0E0C0F088F0A4
:1007C300E4936670080874019366187000A8F0A398
:1007D300A3700BD0F0D0E0D0E0D0E002061DA3A3BD
:1007E300D0F0D0E022D083D082CCC0E0E493A360E9
:1007F300061208971470FAE493A360061209BD1455
:1008030070FAD0E0FCE493A3C0E0E493C0E022C01C
:10081300E074F2120480A2AFE433FED2AFC2C0E5AB
:10082300D1A2E45003121D00EEA2E092AF7F0102B9
:100833000537CAC0E0E493A3C582CCC582C583CD86
:10084300C583F0A3C582CCC582C583CDC583DAE554
:10085300D0E0CA22CAC0E0E0A3C582CCC582C5836A
:10086300CDC583F0A3C582CCC582C583CDC583DA4C
:10087300E6D0E0CA22700908080822601618181882
:10088300C6C333C608C633C608C633C608C633C68E
:10089300D5E0EA22C0E0E493A3D39C5010E493A3F1
:1008A300C39C400AD0E0D0E0D0E0020805A3A3A394
:1008B300D0E022C008C3E096F50808A3E0964208FA
:1008C30008A3E096420808A3E09645087001D3D038
:1008D3000822C09FF59FE473D09F22D083D082C0AB
:1008E3009FE493C0E0740193C0E0740293F59F22E8
:1008F3002518F58210AF08F518400215198008F580
:100903001840021519D2AF851983227404800A7422
:10091300038006740280027401C0E0F4041208F339
:10092300D0E0120B5F22C0D0251810AF08F5185085
:100933000205198008F51850020519D2AFD0D0224C
:10094300BB0102E722C082C08389828A83BB000382
:10095300E08002E493D083D082226016080808C6A0
:10096300C313C618C613C618C613C618C613C6D5EE
:10097300E0EA22C0E0C0D0E8C0E0E5A8D2AFC2C739
:10098300A2E792AFD0E0F8D0D0D0E032C3E0C69671
:10099300F608A3E0C696F608A3E0C696F608A3E019
:1009A300C696F622251810AF08F5184002151980CF
:1009B30008F51840021519D2AF22C0E0E493A36CE6
:1009C3007009D0E0D0E0D0E0020805A3A3D0E02274
:1009D300E066701008A3E066700A08A3E06670047E
:1009E30008A3E06622C3E09608A3E09608A3E09676
:1009F30008A3E096A2D265D03322E76670100809F7
:100A0300E766700A0809E76670040809E76622C307
:100A1300E096F008A3E096F008A3E096F008A3E0C0
:100A230096F022E026F008A3E036F008A3E036F0C3
:100A330008A3E036F022E627F60809E637F60809A8
:100A4300E637F60809E637F622E026F608A3E0368D
:100A5300F608A3E036F608A3E036F622C0E0E8C0C5
:100A6300E0E58124FCF8E6A2E7D0E0F8D0E022E656
:100A730047F60809E647F60809E647F60809E64790
:100A8300F622E657F60809E657F60809E657F60888
:100A930009E657F622E056F608A3E056F608A3E067
:100AA30056F608A3E056F622E056F008A3E056F007
:100AB30008A3E056F008A3E056F022700422600D6C
:100AC30018C6C333C608C633C6D5E0F41822E4C338
:100AD30096F608E496F608E496F608E496F622609D
:100AE3000D08C6A2E713C618C613C6D5E0F322C67F
:100AF300F4C608C6F4C608C6F4C608C6F4C622C3BC
:100B0300E7960809E7960809E7960809E79622C3D6
:100B1300E09608A3E09608A3E09608A3E096227562
:100B2300D000758140751801751903000204DFE0D8
:100B3300F608A3E0F608A3E0F608A3E0F622600CAB
:100B430008C6C313C618C613C6D5E0F422E6F008D8
:100B5300A3E6F008A3E6F008A3E6F022CAC0E0E6A5
:100B6300F0A308DAFAD0E0FA22E0FAA3E0FBA3E06C
:100B7300FCA3E0FD22EAF0A3EBF0A3ECF0A3EDF07D
:100B830022E5C754F84401F5C77901222518F582F7
:100B9300E43519F58322C2AF75D69F0200002212F5
:100BA30008DEAFE4021208DEF6E5021208DE14E600
:100BB300021208DE132B001208DE252B001208DEBA
:100BC300772B001208DED82B001208DE622C0012ED
:100BD30008DE062D001208DE5A2D001208DE732DE2
:100BE300001208DE992D001208DED42D001208DE53
:100BF300182E001208DE3F2E001208DE902E00127F
:100C030008DE402F001208DEF82F001208DEC03085
:100C1300001208DE8031001208DEC431001208DE43
:100C2300E931001208DE2C32001208DE793200129C
:100C330008DED133001208DE5734001208DE7534A3
:100C4300001208DE9F34001208DEB934001208DEF9
:100C5300C834001208DED334001208DE93350012C4
:100C630008DEEC35001208DEAE36001208DEB636BA
:100C7300001208DE7A37001208DEE637001208DEBB
:100C83001139001208DE3639001208DEAC390012C1
:100C930008DE3E3A001208DE963A001208DE563BA2
:100CA300001208DE753B001208DE843C001208DEE9
:100CB300963C001208DE053D001208DE5A3E001283
:100CC30008DE8C3E001208DE1F3F001208DE583F8C
:100CD300001208DEA43F001208DEC040001208DE46
:100CE3000943001208DE1443001208DE1F430012FA
:100CF30008DE2A43001208DE3443001208DE3F43B5
:100D0300001208DE5943001208DE6343001208DEB6
:100D13006D43001208DE7843001208DEA043001280
:100D230008DEFB43001208DE0544001208DE2944F6
:100D3300001208DE4D44001208DEAB44001208DE48
:100D4300EF44001208DE0B45001208DE8245001254
:100D530008DEBA45001208DE0646001208DE6346C6
:100D6300001208DE1D47001208DE0149001208DEEA
:100D73005A49001208DE8A4A001208DEB04A0012FD
:100D830008DE394C001208DEB54F001208DE875129
:100D9300001208DE5053001208DEFD53001208DE75
:100DA3006855001208DE0756001208DE4C56001282
:100DB30008DEB656001208DEC556001208DE4C598E
:100DC300001208DEFE5A001208DE6B5B001208DE1A
:100DD3004A5C001208DE635D001208DEE05E00126A
:100DE30008DEFF5E001208DE545F001208DE596061
:100DF300001208DE8160001208DED960001208DEEE
:100E0300B861001208DEFC61001208DE47620012BE
:100E130008DEB262001208DEF363001208DE5764D4
:100E2300001208DEA565001208DE0568001208DE60
:100E33003668001208DEEE69001208DE436A00120B
:100E430008DE476B001208DEE46B001208DE3D6C1F
:100E5300001208DEF06C001208DE926D001208DE4C
:100E6300326E001208DED76E001208DEDE81011238
:100E730008DE1D82011208DE6484011208DEAE84DE
:100E8300011208DEC985011208DE3186011208DE6F
:100E93006686011208DEDA87011208DE5D8A011216
:100EA30008DE868B011208DE1C8C011208DE2495F5
:100EB300011208DEB995011208DEA098011208DEBE
:100EC3009399011208DE019A011208DE479B011271
:100ED30008DE299C011208DE0E9E011208DE1FA007
:100EE300011208DE89A0011208DE5BA1011208DEEF
:100EF30089A1011208DE46A2011208DE1DA3011218
:100F030008DEE4A3011208DE88A4011208DEB1A4FE
:100F1300011208DED3A4011208DE29A7011208DE9C
:100F230001A8011208DE45A8011208DEADA80112CE
:100F330008DE65A9011208DE97A9011208DEDBA904
:100F4300011208DE11AA011208DE5DAA011208DEF1
:100F5300B2AA011208DEB7AA011208DE0AAB011217
:100F630008DE2FAB011208DE3EAC011208DEA2AC94
:100F7300011208DE12AD011208DE9EAD011208DE79
:100F83006BB0011208DE4FB1011208DED2B20112BA
:100F930008DE08B5011208DEB6B5011208DE66B632
:100FA300011208DEA7B8011208DE4AB9011208DEF1
:100FB30091B9011208DE3DBB011208DE51BB0112DB
:100FC30008DE5BBB011208DE83BB011208DE8FBBA8
:100FD300011208DEAEBB011208DECEBD011208DE2F
:100FE3001DBF011208DE61BF011208DE09C0011234
:100FF30008DEECC0011208DE97C1011208DEE3C26D
:10100300011208DEE1C3011208DE87C4011208DE03
:1010130017C5011208DE2EC5011208DE65C50112CF
:1010230008DE6FC5011208DE7AC5011208DE98C515
:10103300011208DEDCC5011208DE39C6011208DE22
:101043005EC6011208DE78C6011208DE04C701126B
:1010530008DE21C8011208DE8EC8011208DE75C938
:10106300011208DE9CC9011208DE10CA011208DE53
:101073008BCA011208DE8FCB011208DE85CC011268
:1010830008DE34CD011208DE47CE011208DEE3CEBE
:10109300011208DE70CF011208DE4ED0011208DE05
:1010A30086D0011208DEDED0011208DEA7D10112BC
:1010B30008DEC8D1011208DE4FD2011208DE73D256
:1010C300011208DE95D2011208DEDED2011208DE1B
:1010D300F4D4011208DEDBD5011208DE8CD601122E
:1010E30008DEC2D8011208DE12D9011208DE52D975
:1010F300011208DE94D9011208DEF0D9011208DECC
:101103001EDA011208DE42DA011208DE95DA011254
:1011130008DEC3DA011208DEFCDA011208DE51DB55
:10112300011208DEB7DB011208DE0BDD011208DE57
:101133002EDF011208DE9BDF011208DEC4DF01127D
:1011430008DE4FE0011208DEB6E0011208DE01E11D
:10115300011208DE25E1011208DE49E1011208DE71
:10116300A4E1011208DEBFE1011208DE78E20112F8
:1011730008DE0AAD041208DE49AD041208DE7880E9
:10118300021208DEBE80021208DE9E81021208DE11
:10119300A082021208DEA383021208DE2F85021248
:1011A30008DE8D85021208DE4A86021208DE688791
:1011B300021208DED987021208DE1588021208DE41
:1011C3006388021208DE6D88021208DEB1880212FB
:1011D30008DE0D89021208DEA889021208DE258ABC
:1011E300021208DEF48A021208DE8D8B021208DE78
:1011F300AD8B021208DEE38B021208DE148C02129E
:1012030008DED58C021208DEE58C021208DE398D69
:10121300021208DE548D021208DE668D021208DE09
:101223006F8D021208DEC98D021208DE258E0212AE
:1012330008DE718E021208DE8C8E021208DEBD8E6D
:10124300021208DEDA8E021208DEE68E021208DED1
:101253005A90021208DE7390021208DEDA9002122C
:1012630008DEED90021208DEFB90021208DEAF9159
:10127300021208DE9392021208DE9993021208DE2C
:101283002394021208DE2D94021208DE9A940212AD
:1012930008DEB194021208DEE394021208DE1C9504
:1012A300021208DE4695021208DEA795021208DE36
:1012B300C795021208DEE595021208DE2B9602128C
:1012C30008DE5197021208DE9E97021208DECD97C0
:1012D300021208DE4398021208DE6B98021208DE3F
:1012E300A498021208DEB298021208DE0A990212CA
:1012F30008DE5999021208DE9899021208DEC8998D
:10130300021208DEF499021208DEFF99021208DEC7
:101313001D9A021208DEDF9A021208DEE99A02120F
:1013230008DE249B021208DE3A9B021208DE8F9B22
:10133300021208DEA39B021208DEB19C021208DE31
:10134300C49C021208DED99C021208DE7B9D0212A5
:1013530008DEFE9D021208DEBC9E021208DEC79E56
:10136300021208DEF39F021208DE0FA0021208DE4B
:1013730061A0021208DEA0A0021208DEB5A00212CC
:1013830008DE17A1021208DEA6A1021208DEF1A1EF
:10139300021208DE42A4021208DEC0A4021208DE12
:1013A30035A5021208DE57A7021208DE6FA7021244
:1013B30008DE72A7021208DE7EA7021208DE92A7D9
:1013C300021208DE9AA7021208DECDA7021208DE77
:1013D3007DA8021208DEF3A8021208DE66A9021233
:1013E30008DE1AAA021208DECFAA021208DEEEAA4B
:1013F300021208DE8EAB021208DE9AAB021208DE7E
:10140300C5AB021208DEC8AB021208DE32AC021210
:1014130008DE5AAD021208DE32AE021208DEBDAE9D
:10142300021208DED6AF021208DE93B0021208DE03
:10143300CCB0021208DEFDB0021208DEBBB102120C
:1014430008DEEBB1021208DEC6B2021208DE5FB399
:10145300021208DEEAB3021208DE9BB4021208DEAF
:101463001EB5021208DE50B5021208DE91B5021253
:1014730008DEB9B5031208DE1EB6031208DE5BB63A
:10148300031208DEAAB6031208DEC0B8031208DE90
:10149300A3BA031208DE0DBE031208DE48BE031210
:1014A30008DE6ABE031208DECDBE031208DE01BFEA
:1014B300031208DE24BF031208DE51BF031208DE45
:1014C300ADBF031208DEA39F031208DE21A003129F
:1014D30008DE57A0031208DEC3A0031208DE36A2FB
:1014E300031208DE52A2031208DE97A2031208DEDB
:1014F30025A3031208DE7EA3031208DEABA40312A6
:1015030008DEBDA5031208DE1AA6031208DE86A6AE
:10151300031208DEE7A6031208DE28A7031208DE7B
:10152300D5A7031208DEE7A8031208DE12A90312E7
:1015330008DE5DA9031208DEA4A9031208DE36AA99
:10154300031208DEF1AA031208DEF2A1041208DE78
:1015530003A2041208DE54A2041208DE99A20412A4
:1015630008DE43A3041208DE28A9041208DE4BA0F8
:10157300041208DEA3A1041208DE68AB031208DE1E
:101583000DAC031208DE2DAC031208DE4DAC0312C2
:1015930008DE61AC031208DEB9AC031208DEE9AC65
:1015A300031208DE6AAE031208DE10AF031208DE70
:1015B300F2AF031208DE43B0031208DE86B0031253
:1015C30008DEC9B0031208DE2FB1031208DE50B1E2
:1015D300031208DEDCB1031208DE0DB2031208DECB
:1015E30081B2031208DE2FB4031208DE09B5031219
:1015F30008DE4BB5031208DEA5B5031208DEC29C54
:10160300041208DEE39C041208DE199E041208DEAD
:1016130077DD021208DE3CFD031208DEB6FD03127D
:1016230008DEC1FD031208DEE2FD031208DE669345
:10163300031208DE6993031208DE2394031208DE03
:101643004E94031208DE9594031208DEBA94031233
:1016530008DEDB94031208DE0F95031208DE4895BB
:10166300031208DE7196031208DEA896031208DE41
:101673000CE4021208DE6397031208DE28980312B3
:1016830008DE5F98031208DED499031208DE779A06
:10169300031208DE709B031208DE999B031208DE17
:1016A300ED9B031208DEB39C031208DEE19C0312D8
:1016B30008DE769E031208DEF79E031208DE2A9FD9
:1016C300031208DEF9BF031208DE03C0031208DEAB
:1016D3004FC0031208DEBDC0031208DEDEC00312D2
:1016E30008DEF5C0031208DEA5C1031208DE39C403
:1016F300031208DE42C4031208DE95C4031208DE97
:10170300BEC4031208DE25C5031208DEB6C50312E4
:1017130008DEF8C5031208DE42C6031208DEA1C6BE
:10172300031208DECDC6031208DE5EC7031208DE0D
:101733009DC7031208DEDCC7031208DE11C80312BB
:1017430008DE23C8031208DE35C8031208DE54C8B6
:10175300031208DE5DC8031208DE13C9031208DE94
:1017630053C9031208DEE3F4031208DEB6F50312CD
:1017730008DED0F5031208DEE1F5031208DEF6F702
:10178300031208DE15F8031208DEA898041208DE17
:10179300DE98041208DE2799041208DE779A0412F1
:1017A30008DE3BE6021208DE7AE7021208DEB6E73D
:1017B300021208DE75E9021208DE9EE9021208DE53
:1017C30031EC021208DE75EC021208DEFEED0212A5
:1017D30008DE96EE021208DEFEEE021208DE9FEF2E
:1017E300021208DEE1EF021208DE21F0021208DE27
:1017F300ACF1021208DE1CF3021208DE41F50212FC
:1018030008DE6FF5021208DE96F5021208DE9FF578
:10181300021208DEFAF5021208DE8DF6021208DE65
:10182300ABF9021208DE2CFA021208DE44AE0412EF
:1018330008DE5AAE041208DE6DAC041208DEB18A6B
:10184300041208DEC48A041208DE618B041208DE67
:101853009C8B041208DEB78B041208DEDC8B0412A7
:1018630008DE218C041208DE528C041208DE838CFD
:10187300041208DE098E041208DEBBA4041208DE7B
:10188300F1A4041208DE0DA5041208DE4FA504120C
:1018930008DE5FA5041208DEF4A5041208DEFEA527
:1018A300041208DE89FA021208DECAFA021208DEFE
:1018B300DDFA021208DE8EFB021208DE42FC02127F
:1018C30008DE88FC021208DE22FE021208DEBCFEDD
:1018D300021208DE45FF021208DE236F001208DE43
:1018E3007B6F001208DE6470001208DEFD700012C8
:1018F30008DE4771001208DEA471001208DEFD71D4
:10190300001208DE1172001208DE4372001208DEB4
:101913004173001208DEA573001208DEC0730012C3
:1019230008DE0F74001208DE2574001208DE32741C
:10193300001208DE6674001208DE7F74001208DEEF
:101943001075001208DE1F75001208DEA77500125D
:1019530008DE0176001208DE4F76001208DE71768B
:10196300001208DEE878001208DE1D79001208DE96
:10197300AD79001208DE227A001208DE277A0012FF
:1019830008DE637A001208DEB97A001208DE7D7B76
:10199300001208DEA27B001208DEAC7B001208DE18
:1019A300AF7B001208DE387C001208DE537C001285
:1019B30008DE667C001208DE927C001208DECD7C15
:1019C300001208DED07C001208DEDB7C001208DE89
:1019D300177D001208DE2A7D001208DE517D0012F9
:1019E30008DEBDAC041208DED5AC041208DEB8D2A2
:1019F300031208DE07D3031208DEA9D4031208DE9C
:101A030067D6031208DEAFD6031208DED1D703125E
:101A130008DE02D9031208DE24D9031208DE80D9B6
:101A2300031208DE02DA031208DEB2E2011208DE54
:101A3300D3E2011208DE5DE3011208DEE2E30112E4
:101A430008DE5EE4011208DEC7E4011208DE13E5D6
:101A5300011208DE92E5011208DE24E6011208DE17
:101A6300B0E6011208DEF2E6011208DE5EEB0112B7
:101A730008DEDEEC011208DE1DED011208DE04EEC5
:101A8300011208DE07EE011208DEBBEE011208DECA
:101A9300F0EF011208DEDBF1011208DE5BF4011244
:101AA30008DE14F5011208DE31F6011208DE88F9AA
:101AB300011208DE98F9011208DEF9FA011208DEB4
:101AC30085FB011208DEB9FC011208DEAAFD011232
:101AD30008DE2CFE011208DE0080031208DEBA8045
:101AE300031208DE2C81031208DE3B81031208DE99
:101AF300B581031208DE2482031208DE2B8303124E
:101B030008DE5483031208DEF483031208DE4284E2
:101B1300031208DEB284031208DE6B87031208DEA9
:101B23004288031208DEAF88031208DE2C8A0312F0
:101B330008DEE08A031208DE8E8B031208DEE98BCF
:101B4300031208DE548C031208DE548D031208DEE0
:101B53002E8F031208DE4190031208DEDA9003127F
:101B630008DE4C91031208DE1292031208DE0D8088
:101B7300041208DE6180041208DEB980041208DE54
:101B83000481041208DE6681041208DED281041285
:101B930008DE8582041208DEC682041208DEDC82B7
:101BA300041208DE3883041208DE7683041208DE8A
:101BB3005296041208DE8396041208DE3D9704123F
:101BC30008DEA397041208DE1498041208DEA18E1F
:101BD300041208DE2D90041208DE1BAA041208DE8C
:101BE3002CAA041208DECCAA041208DE939E041267
:101BF30008DEA19E041208DEE77F001208DE86AB32
:101C0300041208DE96AB041208DEB1AB041208DE40
:101C130012AC041208DE26A8041208DEABA80412D4
:101C230008DE0FA9041208DE14A7041208DE36A783
:101C3300041208DEA0A7041208DEABA7041208DE14
:101C4300EFA7041208DE36DA031208DE44DA0312C1
:101C530008DE85DA031208DEA6DA031208DE23DBC8
:101C6300031208DE23DC031208DE45DC031208DE60
:101C7300B1DC031208DECCDC031208DEE7DC03125E
:101C830008DEF1DC031208DEFBDC031208DE0EDDE6
:101C9300031208DE27DD031208DEC3DD031208DEAC
:101CA3007FDE031208DEF6DE031208DE70DF0312A6
:101CB30008DED6DF031208DEA783041208DEB5832D
:101CC300041208DE2F84041208DE1385041208DED2
:101CD300CC86041208DE22AE041208DE80E1031271
:101CE30008DEEDE1031208DEAEE2031208DE1EE3B6
:101CF300031208DE27E4031208DE9FE5031208DE61
:101D030003E6031208DE58E6031208DE61E6031257
:101D130008DE70E6031208DE83E6031208DE99E6A6
:101D2300031208DEA2E6031208DE72EB031208DEDA
:101D3300C7EB031208DEC3ED031208DEF5ED031251
:101D430008DE17EE031208DE30EE031208DE49EE5A
:101D5300031208DE53EF031208DEEEEF031208DE70
:101D63005AA3041208DE7EA3041208DE97A304120A
:101D730008DECAA3041208DEFBA3041208DE29A4AA
:101D8300041208DE8BA4041208DE9AA4041208DEEF
:101D9300A4A4041208DEB1A4041208DE659104129F
:101DA30008DE8B91041208DEC891041208DED79175
:101DB300041208DEF691041208DE5E92041208DEB5
:101DC3006792041208DEC692041208DEEA92041235
:101DD30008DEA993041208DEB693041208DEC79343
:101DE300041208DEC2FF021208DEDFFF021208DE61
:101DF30065F0031208DEC3F1031208DED0F103120B
:101E030008DEE3F1031208DE02F2031208DE18F221
:101E1300031208DE2CF2031208DEA1F2031208DE1D
:101E230006F3031208DEB6F3031208DE8BF4031283
:101E330008DE9BF4031208DEAAF4031208DEEDAAFF
:101E4300041208DE11AB041208DE39AB041208DEFB
:101E530061AB041208DE817D001208DEA87D00124A
:101E630008DEC97D001208DE2E7E001208DEF5931F
:101E7300041208DE0E94041208DE1A94041208DE1B
:101E83002E94041208DE4C94041208DE56940412B5
:101E930008DE6094041208DE7394041208DEC6940C
:101EA300041208DEFF94041208DE2E95041208DEE5
:101EB3007C95041208DECB95041208DEE695041225
:101EC30008DEF095041208DE0196041208DE479638
:101ED300041208DE1CAC041208DE7CC9031208DEFF
:101EE300A6C9031208DEC2C9031208DED5C903124C
:101EF30008DEEBC9031208DE48CA031208DE7BCAF8
:101F0300031208DEB7CE031208DEDDCF031208DEAC
:101F130010D0031208DE5CD0031208DE88D103124E
:101F230008DEB0D1031208DEC5D1031208DED5D115
:101F3300031208DE19D2031208DE7AD2031208DE76
:101F43008AD2031208DEC4FE011208DEDFFE01128C
:101F530008DE08FF011208DE22FF011208DE47FF38
:101F6300011208DE66FF011208DE7EFF011208DEA1
:101F7300ACFF011208DEC6FF011208DE53AD0412E6
:101F830008DE3187041208DE3887041208DE44882D
:101F9300041208DE7488041208DE9A88041208DE2C
:101FA300BD88041208DEDF88041208DE19890412D2
:101FB30008DE7F89041208DEB889041208DE048A69
:101FC300041208DE318A041208DE518A041208DE84
:101FD300DA9A041208DEF29A041208DEE09B041275
:101FE30008DEBF9C041208DE01A6041208DE73A6F5
:101FF300041208DEB1A6041208DEF2A6041208DEFB
:102003006EF9031208DE8DF9031208DEDCF9031200
:1020130008DEF8F9031208DE29FA031208DE39FA9A
:10202300031208DE46FA031208DE53FA031208DE2F
:102033003FFB031208DE7DFB031208DE87FB03125E
:1020430008DE97FC031208DEA2FC031208DEB4FCD0
:10205300031208DEBDFC031208DEC7FC031208DE10
:10206300B5E6031208DEFAEA031208DE08EB0312F0
:1020730008DE82AE041208DECDAD041208DE97AD91
:10208300041208DEFAAD041208DE64AE041208DEA0
:1020930071DA021208DED3D7021208DE9CD60212CE
:1020A30008DEF0D5021208DE36D4021208DEE6D1CD
:1020B300021208DE6DD1021208DE14D1021208DE0C
:1020C300A4D0021208DE7BD0021208DE5BCE02121D
:1020D30008DE27CE021208DEF4CD021208DED8CDC8
:1020E300021208DEF1CC021208DEA9CC021208DECD
:1020F300F4CA021208DE74CA021208DE71CA02129E
:1021030008DE6EC9021208DE3CC9021208DE79C875
:10211300021208DEBFE2021208DE6AE0021208DEE3
:1021230088DF021208DE6CDF021208DE0CDF021207
:1021330008DEA4C6021208DE35C6021208DE07C690
:10214300021208DE04C6021208DEC4DE021208DE32
:10215300F1C5021208DE9CC5021208DE8BC502120D
:1021630008DE7DC4021208DE12DE021208DEC89603
:10217300031208DE47C4021208DEF5C3021208DEAA
:1021830096C3021208DE65C3021208DE2DC00212D6
:1021930008DEEDBF021208DEE1BF021208DE41BF16
:1021A300021208DE81BE021208DE03BC021208DE40
:1021B30094B9021208DE52B9021208DE26B80212DE
:1021C30008DEDBB7021208DE1AB7021208DEEDB62C
:1021D300021208DEC6B5021208DE30B6021208DEAD
:1021E30084DD021208DE00B6021208DE439E0400FC
:1021F300000080FBE473000000000000000000000A
:10220300000000000000101010101010000030300B
:10221300000000142850000000000000000000002F
:102223000000002828FC284850FC50500000000003
:10223300103854543018145454381000000000441B
:10224300A8A8B0541A2A2A440000000000205050C5
:1022530060ACA898927C000000606020C000000081
:1022630000000000000000040808101010101010F7
:102273000808040000004020100804081020400053
:1022830000000000001010D63838D61010000000EF
:10229300000000101010FE101010000000000000DD
:1022A3000000000000000000606020C0000000008B
:1022B3000000FC000000000000000000000000001F
:1022C300000000006060000000020404040808101D
:1022D300102020204000000000304884848484843F
:1022E3004830000000000010701010101010107C17
:1022F300000000000038444404081020447C00001F
:10230300000000384444180404444438000000002A
:10231300080818284848887C081C00000000007C36
:10232300404078440444443800000000003C4480AA
:10233300B8C48484847800000000007C44480810FA
:102343001010101000000000007884844878848402
:1023530084780000000000788484848C740488F0FE
:1023630000000000000000303000000030300000AA
:10237300000000000000100000000010102000000A
:102383000408102040201008040000000000000092
:1023930000FC0000FC0000000000000040201008CA
:1023A3000408102040000000000078848484081092
:1023B30010003030000000000038449AAAAAAAB4E2
:1023C300423C00000000001010282828384444EE46
:1023D3000000000000F844447844444444F80000FA
:1023E3000000003C4484808080804438000000006A
:1023F30000F048444444444448F00000000000FC1A
:1024030044404878484044FC0000000000FC42403F
:102413004878484040E000000000003C448480804D
:102423008E8444380000000000EE4444447C44445D
:1024330044EE00000000007C101010101010107CFF
:1024430000000000007C101010101010101090E01D
:10245300000000EE44485070484844EE000000007D
:1024630000E040404040404044FC0000000000EEDB
:102473006C6C6C54545454D60000000000EE646439
:102483005454544C4CE400000000003048848484CD
:10249300848448300000000000F8444444784040FD
:1024A30040E00000000000304884848484B448384D
:1024B3000C00000000F844447850484844E600000B
:1024C3000000003C4440201804044478000000004D
:1024D30000FE92101010101010380000000000EEE3
:1024E30044444444444444380000000000EE44445F
:1024F3002828282810100000000000D654545454F3
:102503006C2828280000000000EE44282810282802
:1025130044EE0000000000EE44282810101010388C
:1025230000000000007C88081020204044FC0000CC
:10253300001C101010101010101010101C00007050
:1025430010101010101010101010700000701010E8
:102553001010101010101010700000102800000050
:102563000000000000000000000000000000000068
:102573000000000000FE00606020C00000000000BA
:102583000000000000000000000038441C24443E0A
:102593000000000000C040407844444444780000F8
:1025A3000000000000003C444040443800000000AC
:1025B300000C04043C444444443E0000000000007A
:1025C300000038447C40443800000000001C2420F4
:1025D300F8202020207800000000000000003C4884
:1025E300483040784438000000C0404058644444B8
:1025F30044EE000000000010000070101010107C6A
:1026030000000000000800003808080808080870E7
:10261300000000C040405C48507048EC00000000DF
:102623000070101010101010107C0000000000004B
:102633000000F854545454D6000000000000000079
:10264300D864444444EE0000000000000000384415
:10265300444444380000000000000000F8444444AF
:10266300447840E00000000000003C444444443C03
:10267300040E000000000000EC30202020F80000D1
:102683000000000000003C443008447800000000D3
:10269300000010107C101010100C0000000000004F
:1026A3000000CC444444443E00000000000000000D
:1026B300EE44282828100000000000000000D65433
:1026C300545428280000000000000000DC4830308B
:1026D30048EC0000000000000000EE442828101021
:1026E30020E00000000000007C481010247C000063
:1026F30010101010101010101010101010100001F6
:102703003636010100010201000103010001040149
:10271300060605020000070100340801000F090442
:1027230001010D0100FF0E0800001702000019014E
:1027330000FF1A0100011B0100FE1C0100081D021D
:1027430000001F01000120010001210200002301FC
:10275300000F2402000026010001270100082802BF
:1027630000FF2A0100072B0102402C0100002D016C
:1027730000012E0100012F0100FF30010B1C310865
:1027830000003A0100083B01000F2F010000030085
:102793007100300160001100700031022003500409
:1027A30080001000610000001400630073007200D9
:1027B3006200430000001300060000000000040054
:1027C30012000000000000000000040004003700B5
:1027D30037003C02440000000000000000006500D8
:1027E30000003500810000000500000083000000A8
:1027F3000103710301030103010301030103220325
:10280300020301031003000300030003000300039A
:102813000003000342030003240306030003000331
:1028230004031203250323032503230304030403DF
:102833000003000300034403000300032303000316
:10284300650321003503810300030503000300032F
:1028530000030101710101010101110101013101B4
:10286300010101018001100161013B0014006301BA
:1028730073017201620143010001130106013D016D
:1028830035000401120100010001000100010401EF
:102893000401330133013C014401320136000001DC
:1028A300000165010001350081010001050182017C
:1028B3008301000103027102300160021102700200
:1028C3000102020202028002100261023A00410088
:1028D30063027302720262024302000213023800AF
:1028E30000020002040212020002000200020002BF
:1028F30004020402370037003C024402000239009C
:102903000002000265020002350281020002050294
:1029130082028302000203047104020460041104AE
:10292300700402040204010402041004610400049C
:102933001404630473047204620443040004130460
:102943000604000400040404120400040004000448
:10295300000451046400000400040004440400045F
:1029630000040004000465040004350481046400C9
:10297300050400048304000436000100060000007F
:102983000F0000000000000000000000000003FF33
:10299300FF00000403FFFF0000FFFF0FF401000529
:1029A300C4040320000100030B000000000000002A
:1029B3000003010F0000141B1300901A0100141BE5
:1029C3000200481A03004E1A0400541A05005A1A4A
:1029D3000600661A1100841A14008A1A1500781A60
:1029E300FFFF000001B40E06E40E08DE0E0BF00E2E
:1029F30010300E02BA0E05D20E07C00E0C960E0D45
:102A0300A80EFF000003EAF5E5D5D5C5B5A5959554
:102A130085857575656555554545353525251515E3
:102A230005BC12EC12C212C812E612DA12D412F268
:102A330012F812FE120A13CE12B612B01200160FBB
:102A430000000B150B020002220F32000006AC132C
:102A5300BE13C4138612CA1380128C12C011BA118A
:102A6300F611FC11F011A8110C142A1430141214CD
:102A73001E14181400011916181616152303000C3A
:102A83000E020B040B0A0708000F00034948424DCE
:102A9300181725050200383C3E363B3B352B432CAB
:102AA300303017181921301B1D1F303030161819FC
:102AB30020231A1C1E300014D013D613E213DC1388
:102AC300E01204132414101316130204020101016B
:102AD300010902CC11D211C611021200000000003C
:102AE30000D811EA1100BE040A0E00150004007F8D
:102AF30000E8030C002800000000000308100C0A83
:102B030003080900040001FF1E1E0C05040F100832
:102B1300C082C0838A828B83E0D2E7F012199A02C3
:102B23003CE2C082C0837900122FDF125EAFC08205
:102B3300C083900334124C35D083D082C3E09CA36E
:102B4300E09D500C126583FAA3E0122B5660010935
:102B5300023CE2FBEA75F00BA4FAA8F075F00BEB6C
:102B6300A428FB900336E02AF8A3E03B8882F58390
:102B7300E0540F2274F71204148908122FDF123065
:102B830085ACF075F00BE9A42CF9900336E028FE30
:102B9300A3E039FF740165086006740265087020BC
:102BA3008A828B83123071123F1174026508701B85
:102BB300122F301230B870138E828F83E4F0800BA3
:102BC300EA2403FCEB12305312305FEEFAEFFB12F0
:102BD3000BB4023E6E74F4120414126EAA79008EC2
:102BE300828F83E06076890A890B8065E50A75F038
:102BF3000BA4FAA8F075F00BE50B122B637046E5F6
:102C03000A75F00BA4F8AAF075F00BE50B123097D8
:102C13008E828F83E0850882850983123179850846
:102C230082850983A3123F11EE2403FCEF12305C6B
:102C3300123CEF125929AA08AB09120BB47901907F
:102C4300033412533EE50A2401F50AE50B3400F57B
:102C53000B122F38E50A9AE50B9B40900240BB7498
:102C6300F5120414EAFEEBFF740B120B8F123CF403
:102C7300750A01EC4D602BEC126EC6ED125EAF12BD
:102C83003F097901120BC0E5084509606F85088289
:102C9300850983A3126EB47902AA08AB09120BC08B
:102CA300805AE5084509602B125EB312457D123C3C
:102CB300F01230A2700CEEFAEFFB120BC6E9F50A24
:102CC30080CBEE2403FA122FDA70317903EEFAEF98
:102CD300FB80CA8E828F83A3E064FE7003A3E0F4BB
:102CE300700BEE24030A0A0A122FDA700CEEFAEFC5
:102CF300FB120BC6E9F50A8003750A00A90A7F03D4
:102D030002062D74F7120414900334123E7EEA4B2C
:102D1300602FEA75F00BA4FAA8F075F00BEBA4286A
:102D2300FBEAFEEBFF121796900336123E7E9003EA
:102D3300361251836012EEFCEFFD79001216D68035
:102D430007900336E4F0A3F0023E6E90033412487A
:102D5300EDC3EE98EF9922C082C083EC4D6005125B
:102D63001FFA80097C087D0079001216D6023CE226
:102D730074F61204147900EA4B601878008808127C
:102D830061F6EB12657F60047901780808E8C39463
:102D93000840EA023F1A74F712041474F31209A7E5
:102DA300ECFEEDFF851882851983E4F004120B8F86
:102DB300EAF0A3EB1256AF7403120B8FAC82AD8310
:102DC300EEFAEFFB120BD8EEFAEFFB120BDE023E2C
:102DD3006974F712041474F31209A7ECFEEDFF856E
:102DE3001882851983E4F0EAFCEBFD7403120B8F60
:102DF3001231727401120B8F123F058E828F831270
:102E03003F1174FE68700374FF69600479018002E6
:102E13007900023E6974F7120414EAFEEBFF122EE6
:102E2300767014122E818E828F83E0F4F88A828B5F
:102E330083E058F0120BB4A908023E6E74F7120433
:102E430014EAFEEBFF7508008E828F83E060221286
:102E53002E76701D122E818A828B83E08F838E8261
:102E6300F8E058700CE0F88A828B83E048F0120B8C
:102E7300B480C4120BBAE9F5087401650822126E16
:102E8300BF123089122FCBFAA3E039FB2274F4125C
:102E930004148A088B097C007D00122F3012305FE6
:102EA300122FF0126EB17900850882850983A3E0A1
:102EB30064FE7003A3E0F460717E007F008062EE25
:102EC300FAEF122B566057EEFAEFFBEA75F00BA4FC
:102ED300FAA8F075F00BEBA428FB900336E02AF573
:102EE3000AA3E03BF50B850882850983A31255FDF0
:102EF300850A82850B83A3E06A7003A3E06B701ECF
:102F0300E50A2403FAE50B122FDB700AE50A240312
:102F1300FCE50B12305C122FE47901125EC5123806
:102F2300CF122F38EE9AEF9B40950240BBEA240361
:102F33000A0A0AEB22900334125A9CC32274F31236
:102F430004148A088B098A828B83A3126EB4122F0E
:102F5300DF126EB1750C00122F30122FDB70547E0E
:102F6300007F008049122FBDFAA3E0398A82F583DE
:102F7300E0540F6036122FBDF50AA3E039F50BE5D7
:102F83000A2403FCE50B1230663400FB121FF4E93C
:102F930064017017850A82850B83A3125B5DA312FC
:102FA3003F11122FE4750C01125EC51238CF122D9A
:102FB3004E40B2A90C7F0502062DEEF8EFF9E87535
:102FC300F00BA4F8122FCB22AAF075F00BE9A42A78
:102FD300F9900336E02822EF1230B222126EC5EBCD
:102FE30022122FF0125EC0EEF0A3EFF022E50812DA
:102FF3006EC6E5092274F5120414EAFEEBFF8E8215
:103003008F83A3126EB47C007D00EE24030A0A0AA8
:10301300EF12305FEEFAEFFB120BBAE9F50A740117
:10302300650A7029126EBF123085AAF075F00BE99C
:10303300123097850882F5831230711230A2700D19
:10304300E5082403FCE50912305312305F022CFF1C
:103053003400FDEE2403FAEF221230663400FB1233
:103063000BD8223400FDE5082403FAE50922A31254
:1030730030762212307A22E0F8A3E0F98E828F8331
:10308300A322123089223400F5831248F1E875F047
:103093000BA4F822122FD1F508A3E039F50922E891
:1030A300F0A3E9F0E5082403FAE5091230B222128D
:1030B30030B86401223400FB120BDEE92274F312F0
:1030C300041474E61209A7126EAA750C01750800A0
:1030D300750900750A00750B00851882851983E44C
:1030E300F0EE2403FCEF3400FD7403120B8F123156
:1030F30072E964017023740B120B8F123F09740180
:10310300120B8F1256017003A3E069605185188278
:10311300851983858208858309740D120B8FE41248
:103123003179740E120B8F123F11740D120B8FAA8B
:1031330082AB83120BFCE96401700B740D120B8FCD
:1031430085820A85830B780A120916AC08AD09EE4D
:10315300FAEFFB120BCC7402120929E9F50CEEFA13
:10316300EFFB120BF6A90C741A120929022FB812DD
:103173003445120C0222123E791248ED22C082C05D
:1031830083780079008003123270122F38E89AE9AD
:103193009B5029E8FAE9FBEA75F00BA4FAACF07549
:1031A300F00BEBA42CFB900336E02AFCA3E03B8C52
:1031B30082F583E0540F70CF790080027901023CDD
:1031C300E2C082C083902AEE124943EC75F012A448
:1031D300FCA8F075F012EDA428FD79FF7A267B098F
:1031E3001216D6023CE274F7120414E9FEEAFF7ADF
:1031F300007B00780079008028E8FCE9FDEC75F09D
:1032030012A4FC85F00875F012EDA425081236858A
:10321300C39E400AE0FCEFC39C40031237A4123262
:103223007012367940D3023E6EC082C08378007933
:10323300008003123270123264501F123689F47008
:10324300F2E875F012A4F8AAF075F012E9A42AF9CD
:10325300742628FA740939FB80047A007B00023C47
:10326300E2902AEE12373AC3E89AE99B22E8240156
:1032730008E93400F92274F012041474F31209A754
:103283008A0A8B0B8C0C8D0D8908EC450D6016AAF0
:103293000CAB0D120C508A0E8B0FAE0EAF0FEE4F10
:1032A3006003023337120C268A0E8B0FA80EA90F68
:1032B300E8FEE9FFE849607C902AFC12339960221A
:1032C3007403650860067404650870167A0479034C
:1032D300120C20902AFC1233B040077A007B0002C4
:1032E3003396902AFA123399601B740165086006BD
:1032F30074026508700F7A027901120C20902AFA81
:103303001233B050D68518828519837401F0120BDD
:103313008F125929AC0CAD0D7403120B8F12343E6E
:10332300740B120B8F123CFC1242F1E4125911126E
:1033330011008004EE4F604A780074FF2508C3949F
:1033430004500278048E828F831259298E828F83D0
:10335300A3A3A3A3E508F0E88E828F83A3A3A3A36B
:10336300A31259311202371237518E828F83A3A3CE
:10337300A3A3A3A3A3F0123748120B6C125EA912E6
:103383000B7812339E4005900E82E4F0120FDAEEB2
:10339300FAEFFB0248F7125A4B49227A04790012DA
:1033A3000C20902AEE126565EA98EB99221233C934
:1033B30075832A7582EEE493C398F8A3E49399F98D
:1033C300C3EA98EB9922E493F8740193F92274F217
:1033D30012041474F31209A78A088B09ECFEEDFF9B
:1033E300750A00EEFAEFFB120C508A0C8B0DA80C39
:1033F300A90DE849603E88828983E065087004A3CB
:10340300E06509602F88828983A3A3A3A3E0C39403
:10341300055021125D578518828519837401F012B6
:103423000B8F125D5BEEFCEFFD7403120B8F1234F6
:103433003E750A01A90A740D0253F5123445120CA4
:103443000E22AA82AB83120BD8851882851983AA10
:1034530082AB832274F6120414123493600FA3A375
:10346300A3A3E014C39404500479018002790002F9
:103473003F1A74F6120414123493600FA3A3A3A388
:10348300E014C394025004790180027900023F1AC8
:10349300120C4A8A828B83E58245832274F61204D6
:1034A30014123493600BA3A3A3A3E07004790180E7
:1034B300027900023F1AC082C083EAFCEBFD7A0066
:1034C3007B00023CDFC082C0837C007D00023CDFC6
:1034D30074F412041474F31209A7EAFEEBFF8C0AC6
:1034E3008D0BC3EC94F8ED94FF4007EE4F7003028D
:1034F300358C750800750900802E8518828519831F
:103503007401F01238F7120B8F123905601374032C
:10351300120B8FAC82AD83EEFAEFFB121FF4E9704E
:1035230049E5082401123725902AEEE4125A53E59F
:103533000898E509995052E50875F012A4F8AAF025
:1035430075F012E509A42AF912659860D4EE4F705C
:10355300A974FF650A700474FF650B60C41238E731
:10356300650A7004A3E0650B70B7E50875F012A453
:10357300F508A8F075F012E509A428F509742625C5
:1035830008FA74093509FB80047A007B000240B60F
:1035930074F412041474F31209A7750800120C5082
:1035A3008A0A8B0BAE0AAF0BEE4F602A8518828511
:1035B30019837401123E73F8A3E0F9740B120B8F95
:1035C300123F94120BF07C127D0079FFEEFAEFFBB1
:1035D3001216D675080112339E5009900E8274019B
:1035E300F0120FDAA9080240B674F7120414E9FEC8
:1035F30074FE6A700374FF6B780079007005805263
:10360300123270123679504AE8FCE9FDEC75F0127B
:10361300A4FCAFF075F012EDA42F123685F460E030
:10362300E8FCE9FDEC75F012A4FC75F012EDA42F93
:10363300FD74262CF58274093DF583E06A7003A3BB
:10364300E06B70BC800912368914C39404401712CE
:1036530032701232645018EE70EC123689640160D5
:1036630005E0640370E91238D8FAA3E0FB80047A1A
:10367300FE7BFF023E6E902AEE124947C3E89CE9A7
:103683009D221237D922E8FAE9FBEA75F012A4FA6F
:10369300ACF075F012EBA42CFB742A2AF5827409A2
:1036A3003BF583E022120C62023CE2C082C08379C4
:1036B3000180F274F01204148A0A8B0B7A047901E4
:1036C300120C208A0C8B0DEA450D603EEAC333FAD7
:1036D300EB33FB1217968A088B09AE08AF09EE4F3E
:1036E30060237AFE7BFF120C6874FE6A700374FF1A
:1036F3006B601B850882850983123E7EE5082402E0
:1037030012372580E1750C0080047E007F00850A56
:1037130082850B83E50CF0EEFAEFFB0248FCE5082B
:103723002407F508E5093400F50922902AEE124929
:1037330047C3EA9CEB9D22E493FA740193FB2212A4
:1037430016CA740322125EBAE4F090819522E88EC1
:10375300828F83A3A3A3A3A3A3A3A3123773740189
:10376300123773A3F0EE2410125EBDE4F0A3F0222F
:103773001242FDA3A3A322C082C0837A007B0080F0
:1037830004191237A412372E50101237C3C39405ED
:1037930050F0E970EC1237AD80047A007B00023CF4
:1037A300E2EA24010AEB3400FB22EA75F012A4FAE0
:1037B30075F012EBA428FB74262AFA74093BFB224A
:1037C300EAFCEBFDEC75F012A4FCA8F075F012ED29
:1037D300A4281237D922FD742A2CF58274093DF5E9
:1037E30083E02274F712041474F31209A77E007F96
:1037F3000002388BE50875F017A4F8A9F01267F9F1
:10380300FAA3E0FBEEF8EFF9E875F012A4F8ACF0D8
:1038130075F012E9A42C1238E66A7003A3E06B601A
:103823003FE50875F017A4F8AAF0EA1267F8F8A3C1
:10383300E0F97401120B8FE0687003A3E069602064
:10384300E50875F017A4F8EAF974A228FC740A399C
:10385300FD7403120B8FAA82AB83121FF4E9601469
:10386300E50875F017A4F8A9F074A028FA740A39CA
:10387300FB12110C0508902B00E493F8E508C3989C
:1038830050030237F71238CF902AEE126B3F5039AC
:10389300EEF8EFF91238D8F47003A3E0F460E6858C
:1038A30018828519837401F0EEF8EFF9E875F012C8
:1038B300A4F875F012E9A42AF91238F7120B8F1243
:1038C300390560C175080080AD023E69EE24010E22
:1038D300EF3400FF22E875F012A4F8AAF075F01295
:1038E300E9A42AF91238EB22742628F582740939DF
:1038F300F583E022742828F5827409391248EB74A1
:103903000B22E8F0A3E9123F9C120C08E922C082C3
:10391300C08390033D74CCF0A3740EF090033F7406
:10392300C6F0A3740EF090034374E6F0A3740CF096
:10393300023CE274F7120414EAFEEBFF900377E013
:103943006408601BE0640460168E828F83E0540376
:1039530064017048123CEF1243F2E06406703D8E3E
:10396300828F83A3A3E064FE7003A3E0F4602D8E33
:10397300828F83A3A3123F05900368E0687003A3BB
:10398300E069700BEE2415F582EF12657F60081273
:103993000F7AE9F5088008120F8080F67508C2EEE9
:1039A300FAEFFB12179C022E3A74F41204148A08DD
:1039B3008B098A828B83E0F8A3E0FAE82AFAE434DD
:1039C30000FB1217968A0A8B0BAE0AAF0BEE4F6001
:1039D30063850882850983E0FC7D0079001216D691
:1039E3008E828F83A3A3126EB4120FBC8E828F8339
:1039F300A3A3A3A3123E7E850882850983E0F8EE84
:103A030028F8EF3400123F0D850882850983A3E06F
:103A1300C0E0EE240D125EACD0E0F0120FCEEE2427
:103A23000E125EACE912555EE0C0E0EE2411125EA8
:103A3300ACD0E0F0EEFAEFFB0240BB74F4120414D6
:103A430074EB1209A78A088B098C0A8D0BE9FE9087
:103A53000377E064046005E06408700479C2802E93
:103A6300A37808120B50EE90037E123CE9120B5020
:103A73007405120B8FE9F07404120B8F7401F07448
:103A830007120B8FE4F09003777402123C7D7415D8
:103A93000240B874F612041474EB1209A7EAFEEBA1
:103AA300FF1251806003023B3A7A077B001217969C
:103AB300900339123E7E12518060788E828F83127A
:103AC3000B6C90033A1243F5120B78126D78C0E039
:103AD300123B46D0E0F0EE2405FAEF3400FB8A08EF
:103AE3008B098A82F583E0C0E0123B41D0E01240AB
:103AF300B2E0C0E0123B41A3D0E0123EF2120B6CE5
:103B0300851882851983120B7888828983E0C0E047
:103B13007405120B8FD0E0F0850882850983E0C01D
:103B2300E07404120B8FD0E0F07407120B8F123C79
:103B33007C80067910800279017415023F17123BCD
:103B430046A322900339E0FAA3E0F5838A82A3A374
:103B5300A3A322C082C083125180600D9003391247
:103B63005A8A900339E4F0A3F0120EEA1210AC0261
:103B73003CE274F012041474EB1209A7ECFEEDFF9F
:103B830089087425120B8F780C120B327429120BCF
:103B93008FE0F9742A120B8FE0FC742B120B8FE069
:103BA300FD740F697005740F6C6012900EEBE06486
:103BB30002700579C1023C77E9C39C40F690037813
:103BC300780C120B50E50890037EF0E990037CF02B
:103BD300ECA3F0ED90037FF074FF6A700374FF6B46
:103BE300701D900EF6E0F47003A3E0F47005121656
:103BF300EE800C900EF6123E46E8F0A3E9800790A3
:103C03000375EAF0A3EBF0EE4F6017EEFAEFFB1249
:103C1300116CE96401700BEEFCEFFD7A897B0312F2
:103C23001FFA900368E4F0A3F090036BF0A3F09005
:103C33000388F0900EEBE06402700890037C740F2D
:103C4300F0A3F09003777405F014120B8FE4F09057
:103C53000378120B6C851882851983120B789003F5
:103C63007EE0C0E07405120B8FD0E0F07407120BF6
:103C73008F123C7C74150248F9E4123F9C12202AEF
:103C830022C082C083900338E07003121A7E120CA4
:103C9300B0804CC082C083900338E0900E817004E2
:103CA300E4F0802D7401F0900338E0F460237C414C
:103CB300E0C394415002E0FCECF8E0C398F0EC75EB
:103CC300F0E8A4CCA8F075F003A428FD7A8012498B
:103CD3004F7A817B0E79411220128003120C56D049
:103CE30083D0820208DB123EFD780822EE125EBB0F
:103CF30022E0F508A3E0F50922123D002212307AF2
:103D0300A32274F512041474E21209A7851882859C
:103D13001983ECF0A3EDF0EAFEEBFF890874291296
:103D23000B8FE0F509742C120B8FE0F50A900377E3
:103D3300E064046005E06408700579C2023E3774EC
:103D43002A120B8FE064FE7003A3E0F4700579C3BD
:103D5300023E379003777403123F98795012201272
:103D6300742A120B8FAA82AB83794B122012851807
:103D730082851983123E46123F11E50890036AF0CB
:103D8300742A120B8F123E3F123F11E50990036212
:103D9300123E4D74CE55094480C0E07412120B8F4D
:103DA300D0E0F07401250A900388F0740F120B8F92
:103DB3007402F0742A120B8F123F057407120B8FD3
:103DC300E8F0A3E9123E847410120B8F123F1174B2
:103DD30005120B8FE508F0741B120B8FE4F09003B0
:103DE3007D740FF07A7D7B03795412201290037C4B
:103DF300740FF07A7C7B03794712201290037CE0E6
:103E0300C3940F50237405120B8FE0C0E0740212A9
:103E13000B8FD0E0F07404120B8F7401F004120BBB
:103E23008FAA82AB831220367405120B8FAA82AB42
:103E330083122018741E120929022D011248ED90D5
:103E4300036B221248ED90037522F0EEFCEFFD7A2E
:103E5300897B03121FFA2274F7120414EB90037F79
:103E6300F0120ED88005740D1209297F0102062D68
:103E7300123E79A3E022123EF2A322EAF0A3EBF072
:103E830022123EF8F8A3E0F92274F712041474F82E
:103E93001209A7EAFEEBFF7900900377E06408704C
:103EA3004485188285198374FDF0A374FFF0120F03
:103EB300B67402120B8F123E7E7405120B8FE4123E
:103EC3003E79E0C0E07404120B8FD0E0123EEDC0E7
:103ED300E07406120B8FD0E0F07407120B8FE4121C
:103EE3003F98120FF87408023E6B123EF2E022F084
:103EF3008E828F8322123EFDE022F085188285197F
:103F030083221248ED22E0F8A3E0F9125EBAE8F04A
:103F1300A3E9F0221209297F0202062DC082C08381
:103F23009003497476F0A3740DF09003EF7452F08C
:103F3300A37410F090034D74ACF0A3740DF09003D0
:103F43004F7476F0A3740DF090035174B2F0A37420
:103F53000DF0023CE274F412041474F91209A78AF6
:103F6300088B098C0A8D0B851882851983780812B2
:103F73000B507404120B8FE9F07405120B8FE4F0ED
:103F83007406120B8FE4123F98120C9874070240C8
:103F9300B8E8F0A3E9123F9C22123EFDAA82AB834C
:103FA3002274F41204148A088B098A828B83125EAA
:103FB300C8EE4F70030240B0900312125183601594
:103FC3008A828B83A3A3E0F9EEFAEFFB900313122B
:103FD30043F51221F78E828F83A3A3A3A3A3A3A3E5
:103FE300A3A3E0640270748E828F83A3A3A3A3A30D
:103FF300A3E054027003024082850882850983A3EB
:10400300A3E064E960798E828F83A3A3A3A3A3A310
:10401300A3A3A3A3E07014900EEEE0048E828F831B
:10402300A3A3A3A3A3A3A3A3A3A3F08E828F83A37A
:10403300A3A3A3A3A3A3A3A3A3E0141240B2A3A384
:10404300A37404F0900EEF125903E8F0A3E9126988
:10405300DC8B0BEA450B70031263BA8E828F83A34A
:10406300A3A3A3A3A3A3A3A3E0640260128E828FDE
:1040730083A3A3A3A3A3A3A3A3A3E06406702E8E89
:10408300828F83A3A3A3A3A3A3E0A2E0501F850869
:1040930082850983A3A3E0F9EEFAEFFB1220D88E01
:1040A300828F83A3A3A3A3A3A3E054FEF0800912EA
:1040B30042F922740D1209297F0402062D74EC12B1
:1040C300041474DD1209A7EAFEEBFF8C088D097452
:1040D30037120B8F780C120B32750A007405120B12
:1040E3008FAC82AD8312211A7412120B8FE0700809
:1040F3007415120B8FE060207405120B8FE0A2E69B
:10410300501E8E828F83A3A3A3A3A3A3A3A3A3124F
:1041130055FD12102EE960087903121FE20242DFF7
:104123007405120B8FE0540C64047005750B018049
:1041330003750B00E0A2E55035750A01E50BA2E01B
:10414300402C120FBC8A108B11A810A911123CEF3E
:10415300E0687003A3E06960157405120B8F126E9B
:10416300BB1255F91220E4E96004790480AC7405AC
:10417300120B8FE0A2E650227406120B8FE0540359
:1041830070187405120B8FE0540C640C600CE0542F
:104193000C64086005751001800375100074051226
:1041A3000B8FE05403F8740268700C126EBB125547
:1041B300F9120BA20242DF740168703AE510A2E023
:1041C30050031242E77405120B8FA882A98374036C
:1041D300120B8FE8F0A3E91248E185188285198351
:1041E3001242F1E0C0E07402120B8FD0E0123F984C
:1041F3001221C80242DFE860030242DF90035FE05E
:10420300640170108E828F83A3A3A3A3A3A3E07082
:104213000302416D7422120B8F74021248E1741A67
:10422300120B8F123F11E510A2E050087405120B18
:104233008F1242E7E50BA2E0506AEE240FF582EFFE
:1042430012657FC0E07417120B8FD0E0F090031457
:1042530012518370030242DF120FBC8A128B13A820
:1042630012A913741A120B8FE0687003A3E069702C
:104273006B780C12090E780A12091A7808120916BB
:10428300A910740C120B8FAC82AD837421120B8FA7
:10429300AA82AB839003141243F21221F77407121C
:1042A30009298038780C12090E780A12091A78083D
:1042B300120916900375120763EE2412F582EF12AA
:1042C30062AD7423120B8FAC82AD83740E120B8F0D
:1042D300AA82AB831220CC74091209297423120910
:1042E300290269A7126EBB125A9812211422E8F010
:1042F300A3E91242F9221242FD22F08E828F83A398
:10430300A3A3A3A3A32274F7120414121952023E07
:104313006E74F7120414121958023E6E74F71204E5
:1043230014121964023E6EC082C08312195E023CED
:10433300E274F712041412196A023E6E74F712043F
:10434300147409120B8FE0F508780812091A121970
:10435300767401023E6BC082C083121982023CE272
:10436300C082C083121988023CE274F7120414124B
:10437300198E023E6E74F7120414EAFEEBFF8908ED
:104383007401650870147900120DEE902B0BE49301
:10439300FC7900EEFAEFFB120D64023E6E74F41228
:1043A300041474F91209A7E9FE8A088B098C0A8D93
:1043B3000B7413120B8F1255FD90059A12518360E3
:1043C30027EE851882851983F07401120B8F780804
:1043D300120B50EAF8EBF97405120B8F123F94900D
:1043E300059A1243F21221F7023F8FFB90034BE031
:1043F300F8A3E0F583888222C082C0831219C40225
:104403003CE274F7120414900E84E0F97E00800BF2
:1044130012656B540D64017001190E1245FF5003B0
:10442300E970ED023E6E74F7120414900E85E0F904
:104433007E00800B12656B548D64817001190E121E
:1044430045FF5003E970ED023E6E74F212041489C5
:104453000BE975F006A4240CF508E5F01237298A58
:104463000CE508250CFAE5093400FB1217968A0CB3
:104473008B0DAE0CAF0DEE4F6027AC08AD09790084
:104483001216D6123CEFE50BF0EE2508F8EF3509CE
:10449300F98E828F83A3A3A3A3A3A3A3A3A3123FF2
:1044A30011EEFAEFFB0253F874F6120414EAFEEB72
:1044B300FF120D40900E83E0F8E9C3984009900382
:1044C300451255FD120D46EE2402F8EF125C0D90D5
:1044D3000347125AC7900347E004F0EEFAEFFB12CA
:1044E3000D4C850882850983E00260C3C082C083C6
:1044F30079009003458001091255FD8A828B83E57B
:1045030082458370F2023CE274F7120414EAFEEB74
:10451300FFEE4F6056900345125183604E888289A7
:10452300837A007B00EE65827003EF6583600FAAD8
:1045330082AB83124571E5824583602F80E7900348
:104543004512457D687002EF698E828F8370081271
:104553003F0590034580031269B9123F11EEFAEF4C
:10456300FB122198EEFAEFFB12179C023E6E1245E6
:1045730075221248F188828983221248EDEE22C007
:1045830082C08390034580048882898312518360AB
:104593000B88828983124C35EC4D70EC8A828B83B5
:1045A300E4F0A3F0E84960068882898380039003DE
:1045B30045123E7E023CE274F712041490034580D8
:1045C300048A828B831245FA4B60257E0080010E9C
:1045D3001245FF50ECEE75F006A4FCADF0EA2CFC9E
:1045E300EB3DFDEC2410F582ED12464F70E18004A3
:1045F3007A007B00023E6E125A9CEA22124658EE63
:10460300C3982274F71204147D0080010D124654DE
:10461300EDC3985034ED75F006A4FEA8F0E8FFEA68
:104623002EFEEB3FFFEE2410F582EF12464F70DCB7
:10463300ED75F006A4FEE8FFEA2EFAEB3FFBEA2451
:1046430011F582EB12657F4CF0023E6E12658B69A9
:104653002212465822126EC5EB3400F583E0F8228D
:1046630074F6120414120E667A007B008025EAF8B1
:10467300EBF9E875F006A4F8ACF075F006E9A42CA4
:10468300125A71126D86A3E4125B67F0A3126D8C4C
:10469300126F03902AF61233A840D37A007B00806E
:1046A3001C8A088B0974037808120ABE125525A3C5
:1046B30074FEF0A304125947A3E4126F03902AFF78
:1046C30012470240DC7A007B00801D8A088B097444
:1046D300037808120ABE74C81261F7740D126A3E99
:1046E30074FEF0A304126F03902B0512470240DB04
:1046F300902B09E493900353F012470C023F1AE402
:1047030093F8C3EA98EB9400227CE87D037A107B4C
:10471300009003C2E0F912185C2274F012041474BE
:10472300F51209A78A088B09890A8C0BE9A2E050C4
:10473300147508FC7509FFA2E15005D2E40247DFB6
:10474300D2E30247DF1253E47003A3E069700579F3
:10475300000248ACAC0A7902AA08AB09120E42E97E
:1047630060EDE50AF50C780C12091A79027CFE7DDE
:10477300FFAA08AB0912515F120929E96003024835
:10478300AAE50AC2E5F50A9003B5E07051E50AA26D
:10479300E6404B7403120B8FAC82AD83AA08AB09BE
:1047A300120BE4E97032124A808A0C8B0DA80CA913
:1047B3000DE8FEE9FFE8496025EE24020A0AEF123C
:1047C30030B8601AEE2402FCEF3400FD7403120BC0
:1047D3008FAA82AB83121FFAE50AD2E5F50A90038A
:1047E30048E0F50C900368E0F50EA3E0F50F780EB2
:1047F3001209167D017C00900348E0F9AA0EAB0F65
:10480300120DFA7402120929E9F8900348E004F042
:10481300E860030248AAE50AA2E55004740E800288
:104823007406C0E07401120B8FD0E0125ED98A0EB9
:104833008B0FAE0EAF0FEE4F60691248CA1248E1FC
:10484300888289837401F07478550AA3126ECBE5CC
:104853000C126ECBA3E508F0E5091248B9E4F0E5C4
:104863000AA2E5500F7403120B8FAC82AD83E824C8
:10487300061248B08E828F83A3A374FDF0A374FF46
:10488300F0E50B6015902B0CE493F8E50BC39850FF
:1048930009EE2413125EACE50BF0EEFAEFFB120CFB
:1048A3008680067910800279C7740B8049FAE9344F
:1048B30000FB121FFA2288828983A3A3A3A31248B1
:1048C300C522125C40A322EE2417125EBD7401F0D0
:1048D300120FB6EE241A125EBDEAF0A3EB22F01219
:1048E3006EBF34001248EB22F5831248F122E0F840
:1048F300A3E0F922740D1209297F0802062D74F62C
:104903001204147A007B101263C760089003D474F6
:1049130001F0802990063BE06401900EEC7006E004
:10492300FC79018004E0FC79037A007B00120D64BA
:10493300902AF41249437A007B10124951023F1A1C
:1049430012494722E493FC740193FD227B009003F8
:10495300C2E0F91218562274EC1204148A088B0967
:104963008C0C8D0D890E7414120B8F12533E74161A
:10497300120B8FE0F510A3E0F51112102EE960077A
:104983007AFF7BFF024A7D900EEBE0640260030234
:104993004A707900AA08AB09120E48A90E120E3C00
:1049A3008A128B13AE12AF13EE4F7003024A588E66
:1049B300828F83A3A3A3A3A3E064018E828F83A327
:1049C300A370691255FD8E828F83A3A3A3A3A3A310
:1049D300E054186043902B0AE4938E828F83A3A341
:1049E300A3A3F0EA650C7003EB650D6014EA650A96
:1049F3007003EB650B600AEA65107003EB651170D9
:104A03001F7810120916AC0AAD0BAA0CAB0D1211CC
:104A13002A740212092980089003671263B1A3F074
:104A230074FE6A700374FF6B601D804EA3A3A3E042
:104A3300640360298E828F83A3A3A3A3A3E06404EA
:104A430070057AFE0249858E828F83A3A3A3A3A355
:104A5300E0640270089003B4E064027010124A80AC
:104A63008B0BEA450B6006AA08AB09800DAA08ABBD
:104A7300099003491243F21221F70269A7900375C3
:104A83001251651210EE2274F7120414EAFEEBFFC2
:104A9300120C38E9700AEEFAEFFB120C44E96006D7
:104AA300EEFAEFFB80047AFE7BFF023E6E74F01297
:104AB30004148A0A8B0B8C0E8D0F8909750800125A
:104AC300102EE979006003024C27AA0AAB0B120EE1
:104AD30048A909120E3C8A0C8B0DAE0CAF0DEE4F9C
:104AE30060198E828F83A3A3A3A3A3E064027055EE
:104AF3009003B4E064027003024C25AA0AAB0B9046
:104B0300034F1243F21221F7120C4A8A0C8B0DA8A1
:104B13000CA90DE8497003024C2588828983A3A35D
:104B2300A3A3A3E0A2E04003024C25750C01A2E17C
:104B330050687901AC0AAD0BAA0EAB0F120D94E9C4
:104B43007064024C258E828F83A3A3A3A3A3E06486
:104B5300037005750C0280528E828F83A3A3A3A3D7
:104B6300A3E064016003024C25900375124C358E5B
:104B7300828F83124F8A8A0C8B0DA80CA90DE849EA
:104B830060D1902B03E493FA88828983E0C39A501F
:104B9300C2A3E06003024C2580B988828983A3A362
:104BA300A3A3A3D2E1F0EE4F603A8E828F83A3A337
:104BB300A3A3A3A3E05418602B7508018E828F83EF
:104BC300A3A3120763750CFE750DFF780C1209166B
:104BD3007900AC0AAD0BAA0EAB0F120E5A74041275
:104BE3000929803E900368E0650E7004A3E0650F19
:104BF3007014902B0BE493FCA909AA0AAB0B120DBA
:104C030064750801801CA90CAC0AAD0BAA0EAB0F8E
:104C1300120D94E9700C750801A909AA0AAB0B12CD
:104C23000DEEA9080248FCE50C2415F582E50D12EA
:104C33005EC012591D2274EA12041474F01209A7FB
:104C43008A0C8B0D8C088D097426120B8FE0F514DA
:104C5300A3E0F5157512069003F5125183602390B6
:104C63000375124C35AA08AB091211188A108B115F
:104C7300EA4511600D8A828B83A3E07005790002F7
:104C83004F72E50C241DF50EE50D3400F50F850E6E
:104C93008212516FF51388828983A3A3A3E0FA8854
:104CA300828983A3A3A3A3E0F9EA2400FEE439FFE6
:104CB300AA08AB09120DF4850E82850F83124FAD3E
:104CC300E029F50BE50AA2E5500375120E7487552A
:104CD3000A70177418550A6418600FE50C2417F549
:104CE30082E50D12657F651260077901121FE2806C
:104CF3008C530A78C3EE94F8EF94FF501D7900EEBD
:104D0300FAEFFB124F7C601288828983A3A3A3A3CB
:104D1300A3A3E054186003024C8078081209167D9F
:104D230000124FA0120929E9F87403687003024CBA
:104D330080E86003024DEB7418550A7003024EA01D
:104D4300E50AD2E0F50AA2E45004D2E1F50AA90A81
:104D53001255F6124F7C605388828983A3A3A3A3C1
:104D6300A3A3E05418604488828983A3A3A3A3A3C5
:104D7300E064017036E51045116030900375124C04
:104D83003588828983124F8A8A0E8B0FA80EA90F4A
:104D9300E849601788828983A3E0600F85108285C4
:104DA3001183A31260CE5003024C80E50AF50E78FE
:104DB3000E12091A124F93120929E9702B7C007DF8
:104DC3000085148285158374FFF0A3F0850C82851A
:104DD3000D83A3A3A3A3A3A3A3A3E06003124C2A5D
:104DE300A90B1255F612197C851482851583E0F4FC
:104DF3007003A3E0F460399003B4E064027003022B
:104E03004C8012532FE0FAA3E01243EE1221F7EA8B
:104E130065087003EB65096003024C80EEFAEF123C
:104E230043EE1221F7851482851583EAF0A3EBF094
:104E330078081209167D01124FA0120929A90AEE5A
:104E4300FAEFFB120E488A088B09A808A9099003F8
:104E530068E0687003A3E0696003024F63EEFAEF52
:104E6300FB120C4A8A088B09A808A909E849606E55
:104E730088828983A3A3A3A3E06401600D88828948
:104E830083A3A3A3A3E064027054851882851983C6
:104E9300AC82AD83EEFAEFFB120BE4805590036115
:104EA300E0600FE50AF50E780E12091A124F9312FD
:104EB3000929E50AF50E780E12091A79027CFE7D9E
:104EC300FFEEFAEFFB12515F120929E96003024D6D
:104ED300EB85148285158374FFF0A3024E32120F03
:104EE300B6EAFCEBFD851882851983AA82AB83128F
:104EF3001FFA850C82850D83A3A3A3A3A3A3A3A356
:104F0300E06401700F124C2A7408120B8FAA82AB53
:104F130083121FFA125139125D454430F50878089F
:104F230012091A7401120B8F858208858309780888
:104F3300120916740B120B8F858208858309780872
:104F4300120916E513F508780812091A7900EEFC20
:104F5300EFFD1255F6120D8E7406120929024C80CC
:104F6300125139125EAF124FADE50BF0120FCE7432
:104F7300101209297F0E02062D120E3C8A0E8B0F8A
:104F8300A80EA90FE84922A3A3125A9C12111822B2
:104F93007901AC08AD09125A9112515F22AC0BA9E9
:104FA30013125A91120DFA740222125D4DA3A3A398
:104FB300A32274F012041474F01209A78A0C8B0D47
:104FC300ECFAEDFB750F089003F512518360141290
:104FD30060C78A828B83E58245836007A3E0700301
:104FE300025134125139340012516FF50B88828902
:104FF30083125142E0FBEC2400FEE43BFF888289EC
:1050030083A3A3125142A3A3E0FBECF508E43BF511
:105013000988828983A3A3A3A3A3A3A3E0F50EE531
:105023000AA2E45003750F10A2E550067408250F79
:10503300F50F748F550A700FE50C2417F582E50DF3
:1050430012657F650F60087901121FE20251345324
:105053000A707800E50AA2E4502212513912657FE2
:105063002408FCA3E03400FD7408120B8FAA82AB62
:1050730083121FFA7808E50AC2E4F50AE50AA2E5F5
:10508300502812513912657F28F8A3E03400F9E85B
:105093002408FCE93400FD851882851983AA82ABB4
:1050A30083121FFAE50AC2E5F50AAC0EA90BEEFA64
:1050B300EFFB120E00E9F87403686075900368E073
:1050C3006E7003A3E06F605EE87054E50AF50F7835
:1050D3000F12091A125150120929E97054780A1251
:1050E300091A7401120B8F85820C85830D780C12BB
:1050F3000916740B120B8F85820C85830D780C12A5
:105103000916E50BF50A780A12091AA90EAC08ADBF
:1051130009EEFAEFFB120D8E740612092980127440
:105123000468700D80B7780A12091A1251501209D7
:105133002974100248F9E50C241DF582E50D22A31C
:10514300A3A3E0FC88828983A3A3A3A322790112EA
:105153005336125EC012516512515F22120DB8749C
:105163000122E0FCA3E0FDAA08AB0922F583124566
:1051730075A3E0F50A88828983A3A3E0229003390B
:10518300125AF82274E812041474F51209A7EAFEFD
:10519300EBFF8C088D0989147423120B8FE0F50F34
:1051A3007424120B8FE0F512A3E0F5137426120B8F
:1051B3008FE0F516A3E0F5177428120B8FE0F50EB8
:1051C300A90F120E068A108B117401120B8F74082B
:1051D300F0E50EA2E450037410F0E50EA2E55004CE
:1051E300E02408F0851882851983AA82AB83121004
:1051F300168A0C8B0DEA450D7003025316EA241729
:10520300F582EB125328120FB6E50C241AF582E54A
:105213000D125EAF123E7E7403120B8FAC82AD8310
:10522300AA10AB11120BE4E9601D12532074031290
:105233000B8FA882A983E50C2418F582E50D125E75
:10524300AFE8F0A3E98024E50EA2E4501FE5106E59
:105253007003E5116F7015125320E50C2418F582C5
:10526300E50D125EAFE512F0A3E513F012532F1212
:10527300533E850A82F5837402F0A3E50E1253466A
:10528300E50FF0EE850A82850B83A3A3A3F0EF85D8
:105293000A82850B83A3A3A3A3125346A3A3A3E567
:1052A30008F0E509850A82850B83A3A3A3A3A3A31F
:1052B300F0AA10AB11120DF4E92514850A82850BAF
:1052C30083A3A3A3A3A3A3A3F0750800E50EA2E4FD
:1052D3005011AC12AD13E50A2408FAE50B1248B2DB
:1052E300750808E50EA2E55014AC16AD17E50A25BE
:1052F30008F8E50B3400F9E824081248B0850C825D
:10530300850D83A3A3E510F0A3E511F0AA0CAB0D63
:10531300120C86740B1209297F1002062DE50C244A
:1053230016F582E50D125EC07401F0221253361297
:105333005EC022E50C126EC6E50D22E0F50AA3E07D
:10534300F50B22F0850A82850B83A3A32274F21244
:1053530004148A088B09ECFEEDFF890A79001253C5
:10536300E47003A3E069700479018073750B019005
:105373000368E065087004A3E06509601F750B000E
:10538300780B12091AA90AEEFCEFFDAA08AB091261
:10539300106A7401120929E9F50B80417900EEFACC
:1053A300EFFB120E3CEA4B602B8A828B83A3A3A3F1
:1053B300A3A3A3E05418601C7508FE7509FF7808C1
:1053C3001209168A828B83A3A3120763126CDB1262
:1053D300092980097901EEFAEFFB120D16A90B805A
:1053E30014120E488A0C8B0DA80CA90D900368E0CB
:1053F30068221209297F0602062D74F4120414751B
:10540300081075090C7A101269E38B0BEA450B70CF
:105413000312470C900353E014F0700C902B09E433
:1054230093900353F0120E547E007F00806C850826
:1054330082850983A3A3A3A3E06059F46056E5081A
:105443002404F582E5091263AB7049850882850956
:1054530083A3A3A3A3A3E06403701979028508823D
:10546300850983124C35850882850983A3A31255C8
:10547300FD120D94850882850983A3A3A3A3A3E04A
:105483006401601085088285098374FEF0A3041209
:105493005557E4F01238CF123721902AF8126B3F98
:1054A300408C7E007F008039120F5C8E088F097458
:1054B300037808120ABE74882508FC740D3509FDAB
:1054C3007AA07B0D120F4AEA4B70DD8E088F0974A8
:1054D300037808120ABE125525126D86E4F01238BD
:1054E300CF902AFFE493F8C3EE98EF9400501B8EFD
:1054F300088F0974037808120ABE12552DE8240791
:10550300F582E91263AB70D680A17E007F00800A2A
:10551300125538600214F01238CF126B3C40F1027E
:1055230040BB12552D888289832274882508F8741C
:105533000D3509F922EEF8EFF9E875F006A4F8AA9B
:10554300F075F006E9A42AF9742828F582740D3958
:10555300F583E02212555EA3A3A322F0850882857A
:105563000983A3A32274F712041474E11209A7ECAC
:10557300FEEDFF750800EE4F60728A828B83E02494
:105583001C1263DC12518360638A828B831255FD84
:10559300851882851983AC82AD83EA241BF582EBDF
:1055A3001262ADEA241CF582EB1255F9120F9E74B8
:1055B3000B120B8F1256017003A3E069702E740255
:1055C300120B8FE064017024741D120B8F1243F2CF
:1055D300E064017017741D120B8F1243F4A3A3E050
:1055E300F88E828F83E0687003750801A908741F21
:1055F300023E6B1253363400F583125A9C2212304A
:1056030076E0682274F4120414E97024790090039C
:105613004D1243F21221F78A0A8B0BAE0AAF0B74B9
:10562300FE6E700374FF6F701A902B06E493601381
:10563300790190034D1243F21221F78A0A8B0BAEC4
:105643000AAF0B120FDA023A3774F612041474F32A
:105653001209A71216EE8A088B09AE08AF09900348
:1056630068E06E7003A3E06F60E9120FC2EA6E7028
:1056730002EB6F60DEEEFAEFFB12102EE970D4EE50
:105683004F60D0851882851983E4F004120B8FEEE6
:10569300F0A3EF1256AFE970BA74FE6E700374FF95
:1056A3006F60B0EEFAEFFB740D023F17123F9C12CE
:1056B3000BFC22C082C083120FDA023CE27F0A0293
:1056C300062D74F2120414EAFEEBFF8C0A8D0B898B
:1056D30008740E120B8FE0F50974FC6E700374FFEF
:1056E3006F700579000253F87900120E488A0C8B0B
:1056F3000DAE0CAF0D900368E06E7003A3E06F7006
:1057030006E509A2E650DCA909126BC970617900AC
:105713007AFE7BFF126BC970567418550970030229
:1057230057FC780079008003123270902AF8123205
:105733006740030257FCE8FAE9FBEA75F007A4FAAD
:10574300ACF075F007EBA42CFB74162AF582740CED
:105753003BF583E0541870D0E875F007A4F8AAF07D
:1057630075F007E9A42AF9741028F8740C39F9883C
:10577300828983A3A3A3A3A3A3E054186009741885
:10578300550970030256E688828983EEF0A3EFF091
:1057930074FE650A700474FF650B60031259238855
:1057A300828983A3A3A3A3A3A3E509F0A2E0500DD9
:1057B30088828983A3A3A3A3A3A3D2E2F074016580
:1057C3000888828983A3A3A3A3A370387401125901
:1057D30047E054186028902B0AE49388828983A3B6
:1057E300A3A3A31259111211188B0DEA450D6003DF
:1057F3000256E678007900803979020256E8900370
:1058030067E080D7E0640170030256E688828983EB
:10581300A3A3A3A3A3A3E054186007902B0AE493C4
:105823008004900366E01248B9E508F00256E612D8
:105833003270902B00E493FAC3E89AE99400400392
:105843000256E67A007B00804BEAFCEBFDEC75F038
:1058530007A4FCAEF075F007EDA42EFD74122CF531
:1058630082740C3DF583125EC8E8FCE9FDEC75F02B
:1058730017A4FC85F00975F017EDA42509FD74A0A4
:105883002CF582740A3DF583E06E7003A3E06F602C
:105893009E1237A4902AF812373140AD124943ECD7
:1058A3006A7002ED6B7088E875F017A4F8AAF075BA
:1058B300F017E9A42AF974A028FE740A39FF7C17AB
:1058C3007D007900EEFAEFFB1216D68E828F8312DB
:1058D3005929900375125903A3A3A3A3A3A3E8F023
:1058E300A3E91259097401F0EE240E125EAC74019F
:1058F300125931120237EE240D125EACE802582E13
:10590300123D00A3A322F0EE240F125EBD22F0127B
:10591300591AAA0AAB0B22900375E0FCA3E0FD22FF
:1059230088828983A3A3E50AF0A3E50BF022F01292
:10593300593622902B03E4932401F8E43400F97AD6
:10594300027B00221248C5A32274ED1204148A08B4
:105953008B09890E125A7A40057905025A481219A1
:10596300CAAA08AB09125B4C902AF6125A4B650A75
:105973007003E9650B70077AFE7BFF125B4C902A7C
:10598300F6E4125A53E50A98E50B994003025A4686
:10599300125A576012E50A75F006A4F875F006E589
:1059A3000B125AA212179CE50E6018E50A75F00651
:1059B300A4F8AAF075F006E50B125ACE701A790115
:1059C300025A48E50A75F006A4F8AAF075F006E550
:1059D3000B125AAFE4F0A3F0E50A75F006A4F8AA97
:1059E300F075F006E50B125A6FA3125D5B8882898E
:1059F30083A3AA82AB83125ABD8A828B83E0603F62
:105A0300125A57603A8E108F1175120078101209CE
:105A130012E50EC333FCE433FDE50A75F006A4F585
:105A23000AA8F075F006E50BA428F50B742C250ADB
:105A3300F582740D350B1255FB1237421209297981
:105A43000080027907026BDF1233C9E822902AEE45
:105A530012656622E50A75F006A4F8AAF075F00649
:105A6300E50B125AAAF8A3E0F9E84922A42A125C2A
:105A73000388828983A322ECFEEDFF902B01E4933C
:105A8300F8E9C39822F583125A9C12179C22E50C5D
:105A9300126EC6E50D3400F583E0FAA3E0FB221293
:105AA3005AAAFAA3E0FB22125AAFE022A42AF974FD
:105AB3002C28F582740D39F58322E50EF0900EED56
:105AC300125AC722E088828983F022125C27F50CE0
:105AD300E93400F50DE50EC333FAE433FB121796F0
:105AE300850C82850D83EAF0A3EBF0850C82850D8E
:105AF30083125AF8221248F1E8492274F41204146A
:105B0300ECFEEDFF740C120B8F123F058808890918
:105B1300125B4CAC0AAD0BECF8EDF9902AF6125B74
:105B2300545021E875F006A4F8AAF075F006E912BE
