:020000040000FA
:06000000020B4A0201DBC5
:03002B0002099E29
:0300330002077051
:0300430002083A76
:0300530002010C9B
:03005B000201FEA1
:03006B0002075633
:100083000201700101FF01010503010F10FEFFD4FE
:1000930013D413D413D4138A128412D413B927009C
:1000A3000000001B28000000000C0000000C0001F1
:1000B3000000A2150000000000005C160000000014
:1000C300000000000000FFFF414C44323533302074
:1000D3004C4544000100010200BA050000002D0652
:1000E3006400020200080000050207051E02051E47
:1000F300020A0A03B80B02803E0102FFFF141F002D
:10010300E00796511800020206C0E074F21204A739
:10011300A2AFE433FED2AFE5A7FFE5A1F5085F5434
:10012300106006121DB875A1EFE5085F540860085A
:10013300121DBE75A1F7802BEFA2E0C0D0E508A287
:10014300E092F0120A87158182F05017906198E0CF
:10015300F890090AE0C398A2D265D0335002E8F0C0
:1001630075A1FEEEA2E092AF7F0102055EC0E074CE
:10017300F21204A7A2AFE433FED2AF9061A4E0F879
:10018300759B00E59158540860087591F7121E0697
:10019300802AE59158541060087591EF121E0C8067
:1001A3001BE8A2E0C0D0E591A2E092F0120A871505
:1001B3008182F05007E0C2E0F0121F509061A3E08B
:1001C300F8E5E9585404600E121F2675E9FB9061A7
:1001D30093E0A2E640F2808BC0E074F21204A7A27F
:1001E300AFE433FED2AF9061A5E0F8E5BF58540405
:1001F300600675BFFB121F68020166C0E0C0D0E84D
:10020300C0E0E9C0E0EAC0E0EBC0E0C082C08375B3
:10021300C0009005941202A3900594EAF0A3EBF0BA
:10022300C3E89497E99400A2D265D03340079005C0
:1002330094E4F0A3F09005921202A3900592EAF0E1
:10024300A3EBF0C3E89403E99400A2D265D0334052
:100253003A900592E4F0A3F090058EE064017002F9
:10026300A3E07027900590E0F8A3E0F9E849900532
:1002730090700E7401F0A3E4F075DB0075DAFF8073
:100283000AE4F0A3F075DB0075DA00D083D082D0E6
:10029300E0FBD0E0FAD0E0F9D0E0F8D0D0D0E03203
:1002A300E0F8A3E0F9E82401FAE93400FB22C3E40F
:1002B30098F8E499F91202F28026C3E49AFAE49BCF
:1002C300FBE920E7E91202F2E498F8E499F922C382
:1002D300E498F8E499F91202F2E498F8E499F9C37E
:1002E300E49AFAE49BFB22EB20E7CFE920E7E0B9AD
:1002F3000010BB0008E88AF084F8AAF022E4FBC8E7
:10030300FA22EB70227B10C833C8C933C9335007B4
:10031300C39AC3DBF280069A50012ADBEAC833F49E
:10032300C8C933F4C9FA2275F008E4C833C8C9331D
:10033300C933C99AC99B5004C92AC93BD5F0ECFB00
:10034300C833F4C8E4C9FA22080808EAC0E0EBC0DD
:10035300E086F0E7A4FA180986F0E7A42AFA180958
:1003630086F0E7A42AFA180986F0E7A42AFA198680
:10037300F0E7A4FBE5F02AFA190886F0E7A42BFBC3
:10038300E5F03AFA190886F0E7A42BFBE5F03AFA10
:1003930018180986F0E7A4C5F02BFBE43AFA19080C
:1003A300E7C5F0C6A426F6E5F03BFBE43AFA188667
:1003B300F0E7A4F6E5F00826F6E43B08F6E43A088D
:1003C300F6D0E0FBD0E0FA22E4CFC0E0E4CEC0E018
:1003D300E4CDC0E0E4CCC0E075F020C3E633F6081A
:1003E300E633F608E633F608E633F6181818EC3366
:1003F300FCED33FDEE33FEEF33FFC3EC9709ED97CE
:1004030009EE9709EF97191919400FFFEC97FC09AB
:10041300ED97FD09EE97FE191906D5F0BEECF70925
:10042300EDF709EEF709EFF7191919D0E0FCD0E061
:10043300FDD0E0FED0E0FF222518C582C0E0E5191B
:1004430034FFC583C0E0E518C3958224F810AF08D4
:100453008583198582188008858319858218D2AF10
:10046300CEF0A3E520F0A37808E608F0A3DEFAEFC8
:10047300F0A3E58124FAF8E608F0A3E608F0A3E682
:1004830008F0A30808E608F0A3E608F0A315811511
:1004930081D0E0FED0E0F8158115811581E8C0E038
:1004A300EEC0E022C0D02518C582C0E0E51934FFB4
:1004B300C583C0E0E518C3958224F310AF08858394
:1004C300198582188008858319858218D2AFC8F0F0
:1004D300A3E9F0A3EAF0A3EBF0A37908E709F0A3FB
:1004E300D8FAECF0A3EDF0A3EEF0A3EFF0A3D0E085
:1004F300F0A3D0E0F0A3D0E0F0A3E520F0A3E5F073
:10050300F0A322120BACB90003020548E4900301E7
:1005130078D1790C8002F0A3D8FCD9FA900ED1AA35
:1005230082AB83900086788779018015E493A3AC2E
:1005330082AD838A828B83F0A3AA82AB838C828D64
:1005430083D8E9D9E775821675838E74041208FD82
:1005530075821A75832274001208FD851983851824
:1005630082E0C0E0A3E0F9A3E0FAA3E0FBA37808EC
:10057300E0F608A3DFFAE0FCA3E0FDA3E0FEA3E0BE
:10058300FFA3E0C0E0A3E0C0E0A3E0F5D0A3E0F563
:1005930020A3E0A3F5F010AF0885831985821880A6
:1005A30008858319858218D2AFD082D083D0E0F832
:1005B300D0E0320E0075F0108E1A8F1B85821F85D6
:1005C300831E851882851983E0CEA3E0CF851F8221
:1005D300851E83EBC9EAC8EDCBECCAC3E833C8E98F
:1005E30033C9EA33CAEB33CBC3EA9EF51DEB9FF560
:1005F3001CB35004AB1CAA1DEC33CCED33CDD5F0AA
:10060300DAAE1AAF1B22D083D082ECC0E0EDC0E09B
:10061300E493A3FCE493A3FDED4C600D1206E1EC1F
:1006230024FFFCED34FFFD80EFE493A3FCE493A3EC
:10063300FDED4C600D1207E5EC24FFFCED34FFFDEE
:1006430080EFD0E0FDD0E0FCE493A3C0E0E493C0EE
:10065300E022851983851882E0A3FEE0A3F52078C4
:1006630008E0A3F608DFFAE0A3FFE0A3C0E0E0A3FD
:10067300C0E0E0A3C0E0E0A3C0E0E0A3C0E010AFAF
:10068300088582188583198008858218858319D285
:10069300AFD083D082020903D083D082E9C0E0E4E3
:1006A30093A3C386F0C5F095F0F908E493A386F00D
:1006B300C5F095F0700BE493A3C3994005E904805A
:1006C30002A3E475F002A42582F582E5F03583F5F3
:1006D30083D0E0F9E493A3C0E0E493C0E022C0E058
:1006E300C3E49396087401939618400FE4936670DD
:1006F3000808740193661870007019A3A3C3E493E8
:1007030096087401939618A3A3400DD0E0D0E0D0CF
:10071300E0020645A3A3A3A3A3A3D0E022D083D0E2
:1007230082C5F0E493A3C5F0C395F0F5F0E493A379
:10073300C395F04005E5F0048001E475F002A425BB
:1007430082F582E5F03583F583E493A3C0E0E49377
:10075300C0E022C0E074F21204A7E589A2E15003CD
:10076300121C6E758900C2C57F0102055EC0E0746C
:10077300F21204A7E58BA2E05003121C6E758B00E6
:10078300C2E880E47404800474028000CCC0E0ED0D
:10079300C0E0E518C39CCCAD1950011D10AF068C09
:1007A300188D1980068C188D19D2AF12087FD0E0EE
:1007B300FDD0E0FC2274028000CCC0E0EDC0E0E597
:1007C30018C39CCCAD1950011D10AF068C188D19A0
:1007D30080068C188D19D2AF12085DD0E0FDD0E0F1
:1007E300FC22C0E0C0F088F0E4936670080874014E
:1007F3009366187000A8F0A3A3700BD0F0D0E0D0DC
:10080300E0D0E0020645A3A3D0F0D0E022D083D00D
:1008130082CCC0E0E493A360061208BF1470FAE42C
:1008230093A360061209E51470FAD0E0FCE493A3E5
:10083300C0E0E493C0E022C0E074F21204A7A2AFC8
:10084300E433FED2AFC2C0E5D1A2E45003121D2EA1
:10085300EEA2E092AF7F0102055ECAC0E0E493A37B
:10086300C582CCC582C583CDC583F0A3C582CCC563
:1008730082C583CDC583DAE5D0E0CA22CAC0E0E0F1
:10088300A3C582CCC582C583CDC583F0A3C582CC65
:10089300C582C583CDC583DAE6D0E0CA22700908D4
:1008A3000808226016181818C6C333C608C633C60C
:1008B30008C633C608C633C6D5E0EA22C0E0E493CF
:1008C300A3D39C5010E493A3C39C400AD0E0D0E090
:1008D300D0E002082DA3A3A3D0E022C008C3E09672
:1008E300F50808A3E096420808A3E096420808A387
:1008F300E09645087001D3D00822C09FF59FE473AA
:10090300D09F22D083D082C09FE493C0E074019330
:10091300C0E0740293F59F222518F58210AF08F505
:1009230018400215198008F51840021519D2AF8531
:100933001983227404800A7403800674028002748B
:1009430001C0E0F40412091BD0E0120B8722C0D0CF
:10095300251810AF08F518500205198008F518502E
:10096300020519D2AFD0D022BB0102E722C082C058
:100973008389828A83BB0003E08002E493D083D01F
:1009830082226016080808C6C313C618C613C61801
:10099300C613C618C613C6D5E0EA22C0E0C0D0E825
:1009A300C0E0E5A8D2AFC2C7A2E792AFD0E0F8D0CB
:1009B300D0D0E032C3E0C696F608A3E0C696F608A8
:1009C300A3E0C696F608A3E0C696F622251810AF54
:1009D30008F518400215198008F51840021519D2B8
:1009E300AF22C0E0E493A36C7009D0E0D0E0D0E084
:1009F30002082DA3A3D0E022E066701008A3E066EE
:100A0300700A08A3E066700408A3E06622C3E096B8
:100A130008A3E09608A3E09608A3E096A2D265D0C7
:100A23003322E76670100809E766700A0809E7666B
:100A330070040809E76622C3E096F008A3E096F085
:100A430008A3E096F008A3E096F022E026F008A3BE
:100A5300E036F008A3E036F008A3E036F022E627FC
:100A6300F60809E637F60809E637F60809E637F621
:100A730022E026F608A3E036F608A3E036F608A33C
:100A8300E036F622C0E0E8C0E0E58124FCF8E6A207
:100A9300E7D0E0F8D0E022E647F60809E647F60893
:100AA30009E647F60809E647F622E657F60809E697
:100AB30057F60809E657F60809E657F622E056F610
:100AC30008A3E056F608A3E056F608A3E056F6227C
:100AD300E056F008A3E056F008A3E056F008A3E0C0
:100AE30056F022700422600D18C6C333C608C633FD
:100AF300C6D5E0F41822E4C396F608E496F608E4B3
:100B030096F608E496F622600D08C6A2E713C61807
:100B1300C613C6D5E0F322C6F4C608C6F4C608C693
:100B2300F4C608C6F4C622C3E7960809E79608097F
:100B3300E7960809E79622C3E09608A3E09608A380
:100B4300E09608A3E0962275D000758140751801E0
:100B530075190300020506E0F608A3E0F608A3E012
:100B6300F608A3E0F622600C08C6C313C618C61322
:100B7300C6D5E0F422E6F008A3E6F008A3E6F00801
:100B8300A3E6F022CAC0E0E6F0A308DAFAD0E0FA5E
:100B930022E0FAA3E0FBA3E0FCA3E0FD22EAF0A33A
:100BA300EBF0A3ECF0A3EDF022E5C754F84401F514
:100BB300C77901222518F582E43519F58322C2AFDE
:100BC30075D69F02000022120906AFE4021209063D
:100BD300F6E50212090614E6021209063A2B001280
:100BE30009064C2B001209069E2B00120906FF2B47
:100BF30000120906892C001209062D2D0012090680
:100C0300812D001209069A2D00120906C02D00122B
:100C13000906FB2D001209063F2E00120906662E57
:100C230000120906B72E00120906672F00120906E3
:100C33001F3000120906E73000120906A73100121F
:100C43000906EB310012090610320012090653326D
:100C530000120906A03200120906F8330012090631
:100C63007E34001209069C3400120906C6340012B1
:100C73000906E03400120906EF3400120906FA34BB
:100C830000120906BA3500120906133600120906C6
:100C9300D53600120906DD3600120906A137001207
:100CA30009060D38001209063839001209065D39A4
:100CB30000120906D33900120906653A0012090623
:100CC300BD3A001209067D3B001209069C3B001247
:100CD3000906AB3C00120906BD3C001209062C3D77
:100CE30000120906813E00120906B33E00120906EE
:100CF300463F001209067F3F00120906CB3F001250
:100D03000906E740001209063043001209063B4377
:100D13000012090646430012090651430012090650
:100D23005B43001209066643001209068043001262
:100D330009068A43001209069443001209069F43D9
:100D430000120906C74300120906224400120906CD
:100D53002C44001209065044001209067444001280
:100D63000906D24400120906164500120906324547
:100D730000120906A94500120906E14500120906F9
:100D83002D46001209068A4600120906444700123E
:100D93000906284900120906814900120906B14AC9
:100DA30000120906D74A00120906604C0012090610
:100DB300DC4F00120906AE510012090677530012E8
:100DC30009062454001209068F55001209062E56EF
:100DD30000120906735600120906DD5600120906B1
:100DE300EC5600120906735900120906255B00121E
:100DF3000906925B00120906715C001209068A5DFE
:100E030000120906075F00120906265F0012090691
:100E13007B5F00120906806000120906A8600012B9
:100E23000906006100120906DF6100120906236248
:100E3300001209066E6200120906D9620012090641
:100E43001A64001209067E6400120906CC650012BA
:100E530009062C68001209065D6800120906156A66
:100E6300001209066A6A001209066E6B001209066F
:100E73000B6C00120906646C00120906176D001250
:100E83000906B96D00120906596E00120906FE6EB5
:100E930000120906FA8101120906398201120906B4
:100EA300808401120906CA8401120906E58501122C
:100EB30009064D8601120906828601120906F68784
:100EC30001120906798A01120906A28B0112090689
:100ED300388C01120906409501120906D5950112B5
:100EE3000906BC9801120906AF99011209061D9A59
:100EF30001120906639B01120906459C01120906AA
:100F03002A9E011209063BA001120906A5A001129F
:100F1300090677A101120906A5A10112090662A219
:100F23000112090639A30112090600A401120906D8
:100F3300A4A401120906CDA401120906EFA401120B
:100F4300090645A7011209061DA80112090661A891
:100F530001120906C9A80112090681A9011209068D
:100F6300B3A901120906F7A9011209062DAA011254
:100F7300090679AA01120906CEAA01120906D3AA03
:100F83000112090626AB011209064BAB0112090631
:100F93005AAC01120906BEAC011209062EAD0112AC
:100FA3000906BAAD0112090687B0011209066BB131
:100FB30001120906EEB20112090624B5011209064F
:100FC300D2B50112090682B601120906C3B801128D
:100FD300090666B901120906ADB90112090659BB22
:100FE300011209066DBB0112090677BB011209063E
:100FF3009FBB01120906ABBB01120906CABB011252
:101003000906EABD0112090639BF011209067DBFAF
:101013000112090625C00112090608C101120906B9
:10102300B3C101120906FFC201120906FDC3011271
:101033000906A3C40112090633C5011209064AC5EC
:101043000112090681C5011209068BC501120906A1
:1010530096C501120906B4C501120906F8C50112A5
:10106300090655C6011209067AC60112090694C675
:101073000112090620C7011209063DC8011209061B
:10108300AAC80112090691C901120906B8C90112B9
:1010930009062CCA01120906A7CA01120906ABCB1D
:1010A30001120906A1CC0112090650CD011209064D
:1010B30063CE01120906FFCE011209068CCF01127D
:1010C30009066AD001120906A2D001120906FAD054
:1010D30001120906C3D101120906E4D1011209065E
:1010E3006BD2011209068FD201120906B1D2011285
:1010F3000906FAD20112090610D501120906F7D51D
:1011030001120906A8D601120906DED80112090642
:101113002ED9011209066ED901120906B0D901129E
:1011230009060CDA011209063ADA011209065EDA37
:1011330001120906B1DA01120906DFDA0112090602
:1011430018DB011209066DDB01120906D3DB01125C
:10115300090627DD011209064ADF01120906B7DF76
:1011630001120906E0DF011209066BE0011209060C
:10117300D2E0011209061DE10112090641E1011243
:10118300090665E101120906C0E101120906DBE166
:101193000112090694E2011209065BAF0412090663
:1011A3009AAF04120906788002120906BE80021261
:1011B30009069E8102120906A08202120906A38370
:1011C300021209062F85021209068D8502120906ED
:1011D3004A8602120906688702120906D987021293
:1011E30009061588021209066388021209066D882A
:1011F30002120906B188021209060D8902120906B4
:10120300A88902120906258A02120906F48A021223
:1012130009068D8B02120906AD8B02120906E38BB8
:1012230002120906148C02120906D58C0212090651
:10123300E58C02120906398D02120906548D021239
:101243000906668D021209066F8D02120906C98D01
:1012530002120906258E02120906718E0212090670
:101263008C8E02120906BD8E02120906DA8E021254
:101273000906E68E021209065A90021209067390B5
:1012830002120906DA9002120906ED90021209060B
:10129300FB9002120906AF91021209069392021201
:1012A30009069993021209062394021209062D9442
:1012B300021209069A9402120906B194021209064F
:1012C300E394021209061C950212090646950212BE
:1012D3000906A79502120906C79502120906E595A4
:1012E300021209062B9602120906519702120906E9
:1012F3009E9702120906CD9702120906439802121D
:1013030009066B9802120906A49802120906B298FC
:10131300021209060A9902120906599902120906CC
:10132300989902120906C89902120906F499021241
:101333000906FF99021209061D9A02120906DF9A8D
:1013430002120906E99A02120906249B02120906EF
:101353003A9B021209068F9B02120906A39B0212F3
:101363000906B19C02120906C49C02120906D99C03
:10137300021209067B9D02120906FE9D021209064E
:10138300BC9E02120906C79E02120906F39F0212AF
:1013930009060FA00212090661A002120906A0A005
:1013A30002120906B5A00212090617A102120906C4
:1013B300A6A102120906F1A10212090642A4021211
:1013C3000906C0A40212090635A50212090657A789
:1013D300021209066FA70212090672A70212090672
:1013E3007EA70212090692A7021209069AA7021201
:1013F3000906CDA7021209067DA802120906F3A861
:101403000212090666A9021209061AAA021209069D
:10141300CFAA02120906EEAA021209068EAB021225
:1014230009069AAB02120906C5AB02120906C8AB3C
:101433000212090632AC021209065AAD021209065B
:1014430032AE02120906BDAE02120906D6AF02126F
:10145300090693B002120906CCB002120906FDB0C8
:1014630002120906BBB102120906EBB10212090608
:10147300C6B2021209065FB302120906EAB30212E8
:1014830009069BB4021209061EB50212090650B5DD
:101493000212090691B502120906B9B5031209062B
:1014A3001EB6031209065BB603120906AAB6031297
:1014B3000906C0B803120906A3BA031209060DBE32
:1014C3000312090648BE031209066ABE031209067F
:1014D300CDBE0312090601BF0312090624BF03127E
:1014E300090651BF03120906ADBF03120906A39FE4
:1014F3000312090621A00312090657A003120906C5
:10150300C3A00312090636A20312090652A203124C
:10151300090697A20312090625A3031209067EA34F
:1015230003120906ABA403120906BDA5031209069B
:101533001AA60312090686A603120906E7A60312D2
:10154300090628A703120906D5A703120906E7A867
:101553000312090612A9031209065DA9031209065B
:10156300A4A90312090636AA03120906F1AA031253
:101573000906C3A404120906D4A40412090625A566
:10158300041209066AA50412090614A60412090620
:1015930019AC041209061CA30412090674A404124C
:1015A300090668AB031209060DAC031209062DAC3C
:1015B300031209064DAC0312090661AC03120906B6
:1015C300B9AC03120906E9AC031209066AAE0312A9
:1015D300090610AF03120906F2AF0312090643B05E
:1015E3000312090686B003120906C9B003120906DD
:1015F3002FB10312090650B103120906DCB103121D
:1016030009060DB20312090681B2031209062FB4AB
:101613000312090609B5031209064BB5031209069D
:10162300A5B503120906939F04120906B49F041279
:101633000906EAA00412090677DD021209065B9186
:1016430004120906D59104120906E0910412090651
:1016530001920412090666930312090669930312A1
:1016630009062394031209064E940312090695945E
:1016730003120906BA9403120906DB94031209063E
:101683000F95031209064895031209067196031272
:101693000906A896031209060CE4021209066397C9
:1016A300031209062898031209065F980312090614
:1016B300D49903120906779A03120906709B031241
:1016C3000906999B03120906ED9B03120906B39CB5
:1016D30003120906E19C03120906769E031209060A
:1016E300F79E031209062A9F03120906F9BF031284
:1016F300090603C0031209064FC003120906BDC041
:1017030003120906DEC003120906F5C00312090617
:10171300A5C10312090639C40312090642C4031200
:10172300090695C403120906BEC40312090625C59A
:1017330003120906B6C503120906F8C50312090602
:1017430042C603120906A1C603120906CDC6031237
:1017530009065EC7031209069DC703120906DCC703
:101763000312090611C80312090623C80312090646
:1017730035C80312090654C8031209065DC80312CB
:10178300090613C90312090653C90312090606F70A
:1017930003120906D9F703120906F3F70312090620
:1017A30004F80312090619FA0312090638FA031298
:1017B3000906799B04120906AF9B04120906F89BDC
:1017C30004120906489D041209063BE602120906A3
:1017D3007AE702120906B6E70212090675E9021250
:1017E30009069EE90212090631EC0212090675EC9C
:1017F30002120906FEED0212090696EE021209060E
:10180300FEEE021209069FEF02120906E1EF021231
:10181300090621F002120906ACF1021209061CF3B3
:101823000212090641F5021209066FF502120906B2
:1018330096F5021209069FF502120906FAF502123D
:1018430009068DF602120906ABF9021209062CFAF3
:101853000212090695B004120906ABB00412090678
:10186300BEAE04120906B18A04120906C48A041220
:101873000906618B041209069C8B04120906B78BB7
:1018830004120906DC8B04120906218C04120906D2
:10189300528C04120906838C04120906098E041261
:1018A30009068CA704120906C2A704120906DEA7BB
:1018B3000412090620A80412090630A80412090616
:1018C300C5A804120906CFA80412090636DA0312C2
:1018D300090677DA031209068ADA031209064ADBD4
:1018E30003120906FEDB0312090632DD03120906A1
:1018F30030DF0312090636E003120906B4E00312CF
:1019030009061DE1031209064A6F00120906A26FB8
:10191300001209068B7000120906247100120906D1
:101923006E7100120906CB710012090624720012AF
:1019330009063872001209066A72001209066873F2
:1019430000120906CC7300120906E7730012090698
:101953003674001209064C740012090659740012F9
:1019630009068D7400120906A6740012090637755C
:1019730000120906467500120906CE750012090603
:101983002876001209067676001209069876001268
:1019930009060F7900120906447900120906D47961
:1019A30000120906497A001209064E7A0012090646
:1019B3008A7A00120906E07A00120906A47B001253
:1019C3000906C97B00120906D37B00120906D67BE0
:1019D300001209065F7C001209067A7C00120906D0
:1019E3008D7C00120906B97C00120906F47C0012F2
:1019F3000906F77C00120906027D001209063E7DE6
:101A030000120906517D00120906787D00120906AD
:101A13000EAF0412090626AF04120906B8D2031248
:101A2300090607D303120906A9D40312090667D6C8
:101A330003120906AFD603120906D1D7031209060A
:101A430002D90312090624D90312090680D9031205
:101A5300090602DA03120906CEE201120906EFE2D1
:101A63000112090679E301120906FEE301120906D0
:101A73007AE401120906E3E4011209062FE50112D3
:101A83000906AEE50112090640E601120906CCE695
:101A9300011209060EE7011209067AEB0112090683
:101AA300FAEC0112090639ED0112090620EE0112C2
:101AB300090623EE01120906D7EE011209060CF0FE
:101AC30001120906F7F10112090677F4011209065A
:101AD30030F5011209064DF601120906A4F90112A7
:101AE3000906B4F90112090615FB01120906A1FB47
:101AF30001120906D5FC01120906C6FD01120906E9
:101B030048FE01120906008003120906BA80031277
:101B130009062C81031209063B8103120906B581CC
:101B2300031209062482031209062B8303120906F2
:101B3300548303120906F483031209064284031231
:101B43000906B284031209066B8703120906428849
:101B530003120906AF88031209062C8A0312090629
:101B6300E08A031209068E8B03120906E98B03121E
:101B73000906548C03120906548D031209062E8F8D
:101B830003120906419003120906DA9003120906AB
:101B93004C91031209061292031209060D800412D6
:101BA3000906618004120906B9800412090604813A
:101BB30004120906668104120906D2810412090679
:101BC300858204120906C68204120906DC82041205
:101BD3000906388304120906768304120906A87DD0
:101BE30000120906D97D00120906937E0012090628
:101BF300F97E001209066A7F00120906A18E0412FB
:101C030009062D90041209060CAD041209061DAD38
:101C130004120906BDAD0412090664A104120906E3
:101C230072A104120906D3B004120906D7AD041237
:101C33000906E7AD0412090602AE0412090663AEF3
:101C43000412090617AB041209069CAB0412090619
:101C530000AC0412090605AA0412090627AA0412F5
:101C6300090691AA041209069CAA04120906E0AA0D
:101C7300041209068EE1031209069CE10312090608
:101C8300DDE103120906FEE1031209067BE20312FA
:101C930009067BE3031209069DE30312090609E41F
:101CA3000312090624E4031209063FE4031209069A
:101CB30049E40312090653E40312090666E4031216
:101CC30009067FE4031209061BE503120906D7E59B
:101CD300031209064EE603120906C8E603120906B3
:101CE3002EE703120906A78304120906B58304121B
:101CF30009062F8404120906138504120906CC86EB
:101D03000412090673B00412090689FA02120906BD
:101D1300F6FA02120906B7FB0212090627FC0212A1
:101D2300090630FD02120906A8FE021209060CFF7D
:101D33000212090661FF021209066AFF021209066E
:101D430079FF021209068CFF02120906A2FF021292
:101D53000906ABFF0212090695ED03120906EAED27
:101D630003120906E6EF0312090618F00312090627
:101D73003AF00312090653F0031209066CF003123A
:101D8300090676F10312090611F2031209062BA6BE
:101D9300041209064FA60412090668A604120906CE
:101DA3009BA604120906CCA604120906FAA604127D
:101DB30009065CA7041209066BA70412090675A796
:101DC3000412090682A704120906269404120906BE
:101DD3004C94041209068994041209069894041277
:101DE3000906B794041209061F95041209062895DB
:101DF30004120906879504120906AB950412090615
:101E03006A96041209067796041209068896041244
:101E13000906BEFF02120906DBFF0212090688F259
:101E230003120906E6F303120906F3F30312090684
:101E330006F40312090625F4031209063BF4031200
:101E430009064FF403120906C4F40312090629F51F
:101E530003120906D9F503120906AEF603120906A1
:101E6300BEF603120906CDF60312090666FF031236
:101E730009068AFF03120906B2FF03120906DAFFF5
:101E830003120906B69604120906DD960412090622
:101E9300FE96041209066397041209061C9904129C
:101EA3000906359904120906419904120906559940
:101EB300041209067399041209067D99041209068E
:101EC3008799041209069A9904120906ED990412D6
:101ED3000906269A04120906559A04120906A39ABA
:101EE30004120906F29A041209060D9B041209064C
:101EF300179B04120906289B041209066E9B041201
:101F030009066DAE041209067CC903120906A6C9A7
:101F130003120906C2C903120906D5C90312090629
:101F2300EBC90312090648CA031209067BCA031246
:101F33000906B7CE03120906DDCF0312090610D036
:101F4300031209065CD00312090688D1031209069D
:101F5300B0D103120906C5D103120906D5D1031264
:101F6300090619D2031209067AD2031209068AD284
:101F730003120906D2A804120906EDA804120906E1
:101F830016A90412090630A90412090655A9041258
:101F9300090674A9041209068CA904120906BAA930
:101FA30004120906D4A904120906A4AF04120906EF
:101FB300318704120906388704120906448804127B
:101FC30009067488041209069A8804120906BD8852
:101FD30004120906DF880412090619890412090686
:101FE3007F8904120906B88904120906048A0412B7
:101FF3000906318A04120906518A04120906AB9DA7
:1020030004120906C39D04120906B19E04120906AF
:10201300909F04120906E0FE0112090652FF011205
:10202300090690FF01120906D1FF0112090691FB6F
:1020330003120906B0FB03120906FFFB031209068C
:102043001BFC031209064CFC031209065CFC031279
:10205300090669FC0312090676FC0312090662FDF0
:1020630003120906A0FD03120906AAFD03120906BD
:10207300BAFE03120906C5FE03120906D7FE0312B0
:102083000906E0FE03120906EAFE03120906D8E870
:10209300031209061DED031209062BED03120906AF
:1020A3001EB004120906E8AF041209064BB004126D
:1020B3000906B5B00412090671DA02120906D3D76C
:1020C300021209069CD602120906F0D5021209066D
:1020D30036D402120906E6D1021209066DD10212A4
:1020E300090614D102120906A4D0021209067BD0F4
:1020F300021209065BCE0212090627CE0212090656
:10210300F4CD02120906D8CD02120906F1CC02124F
:102113000906A9CC02120906F4CA0212090674CAF6
:102123000212090671CA021209066EC902120906D1
:102133003CC90212090679C802120906BFE202125B
:1021430009066AE00212090688DF021209066CDF3B
:10215300021209060CDF02120906A4C602120906BE
:1021630035C60212090607C60212090604C6021280
:102173000906C4DE02120906F1C5021209069CC54E
:10218300021209068BC5021209067DC40212090652
:1021930012DE02120906C8960312090647C4021288
:1021A3000906F5C30212090696C30212090665C39E
:1021B300021209062DC002120906EDBF021209061A
:1021C300E1BF0212090641BF0212090681BE0212D3
:1021D300090603BC0212090694B90212090652B990
:1021E3000212090626B802120906DBB70212090613
:1021F3001AB702120906EDB602120906C6B5021293
:10220300090630B60212090684DD0212090600B679
:102213000212090614A10400000080FBE47300000D
:10222300000000000000000000000000000010108B
:10223300101010100000303000000014285000006F
:1022430000000000000000000000002828FC2848CF
:1022530050FC5050000000001038545430181454EF
:102263005438100000000044A8A8B0541A2A2A4485
:10227300000000000020505060ACA898927C000041
:1022830000606020C00000000000000000000004A7
:102293000808101010101010080804000000402057
:1022A300100804081020400000000000001010D6A1
:1022B3003838D61010000000000000101010FE1077
:1022C30010100000000000000000000000000000EB
:1022D300606020C0000000000000FC00000000005F
:1022E300000000000000000000000000606000002B
:1022F30000020404040808101020202040000000FD
:102303000030488484848484483000000000001036
:10231300701010101010107C0000000000384444AE
:1023230004081020447C00000000003844441804D2
:102333000444443800000000080818284848887CF2
:10234300081C00000000007C4040784404444438EA
:1023530000000000003C4480B8C4848484780000FA
:102363000000007C4448081010101010000000000A
:10237300007884844878848484780000000000789E
:102383008484848C740488F0000000000000003012
:10239300300000003030000000000000000010009A
:1023A3000000001010200000040810204020100836
:1023B300040000000000000000FC0000FC0000001E
:1023C3000000000040201008040810204000000016
:1023D300000078848484081010003030000000006E
:1023E3000038449AAAAAAAB4423C00000000001094
:1023F30010282828384444EE0000000000F8444424
:102403007844444444F800000000003C4484808045
:10241300808044380000000000F0484444444444B1
:1024230048F00000000000FC44404878484044FC69
:102433000000000000FC42404878484040E00000B3
:102443000000003C448480808E84443800000000F7
:1024530000EE4444447C444444EE00000000007C0D
:10246300101010101010107C00000000007C1010E1
:1024730010101010101090E0000000EE444850704F
:10248300484844EE0000000000E040404040404027
:1024930044FC0000000000EE6C6C6C54545454D6A1
:1024A3000000000000EE64645454544C4CE40000FB
:1024B3000000003048848484848448300000000095
:1024C30000F844444478404040E0000000000030FD
:1024D3004884848484B448380C00000000F84444E1
:1024E3007850484844E600000000003C444020186F
:1024F300040444780000000000FE92101010101035
:1025030010380000000000EE44444444444444387E
:102513000000000000EE4444282828281010000082
:10252300000000D6545454546C282828000000009E
:1025330000EE44282810282844EE0000000000EE96
:10254300442828101010103800000000007C880870
:102553001020204044FC0000001C1010101010102C
:10256300101010101C00007010101010101010101C
:1025730010107000007010101010101010101010B8
:1025830070000010280000000000000000000000A0
:1025930000000000000000000000000000FE0060DA
:1025A3006020C000000000000000000000000000E8
:1025B300000038441C24443E0000000000C040409A
:1025C30078444444447800000000000000003C4488
:1025D3004040443800000000000C04043C444444E0
:1025E300443E000000000000000038447C404438B2
:1025F30000000000001C2420F82020202078000088
:102603000000000000003C48483040784438000097
:1026130000C040405864444444EE000000000010F1
:10262300000070101010107C000000000008000073
:102633003808080808080870000000C040405C48DB
:10264300507048EC000000000070101010101010C3
:10265300107C0000000000000000F854545454D6CD
:102663000000000000000000D864444444EE000071
:1026730000000000000038444444443800000000D7
:1026830000000000F8444444447840E000000000A7
:1026930000003C444444443C040E0000000000009D
:1026A300EC30202020F800000000000000003C4433
:1026B3003008447800000000000010107C10101057
:1026C300100C0000000000000000CC444444443ED1
:1026D3000000000000000000EE442828281000003D
:1026E300000000000000D6545454282800000000C5
:1026F30000000000DC48303048EC0000000000001F
:102703000000EE442828101020E000000000000024
:102713007C481010247C00001010101010101010B2
:1027230010101010101000013636010100010201D3
:102733000001030100010401060605020000070170
:1027430000340801000F090401010D0100FF0E0808
:10275300000017020000190100FF1A0100011B010C
:1027630000FE1C0100081D0200001F0100012001E2
:102773000001210200002301000F240200002601B2
:10278300000127010008280200FF2A0100072B018E
:1027930002402C0100002D0100012E0100012F0138
:1027A30000FF30010B1C310800003A0100083B0117
:1027B300000F2F01000003007100300160001100C1
:1027C30070003102200350048000100061000000FB
:1027D30014006300730072006200430000001300E2
:1027E30006000000000004001200000000000000CA
:1027F300000004000400370037003C0244000000DE
:1028030000000000000065000000350081000000AA
:1028130005000000830000000103710301030103AD
:102823000103010301032203020301031003000355
:10283300000300030003000300030003420300033B
:1028430024030603000300030403120325032303E5
:1028530025032303040304030003000300034403C9
:1028630000030003230300036503210035038103F1
:1028730000030503000300030003010171010101CB
:102883000101110101013101010101018001100167
:1028930061013B0014006301730172016201430192
:1028A3000001130106013D0135000401120100017D
:1028B30000010001000104010401330133013C0163
:1028C30044013201360000010001650100013500B9
:1028D30081010001050182018301000103027102EC
:1028E3003001600211027002010202020202800240
:1028F300100261023A004100630273027202620233
:102903004302000213023800000200020402120212
:102913000002000200020002040204023700370032
:102923003C02440200023900000200026502000278
:1029330035028102000205028202830200020304BF
:10294300710402046004110470040204020401040B
:102953000204100461040004140463047304720485
:102963006204430400041304060400040004040482
:102973001204000400040004000451046400000471
:10298300000400044404000400040004000465047B
:102993000004350481046400050400048304000476
:1029A30036000100060000000F00000000000000D8
:1029B30000000000000003FFFF00000403FFFF000E
:1029C30000FFFF0FF4010005C4040320000100030E
:1029D3000B000000000000000003010F0000421B79
:1029E3001300BE1A0100421B0200761A03007C1A70
:1029F3000400821A0500881A0600941A1100B21AFC
:102A03001400B81A1500A61AFFFF000001DC0E0619
:102A13000C0F08060F0B180F10580E02E20E05FAE2
:102A23000E07E80E0CBE0E0DD00EFF000003EAF5F4
:102A3300E5D5D5C5B5A59595858575756565555553
:102A4300454535352525151505E4121413EA12F00D
:102A5300120E130213FC121A13201326133213F649
:102A630012DE12D81200160F00000B150B02000223
:102A7300220F32000006D413E613EC13AE12F21346
:102A8300A812B412E811E2111E1224121812D01166
:102A93003414521458143A144614401400011916ED
:102AA300181616152303000C0E020B040B0A070855
:102AB300000F00034948424D181725050200383C12
:102AC3003E363B3B352B432C303017181921301B36
:102AD3001D1F30303016181920231A1C1E302814DD
:102AE300F813FE130A14041408132C134C1438138C
:102AF3003E13020402010101010902F411FA11EE6D
:102B0300112A120000000000000012121200BE047D
:102B13000A150004007F00E8030C002800000000F1
:102B230000090308100C0A03080900040001FF1E32
:102B33001E0C05040F1008C082C0838A828B83E0B9
:102B4300D2E7F01219C8023D09C082C0837900128E
:102B53003006125ED6C082C083900334124C5CD020
:102B630083D082C3E09CA3E09D500C1265AAFAA314
:102B7300E0122B7D600109023D09FBEA75F00BA40D
:102B8300FAA8F075F00BEBA428FB900336E02AF8C3
:102B9300A3E03B8882F583E0540F2274F712043BD1
:102BA30089081230061230ACACF075F00BE9A42C96
:102BB300F9900336E028FEA3E039FF74016508604D
:102BC300067402650870208A828B83123098123F44
:102BD3003874026508701B122F571230DF70138E82
:102BE300828F83E4F0800BEA2403FCEB12307A1229
:102BF3003086EEFAEFFB120BDC023E9574F41204FE
:102C03003B126ED179008E828F83E06076890A89C8
:102C13000B8065E50A75F00BA4FAA8F075F00BE5D7
:102C23000B122B8A7046E50A75F00BA4F8AAF0750F
:102C3300F00BE50B1230BE8E828F83E08508828510
:102C430009831231A0850882850983A3123F38EED8
:102C53002403FCEF123083123D16125950AA08AB1D
:102C630009120BDC7901900334125365E50A240140
:102C7300F50AE50B3400F50B122F5FE50A9AE50B15
:102C83009B40900240E274F512043BEAFEEBFF74B2
:102C93000B120BB7123D1B750A01EC4D602BEC12A6
:102CA3006EEDED125ED6123F307901120BE8E508A6
:102CB3004509606F850882850983A3126EDB79025B
:102CC300AA08AB09120BE8805AE5084509602B12E4
:102CD3005EDA1245A4123D171230C9700CEEFAEFFA
:102CE300FB120BEEE9F50A80CBEE2403FA12300156
:102CF30070317903EEFAEFFB80CA8E828F83A3E0F3
:102D030064FE7003A3E0F4700BEE24030A0A0A12B4
:102D13003001700CEEFAEFFB120BEEE9F50A8003BB
:102D2300750A00A90A7F0302065574F712043B9043
:102D33000334123EA5EA4B602FEA75F00BA4FAA800
:102D4300F075F00BEBA428FBEAFEEBFF1217BE9025
:102D53000336123EA59003361251AA6012EEFCEF21
:102D6300FD79001216FE8007900336E4F0A3F0020B
:102D73003E95900334124914C3EE98EF9922C08212
:102D8300C083EC4D600512202880097C087D007902
:102D9300001216FE023D0974F612043B7900EA4B59
:102DA30060187800880812621DEB1265A66004792A
:102DB30001780808E8C3940840EA023F4174F71217
:102DC300043B74F31209CFECFEEDFF8518828519DD
:102DD30083E4F004120BB7EAF0A3EB1256D67403A4
:102DE300120BB7AC82AD83EEFAEFFB120C00EEFAD6
:102DF300EFFB120C06023E9074F712043B74F312BD
:102E030009CFECFEEDFF851882851983E4F0EAFC17
:102E1300EBFD7403120BB71231997401120BB71245
:102E23003F2C8E828F83123F3874FE68700374FFC9
:102E3300696004790180027900023E9074F71204FC
:102E43003BEAFEEBFF122E9D7014122EA88E828F8A
:102E530083E0F4F88A828B83E058F0120BDCA90834
:102E6300023E9574F712043BEAFEEBFF7508008EF1
:102E7300828F83E06022122E9D701D122EA88A82FB
:102E83008B83E08F838E82F8E058700CE0F88A829F
:102E93008B83E048F0120BDC80C4120BE2E9F508E7
:102EA3007401650822126EE61230B0122FF2FAA3F3
:102EB300E039FB2274F412043B8A088B097C007D01
:102EC30000122F57123086123017126ED8790085F0
:102ED3000882850983A3E064FE7003A3E0F46071B4
:102EE3007E007F008062EEFAEF122B7D6057EEFAD0
:102EF300EFFBEA75F00BA4FAA8F075F00BEBA4282E
:102F0300FB900336E02AF50AA3E03BF50B85088224
:102F1300850983A3125624850A82850B83A3E06A5D
:102F23007003A3E06B701EE50A2403FAE50B12306D
:102F330002700AE50A2403FCE50B12308312300BFE
:102F43007901125EEC1238F6122F5FEE9AEF9B4076
:102F5300950240E2EA24030A0A0AEB2290033412A0
:102F63005AC3C32274F312043B8A088B098A828BE7
:102F730083A3126EDB123006126ED8750C00122F6B
:102F83005712300270547E007F008049122FE4FAFA
:102F9300A3E0398A82F583E0540F6036122FE4F5FB
:102FA3000AA3E039F50BE50A2403FCE50B12308D87
:102FB3003400FB122022E964017017850A82850B15
:102FC30083A3125B84A3123F3812300B750C0112DA
:102FD3005EEC1238F6122D7540B2A90C7F0502067D
:102FE30055EEF8EFF9E875F00BA4F8122FF222AAC8
:102FF300F075F00BE9A42AF9900336E02822EF12CA
:1030030030D922126EECEB22123017125EE7EEF08B
:10301300A3EFF022E508126EEDE5092274F5120420
:103023003BEAFEEBFF8E828F83A3126EDB7C007D77
:1030330000EE24030A0A0AEF123086EEFAEFFB12BF
:103043000BE2E9F50A7401650A7029126EE6123083
:10305300ACAAF075F00BE91230BE850882F5831235
:1030630030981230C9700DE5082403FCE5091230CD
:103073007A123086022D263400FDEE2403FAEF2265
:1030830012308D3400FB120C00223400FDE50824BD
:1030930003FAE50922A312309D221230A122E0F89F
:1030A300A3E0F98E828F83A3221230B0223400F57D
:1030B30083124918E875F00BA4F822122FF8F508CB
:1030C300A3E039F50922E8F0A3E9F0E5082403FABF
:1030D300E5091230D9221230DF6401223400FB12D9
:1030E3000C06E92274F312043B74E61209CF126E44
:1030F300D1750C01750800750900750A00750B0080
:10310300851882851983E4F0EE2403FCEF3400FD77
:103113007403120BB7123199E964017023740B1213
:103123000BB7123F307401120BB71256287003A36A
:10313300E069605185188285198385820885830932
:10314300740D120BB7E41231A0740E120BB7123FB9
:1031530038740D120BB7AA82AB83120C24E96401F5
:10316300700B740D120BB785820A85830B780A12D4
:10317300093EAC08AD09EEFAEFFB120BF474021230
:103183000951E9F50CEEFAEFFB120C1EA90C741AA7
:10319300120951022FDF12346C120C2A22123EA0A4
:1031A30012491422C082C08378007900800312324E
:1031B30097122F5FE89AE99B5029E8FAE9FBEA7531
:1031C300F00BA4FAACF075F00BEBA42CFB900336D8
:1031D300E02AFCA3E03B8C82F583E0540F70CF79A7
:1031E3000080027901023D09C082C083902B141232
:1031F300496AEC75F012A4FCA8F075F012EDA4284E
:10320300FD79FF7A797B091216FE023D0974F712E4
:10321300043BE9FEEAFF7A007B007800790080280E
:10322300E8FCE9FDEC75F012A4FC85F00875F012DA
:10323300EDA425081236ACC39E400AE0FCEFC39C04
:1032430040031237CB1232971236A040D3023E9579
:10325300C082C08378007900800312329712328BC8
:10326300501F1236B0F470F2E875F012A4F8AAF009
:1032730075F012E9A42AF9747928FA740939FB80E4
:10328300047A007B00023D09902B14123761C3E8D6
:103293009AE99B22E8240108E93400F92274F01228
:1032A300043B74F31209CF8A0A8B0B8C0C8D0D89A6
:1032B30008EC450D6016AA0CAB0D120C788A0E8B28
:1032C3000FAE0EAF0FEE4F600302335E120C4E8A49
:1032D3000E8B0FA80EA90FE8FEE9FFE849607C906A
:1032E3002B221233C06022740365086006740465E0
:1032F3000870167A047903120C48902B221233D7E4
:1033030040077A007B000233BD902B201233C0604C
:103313001B74016508600674026508700F7A0279F0
:1033230001120C48902B201233D750D68518828572
:1033330019837401F0120BB7125950AC0CAD0D7414
:1033430003120BB7123465740B120BB7123D231221
:103353004318E41259381211288004EE4F604A785A
:103363000074FF2508C39404500278048E828F836F
:103373001259508E828F83A3A3A3A3E508F0E88E8E
:10338300828F83A3A3A3A3A31259581202EA12376D
:10339300788E828F83A3A3A3A3A3A3A3F012376F73
:1033A300120B94125ED0120BA01233C54005900E7F
:1033B300D5E4F0121002EEFAEFFB02491E125A7224
:1033C30049227A047900120C48902B1412658CEA76
:1033D30098EB99221233F075832B758214E493C30F
:1033E30098F8A3E49399F9C3EA98EB9922E493F844
:1033F300740193F92274F212043B74F31209CF8A15
:10340300088B09ECFEEDFF750A00EEFAEFFB120CD8
:10341300788A0C8B0DA80CA90DE849603E88828937
:1034230083E065087004A3E06509602F88828983BF
:10343300A3A3A3A3E0C394055021125D7E85188244
:103443008519837401F0120BB7125D82EEFCEFFD58
:103453007403120BB7123465750A01A90A740D02BD
:10346300541C12346C120C3622AA82AB83120C0049
:10347300851882851983AA82AB832274F612043BD2
:103483001234BA600FA3A3A3A3E014C3940450049B
:10349300790180027900023F4174F612043B123431
:1034A300BA600FA3A3A3A3E014C394025004790149
:1034B30080027900023F41120C728A828B83E5827B
:1034C30045832274F612043B1234BA600BA3A3A300
:1034D300A3E07004790180027900023F41C082C0F9
:1034E30083EAFCEBFD7A007B00023D06C082C083C9
:1034F3007C007D00023D0674F412043B74F3120950
:10350300CFEAFEEBFF8C0A8D0BC3EC94F8ED94FF2E
:103513004007EE4F70030235B3750800750900804C
:103523002E8518828519837401F012391E120BB788
:1035330012392C60137403120BB7AC82AD83EEFA0D
:10354300EFFB122022E97049E508240112374C9061
:103553002B14E4125A7AE50898E509995052E508C4
:1035630075F012A4F8AAF075F012E509A42AF9126D
:1035730065BF60D4EE4F70A974FF650A700474FFD1
:10358300650B60C412390E650A7004A3E0650B7005
:10359300B7E50875F012A4F508A8F075F012E5096F
:1035A300A428F50974792508FA74093509FB800400
:1035B3007A007B000240DD74F412043B74F31209B9
:1035C300CF750800120C788A0A8B0BAE0AAF0BEE8C
:1035D3004F602A8518828519837401123E9AF8A3D5
:1035E300E0F9740B120BB7123FBB120C187C127D5F
:1035F3000079FFEEFAEFFB1216FE7508011233C5D0
:103603005009900ED57401F0121002A9080240DD92
:1036130074F712043BE9FE74FE6A700374FF6B785F
:10362300007900700580521232971236A0504AE892
:10363300FCE9FDEC75F012A4FCAFF075F012EDA4FB
:103643002F1236ACF460E0E8FCE9FDEC75F012A44F
:10365300FC75F012EDA42FFD74792CF58274093DED
:10366300F583E06A7003A3E06B70BC80091236B087
:1036730014C39404401712329712328B5018EE7011
:10368300EC1236B064016005E0640370E91238FFA0
:10369300FAA3E0FB80047AFE7BFF023E95902B1495
:1036A30012496EC3E89CE99D2212380022E8FAE928
:1036B300FBEA75F012A4FAACF075F012EBA42CFB44
:1036C300747D2AF58274093BF583E022120C8A0289
:1036D3003D09C082C083790180F274F012043B8AF1
:1036E3000A8B0B7A047901120C488A0C8B0DEA457C
:1036F3000D603EEAC333FAEB33FB1217BE8A088B25
:1037030009AE08AF09EE4F60237AFE7BFF120C90DF
:1037130074FE6A700374FF6B601B850882850983DE
:10372300123EA5E508240212374C80E1750C008097
:10373300047E007F00850A82850B83E50CF0EEFA98
:10374300EFFB024923E5082407F508E5093400F5F2
:103753000922902B1412496EC3EA9CEB9D22E49339
:10376300FA740193FB221216F2740322125EE1E44F
:10377300F09081DE22E88E828F83A3A3A3A3A3A369
:10378300A3A312379A740112379AA3F0EE241012EE
:103793005EE4E4F0A3F022124324A3A3A322C08295
:1037A300C0837A007B008004191237CB123755503F
:1037B300101237EAC3940550F0E970EC1237D48045
:1037C300047A007B00023D09EA24010AEB3400FB82
:1037D30022EA75F012A4FA75F012EBA428FB7479AF
:1037E3002AFA74093BFB22EAFCEBFDEC75F012A408
:1037F300FCA8F075F012EDA42812380022FD747DA8
:103803002CF58274093DF583E02274F712043B74AE
:10381300F31209CF7E007F000238B2E50875F01776
:10382300A4F8A9F0126820FAA3E0FBEEF8EFF9E898
:1038330075F012A4F8ACF075F012E9A42C12390D4E
:103843006A7003A3E06B603FE50875F017A4F8AA5C
:10385300F0EA12681FF8A3E0F97401120BB7E068ED
:103863007003A3E0696020E50875F017A4F8EAF98E
:1038730074F528FC740A39FD7403120BB7AA82ABE2
:1038830083122022E96014E50875F017A4F8A9F063
:1038930074F328FA740A39FB1211340508902B27A4
:1038A300E493F8E508C398500302381E1238F690E3
:1038B3002B14126B665039EEF8EFF91238FFF470DF
:1038C30003A3E0F460E68518828519837401F0EEA2
:1038D300F8EFF9E875F012A4F875F012E9A42AF9E3
:1038E30012391E120BB712392C60C175080080AD56
:1038F300023E90EE24010EEF3400FF22E875F01231
:10390300A4F8AAF075F012E9A42AF9123912227464
:103913007928F582740939F583E022747B28F582CE
:10392300740939124912740B22E8F0A3E9123FC358
:10393300120C30E922C082C08390033D74F4F0A3DB
:10394300740EF090033F74EEF0A3740EF0900343F3
:10395300740EF0A3740DF0023D0974F712043BEAF0
:10396300FEEBFF900377E06408601BE064046016DD
:103973008E828F83E0540364017048123D16124413
:1039830019E06406703D8E828F83A3A3E064FE700A
:1039930003A3E0F4602D8E828F83A3A3123F2C90A8
:1039A3000368E0687003A3E069700BEE2415F582E9
:1039B300EF1265A66008120FA2E9F5088008120F3E
:1039C300A880F67508C2EEFAEFFB1217C4022E6147
:1039D30074F412043B8A088B098A828B83E0F8A370
:1039E300E0FAE82AFAE43400FB1217BE8A0A8B0BCA
:1039F300AE0AAF0BEE4F6063850882850983E0FC56
:103A03007D0079001216FE8E828F83A3A3126EDBD4
:103A1300120FE48E828F83A3A3A3A3123EA585086E
:103A230082850983E0F8EE28F8EF3400123F3485ED
:103A33000882850983A3E0C0E0EE240D125ED3D093
:103A4300E0F0120FF6EE240E125ED3E9125585E074
:103A5300C0E0EE2411125ED3D0E0F0EEFAEFFB02E9
:103A630040E274F412043B74EB1209CF8A088B0909
:103A73008C0A8D0BE9FE900377E064046005E06433
:103A830008700479C2802EA37808120B78EE900395
:103A93007E123D10120B787405120BB7E9F0740413
:103AA300120BB77401F07407120BB7E4F0900377AD
:103AB3007402123CA474150240DF74F612043B74C2
:103AC300EB1209CFEAFEEBFF1251A76003023B6141
:103AD3007A077B001217BE900339123EA51251A735
:103AE30060788E828F83120B9490033A12441C12D7
:103AF3000BA0126D9FC0E0123B6DD0E0F0EE2405E9
:103B0300FAEF3400FB8A088B098A82F583E0C0E070
:103B1300123B68D0E01240D9E0C0E0123B68A3D06A
:103B2300E0123F19120B94851882851983120BA09A
:103B330088828983E0C0E07405120BB7D0E0F0857A
:103B43000882850983E0C0E07404120BB7D0E0F06B
:103B53007407120BB7123CA3800679108002790117
:103B63007415023F3E123B6DA322900339E0FAA382
:103B7300E0F5838A82A3A3A3A322C082C083125148
:103B8300A7600D900339125AB1900339E4F0A3F002
:103B9300120F121210D4023D0974F012043B74EB9D
:103BA3001209CFECFEEDFF89087425120BB7780CD0
:103BB300120B5A7429120BB7E0F9742A120BB7E0EF
:103BC300FC742B120BB7E0FD740F697005740F6C56
:103BD3006012900F3EE06402700579C1023C9EE9D9
:103BE300C39C40F6900378780C120B78E508900399
:103BF3007EF0E990037CF0ECA3F0ED90037FF0748A
:103C0300FF6A700374FF6B701D900F49E0F470033B
:103C1300A3E0F47005121716800C900F49123E6D45
:103C2300E8F0A3E98007900375EAF0A3EBF0EE4F09
:103C33006017EEFAEFFB121194E96401700BEEFCCE
:103C4300EFFD7A897B03122028900368E4F0A3F048
:103C530090036BF0A3F0900388F0900F3EE06402B2
:103C6300700890037C740FF0A3F09003777405F051
:103C730014120BB7E4F0900378120B948518828525
:103C83001983120BA090037EE0C0E07405120BB7FA
:103C9300D0E0F07407120BB7123CA374150249204D
:103CA300E4123FC312205822C082C083900338E03D
:103CB3007003121AAC120CD8804CC082C0839003DC
:103CC30038E0900ED47004E4F0802D7401F090037A
:103CD30038E0F460237C41E0C394415002E0FCEC03
:103CE300F8E0C398F0EC75F0E8A4CCA8F075F00305
:103CF300A428FD7A801249767AD47B0E794112206A
:103D0300408003120C7ED083D082020903123F2429
:103D1300780822EE125EE222E0F508A3E0F509221C
:103D2300123D27221230A1A32274F512043B74E240
:103D33001209CF851882851983ECF0A3EDF0EAFE12
:103D4300EBFF89087429120BB7E0F509742C120BE9
:103D5300B7E0F50A900377E064046005E064087057
:103D63000579C2023E5E742A120BB7E064FE70034B
:103D7300A3E0F4700579C3023E5E900377740312E7
:103D83003FBF7950122040742A120BB7AA82AB832B
:103D9300794B122040851882851983123E6D123F9C
:103DA30038E50890036AF0742A120BB7123E6612C4
:103DB3003F38E509900362123E7474CE550944807E
:103DC300C0E07412120BB7D0E0F07401250A90031F
:103DD30088F0740F120BB77402F0742A120BB71227
:103DE3003F2C7407120BB7E8F0A3E9123EAB741033
:103DF300120BB7123F387405120BB7E508F0741BAA
:103E0300120BB7E4F090037D740FF07A7D7B037996
:103E13005412204090037C740FF07A7C7B03794723
:103E230012204090037CE0C3940F50237405120BBF
:103E3300B7E0C0E07402120BB7D0E0F07404120BC9
:103E4300B77401F004120BB7AA82AB831220647417
:103E530005120BB7AA82AB83122046741E120951B6
:103E6300022D2812491490036B22124914900375F2
:103E730022F0EEFCEFFD7A897B031220282274F7EF
:103E830012043BEB90037FF0120F008005740D12B8
:103E930009517F01020655123EA0A3E022123F19E9
:103EA300A322EAF0A3EBF022123F1FF8A3E0F922CA
:103EB30074F712043B74F81209CFEAFEEBFF7900A2
:103EC300900377E06408704485188285198374FD34
:103ED300F0A374FFF0120FDE7402120BB7123EA5AB
:103EE3007405120BB7E4123EA0E0C0E07404120B99
:103EF300B7D0E0123F14C0E07406120BB7D0E0F065
:103F03007407120BB7E4123FBF1210207408023E6D
:103F130092123F19E022F08E828F8322123F24E017
:103F230022F08518828519832212491422E0F8A30E
:103F3300E0F9125EE1E8F0A3E9F0221209517F02F1
:103F4300020655C082C083900349749EF0A3740D8A
:103F5300F09003EF747AF0A37410F090034D74D4CF
:103F6300F0A3740DF090034F749EF0A3740DF090C2
:103F7300035174DAF0A3740DF0023D0974F41204D2
:103F83003B74F91209CF8A088B098C0A8D0B8518AB
:103F9300828519837808120B787404120BB7E9F041
:103FA3007405120BB7E4F07406120BB7E4123FBFAB
:103FB300120CC074070240DFE8F0A3E9123FC322EA
:103FC300123F24AA82AB832274F412043B8A088B27
:103FD300098A828B83125EEFEE4F70030240D79003
:103FE30003121251AA60158A828B83A3A3E0F9EE10
:103FF300FAEFFB90031312441C12221F8E828F834D
:10400300A3A3A3A3A3A3A3A3A3E0640270748E82B8
:104013008F83A3A3A3A3A3A3E0540270030240A925
:10402300850882850983A3A3E064E960798E828F82
:1040330083A3A3A3A3A3A3A3A3A3A3E07014900F99
:1040430041E0048E828F83A3A3A3A3A3A3A3A3A36B
:10405300A3F08E828F83A3A3A3A3A3A3A3A3A3A34A
:10406300E0141240D9A3A3A37404F0900F42125991
:104073002AE8F0A3E9126A038B0BEA450B700312DB
:1040830063E18E828F83A3A3A3A3A3A3A3A3A3E02C
:10409300640260128E828F83A3A3A3A3A3A3A3A30B
:1040A300A3E06406702E8E828F83A3A3A3A3A3A38E
:1040B300E0A2E0501F850882850983A3A3E0F9EEFF
:1040C300FAEFFB1221008E828F83A3A3A3A3A3A3E2
:1040D300E054FEF0800912432022740D1209517F2F
:1040E3000402065574EC12043B74DD1209CFEAFE98
:1040F300EBFF8C088D097437120BB7780C120B5A2F
:10410300750A007405120BB7AC82AD831221427499
:1041130012120BB7E070087415120BB7E06020742D
:1041230005120BB7E0A2E6501E8E828F83A3A3A3D2
:10413300A3A3A3A3A3A3125624121056E9600879DC
:10414300031220100243067405120BB7E0540C64EB
:10415300047005750B018003750B00E0A2E5503573
:10416300750A01E50BA2E0402C120FE48A108B11B3
:10417300A810A911123D16E0687003A3E069601549
:104183007405120BB7126EE212562012210CE9606D
:1041930004790480AC7405120BB7E0A2E6502274D4
:1041A30006120BB7E0540370187405120BB7E054F2
:1041B3000C640C600CE0540C6408600575100180FD
:1041C300037510007405120BB7E05403F87402680A
:1041D300700C126EE2125620120BCA0243067401CF
:1041E30068703AE510A2E0500312430E7405120BF7
:1041F300B7A882A9837403120BB7E8F0A3E91249A5
:1042030008851882851983124318E0C0E0740212EE
:104213000BB7D0E0123FBF1221F0024306E8600360
:1042230002430690035FE0640170108E828F83A3C4
:10423300A3A3A3A3A3E070030241947422120BB7B8
:104243007402124908741A120BB7123F38E510A210
:10425300E050087405120BB712430EE50BA2E050B1
:104263006AEE240FF582EF1265A6C0E07417120BF5
:10427300B7D0E0F09003141251AA70030243061260
:104283000FE48A128B13A812A913741A120BB7E046
:10429300687003A3E069706B780C120936780A1210
:1042A3000942780812093EA910740C120BB7AC82AC
:1042B300AD837421120BB7AA82AB8390031412440B
:1042C3001912221F74071209518038780C1209360B
:1042D300780A120942780812093E90037512078B77
:1042E300EE2412F582EF1262D47423120BB7AC8260
:1042F300AD83740E120BB7AA82AB831220F4740938
:1043030012095174231209510269CE126EE2125A34
:10431300BF12213C22E8F0A3E912432022124324D6
:1043230022F08E828F83A3A3A3A3A3A32274F712E5
:10433300043B121980023E9574F712043B1219864E
:10434300023E9574F712043B121992023E95C08205
:10435300C08312198C023D0974F712043B12199899
:10436300023E9574F712043B7409120BB7E0F5088B
:1043730078081209421219A47401023E92C082C045
:10438300831219B0023D09C082C0831219B6023DDF
:104393000974F712043B1219BC023E9574F7120418
:1043A3003BEAFEEBFF89087401650870147900127B
:1043B3000E16902B32E493FC7900EEFAEFFB120D0C
:1043C3008C023E9574F412043B74F91209CFE9FE92
:1043D3008A088B098C0A8D0B7413120BB71256249F
:1043E3009005ED1251AA6027EE851882851983F096
:1043F3007401120BB77808120B78EAF8EBF974051D
:10440300120BB7123FBB9005ED12441912221F0283
:104413003FB6FB90034BE0F8A3E0F583888222C00C
:1044230082C0831219F2023D0974F712043B900E05
:10443300D7E0F97E00800B126592540D6401700180
:10444300190E1246265003E970ED023E9574F712D9
:10445300043B900ED8E0F97E00800B126592548DD8
:1044630064817001190E1246265003E970ED023E75
:104473009574F212043B890BE975F006A4240CF53C
:1044830008E5F01237508A0CE508250CFAE50934E3
:1044930000FB1217BE8A0C8B0DAE0CAF0DEE4F60F6
:1044A30027AC08AD0979001216FE123D16E50BF094
:1044B300EE2508F8EF3509F98E828F83A3A3A3A312
:1044C300A3A3A3A3A3123F38EEFAEFFB02541F7476
:1044D300F612043BEAFEEBFF120D68900ED6E0F8ED
:1044E300E9C3984009900345125624120D6EEE2439
:1044F30002F8EF125C34900347125AEE900347E040
:1045030004F0EEFAEFFB120D74850882850983E04F
:104513000260EAC082C083790090034580010912DA
:1045230056248A828B83E582458370F2023D0974A7
:10453300F712043BEAFEEBFFEE4F60569003451281
:1045430051AA604E888289837A007B00EE6582706F
:1045530003EF6583600FAA82AB83124598E582451A
:1045630083602F80E79003451245A4687002EF69CA
:104573008E828F837008123F2C900345800312694B
:10458300E0123F38EEFAEFFB1221C0EEFAEFFB1216
:1045930017C4023E9512459C2212491888828983CA
:1045A30022124914EE22C082C083900345800488FE
:1045B3008289831251AA600B88828983124C5CEC36
:1045C3004D70EC8A828B83E4F0A3F0E8496006889F
:1045D3008289838003900345123EA5023D0974F747
:1045E30012043B90034580048A828B831246214B3D
:1045F30060257E0080010E12462650ECEE75F00613
:10460300A4FCADF0EA2CFCEB3DFDEC2410F582EDAF
:1046130012467670E180047A007B00023E95125ABE
:10462300C3EA2212467FEEC3982274F712043B7D3D
:104633000080010D12467BEDC3985034ED75F006F2
:10464300A4FEA8F0E8FFEA2EFEEB3FFFEE2410F5F0
:1046530082EF12467670DCED75F006A4FEE8FFEA01
:104663002EFAEB3FFBEA2411F582EB1265A64CF020
:10467300023E951265B2692212467F22126EECEB5E
:104683003400F583E0F82274F612043B120E8E7A9E
:10469300007B008025EAF8EBF9E875F006A4F8AC96
:1046A300F075F006E9A42C125A98126DADA3E4122A
:1046B3005B8EF0A3126DB3126F2A902B1C1233CFB3
:1046C30040D37A007B00801C8A088B097403780826
:1046D300120AE612554CA374FEF0A30412596EA3FA
:1046E300E4126F2A902B2612472940DC7A007B00C4
:1046F300801D8A088B0974037808120AE6741B125A
:10470300621E740E126A6574FEF0A304126F2A907F
:104713002B2C12472940DB902B30E493900353F06A
:10472300124733023F41E493F8C3EA98EB94002223
:104733007CE87D037A107B009003C2E0F9121884B1
:104743002274F012043B74F51209CF8A088B09898D
:104753000A8C0BE9A2E050147508FC7509FFA2E16D
:104763005005D2E4024806D2E302480612540B7005
:1047730003A3E069700579000248D3AC0A7902AA61
:1047830008AB09120E6AE960EDE50AF50C780C1224
:10479300094279027CFE7DFFAA08AB0912518612F9
:1047A3000951E960030248D1E50AC2E5F50A90031D
:1047B300B5E07051E50AA2E6404B7403120BB7ACA7
:1047C30082AD83AA08AB09120C0CE97032124AA716
:1047D3008A0C8B0DA80CA90DE8FEE9FFE8496025BA
:1047E300EE24020A0AEF1230DF601AEE2402FCEF15
:1047F3003400FD7403120BB7AA82AB83122028E5A1
:104803000AD2E5F50A900348E0F50C900368E0F559
:104813000EA3E0F50F780E12093E7D017C00900394
:1048230048E0F9AA0EAB0F120E227402120951E9E5
:10483300F8900348E004F0E860030248D1E50AA2D7
:10484300E55004740E80027406C0E07401120BB7C5
:10485300D0E0125F008A0E8B0FAE0EAF0FEE4F60EB
:10486300691248F1124908888289837401F07478C7
:10487300550AA3126EF2E50C126EF2A3E508F0E5F9
:10488300091248E0E4F0E50AA2E5500F7403120BA5
:10489300B7AC82AD83E824061248D78E828F83A3F8
:1048A300A374FDF0A374FFF0E50B6015902B33E4C4
:1048B30093F8E50BC3985009EE2413125ED3E50B6E
:1048C300F0EEFAEFFB120CAE80067910800279C786
:1048D300740B8049FAE93400FB122028228882896C
:1048E30083A3A3A3A31248EC22125C67A322EE24A2
:1048F30017125EE47401F0120FDEEE241A125EE466
:10490300EAF0A3EB22F0126EE6340012491222F50C
:104913008312491822E0F8A3E0F922740D12095119
:104923007F0802065574F612043B7A007B1012636B
:10493300EE60089003D47401F0802990068EE06441
:1049430001900F3F7006E0FC79018004E0FC7903DD
:104953007A007B00120D8C902B1A12496A7A007B25
:1049630010124978023F4112496E22E493FC74010C
:1049730093FD227B009003C2E0F912187E2274ECAF
:1049830012043B8A088B098C0C8D0D890E7414124A
:104993000BB71253657416120BB7E0F510A3E0F5CD
:1049A30011121056E960077AFF7BFF024AA4900FA9
:1049B3003EE064026003024A977900AA08AB091239
:1049C3000E70A90E120E648A128B13AE12AF13EE81
:1049D3004F7003024A7F8E828F83A3A3A3A3A3E016
:1049E30064018E828F83A3A370691256248E828FF3
:1049F30083A3A3A3A3A3A3E054186043902B31E4A0
:104A0300938E828F83A3A3A3A3F0EA650C7003EBB9
:104A1300650D6014EA650A7003EB650B600AEA65CD
:104A2300107003EB6511701F781012093EAC0AADCC
:104A33000BAA0CAB0D12115274021209518008908B
:104A430003671263D8A3F074FE6A700374FF6B608C
:104A53001D804EA3A3A3E0640360298E828F83A3EA
:104A6300A3A3A3A3E0640470057AFE0249AC8E827B
:104A73008F83A3A3A3A3A3E0640270089003B4E00D
:104A830064027010124AA78B0BEA450B6006AA0852
:104A9300AB09800DAA08AB099003491244191222ED
:104AA3001F0269CE90037512518C1211162274F7EE
:104AB30012043BEAFEEBFF120C60E9700AEEFAEF18
:104AC300FB120C6CE96006EEFAEFFB80047AFE7BC6
:104AD300FF023E9574F012043B8A0A8B0B8C0E8DF9
:104AE3000F8909750800121056E979006003024C1A
:104AF3004EAA0AAB0B120E70A909120E648A0C8B14
:104B03000DAE0CAF0DEE4F60198E828F83A3A3A35E
:104B1300A3A3E0640270559003B4E064027003023F
:104B23004C4CAA0AAB0B90034F12441912221F12CA
:104B33000C728A0C8B0DA80CA90DE8497003024C6A
:104B43004C88828983A3A3A3A3A3E0A2E04003022A
:104B53004C4C750C01A2E150687901AC0AAD0BAA6B
:104B63000EAB0F120DBCE97064024C4C8E828F8326
:104B7300A3A3A3A3A3E064037005750C0280528E64
:104B8300828F83A3A3A3A3A3E064016003024C4C1D
:104B9300900375124C5C8E828F83124FB18A0C8BFB
:104BA3000DA80CA90DE84960D1902B2AE493FA884B
:104BB300828983E0C39A50C2A3E06003024C4C8015
:104BC300B988828983A3A3A3A3A3D2E1F0EE4F60A4
:104BD3003A8E828F83A3A3A3A3A3A3E05418602BCD
:104BE3007508018E828F83A3A312078B750CFE7544
:104BF3000DFF780C12093E7900AC0AAD0BAA0EAB7F
:104C03000F120E827404120951803E900368E0650E
:104C13000E7004A3E0650F7014902B32E493FCA98B
:104C230009AA0AAB0B120D8C750801801CA90CACE8
:104C33000AAD0BAA0EAB0F120DBCE9700C7508017F
:104C4300A909AA0AAB0B120E16A908024923E50CFF
:104C53002415F582E50D125EE71259442274EA1217
:104C6300043B74F01209CF8A0C8B0D8C088D0974E8
:104C730026120BB7E0F514A3E0F5157512069003A1
:104C8300F51251AA6023900375124C5CAA08AB0974
:104C93001211408A108B11EA4511600D8A828B83B1
:104CA300A3E070057900024F99E50C241DF50EE58C
:104CB3000D3400F50F850E82125196F51388828903
:104CC30083A3A3A3E0FA88828983A3A3A3A3E0F920
:104CD300EA2400FEE439FFAA08AB09120E1C850E74
:104CE30082850F83124FD4E029F50BE50AA2E55024
:104CF3000375120E7487550A70177418550A6418D1
:104D0300600FE50C2417F582E50D1265A6651260A8
:104D1300077901122010808C530A78C3EE94F8EFC0
:104D230094FF501D7900EEFAEFFB124FA360128837
:104D3300828983A3A3A3A3A3A3E054186003024C13
:104D4300A7780812093E7D00124FC7120951E9F8EE
:104D53007403687003024CA7E86003024E127418D0
:104D6300550A7003024EC7E50AD2E0F50AA2E450E1
:104D730004D2E1F50AA90A12561D124FA360538803
:104D8300828983A3A3A3A3A3A3E0541860448882C6
:104D93008983A3A3A3A3A3E064017036E51045119F
:104DA3006030900375124C5C88828983124FB18AFC
:104DB3000E8B0FA80EA90FE849601788828983A379
:104DC300E0600F851082851183A31260F550030202
:104DD3004CA7E50AF50E780E120942124FBA1209D2
:104DE30051E9702B7C007D0085148285158374FF47
:104DF300F0A3F0850C82850D83A3A3A3A3A3A3A390
:104E0300A3E06003124C51A90B12561D1219AA8577
:104E13001482851583E0F47003A3E0F460399003F2
:104E2300B4E064027003024CA7125356E0FAA3E005
:104E330012441512221FEA65087003EB650960032B
:104E4300024CA7EEFAEF12441512221F8514828535
:104E53001583EAF0A3EBF0780812093E7D01124FA7
:104E6300C7120951A90AEEFAEFFB120E708A088BDA
:104E730009A808A909900368E0687003A3E06960C2
:104E830003024F8AEEFAEFFB120C728A088B09A811
:104E930008A909E849606E88828983A3A3A3A3E0D4
:104EA3006401600D88828983A3A3A3A3E0640270D5
:104EB30054851882851983AC82AD83EEFAEFFB1219
:104EC3000C0C8055900361E0600FE50AF50E780E37
:104ED300120942124FBA120951E50AF50E780E1261
:104EE300094279027CFE7DFFEEFAEFFB1251861236
:104EF3000951E96003024E1285148285158374FFFC
:104F0300F0A3024E59120FDEEAFCEBFD85188285F1
:104F13001983AA82AB83122028850C82850D83A373
:104F2300A3A3A3A3A3A3A3E06401700F124C517422
:104F330008120BB7AA82AB83122028125160125DAC
:104F43006C4430F50878081209427401120BB785D6
:104F53008208858309780812093E740B120BB78502
:104F63008208858309780812093EE513F508780855
:104F73001209427900EEFCEFFD12561D120DB674B4
:104F830006120951024CA7125160125ED6124FD479
:104F9300E50BF0120FF674101209517F0E0206553D
:104FA300120E648A0E8B0FA80EA90FE84922A3A341
:104FB300125AC3121140227901AC08AD09125AB832
:104FC30012518622AC0BA913125AB8120E22740284
:104FD30022125D74A3A3A3A32274F012043B74F002
:104FE3001209CF8A0C8B0DECFAEDFB750F089003B9
:104FF300F51251AA60141260EE8A828B83E5824512
:10500300836007A3E0700302515B12516034001206
:105013005196F50B88828983125169E0FBEC2400D9
:10502300FEE43BFF88828983A3A3125169A3A3E013
:10503300FBECF508E43BF50988828983A3A3A3A3CA
:10504300A3A3A3E0F50EE50AA2E45003750F10A293
:10505300E550067408250FF50F748F550A700FE598
:105063000C2417F582E50D1265A6650F600879011A
:1050730012201002515B530A707800E50AA2E45033
:10508300221251601265A62408FCA3E03400FD74CB
:1050930008120BB7AA82AB831220287808E50AC24C
:1050A300E4F50AE50AA2E550281251601265A62824
:1050B300F8A3E03400F9E82408FCE93400FD85187E
:1050C30082851983AA82AB83122028E50AC2E5F5FB
:1050D3000AAC0EA90BEEFAEFFB120E28E9F87403E3
:1050E300686075900368E06E7003A3E06F605EE82C
:1050F3007054E50AF50F780F12094212517712091D
:1051030051E97054780A1209427401120BB785826F
:105113000C85830D780C12093E740B120BB7858234
:105123000C85830D780C12093EE50BF50A780A12FB
:105133000942A90EAC08AD09EEFAEFFB120DB674E5
:10514300061209518012740468700D80B7780A1230
:1051530009421251771209517410024920E50C24B7
:105163001DF582E50D22A3A3A3E0FC88828983A316
:10517300A3A3A322790112535D125EE712518C128D
:10518300518622120DE0740122E0FCA3E0FDAA087F
:10519300AB0922F58312459CA3E0F50A8882898333
:1051A300A3A3E022900339125B1F2274E812043B8D
:1051B30074F51209CFEAFEEBFF8C088D098914748C
:1051C30023120BB7E0F50F7424120BB7E0F512A30B
:1051D300E0F5137426120BB7E0F516A3E0F5177488
:1051E30028120BB7E0F50EA90F120E2E8A108B11A1
:1051F3007401120BB77408F0E50EA2E450037410A7
:10520300F0E50EA2E55004E02408F0851882851924
:1052130083AA82AB8312103E8A0C8B0DEA450D7074
:105223000302533DEA2417F582EB12534F120FDEAC
:10523300E50C241AF582E50D125ED6123EA5740321
:10524300120BB7AC82AD83AA10AB11120C0CE96040
:105253001D1253477403120BB7A882A983E50C24CC
:1052630018F582E50D125ED6E8F0A3E98024E50E79
:10527300A2E4501FE5106E7003E5116F7015125311
:1052830047E50C2418F582E50D125ED6E512F0A36E
:10529300E513F0125356125365850A82F58374029F
:1052A300F0A3E50E12536DE50FF0EE850A82850B30
:1052B30083A3A3A3F0EF850A82850B83A3A3A3A3F0
:1052C30012536DA3A3A3E508F0E509850A82850BB4
:1052D30083A3A3A3A3A3A3F0AA10AB11120E1CE9EB
:1052E3002514850A82850B83A3A3A3A3A3A3A3F0F9
:1052F300750800E50EA2E45011AC12AD13E50A24C3
:1053030008FAE50B1248D9750808E50EA2E5501412
:10531300AC16AD17E50A2508F8E50B3400F9E824C7
:10532300081248D7850C82850D83A3A3E510F0A34B
:10533300E511F0AA0CAB0D120CAE740B1209517FE0
:1053430010020655E50C2416F582E50D125EE7748E
:1053530001F02212535D125EE722E50C126EEDE5B9
:105363000D22E0F50AA3E0F50B22F0850A82850BF6
:1053730083A3A32274F212043B8A088B09ECFEED8B
:10538300FF890A790012540B7003A3E06970047952
:10539300018073750B01900368E065087004A3E056
:1053A3006509601F750B00780B120942A90AEEFC10
:1053B300EFFDAA08AB091210927401120951E9F525
:1053C3000B80417900EEFAEFFB120E64EA4B602B7F
:1053D3008A828B83A3A3A3A3A3A3E05418601C75A1
:1053E30008FE7509FF780812093E8A828B83A3A3FE
:1053F30012078B126D0212095180097901EEFAEF3F
:10540300FB120D3EA90B8014120E708A0C8B0DA893
:105413000CA90D900368E068221209517F06020669
:105423005574F412043B75086375090C7A10126AFB
:105433000A8B0BEA450B7003124733900353E014B6
:10544300F0700C902B30E493900353F0120E7C7E9B
:10545300007F00806C850882850983A3A3A3A3E052
:105463006059F46056E5082404F582E5091263D215
:105473007049850882850983A3A3A3A3A3E06403DA
:1054830070197902850882850983124C5C8508822C
:10549300850983A3A3125624120DBC8508828509AE
:1054A30083A3A3A3A3A3E0640160108508828509F5
:1054B3008374FEF0A30412557EE4F01238F612371B
:1054C30048902B1E126B66408C7E007F0080391241
:1054D3000F848E088F0974037808120AE674DB259B
:1054E30008FC740D3509FD7AC87B0D120F72EA4B67
:1054F30070DD8E088F0974037808120AE612554C82
:10550300126DADE4F01238F6902B26E493F8C3EE57
:1055130098EF9400501B8E088F0974037808120AC1
:10552300E6125554E82407F582E91263D270D68057
:10553300A17E007F00800A12555F600214F01238CA
:10554300F6126B6340F10240E2125554888289835C
:105553002274DB2508F8740D3509F922EEF8EFF90A
:10556300E875F006A4F8AAF075F006E9A42AF97420
:105573007B28F582740D39F583E022125585A3A3A8
:10558300A322F0850882850983A3A32274F712045A
:105593003B74E11209CFECFEEDFF750800EE4F609E
:1055A300728A828B83E0241C1264031251AA606303
:1055B3008A828B83125624851882851983AC82AD27
:1055C30083EA241BF582EB1262D4EA241CF582EBF6
:1055D300125620120FC6740B120BB7125628700303
:1055E300A3E069702E7402120BB7E0640170247497
:1055F3001D120BB7124419E064017017741D120BCE
:10560300B712441BA3A3E0F88E828F83E068700374
:10561300750801A908741F023E9212535D3400F508
:1056230083125AC32212309DE0682274F412043BA1
:10563300E97024790090034D12441912221F8A0A3B
:105643008B0BAE0AAF0B74FE6E700374FF6F701A90
:10565300902B2DE4936013790190034D124419129A
:10566300221F8A0A8B0BAE0AAF0B121002023A5E9C
:1056730074F612043B74F31209CF1217168A088BBF
:1056830009AE08AF09900368E06E7003A3E06F6092
:10569300E9120FEAEA6E7002EB6F60DEEEFAEFFBDF
:1056A300121056E970D4EE4F60D0851882851983A5
:1056B300E4F004120BB7EEF0A3EF1256D6E970BA7A
:1056C30074FE6E700374FF6F60B0EEFAEFFB740D3F
:1056D300023F3E123FC3120C2422C082C083121029
:1056E30002023D097F0A02065574F212043BEAFEE8
:1056F300EBFF8C0A8D0B8908740E120BB7E0F509CA
:1057030074FC6E700374FF6F7005790002541F7987
:1057130000120E708A0C8B0DAE0CAF0D900368E077
:105723006E7003A3E06F7006E509A2E650DCA909D9
:10573300126BF0706179007AFE7BFF126BF070568A
:1057430074185509700302582378007900800312F6
:105753003297902B1E12328E4003025823E8FAE947
:10576300FBEA75F007A4FAACF075F007EBA42CFB89
:1057730074692AF582740C3BF583E0541870D0E801
:1057830075F007A4F8AAF075F007E9A42AF9746381
:1057930028F8740C39F988828983A3A3A3A3A3A34C
:1057A300E05418600974185509700302570D888274
:1057B3008983EEF0A3EFF074FE650A700474FF654D
:1057C3000B600312594A88828983A3A3A3A3A3A3CB
:1057D300E509F0A2E0500D88828983A3A3A3A3A3C4
:1057E300A3D2E2F07401650888828983A3A3A3A3EB
:1057F300A37038740112596EE054186028902B314D
:10580300E49388828983A3A3A3A312593812114076
:105813008B0DEA450D600302570D7800790080393E
:10582300790202570F900367E080D7E064017003A9
:1058330002570D88828983A3A3A3A3A3A3E05418CB
:105843006007902B31E4938004900366E01248E0F4
:10585300E508F002570D123297902B27E493FAC311
:10586300E89AE99400400302570D7A007B00804BCD
:10587300EAFCEBFDEC75F007A4FCAEF075F007ED68
:10588300A42EFD74652CF582740C3DF583125EEF36
:10589300E8FCE9FDEC75F017A4FC85F00975F01739
:1058A300EDA42509FD74F32CF582740A3DF583E01C
:1058B3006E7003A3E06F609E1237CB902B1E1237DE
:1058C3005840AD12496AEC6A7002ED6B7088E87556
:1058D300F017A4F8AAF075F017E9A42AF974F328CD
:1058E300FE740A39FF7C177D007900EEFAEFFB1294
:1058F30016FE8E828F8312595090037512592AA374
:10590300A3A3A3A3A3E8F0A3E91259307401F0EE13
:10591300240E125ED374011259581202EAEE240DBA
:10592300125ED3E8025855123D27A3A322F0EE24BA
:105933000F125EE422F0125941AA0AAB0B22900324
:1059430075E0FCA3E0FD2288828983A3A3E50AF026
:10595300A3E50BF022F012595D22902B2AE4932445
:1059630001F8E43400F97A027B00221248ECA32206
:1059730074ED12043B8A088B09890E125AA1400563
:105983007905025A6F1219F8AA08AB09125B7390D2
:105993002B1C125A72650A7003E9650B70077AFEB5
:1059A3007BFF125B73902B1CE4125A7AE50A98E58D
:1059B3000B994003025A6D125A7E6012E50A75F084
:1059C30006A4F875F006E50B125AC91217C4E50EC2
:1059D3006018E50A75F006A4F8AAF075F006E50B61
:1059E300125AF5701A7901025A6FE50A75F006A486
:1059F300F8AAF075F006E50B125AD6E4F0A3F0E529
:105A03000A75F006A4F8AAF075F006E50B125A968B
:105A1300A3125D8288828983A3AA82AB83125AE48C
:105A23008A828B83E0603F125A7E603A8E108F1118
:105A3300751200781012093AE50EC333FCE433FD06
:105A4300E50A75F006A4F50AA8F075F006E50BA4BF
:105A530028F50B747F250AF582740D350B12562237
:105A6300123769120951790080027907026C061214
:105A730033F0E822902B1412658D22E50A75F006A7
:105A8300A4F8AAF075F006E50B125AD1F8A3E0F9D1
:105A9300E84922A42A125C2A88828983A322ECFE85
:105AA300EDFF902B28E493F8E9C39822F583125A6B
:105AB300C31217C422E50C126EEDE50D3400F58315
:105AC300E0FAA3E0FB22125AD1FAA3E0FB22125A16
:105AD300D6E022A42AF9747F28F582740D39F58360
:105AE30022E50EF0900F40125AEE22E0888289835D
:105AF300F022125C4EF50CE93400F50DE50EC333CC
:105B0300FAE433FB1217BE850C82850D83EAF0A3FA
:105B1300EBF0850C82850D83125B1F22124918E876
:105B2300492274F412043BECFEEDFF740C120BB724
