:020000040000FA
:06000000020B4A0201DBC5
:03002B0002099E29
:0300330002077051
:0300430002083A76
:0300530002010C9B
:03005B000201FEA1
:03006B0002075633
:100083000201700101FF01010503010F10FEFFD4FE
:1000930013D413D413D4138A128412D413BF270096
:1000A3000000002128000000000C0000000C0001EB
:1000B3000000A2150000000000005C160000000014
:1000C300000000000000FFFF414C44323533302074
:1000D3004C4544000100010200BA050000002D0652
:1000E3006400020200080000050207051E02051E47
:1000F300020A0A03B80B02803E0102FFFF141F002D
:10010300E00796511800020206C0E074F21204A739
:10011300A2AFE433FED2AFE5A7FFE5A1F5085F5434
:10012300106006121DB875A1EFE5085F540860085A
:10013300121DBE75A1F7802BEFA2E0C0D0E508A287
:10014300E092F0120A87158182F05017906198E0CF
:10015300F890090AE0C398A2D265D0335002E8F0C0
:1001630075A1FEEEA2E092AF7F0102055EC0E074CE
:10017300F21204A7A2AFE433FED2AF9061A4E0F879
:10018300759B00E59158540860087591F7121E0697
:10019300802AE59158541060087591EF121E0C8067
:1001A3001BE8A2E0C0D0E591A2E092F0120A871505
:1001B3008182F05007E0C2E0F0121F509061A3E08B
:1001C300F8E5E9585404600E121F2675E9FB9061A7
:1001D30093E0A2E640F2808BC0E074F21204A7A27F
:1001E300AFE433FED2AF9061A5E0F8E5BF58540405
:1001F300600675BFFB121F68020166C0E0C0D0E84D
:10020300C0E0E9C0E0EAC0E0EBC0E0C082C08375B3
:10021300C0009005941202A3900594EAF0A3EBF0BA
:10022300C3E89497E99400A2D265D03340079005C0
:1002330094E4F0A3F09005921202A3900592EAF0E1
:10024300A3EBF0C3E89403E99400A2D265D0334052
:100253003A900592E4F0A3F090058EE064017002F9
:10026300A3E07027900590E0F8A3E0F9E849900532
:1002730090700E7401F0A3E4F075DB0075DAFF8073
:100283000AE4F0A3F075DB0075DA00D083D082D0E6
:10029300E0FBD0E0FAD0E0F9D0E0F8D0D0D0E03203
:1002A300E0F8A3E0F9E82401FAE93400FB22C3E40F
:1002B30098F8E499F91202F28026C3E49AFAE49BCF
:1002C300FBE920E7E91202F2E498F8E499F922C382
:1002D300E498F8E499F91202F2E498F8E499F9C37E
:1002E300E49AFAE49BFB22EB20E7CFE920E7E0B9AD
:1002F3000010BB0008E88AF084F8AAF022E4FBC8E7
:10030300FA22EB70227B10C833C8C933C9335007B4
:10031300C39AC3DBF280069A50012ADBEAC833F49E
:10032300C8C933F4C9FA2275F008E4C833C8C9331D
:10033300C933C99AC99B5004C92AC93BD5F0ECFB00
:10034300C833F4C8E4C9FA22080808EAC0E0EBC0DD
:10035300E086F0E7A4FA180986F0E7A42AFA180958
:1003630086F0E7A42AFA180986F0E7A42AFA198680
:10037300F0E7A4FBE5F02AFA190886F0E7A42BFBC3
:10038300E5F03AFA190886F0E7A42BFBE5F03AFA10
:1003930018180986F0E7A4C5F02BFBE43AFA19080C
:1003A300E7C5F0C6A426F6E5F03BFBE43AFA188667
:1003B300F0E7A4F6E5F00826F6E43B08F6E43A088D
:1003C300F6D0E0FBD0E0FA22E4CFC0E0E4CEC0E018
:1003D300E4CDC0E0E4CCC0E075F020C3E633F6081A
:1003E300E633F608E633F608E633F6181818EC3366
:1003F300FCED33FDEE33FEEF33FFC3EC9709ED97CE
:1004030009EE9709EF97191919400FFFEC97FC09AB
:10041300ED97FD09EE97FE191906D5F0BEECF70925
:10042300EDF709EEF709EFF7191919D0E0FCD0E061
:10043300FDD0E0FED0E0FF222518C582C0E0E5191B
:1004430034FFC583C0E0E518C3958224F810AF08D4
:100453008583198582188008858319858218D2AF10
:10046300CEF0A3E520F0A37808E608F0A3DEFAEFC8
:10047300F0A3E58124FAF8E608F0A3E608F0A3E682
:1004830008F0A30808E608F0A3E608F0A315811511
:1004930081D0E0FED0E0F8158115811581E8C0E038
:1004A300EEC0E022C0D02518C582C0E0E51934FFB4
:1004B300C583C0E0E518C3958224F310AF08858394
:1004C300198582188008858319858218D2AFC8F0F0
:1004D300A3E9F0A3EAF0A3EBF0A37908E709F0A3FB
:1004E300D8FAECF0A3EDF0A3EEF0A3EFF0A3D0E085
:1004F300F0A3D0E0F0A3D0E0F0A3E520F0A3E5F073
:10050300F0A322120BACB90003020548E4900301E7
:1005130078D1790C8002F0A3D8FCD9FA900ED1AA35
:1005230082AB83900086788779018015E493A3AC2E
:1005330082AD838A828B83F0A3AA82AB838C828D64
:1005430083D8E9D9E775821675838E74041208FD82
:1005530075822075832274001208FD85198385181E
:1005630082E0C0E0A3E0F9A3E0FAA3E0FBA37808EC
:10057300E0F608A3DFFAE0FCA3E0FDA3E0FEA3E0BE
:10058300FFA3E0C0E0A3E0C0E0A3E0F5D0A3E0F563
:1005930020A3E0A3F5F010AF0885831985821880A6
:1005A30008858319858218D2AFD082D083D0E0F832
:1005B300D0E0320E0075F0108E1A8F1B85821F85D6
:1005C300831E851882851983E0CEA3E0CF851F8221
:1005D300851E83EBC9EAC8EDCBECCAC3E833C8E98F
:1005E30033C9EA33CAEB33CBC3EA9EF51DEB9FF560
:1005F3001CB35004AB1CAA1DEC33CCED33CDD5F0AA
:10060300DAAE1AAF1B22D083D082ECC0E0EDC0E09B
:10061300E493A3FCE493A3FDED4C600D1206E1EC1F
:1006230024FFFCED34FFFD80EFE493A3FCE493A3EC
:10063300FDED4C600D1207E5EC24FFFCED34FFFDEE
:1006430080EFD0E0FDD0E0FCE493A3C0E0E493C0EE
:10065300E022851983851882E0A3FEE0A3F52078C4
:1006630008E0A3F608DFFAE0A3FFE0A3C0E0E0A3FD
:10067300C0E0E0A3C0E0E0A3C0E0E0A3C0E010AFAF
:10068300088582188583198008858218858319D285
:10069300AFD083D082020903D083D082E9C0E0E4E3
:1006A30093A3C386F0C5F095F0F908E493A386F00D
:1006B300C5F095F0700BE493A3C3994005E904805A
:1006C30002A3E475F002A42582F582E5F03583F5F3
:1006D30083D0E0F9E493A3C0E0E493C0E022C0E058
:1006E300C3E49396087401939618400FE4936670DD
:1006F3000808740193661870007019A3A3C3E493E8
:1007030096087401939618A3A3400DD0E0D0E0D0CF
:10071300E0020645A3A3A3A3A3A3D0E022D083D0E2
:1007230082C5F0E493A3C5F0C395F0F5F0E493A379
:10073300C395F04005E5F0048001E475F002A425BB
:1007430082F582E5F03583F583E493A3C0E0E49377
:10075300C0E022C0E074F21204A7E589A2E15003CD
:10076300121C6E758900C2C57F0102055EC0E0746C
:10077300F21204A7E58BA2E05003121C6E758B00E6
:10078300C2E880E47404800474028000CCC0E0ED0D
:10079300C0E0E518C39CCCAD1950011D10AF068C09
:1007A300188D1980068C188D19D2AF12087FD0E0EE
:1007B300FDD0E0FC2274028000CCC0E0EDC0E0E597
:1007C30018C39CCCAD1950011D10AF068C188D19A0
:1007D30080068C188D19D2AF12085DD0E0FDD0E0F1
:1007E300FC22C0E0C0F088F0E4936670080874014E
:1007F3009366187000A8F0A3A3700BD0F0D0E0D0DC
:10080300E0D0E0020645A3A3D0F0D0E022D083D00D
:1008130082CCC0E0E493A360061208BF1470FAE42C
:1008230093A360061209E51470FAD0E0FCE493A3E5
:10083300C0E0E493C0E022C0E074F21204A7A2AFC8
:10084300E433FED2AFC2C0E5D1A2E45003121D2EA1
:10085300EEA2E092AF7F0102055ECAC0E0E493A37B
:10086300C582CCC582C583CDC583F0A3C582CCC563
:1008730082C583CDC583DAE5D0E0CA22CAC0E0E0F1
:10088300A3C582CCC582C583CDC583F0A3C582CC65
:10089300C582C583CDC583DAE6D0E0CA22700908D4
:1008A3000808226016181818C6C333C608C633C60C
:1008B30008C633C608C633C6D5E0EA22C0E0E493CF
:1008C300A3D39C5010E493A3C39C400AD0E0D0E090
:1008D300D0E002082DA3A3A3D0E022C008C3E09672
:1008E300F50808A3E096420808A3E096420808A387
:1008F300E09645087001D3D00822C09FF59FE473AA
:10090300D09F22D083D082C09FE493C0E074019330
:10091300C0E0740293F59F222518F58210AF08F505
:1009230018400215198008F51840021519D2AF8531
:100933001983227404800A7403800674028002748B
:1009430001C0E0F40412091BD0E0120B8722C0D0CF
:10095300251810AF08F518500205198008F518502E
:10096300020519D2AFD0D022BB0102E722C082C058
:100973008389828A83BB0003E08002E493D083D01F
:1009830082226016080808C6C313C618C613C61801
:10099300C613C618C613C6D5E0EA22C0E0C0D0E825
:1009A300C0E0E5A8D2AFC2C7A2E792AFD0E0F8D0CB
:1009B300D0D0E032C3E0C696F608A3E0C696F608A8
:1009C300A3E0C696F608A3E0C696F622251810AF54
:1009D30008F518400215198008F51840021519D2B8
:1009E300AF22C0E0E493A36C7009D0E0D0E0D0E084
:1009F30002082DA3A3D0E022E066701008A3E066EE
:100A0300700A08A3E066700408A3E06622C3E096B8
:100A130008A3E09608A3E09608A3E096A2D265D0C7
:100A23003322E76670100809E766700A0809E7666B
:100A330070040809E76622C3E096F008A3E096F085
:100A430008A3E096F008A3E096F022E026F008A3BE
:100A5300E036F008A3E036F008A3E036F022E627FC
:100A6300F60809E637F60809E637F60809E637F621
:100A730022E026F608A3E036F608A3E036F608A33C
:100A8300E036F622C0E0E8C0E0E58124FCF8E6A207
:100A9300E7D0E0F8D0E022E647F60809E647F60893
:100AA30009E647F60809E647F622E657F60809E697
:100AB30057F60809E657F60809E657F622E056F610
:100AC30008A3E056F608A3E056F608A3E056F6227C
:100AD300E056F008A3E056F008A3E056F008A3E0C0
:100AE30056F022700422600D18C6C333C608C633FD
:100AF300C6D5E0F41822E4C396F608E496F608E4B3
:100B030096F608E496F622600D08C6A2E713C61807
:100B1300C613C6D5E0F322C6F4C608C6F4C608C693
:100B2300F4C608C6F4C622C3E7960809E79608097F
:100B3300E7960809E79622C3E09608A3E09608A380
:100B4300E09608A3E0962275D000758140751801E0
:100B530075190300020506E0F608A3E0F608A3E012
:100B6300F608A3E0F622600C08C6C313C618C61322
:100B7300C6D5E0F422E6F008A3E6F008A3E6F00801
:100B8300A3E6F022CAC0E0E6F0A308DAFAD0E0FA5E
:100B930022E0FAA3E0FBA3E0FCA3E0FD22EAF0A33A
:100BA300EBF0A3ECF0A3EDF022E5C754F84401F514
:100BB300C77901222518F582E43519F58322C2AFDE
:100BC30075D69F02000022120906AFE4021209063D
:100BD300F6E50212090614E602120906402B00127A
:100BE3000906522B00120906A42B00120906052C34
:100BF300001209068F2C00120906332D0012090674
:100C0300872D00120906A02D00120906C62D001219
:100C13000906012E00120906452E001209066C2E44
:100C230000120906BD2E001209066D2F00120906D7
:100C3300253000120906ED3000120906AD3100120D
:100C43000906F1310012090616320012090659325B
:100C530000120906A63200120906FE330012090625
:100C6300843400120906A23400120906CC3400129F
:100C73000906E63400120906F534001209060035A8
:100C830000120906C03500120906193600120906BA
:100C9300DB3600120906E33600120906A7370012F5
:100CA30009061338001209063E3900120906633992
:100CB30000120906D939001209066B3A0012090617
:100CC300C33A00120906833B00120906A23B001235
:100CD3000906B13C00120906C33C00120906323D65
:100CE30000120906873E00120906B93E00120906E2
:100CF3004C3F00120906853F00120906D13F00123E
:100D03000906ED4000120906364300120906414365
:100D1300001209064C430012090657430012090644
:100D23006143001209066C43001209068643001250
:100D330009069043001209069A4300120906A543C7
:100D430000120906CD4300120906284400120906C1
:100D53003244001209065644001209067A4400126E
:100D63000906D844001209061C4500120906384535
:100D730000120906AF4500120906E74500120906ED
:100D83003346001209069046001209064A4700122C
:100D930009062E4900120906874900120906B74AB7
:100DA30000120906DD4A00120906664C0012090604
:100DB300E24F00120906B451001209067D530012D6
:100DC30009062A54001209069555001209063456DD
:100DD30000120906795600120906E35600120906A5
:100DE300F256001209067959001209062B5B00120C
:100DF3000906985B00120906775C00120906905DEC
:100E0300001209060D5F001209062C5F0012090685
:100E1300815F00120906866000120906AE600012A7
:100E23000906066100120906E56100120906296236
:100E330000120906746200120906DF620012090635
:100E4300206400120906846400120906D2650012A8
:100E530009063268001209066368001209061B6A54
:100E630000120906706A00120906746B0012090663
:100E7300116C001209066A6C001209061D6D00123E
:100E83000906BF6D001209065F6E00120906046FA2
:100E9300001209060A820112090649820112090693
:100EA300908401120906DA8401120906F5850112FC
:100EB30009065D8601120906928601120906068853
:100EC30001120906898A01120906B28B0112090669
:100ED300488C01120906509501120906E595011285
:100EE3000906CC9801120906BF99011209062D9A29
:100EF30001120906739B01120906559C011209068A
:100F03003A9E011209064BA001120906B5A001126F
:100F1300090687A101120906B5A10112090672A2E9
:100F23000112090649A30112090610A401120906B8
:100F3300B4A401120906DDA401120906FFA40112DB
:100F4300090655A7011209062DA80112090671A861
:100F530001120906D9A80112090691A9011209066D
:100F6300C3A90112090607AA011209063DAA011223
:100F7300090689AA01120906DEAA01120906E3AAD3
:100F83000112090636AB011209065BAB0112090611
:100F93006AAC01120906CEAC011209063EAD01127C
:100FA3000906CAAD0112090697B0011209067BB101
:100FB30001120906FEB20112090634B5011209062F
:100FC300E2B50112090692B601120906D3B801125D
:100FD300090676B901120906BDB90112090669BBF2
:100FE300011209067DBB0112090687BB011209061E
:100FF300AFBB01120906BBBB01120906DABB011222
:101003000906FABD0112090649BF011209068DBF7F
:101013000112090635C00112090618C10112090699
:10102300C3C1011209060FC3011209060DC401123F
:101033000906B3C40112090643C5011209065AC5BC
:101043000112090691C5011209069BC50112090681
:10105300A6C501120906C4C50112090608C6011274
:10106300090665C6011209068AC601120906A4C645
:101073000112090630C7011209064DC801120906FB
:10108300BAC801120906A1C901120906C8C9011289
:1010930009063CCA01120906B7CA01120906BBCBED
:1010A30001120906B1CC0112090660CD011209062D
:1010B30073CE011209060FCF011209069CCF01124C
:1010C30009067AD001120906B2D0011209060AD123
:1010D30001120906D3D101120906F4D1011209063E
:1010E3007BD2011209069FD201120906C1D2011255
:1010F30009060AD30112090620D50112090607D6EB
:1011030001120906B8D601120906EED80112090622
:101113003ED9011209067ED901120906C0D901126E
:1011230009061CDA011209064ADA011209066EDA07
:1011330001120906C1DA01120906EFDA01120906E2
:1011430028DB011209067DDB01120906E3DB01122C
:10115300090637DD011209065ADF01120906C7DF46
:1011630001120906F0DF011209067BE001120906EC
:10117300E2E0011209062DE10112090651E1011213
:10118300090675E101120906D0E101120906EBE136
:1011930001120906A4E20112090630B0041209067D
:1011A3006FB004120906788002120906BE8002128B
:1011B30009069E8102120906A08202120906A38370
:1011C300021209062F85021209068D8502120906ED
:1011D3004A8602120906688702120906D987021293
:1011E30009061588021209066388021209066D882A
:1011F30002120906B188021209060D8902120906B4
:10120300A88902120906258A02120906F48A021223
:1012130009068D8B02120906AD8B02120906E38BB8
:1012230002120906148C02120906D58C0212090651
:10123300E58C02120906398D02120906548D021239
:101243000906668D021209066F8D02120906C98D01
:1012530002120906258E02120906718E0212090670
:101263008C8E02120906BD8E02120906DA8E021254
:101273000906E68E021209065A90021209067390B5
:1012830002120906DA9002120906ED90021209060B
:10129300FB9002120906AF91021209069392021201
:1012A30009069993021209062394021209062D9442
:1012B300021209069A9402120906B194021209064F
:1012C300E394021209061C950212090646950212BE
:1012D3000906A79502120906C79502120906E595A4
:1012E300021209062B9602120906519702120906E9
:1012F3009E9702120906CD9702120906439802121D
:1013030009066B9802120906A49802120906B298FC
:10131300021209060A9902120906599902120906CC
:10132300989902120906C89902120906F499021241
:101333000906FF99021209061D9A02120906DF9A8D
:1013430002120906E99A02120906249B02120906EF
:101353003A9B021209068F9B02120906A39B0212F3
:101363000906B19C02120906C49C02120906D99C03
:10137300021209067B9D02120906FE9D021209064E
:10138300BC9E02120906C79E02120906F39F0212AF
:1013930009060FA00212090661A002120906A0A005
:1013A30002120906B5A00212090617A102120906C4
:1013B300A6A102120906F1A10212090642A4021211
:1013C3000906C0A40212090635A50212090657A789
:1013D300021209066FA70212090672A70212090672
:1013E3007EA70212090692A7021209069AA7021201
:1013F3000906CDA7021209067DA802120906F3A861
:101403000212090666A9021209061AAA021209069D
:10141300CFAA02120906EEAA021209068EAB021225
:1014230009069AAB02120906C5AB02120906C8AB3C
:101433000212090632AC021209065AAD021209065B
:1014430032AE02120906BDAE02120906D6AF02126F
:10145300090693B002120906CCB002120906FDB0C8
:1014630002120906BBB102120906EBB10212090608
:10147300C6B2021209065FB302120906EAB30212E8
:1014830009069BB4021209061EB50212090650B5DD
:101493000212090691B502120906B9B5031209062B
:1014A3001EB6031209065BB603120906AAB6031297
:1014B3000906C0B803120906A3BA031209060DBE32
:1014C3000312090648BE031209066ABE031209067F
:1014D300CDBE0312090601BF0312090624BF03127E
:1014E300090651BF03120906ADBF03120906A39FE4
:1014F3000312090621A00312090657A003120906C5
:10150300C3A00312090636A20312090652A203124C
:10151300090697A20312090625A3031209067EA34F
:1015230003120906ABA403120906BDA5031209069B
:101533001AA60312090686A603120906E7A60312D2
:10154300090628A703120906D5A703120906E7A867
:101553000312090612A9031209065DA9031209065B
:10156300A4A90312090636AA03120906F1AA031253
:101573000906E7A404120906F8A40412090649A5FA
:10158300041209068EA50412090638A604120906D8
:101593004EAC0412090640A30412090698A40412CF
:1015A300090668AB031209060DAC031209062DAC3C
:1015B300031209064DAC0312090661AC03120906B6
:1015C300B9AC03120906E9AC031209066AAE0312A9
:1015D300090610AF03120906F2AF0312090643B05E
:1015E3000312090686B003120906C9B003120906DD
:1015F3002FB10312090650B103120906DCB103121D
:1016030009060DB20312090681B2031209062FB4AB
:101613000312090609B5031209064BB5031209069D
:10162300A5B503120906B79F04120906D89F041231
:1016330009060EA10412090638A10412090677DD72
:1016430002120906D59104120906E0910412090653
:1016530001920412090666930312090669930312A1
:1016630009062394031209064E940312090695945E
:1016730003120906BA9403120906DB94031209063E
:101683000F95031209064895031209067196031272
:101693000906A896031209060CE4021209066397C9
:1016A300031209062898031209065F980312090614
:1016B300D49903120906779A03120906709B031241
:1016C3000906999B03120906ED9B03120906B39CB5
:1016D30003120906E19C03120906769E031209060A
:1016E300F79E031209062A9F03120906F9BF031284
:1016F300090603C0031209064FC003120906BDC041
:1017030003120906DEC003120906F5C00312090617
:10171300A5C10312090639C40312090642C4031200
:10172300090695C403120906BEC40312090625C59A
:1017330003120906B6C503120906F8C50312090602
:1017430042C603120906A1C603120906CDC6031237
:1017530009065EC7031209069DC703120906DCC703
:101763000312090611C80312090623C80312090646
:1017730035C80312090654C8031209065DC80312CB
:10178300090613C90312090653C90312090685F78B
:101793000312090658F80312090672F80312090620
:1017A30083F80312090698FA03120906B7FA03121B
:1017B3000906AE7D00120906E47D001209062D7E9E
:1017C300001209067D7F001209063BE60212090694
:1017D3007AE702120906B6E70212090675E9021250
:1017E30009069EE90212090631EC0212090675EC9C
:1017F30002120906FEED0212090696EE021209060E
:10180300FEEE021209069FEF02120906E1EF021231
:10181300090621F002120906ACF1021209061CF3B3
:101823000212090641F5021209066FF502120906B2
:1018330096F5021209069FF502120906FAF502123D
:1018430009068DF602120906ABF9021209062CFAF3
:1018530002120906E07F00120906F67F001209064C
:1018630093AF04120906B18A04120906C48A04124A
:101873000906618B041209069C8B04120906B78BB7
:1018830004120906DC8B04120906218C04120906D2
:10189300528C04120906838C04120906098E041261
:1018A3000906B0A704120906E6A70412090602A84E
:1018B3000412090644A80412090654A804120906CE
:1018C300E9A804120906F3A804120906B8D2031200
:1018D3000906F9D2031209060CD303120906D3D35E
:1018E3000312090687D403120906C3D50312090696
:1018F3000FD80312090615D903120906B5D9031225
:1019030009061EDA03120906506F00120906A86FB2
:10191300001209069170001209062A7100120906C5
:10192300747100120906D171001209062A7200129D
:1019330009063E72001209067072001209066E73E0
:1019430000120906D27300120906ED73001209068C
:101953003C74001209065274001209065F740012E7
:101963000906937400120906AC74001209063D754A
:10197300001209064C7500120906D47500120906F7
:101983002E76001209067C76001209069E76001256
:1019930009061579001209064A7900120906DA794F
:1019A300001209064F7A00120906547A001209063A
:1019B300907A00120906E67A00120906AA7B001241
:1019C3000906CF7B00120906D97B00120906DC7BCE
:1019D30000120906657C00120906807C00120906C4
:1019E300937C00120906BF7C00120906FA7C0012E0
:1019F3000906FD7C00120906087D00120906447DD4
:101A030000120906577D001209067E7D00120906A1
:101A1300E3AF04120906FBAF041209068FDA0312BF
:101A23000906DEDA0312090680DC031209063EDE2C
:101A33000312090686DE03120906A8DF031209064C
:101A4300D9E003120906FBE00312090657E103126A
:101A53000906D9E103120906DEE201120906FFE2D3
:101A63000112090689E3011209060EE401120906AF
:101A73008AE401120906F3E4011209063FE50112A3
:101A83000906BEE50112090650E601120906DCE665
:101A9300011209061EE7011209068AEB0112090663
:101AA3000AED0112090649ED0112090630EE011291
:101AB300090633EE01120906E7EE011209061CF0CE
:101AC3000112090607F20112090687F40112090639
:101AD30040F5011209065DF601120906B4F9011277
:101AE3000906C4F90112090625FB01120906B1FB17
:101AF30001120906E5FC01120906D6FD01120906C9
:101B030058FE01120906008003120906BA80031267
:101B130009062C81031209063B8103120906B581CC
:101B2300031209062482031209062B8303120906F2
:101B3300548303120906F483031209064284031231
:101B43000906B284031209066B8703120906428849
:101B530003120906AF88031209062C8A0312090629
:101B6300E08A031209068E8B03120906E98B03121E
:101B73000906548C03120906548D031209062E8F8D
:101B830003120906419003120906DA9003120906AB
:101B93004C91031209061292031209060D800412D6
:101BA3000906618004120906B9800412090604813A
:101BB30004120906668104120906D2810412090679
:101BC300858204120906C68204120906DC82041205
:101BD3000906388304120906768304120906799BE1
:101BE30004120906AA9B04120906649C041209063E
:101BF300CA9C041209063B9D04120906A18E041215
:101C030009062D900412090641AD0412090652ADCE
:101C130004120906F2AD0412090688A1041209068A
:101C230096A10412090684B104120906ACAE04128B
:101C33000906BCAE04120906D7AE0412090638AF72
:101C430004120906F0FE0112090675FF01120906C6
:101C5300D9FF011209063CAB041209065EAB04125C
:101C63000906C8AB04120906D3AB0412090617AC64
:101C7300041209060DE2031209061BE20312090608
:101C83005CE2031209067DE203120906FAE203127B
:101C93000906FAE3031209061CE40312090688E4A1
:101CA30003120906A3E403120906BEE4031209069C
:101CB300C8E403120906D2E403120906E5E4031299
:101CC3000906FEE4031209069AE50312090656E61D
:101CD30003120906CDE60312090647E703120906B4
:101CE300ADE703120906A78304120906B58304129C
:101CF30009062F8404120906138504120906CC86EB
:101D030004120906DEFF0312090689FA0212090604
:101D1300F6FA02120906B7FB0212090627FC0212A1
:101D2300090630FD02120906A8FE021209060CFF7D
:101D33000212090661FF021209066AFF021209066E
:101D430079FF021209068CFF02120906A2FF021292
:101D53000906ABFF0212090614EE0312090669EE27
:101D63000312090665F00312090697F00312090628
:101D7300B9F003120906D2F003120906EBF00312BD
:101D83000906F5F10312090690F2031209064FA69C
:101D93000412090673A6041209068CA60412090686
:101DA300BFA604120906F0A6041209061EA7041210
:101DB300090680A7041209068FA70412090699A72A
:101DC30004120906A6A7041209062694041209069A
:101DD3004C94041209068994041209069894041277
:101DE3000906B794041209061F95041209062895DB
:101DF30004120906879504120906AB950412090615
:101E03006A96041209067796041209068896041244
:101E13000906BEFF02120906DBFF0212090607F3D9
:101E23000312090665F40312090672F40312090684
:101E330085F403120906A4F403120906BAF4031283
:101E43000906CEF40312090643F503120906A8F5A1
:101E53000312090658F6031209062DF703120906A1
:101E63003DF7031209064CF70312090613AE0412D9
:101E7300090637AE041209065FAE0412090687AEDF
:101E830004120906B69604120906DD960412090621
:101E9300FE96041209066397041209061C9904129C
:101EA3000906359904120906419904120906559940
:101EB300041209067399041209067D99041209068E
:101EC3008799041209069A9904120906ED990412D6
:101ED3000906269A04120906559A04120906A39ABA
:101EE30004120906F29A041209060D9B041209064C
:101EF300179B04120906289B041209066E9B041201
:101F0300090642AF041209067CC903120906A6C9D1
:101F130003120906C2C903120906D5C90312090629
:101F2300EBC90312090648CA031209067BCA031246
:101F33000906B7CE03120906DDCF0312090610D036
:101F4300031209065CD00312090688D1031209069D
:101F5300B0D103120906C5D103120906D5D1031264
:101F6300090619D2031209067AD2031209068AD284
:101F730003120906F6A80412090611A90412090698
:101F83003AA90412090654A90412090679A90412EC
:101F9300090698A904120906B0A904120906DEA9C4
:101FA30004120906F8A90412090679B004120906F5
:101FB300318704120906388704120906448804127B
:101FC30009067488041209069A8804120906BD8852
:101FD30004120906DF880412090619890412090686
:101FE3007F8904120906B88904120906048A0412B7
:101FF3000906318A04120906518A04120906CF9D83
:1020030004120906E79D04120906D59E0412090667
:10201300B49F0412090629AA041209069BAA0412F2
:102023000906D9AA041209061AAB0412090610FC00
:10203300031209062FFC031209067EFC031209068C
:102043009AFC03120906CBFC03120906DBFC0312FC
:102053000906E8FC03120906F5FC03120906E1FD73
:10206300031209061FFE0312090629FE03120906BD
:1020730039FF0312090644FF0312090656FF031230
:1020830009065FFF0312090669FF0312090657E9F0
:10209300031209069CED03120906AAED03120906B1
:1020A30066B104120906F3B004120906BDB00412A6
:1020B300090620B10412090648B10412090671DAAF
:1020C30002120906D3D7021209069CD60212090688
:1020D300F0D50212090636D402120906E6D102121D
:1020E30009066DD10212090614D102120906A4D001
:1020F300021209067BD0021209065BCE0212090600
:1021030027CE02120906F4CD02120906D8CD021217
:102113000906F1CC02120906A9CC02120906F4CA77
:102123000212090674CA0212090671CA02120906CA
:102133006EC9021209063CC90212090679C80212C5
:102143000906BFE2021209066AE00212090688DFE5
:10215300021209066CDF021209060CDF02120906DD
:10216300A4C60212090635C60212090607C60212E0
:10217300090604C602120906C4DE02120906F1C5E5
:10218300021209069CC5021209068BC50212090632
:102193007DC40212090612DE02120906C896031252
:1021A300090647C402120906F5C30212090696C3BB
:1021B3000212090665C3021209062DC0021209069E
:1021C300EDBF02120906E1BF0212090641BF021266
:1021D300090681BE0212090603BC0212090694B95C
:1021E3000212090652B90212090626B8021209069A
:1021F300DBB7021209061AB702120906EDB602127C
:102203000906C6B50212090630B60212090684DDB4
:102213000212090600B6021209065B9104000000CF
:1022230080FBE473000000000000000000000000D9
:1022330000000000101010101010000030300000DB
:1022430000142850000000000000000000000000FF
:10225300002828FC284850FC50500000000010388B
:102263005454301814545438100000000044A8A8E3
:10227300B0541A2A2A44000000000020505060ACD9
:10228300A898927C000000606020C000000000005D
:1022930000000000000408081010101010100808B7
:1022A3000400000040201008040810204000000033
:1022B3000000001010D63838D610100000000000BF
:1022C30000101010FE1010100000000000000000AD
:1022D300000000000000606020C00000000000005B
:1022E300FC000000000000000000000000000000EF
:1022F30000006060000000020404040808101020BD
:1023030020204000000000304884848484844830C6
:10231300000000000010701010101010107C00005E
:1023230000000038444404081020447C00000000EE
:1023330000384444180404444438000000000808EA
:1023430018284848887C081C00000000007C404096
:1023530078440444443800000000003C4480B8C47E
:102363008484847800000000007C44480810101026
:1023730010100000000000788484487884848478F6
:102383000000000000788484848C740488F00000CA
:10239300000000000030300000003030000000007A
:1023A30000000000100000000010102000000408CE
:1023B300102040201008040000000000000000FC72
:1023C3000000FC000000000000004020100804088A
:1023D300102040000000000078848484081010005E
:1023E3003030000000000038449AAAAAAAB4423C44
:1023F30000000000001010282828384444EE000094
:10240300000000F844447844444444F800000000C9
:10241300003C44848080808044380000000000F049
:1024230048444444444448F00000000000FC444055
:102433004878484044FC0000000000FC42404878D3
:10244300484040E000000000003C448480808E84CB
:1024530044380000000000EE4444447C444444EE0D
:1024630000000000007C101010101010107C000001
:102473000000007C101010101010101090E00000ED
:1024830000EE44485070484844EE0000000000E06D
:1024930040404040404044FC0000000000EE6C6CB3
:1024A3006C54545454D60000000000EE6464545439
:1024B300544C4CE40000000000304884848484843D
:1024C30048300000000000F844444478404040E0B5
:1024D3000000000000304884848484B448380C0031
:1024E300000000F844447850484844E600000000E7
:1024F300003C44402018040444780000000000FE1F
:1025030092101010101010380000000000EE444428
:102513004444444444380000000000EE4444282866
:10252300282810100000000000D6545454546C287E
:1025330028280000000000EE44282810282844EE34
:102543000000000000EE442828101010103800008E
:102553000000007C88081020204044FC0000001C80
:10256300101010101010101010101C00007010101C
:1025730010101010101010107000007010101010B8
:102583001010101010107000001028000000000040
:102593000000000000000000000000000000000038
:1025A300000000FE00606020C0000000000000008A
:1025B300000000000000000038441C24443E0000DA
:1025C300000000C0404078444444447800000000C8
:1025D300000000003C444040443800000000000C70
:1025E30004043C444444443E000000000000000056
:1025F30038447C40443800000000001C2420F820AC
:102603002020207800000000000000003C484830F3
:1026130040784438000000C040405864444444EECD
:10262300000000000010000070101010107C00006B
:1026330000000008000038080808080808700000B7
:1026430000C040405C48507048EC0000000000703F
:10265300101010101010107C00000000000000008B
:10266300F854545454D60000000000000000D8640D
:10267300444444EE00000000000000003844444499
:1026830044380000000000000000F844444444784B
:1026930040E00000000000003C444444443C040E7D
:1026A300000000000000EC30202020F800000000B3
:1026B300000000003C4430084478000000000000A3
:1026C30010107C101010100C00000000000000001F
:1026D300CC444444443E0000000000000000EE44AB
:1026E300282828100000000000000000D65454548D
:1026F30028280000000000000000DC48303048ECCF
:102703000000000000000000EE442828101020E024
:102713000000000000007C481010247C0000101012
:102723001010101010101010101010100001363679
:102733000101000102010001030100010401060679
:1027430005020000070100340801000F090401011C
:102753000D0100FF0E08000017020000190100FF21
:102763001A0100011B0100FE1C0100081D020000EC
:102773001F01000120010001210200002301000FBD
:10278300240200002601000127010008280200FF9F
:102793002A0100072B0102402C0100002D0100013A
:1027A3002E0100012F0100FF30010B1C3108000036
:1027B3003A0100083B01000F2F01000003007100E4
:1027C30030016000110070003102200350048000CA
:1027D30010006100000014006300730072006200C7
:1027E3004300000013000600000000000400120074
:1027F3000000000000000000040004003700370060
:102803003C024400000000000000000065000000DE
:102813003500810000000500000083000000010373
:1028230071030103010301030103010322030203F3
:10283300010310030003000300030003000300036C
:1028430000034203000324030603000300030403FD
:1028530012032503230325032303040304030003B3
:102863000003000344030003000323030003650381
:102873002100350381030003050300030003000364
:102883000101710101010101110101013101010185
:1028930001018001100161013B0014006301730118
:1028A3007201620143010001130106013D0135007C
:1028B30004011201000100010001000104010401EF
:1028C300330133013C0144013201360000010001B0
:1028D30065010001350081010001050182018301C9
:1028E3000001030271023001600211027002010251
:1028F300020202028002100261023A0041006302F6
:1029030073027202620243020002130238000002E1
:10291300000204021202000200020002000204028A
:102923000402370037003C0244020002390000026F
:1029330000026502000235028102000205028202E2
:10294300830200020304710402046004110470048E
:1029530002040204010402041004610400041404C8
:10296300630473047204620443040004130406043E
:10297300000400040404120400040004000400041E
:10298300510464000004000400044404000400042F
:102993000004000465040004350481046400050494
:1029A30000048304000436000100060000000F0049
:1029B30000000000000000000000000003FFFF0013
:1029C300000403FFFF0000FFFF0FF4010005C40430
:1029D3000320000100030B000000000000000003BF
:1029E300010F0000421B1300BE1A0100421B02002C
:1029F300761A03007C1A0400821A0500881A06005E
:102A0300941A1100B21A1400B81A1500A61AFFFF7F
:102A1300000001DC0E060C0F08060F0B180F1058F0
:102A23000E02E20E05FA0E07E80E0CBE0E0DD00ED6
:102A3300FF000003EAF5E5D5D5C5B5A595958585D0
:102A4300757565655555454535352525151505E4D4
:102A5300121413EA12F0120E130213FC121A1320AB
:102A63001326133213F612DE12D81200160F0000CB
:102A73000B150B020002220F32000006D413E613DB
:102A8300EC13AE12F213A812B412E811E2111E12E3
:102A930024121812D0113414521458143A14461430
:102AA300401400011916181616152303000C0E0204
:102AB3000B040B0A0708000F00034948424D18177F
:102AC30025050200383C3E363B3B352B432C30304A
:102AD30017181921301B1D1F3030301618192023E9
:102AE3001A1C1E302814F813FE130A1404140813B6
:102AF3002C134C1438133E13020402010101010983
:102B030002F411FA11EE112A120000000000000075
:102B130012121200BE040A150004007F00E8030C21
:102B230000280000000000090308100C0A0308092C
:102B330000040001FF1E1E0C05040F1008C082C014
:102B4300838A828B83E0D2E7F01219C8023D0FC05B
:102B530082C083790012300C125EDCC082C0839085
:102B63000334124C62D083D082C3E09CA3E09D5017
:102B73000C1265B0FAA3E0122B83600109023D0F2A
:102B8300FBEA75F00BA4FAA8F075F00BEBA428FB95
:102B9300900336E02AF8A3E03B8882F583E0540FE4
:102BA3002274F712043B890812300C1230B2ACF0D5
:102BB30075F00BE9A42CF9900336E028FEA3E03965
:102BC300FF7401650860067402650870208A828BB1
:102BD3008312309E123F3E74026508701B122F5DF4
:102BE3001230E570138E828F83E4F0800BEA2403A6
:102BF300FCEB12308012308CEEFAEFFB120BDC028E
:102C03003E9B74F412043B126ED779008E828F833D
:102C1300E06076890A890B8065E50A75F00BA4FAF2
:102C2300A8F075F00BE50B122B907046E50A75F0D2
:102C33000BA4F8AAF075F00BE50B1230C48E828F4B
:102C430083E08508828509831231A6850882850978
:102C530083A3123F3EEE2403FCEF123089123D1C86
:102C6300125956AA08AB09120BDC790190033412EE
:102C7300536BE50A2401F50AE50B3400F50B122F1B
:102C830065E50A9AE50B9B40900240E874F512044F
:102C93003BEAFEEBFF740B120BB7123D21750A01E1
:102CA300EC4D602BEC126EF3ED125EDC123F3679C5
:102CB30001120BE8E5084509606F850882850983E1
:102CC300A3126EE17902AA08AB09120BE8805AE558
:102CD300084509602B125EE01245AA123D1D123011
:102CE300CF700CEEFAEFFB120BEEE9F50A80CBEE98
:102CF3002403FA12300770317903EEFAEFFB80CA2E
:102D03008E828F83A3E064FE7003A3E0F4700BEE66
:102D130024030A0A0A123007700CEEFAEFFB120BB7
:102D2300EEE9F50A8003750A00A90A7F0302065536
:102D330074F712043B900334123EABEA4B602FEA64
:102D430075F00BA4FAA8F075F00BEBA428FBEAFED0
:102D5300EBFF1217BE900336123EAB9003361251AF
:102D6300B06012EEFCEFFD79001216FE80079003AF
:102D730036E4F0A3F0023E9B90033412491AC3EEEB
:102D830098EF9922C082C083EC4D60051220288001
:102D9300097C087D0079001216FE023D0F74F612BD
:102DA300043B7900EA4B601878008808126223EB31
:102DB3001265AC60047901780808E8C3940840EA16
:102DC300023F4774F712043B74F31209CFECFEED94
:102DD300FF851882851983E4F004120BB7EAF0A388
:102DE300EB1256DC7403120BB7AC82AD83EEFAEF31
:102DF300FB120C00EEFAEFFB120C06023E9674F780
:102E030012043B74F31209CFECFEEDFF85188285A3
:102E13001983E4F0EAFCEBFD7403120BB712319F44
:102E23007401120BB7123F328E828F83123F3E74AE
:102E3300FE68700374FF69600479018002790002FF
:102E43003E9674F712043BEAFEEBFF122EA37014B6
:102E5300122EAE8E828F83E0F4F88A828B83E05841
:102E6300F0120BDCA908023E9B74F712043BEAFE46
:102E7300EBFF7508008E828F83E06022122EA37011
:102E83001D122EAE8A828B83E08F838E82F8E058E8
:102E9300700CE0F88A828B83E048F0120BDC80C46C
:102EA300120BE2E9F5087401650822126EEC123088
:102EB300B6122FF8FAA3E039FB2274F412043B8A0A
:102EC300088B097C007D00122F5D12308C12301D9F
:102ED300126EDE7900850882850983A3E064FE70A3
:102EE30003A3E0F460717E007F008062EEFAEF12CC
:102EF3002B836057EEFAEFFBEA75F00BA4FAA8F008
:102F030075F00BEBA428FB900336E02AF50AA3E047
:102F13003BF50B850882850983A312562A850A820D
:102F2300850B83A3E06A7003A3E06B701EE50A249C
:102F330003FAE50B123008700AE50A2403FCE50BDB
:102F43001230891230117901125EF21238FC122FFD
:102F530065EE9AEF9B40950240E8EA24030A0A0AC9
:102F6300EB22900334125AC9C32274F312043B8A2E
:102F7300088B098A828B83A3126EE112300C126EC6
:102F8300DE750C00122F5D12300870547E007F0036
:102F93008049122FEAFAA3E0398A82F583E0540FBD
:102FA3006036122FEAF50AA3E039F50BE50A24038C
:102FB300FCE50B1230933400FB122022E96401700C
:102FC30017850A82850B83A3125B8AA3123F3E12E5
:102FD3003011750C01125EF21238FC122D7B40B2D7
:102FE300A90C7F05020655EEF8EFF9E875F00BA47E
:102FF300F8122FF822AAF075F00BE9A42AF990032E
:1030030036E02822EF1230DF22126EF2EB2212306A
:103013001D125EEDEEF0A3EFF022E508126EF3E56C
:10302300092274F512043BEAFEEBFF8E828F83A321
:10303300126EE17C007D00EE24030A0A0AEF1230CF
:103043008CEEFAEFFB120BE2E9F50A7401650A70E4
:1030530029126EEC1230B2AAF075F00BE91230C4EB
:10306300850882F58312309E1230CF700DE5082457
:1030730003FCE50912308012308C022D2C3400FD44
:10308300EE2403FAEF221230933400FB120C0022D9
:103093003400FDE5082403FAE50922A31230A32234
:1030A3001230A722E0F8A3E0F98E828F83A32212C5
:1030B30030B6223400F58312491EE875F00BA4F8EC
:1030C30022122FFEF508A3E039F50922E8F0A3E95F
:1030D300F0E5082403FAE5091230DF221230E56433
:1030E30001223400FB120C06E92274F312043B7430
:1030F300E61209CF126ED7750C0175080075090029
:10310300750A00750B00851882851983E4F0EE2497
:1031130003FCEF3400FD7403120BB712319FE96413
:10312300017023740B120BB7123F367401120BB7E5
:1031330012562E7003A3E0696051851882851983A6
:10314300858208858309740D120BB7E41231A674C6
:103153000E120BB7123F3E740D120BB7AA82AB834C
:10316300120C24E96401700B740D120BB785820AEB
:1031730085830B780A12093EAC08AD09EEFAEFFB22
:10318300120BF47402120951E9F50CEEFAEFFB127B
:103193000C1EA90C741A120951022FE51234721273
:1031A3000C2A22123EA612491A22C082C08378003A
:1031B3007900800312329D122F65E89AE99B50290A
:1031C300E8FAE9FBEA75F00BA4FAACF075F00BEB47
:1031D300A42CFB900336E02AFCA3E03B8C82F5830E
:1031E300E0540F70CF790080027901023D0FC08255
:1031F300C083902B1A124970EC75F012A4FCA8F04E
:1032030075F012EDA428FD79FF7A797B091216FE79
:10321300023D0F74F712043BE9FEEAFF7A007B00DC
:10322300780079008028E8FCE9FDEC75F012A4FC35
:1032330085F00875F012EDA425081236B2C39E403E
:103243000AE0FCEFC39C40031237D112329D1236C1
:10325300A640D3023E9BC082C083780079008003DE
:1032630012329D123291501F1236B6F470F2E87585
:10327300F012A4F8AAF075F012E9A42AF9747928D7
:10328300FA740939FB80047A007B00023D0F902B0E
:103293001A123767C3E89AE99B22E8240108E93444
:1032A30000F92274F012043B74F31209CF8A0A8BDB
:1032B3000B8C0C8D0D8908EC450D6016AA0CAB0D1B
:1032C300120C788A0E8B0FAE0EAF0FEE4F60030217
:1032D3003364120C4E8A0E8B0FA80EA90FE8FEE979
:1032E300FFE849607C902B281233C6602274036583
:1032F3000860067404650870167A047903120C4892
:10330300902B281233DD40077A007B000233C390F1
:103313002B261233C6601B740165086006740265B0
:1033230008700F7A027901120C48902B261233DDB4
:1033330050D68518828519837401F0120BB7125980
:1033430056AC0CAD0D7403120BB712346B740B1225
:103353000BB7123D2912431EE412593E1211288065
:1033630004EE4F604A780074FF2508C394045002AA
:1033730078048E828F831259568E828F83A3A3A3E0
:10338300A3E508F0E88E828F83A3A3A3A3A3125916
:103393005E1202EA12377E8E828F83A3A3A3A3A3B6
:1033A300A3A3F0123775120B94125ED6120BA01260
:1033B30033CB4005900ED5E4F0121002EEFAEFFB8A
:1033C300024924125A7849227A047900120C48904F
:1033D3002B1A126592EA98EB99221233F675832B16
:1033E30075821AE493C398F8A3E49399F9C3EA980E
:1033F300EB9922E493F8740193F92274F212043BDB
:1034030074F31209CF8A088B09ECFEEDFF750A00ED
:10341300EEFAEFFB120C788A0C8B0DA80CA90DE8C1
:1034230049603E88828983E065087004A3E06509EA
:10343300602F88828983A3A3A3A3E0C394055021AB
:10344300125D848518828519837401F0120BB712FB
:103453005D88EEFCEFFD7403120BB712346B750A33
:1034630001A90A740D025422123472120C3622AAD4
:1034730082AB83120C00851882851983AA82AB83E1
:103483002274F612043B1234C0600FA3A3A3A3E07B
:1034930014C394045004790180027900023F4774F5
:1034A300F612043B1234C0600FA3A3A3A3E014C31A
:1034B30094025004790180027900023F47120C7292
:1034C3008A828B83E58245832274F612043B12348D
:1034D300C0600BA3A3A3A3E0700479018002790069
:1034E300023F47C082C083EAFCEBFD7A007B000207
:1034F3003D0CC082C0837C007D00023D0C74F4123D
:10350300043B74F31209CFEAFEEBFF8C0A8D0BC365
:10351300EC94F8ED94FF4007EE4F70030235B97554
:103523000800750900802E8518828519837401F0BF
:10353300123924120BB712393260137403120BB70A
:10354300AC82AD83EEFAEFFB122022E97049E50865
:103553002401123752902B1AE4125A80E50898E599
:1035630009995052E50875F012A4F8AAF075F01203
:10357300E509A42AF91265C560D4EE4F70A974FF5A
:10358300650A700474FF650B60C4123914650A7010
:1035930004A3E0650B70B7E50875F012A4F508A85D
:1035A300F075F012E509A428F50974792508FA7471
:1035B300093509FB80047A007B000240E374F412AE
:1035C300043B74F31209CF750800120C788A0A8B36
:1035D3000BAE0AAF0BEE4F602A85188285198374F0
:1035E30001123EA0F8A3E0F9740B120BB7123FC10E
:1035F300120C187C127D0079FFEEFAEFFB1216FE17
:103603007508011233CB5009900ED57401F01210D6
:1036130002A9080240E374F712043BE9FE74FE6A50
:10362300700374FF6B780079007005805212329D2D
:103633001236A6504AE8FCE9FDEC75F012A4FCAF83
:10364300F075F012EDA42F1236B2F460E0E8FCE955
:10365300FDEC75F012A4FC75F012EDA42FFD747946
:103663002CF58274093DF583E06A7003A3E06B7067
:10367300BC80091236B614C39404401712329D124B
:1036830032915018EE70EC1236B664016005E064B6
:103693000370E9123905FAA3E0FB80047AFE7BFF8D
:1036A300023E9B902B1A124974C3E89CE99D221297
:1036B300380622E8FAE9FBEA75F012A4FAACF075D1
:1036C300F012EBA42CFB747D2AF58274093BF5837D
:1036D300E022120C8A023D0FC082C083790180F27E
:1036E30074F012043B8A0A8B0B7A047901120C489A
:1036F3008A0C8B0DEA450D603EEAC333FAEB33FBCC
:103703001217BE8A088B09AE08AF09EE4F60237A01
:10371300FE7BFF120C9074FE6A700374FF6B601BD8
:10372300850882850983123EABE5082402123752CD
:1037330080E1750C0080047E007F00850A82850B82
:1037430083E50CF0EEFAEFFB024929E5082407F5BF
:1037530008E5093400F50922902B1A124974C3EACB
:103763009CEB9D22E493FA740193FB221216F274EC
:103773000322125EE7E4F09081C222E88E828F83F7
:10378300A3A3A3A3A3A3A3A31237A074011237A0D7
:10379300A3F0EE2410125EEAE4F0A3F02212432A0F
:1037A300A3A3A322C082C0837A007B0080041912E2
:1037B30037D112375B50101237F0C3940550F0E93C
:1037C30070EC1237DA80047A007B00023D0FEA24A2
:1037D300010AEB3400FB22EA75F012A4FA75F01229
:1037E300EBA428FB74792AFA74093BFB22EAFCEB6D
:1037F300FDEC75F012A4FCA8F075F012EDA42812EC
:10380300380622FD747D2CF58274093DF583E02290
:1038130074F712043B74F31209CF7E007F00023861
:10382300B8E50875F017A4F8A9F0126826FAA3E022
:10383300FBEEF8EFF9E875F012A4F8ACF075F012AE
:10384300E9A42C1239136A7003A3E06B603FE50807
:1038530075F017A4F8AAF0EA126825F8A3E0F97442
:1038630001120BB7E0687003A3E0696020E50875F7
:10387300F017A4F8EAF974F528FC740A39FD740307
:10388300120BB7AA82AB83122022E96014E50875F4
:10389300F017A4F8A9F074F328FA740A39FB12118B
:1038A300340508902B2DE493F8E508C398500302E0
:1038B30038241238FC902B1A126B6C5039EEF8EF47
:1038C300F9123905F47003A3E0F460E685188285E4
:1038D30019837401F0EEF8EFF9E875F012A4F875A6
:1038E300F012E9A42AF9123924120BB71239326003
:1038F300C175080080AD023E96EE24010EEF340040
:10390300FF22E875F012A4F8AAF075F012E9A42AD0
:10391300F912391822747928F582740939F583E08C
:1039230022747B28F582740939124918740B22E832
:10393300F0A3E9123FC9120C30E922C082C0839080
:10394300033D74F4F0A3740EF090033F74EEF0A300
:10395300740EF0900343740EF0A3740DF0023D0F48
:1039630074F712043BEAFEEBFF900377E064086010
:103973001BE0640460168E828F83E054036401703D
:1039830048123D1C12441FE06406703D8E828F83F3
:10399300A3A3E064FE7003A3E0F4602D8E828F8303
:1039A300A3A3123F32900368E0687003A3E0697039
:1039B3000BEE2415F582EF1265AC6008120FA2E935
:1039C300F5088008120FA880F67508C2EEFAEFFB1F
:1039D3001217C4022E6774F412043B8A088B098AF7
:1039E300828B83E0F8A3E0FAE82AFAE43400FB12BE
:1039F30017BE8A0A8B0BAE0AAF0BEE4F60638508C6
:103A030082850983E0FC7D0079001216FE8E828F89
:103A130083A3A3126EE1120FE48E828F83A3A3A369
:103A2300A3123EAB850882850983E0F8EE28F8EF00
:103A33003400123F3A850882850983A3E0C0E0EE93
:103A4300240D125ED9D0E0F0120FF6EE240E125EB2
:103A5300D9E912558BE0C0E0EE2411125ED9D0E013
:103A6300F0EEFAEFFB0240E874F412043B74EB123D
:103A730009CF8A088B098C0A8D0BE9FE900377E046
:103A830064046005E06408700479C2802EA378089A
:103A9300120B78EE90037E123D16120B787405120A
:103AA3000BB7E9F07404120BB77401F07407120B2F
:103AB300B7E4F09003777402123CAA74150240E550
:103AC30074F612043B74EB1209CFEAFEEBFF1251BA
:103AD300AD6003023B677A077B001217BE90033980
:103AE300123EAB1251AD60788E828F83120B94908D
:103AF300033A124422120BA0126DA5C0E0123B73CD
:103B0300D0E0F0EE2405FAEF3400FB8A088B098A33
:103B130082F583E0C0E0123B6ED0E01240DFE0C0EC
:103B2300E0123B6EA3D0E0123F1F120B9485188264
:103B3300851983120BA088828983E0C0E074051283
:103B43000BB7D0E0F0850882850983E0C0E07404F8
:103B5300120BB7D0E0F07407120BB7123CA9800622
:103B63007910800279017415023F44123B73A3223A
:103B7300900339E0FAA3E0F5838A82A3A3A3A322E7
:103B8300C082C0831251AD600D900339125AB790B1
:103B93000339E4F0A3F0120F121210D4023D0F7494
:103BA300F012043B74EB1209CFECFEEDFF890874AD
:103BB30025120BB7780C120B5A7429120BB7E0F9C4
:103BC300742A120BB7E0FC742B120BB7E0FD740FD1
:103BD300697005740F6C6012900F3EE0640270050B
:103BE30079C1023CA4E9C39C40F6900378780C1297
:103BF3000B78E50890037EF0E990037CF0ECA3F0EA
:103C0300ED90037FF074FF6A700374FF6B701D9077
:103C13000F49E0F47003A3E0F47005121716800C4B
:103C2300900F49123E73E8F0A3E98007900375EA09
:103C3300F0A3EBF0EE4F6017EEFAEFFB121194E9ED
:103C43006401700BEEFCEFFD7A897B031220289050
:103C53000368E4F0A3F090036BF0A3F0900388F003
:103C6300900F3EE06402700890037C740FF0A3F0A1
:103C73009003777405F014120BB7E4F090037812F5
:103C83000B94851882851983120BA090037EE0C0E4
:103C9300E07405120BB7D0E0F07407120BB7123CB7
:103CA300A97415024926E4123FC912205822C08282
:103CB300C083900338E07003121AAC120CD8804C06
:103CC300C082C083900338E0900ED47004E4F08087
:103CD3002D7401F0900338E0F460237C41E0C39439
:103CE300415002E0FCECF8E0C398F0EC75F0E8A476
:103CF300CCA8F075F003A428FD7A8012497C7AD40D
:103D03007B0E79411220408003120C7ED083D08237
:103D1300020903123F2A780822EE125EE822E0F538
:103D230008A3E0F50922123D2D221230A7A3227425
:103D3300F512043B74E21209CF851882851983ECCE
:103D4300F0A3EDF0EAFEEBFF89087429120BB7E04C
:103D5300F509742C120BB7E0F50A900377E06404BD
:103D63006005E06408700579C2023E64742A120B90
:103D7300B7E064FE7003A3E0F4700579C3023E6408
:103D83009003777403123FC57950122040742A12AE
:103D93000BB7AA82AB83794B122040851882851911
:103DA30083123E73123F3EE50890036AF0742A12B1
:103DB3000BB7123E6C123F3EE509900362123E7A46
:103DC30074CE55094480C0E07412120BB7D0E0F0F2
:103DD3007401250A900388F0740F120BB77402F074
:103DE300742A120BB7123F327407120BB7E8F0A311
:103DF300E9123EB17410120BB7123F3E7405120B59
:103E0300B7E508F0741B120BB7E4F090037D740F51
:103E1300F07A7D7B03795412204090037C740FF079
:103E23007A7C7B03794712204090037CE0C3940F94
:103E330050237405120BB7E0C0E07402120BB7D025
:103E4300E0F07404120BB77401F004120BB7AA82EA
:103E5300AB831220647405120BB7AA82AB831220C2
:103E630046741E120951022D2E12491A90036B2219
:103E730012491A90037522F0EEFCEFFD7A897B0359
:103E83001220282274F712043BEB90037FF0120FE9
:103E9300008005740D1209517F01020655123EA6DA
:103EA300A3E022123F1FA322EAF0A3EBF022123F6A
:103EB30025F8A3E0F92274F712043B74F81209CF32
:103EC300EAFEEBFF7900900377E0640870448518FD
:103ED3008285198374FDF0A374FFF0120FDE740260
:103EE300120BB7123EAB7405120BB7E4123EA6E0F9
:103EF300C0E07404120BB7D0E0123F1AC0E074069E
:103F0300120BB7D0E0F07407120BB7E4123FC512DF
:103F130010207408023E98123F1FE022F08E828F19
:103F23008322123F2AE022F0851882851983221208
:103F3300491A22E0F8A3E0F9125EE7E8F0A3E9F0FA
:103F4300221209517F02020655C082C083900349A1
:103F5300749EF0A3740DF09003EF747AF0A37410C1
:103F6300F090034D74D4F0A3740DF090034F749E3E
:103F7300F0A3740DF090035174DAF0A3740DF00202
:103F83003D0F74F412043B74F91209CF8A088B09AC
:103F93008C0A8D0B8518828519837808120B787427
:103FA30004120BB7E9F07405120BB7E4F0740612B0
:103FB3000BB7E4123FC5120CC074070240E5E8F0EA
:103FC300A3E9123FC922123F2AAA82AB832274F4C7
:103FD30012043B8A088B098A828B83125EF5EE4FAB
:103FE30070030240DD9003121251B060158A828B78
:103FF30083A3A3E0F9EEFAEFFB900313124422121A
:1040030022258E828F83A3A3A3A3A3A3A3A3A3E0A9
:10401300640270748E828F83A3A3A3A3A3A3E0542B
:104023000270030240AF850882850983A3A3E0647D
:10403300E960798E828F83A3A3A3A3A3A3A3A3A3DE
:10404300A3E07014900F41E0048E828F83A3A3A397
:10405300A3A3A3A3A3A3A3F08E828F83A3A3A3A34A
:10406300A3A3A3A3A3A3E0141240DFA3A3A37404F5
:10407300F0900F42125930E8F0A3E9126A098B0B52
:10408300EA450B70031263E78E828F83A3A3A3A376
:10409300A3A3A3A3A3E0640260128E828F83A3A3CE
:1040A300A3A3A3A3A3A3A3E06406702E8E828F838E
:1040B300A3A3A3A3A3A3E0A2E0501F8508828509BD
:1040C30083A3A3E0F9EEFAEFFB1221068E828F831E
:1040D300A3A3A3A3A3A3E054FEF0800912432622C3
:1040E300740D1209517F0402065574EC12043B74DB
:1040F300DD1209CFEAFEEBFF8C088D097437120B32
:10410300B7780C120B5A750A007405120BB7AC8200
:10411300AD831221487412120BB7E07008741512A4
:104123000BB7E060207405120BB7E0A2E6501E8EB9
:10413300828F83A3A3A3A3A3A3A3A3A312562A1289
:104143001056E96008790312201002430C7405121B
:104153000BB7E0540C64047005750B018003750BF9
:1041630000E0A2E55035750A01E50BA2E0402C12F0
:104173000FE48A108B11A810A911123D1CE068707E
:1041830003A3E06960157405120BB7126EE81256AB
:1041930026122112E96004790480AC7405120BB76E
:1041A300E0A2E650227406120BB7E05403701874B1
:1041B30005120BB7E0540C640C600CE0540C64085B
:1041C300600575100180037510007405120BB7E0CC
:1041D3005403F8740268700C126EE8125626120B20
:1041E300CA02430C740168703AE510A2E05003124E
:1041F30043147405120BB7A882A9837403120BB777
:10420300E8F0A3E912490E85188285198312431E2B
:10421300E0C0E07402120BB7D0E0123FC51221F6E2
:1042230002430CE8600302430C90035FE0640170F7
:10423300108E828F83A3A3A3A3A3A3E070030241E1
:104243009A7422120BB7740212490E741A120BB726
:10425300123F3EE510A2E050087405120BB712435B
:1042630014E50BA2E0506AEE240FF582EF1265AC61
:10427300C0E07417120BB7D0E0F09003141251B0E2
:10428300700302430C120FE48A128B13A812A913B2
:10429300741A120BB7E0687003A3E069706B780CB3
:1042A300120936780A120942780812093EA91074D5
:1042B3000C120BB7AC82AD837421120BB7AA82AB7D
:1042C3008390031412441F1222257407120951808C
:1042D30038780C120936780A120942780812093E16
:1042E30090037512078BEE2412F582EF1262DA74D3
:1042F30023120BB7AC82AD83740E120BB7AA82AB39
:10430300831220FA740912095174231209510269A4
:10431300D4126EE8125AC512214222E8F0A3E91220
:1043230043262212432A22F08E828F83A3A3A3A3C0
:10433300A3A32274F712043B121980023E9B74F765
:1043430012043B121986023E9B74F712043B1219A6
:1043530092023E9BC082C08312198C023D0F74F7F8
:1043630012043B121998023E9B74F712043B740922
:10437300120BB7E0F50878081209421219A4740168
:10438300023E98C082C0831219B0023D0FC082C0A2
:10439300831219B6023D0F74F712043B1219BC02C3
:1043A3003E9B74F712043BEAFEEBFF890874016538
:1043B3000870147900120E16902B38E493FC7900E0
:1043C300EEFAEFFB120D8C023E9B74F412043B7465
:1043D300F91209CFE9FE8A088B098C0A8D0B741335
:1043E300120BB712562A9005ED1251B06027EE85D5
:1043F3001882851983F07401120BB77808120B78B1
:10440300EAF8EBF97405120BB7123FC19005ED12F0
:10441300441F122225023FBCFB90034BE0F8A3E0AC
:10442300F583888222C082C0831219F2023D0F7481
:10443300F712043B900ED7E0F97E00800B126598CB
:10444300540D64017001190E12462C5003E970EDEE
:10445300023E9B74F712043B900ED8E0F97E008075
:104463000B126598548D64817001190E12462C50FD
:1044730003E970ED023E9B74F212043B890BE9756C
:10448300F006A4240CF508E5F01237568A0CE5086B
:10449300250CFAE5093400FB1217BE8A0C8B0DAE0E
:1044A3000CAF0DEE4F6027AC08AD0979001216FE74
:1044B300123D1CE50BF0EE2508F8EF3509F98E8265
:1044C3008F83A3A3A3A3A3A3A3A3A3123F3EEEFAA5
:1044D300EFFB02542574F612043BEAFEEBFF120DC8
:1044E30068900ED6E0F8E9C3984009900345125648
:1044F3002A120D6EEE2402F8EF125C3A9003471273
:104503005AF4900347E004F0EEFAEFFB120D7485C2
:104513000882850983E00260F0C082C0837900903D
:10452300034580010912562A8A828B83E5824583DB
:1045330070F2023D0F74F712043BEAFEEBFFEE4FFD
:1045430060569003451251B0604E888289837A0089
:104553007B00EE65827003EF6583600FAA82AB83F5
:1045630012459EE5824583602F80E79003451245FF
:10457300AA687002EF698E828F837008123F3290AF
:10458300034580031269E6123F3EEEFAEFFB122168
:10459300C6EEFAEFFB1217C4023E9B1245A222128B
:1045A300491E888289832212491AEE22C082C0835F
:1045B3009003458004888289831251B0600B8882FE
:1045C3008983124C62EC4D70EC8A828B83E4F0A3F6
:1045D300F0E8496006888289838003900345123E90
:1045E300AB023D0F74F712043B90034580048A82AB
:1045F3008B831246274B60257E0080010E12462CCA
:1046030050ECEE75F006A4FCADF0EA2CFCEB3DFD9E
:10461300EC2410F582ED12467C70E180047A007B75
:1046230000023E9B125AC9EA22124685EEC3982223
:1046330074F712043B7D0080010D124681EDC3988F
:104643005034ED75F006A4FEA8F0E8FFEA2EFEEB69
:104653003FFFEE2410F582EF12467C70DCED75F01F
:1046630006A4FEE8FFEA2EFAEB3FFBEA2411F582EB
:10467300EB1265AC4CF0023E9B1265B86922124600
:104683008522126EF2EB3400F583E0F82274F61201
:10469300043B120E8E7A007B008025EAF8EBF9E8E2
:1046A30075F006A4F8ACF075F006E9A42C125A9E36
:1046B300126DB3A3E4125B94F0A3126DB9126F30C1
:1046C300902B221233D540D37A007B00801C8A08BA
:1046D3008B0974037808120AE6125552A374FEF08C
:1046E300A304125974A3E4126F30902B2C12472F9A
:1046F30040DC7A007B00801D8A088B0974037808EC
:10470300120AE6741B126224740E126A6B74FEF0B2
:10471300A304126F30902B3212472F40DB902B36BD
:10472300E493900353F0124739023F47E493F8C3ED
:10473300EA98EB9400227CE87D037A107B009003D7
:10474300C2E0F91218842274F012043B74F51209C2
:10475300CF8A088B09890A8C0BE9A2E050147508EB
:10476300FC7509FFA2E15005D2E402480CD2E30232
:10477300480C1254117003A3E069700579000248D4
:10478300D9AC0A7902AA08AB09120E6AE960EDE511
:104793000AF50C780C12094279027CFE7DFFAA0807
:1047A300AB0912518C120951E960030248D7E50A9B
:1047B300C2E5F50A9003B5E07051E50AA2E6404B65
:1047C3007403120BB7AC82AD83AA08AB09120C0CAD
:1047D300E97032124AAD8A0C8B0DA80CA90DE8FEC4
:1047E300E9FFE8496025EE24020A0AEF1230E5608A
:1047F3001AEE2402FCEF3400FD7403120BB7AA82F5
:10480300AB83122028E50AD2E5F50A900348E0F5C8
:104813000C900368E0F50EA3E0F50F780E12093E45
:104823007D017C00900348E0F9AA0EAB0F120E2223
:104833007402120951E9F8900348E004F0E86003B8
:104843000248D7E50AA2E55004740E80027406C03C
:10485300E07401120BB7D0E0125F068A0E8B0FAE25
:104863000EAF0FEE4F60691248F712490E88828926
:10487300837401F07478550AA3126EF8E50C126E76
:10488300F8A3E508F0E5091248E6E4F0E50AA2E535
:10489300500F7403120BB7AC82AD83E824061248A1
:1048A300DD8E828F83A3A374FDF0A374FFF0E50B69
:1048B3006015902B39E493F8E50BC3985009EE2467
:1048C30013125ED9E50BF0EEFAEFFB120CAE800685
:1048D3007910800279C7740B8049FAE93400FB121E
:1048E30020282288828983A3A3A3A31248F2221239
:1048F3005C6DA322EE2417125EEA7401F0120FDE40
:10490300EE241A125EEAEAF0A3EB22F0126EEC3404
:104913000012491822F58312491E22E0F8A3E0F998
:1049230022740D1209517F0802065574F612043BD6
:104933007A007B101263F460089003D47401F08052
:104943002990068EE06401900F3F7006E0FC790128
:104953008004E0FC79037A007B00120D8C902B20FD
:104963001249707A007B1012497E023F4712497444
:1049730022E493FC740193FD227B009003C2E0F9CF
:1049830012187E2274EC12043B8A088B098C0C8D5E
:104993000D890E7414120BB712536B7416120BB7E6
:1049A300E0F510A3E0F511121056E960077AFF7BDA
:1049B300FF024AAA900F3EE064026003024A9D7917
:1049C30000AA08AB09120E70A90E120E648A128B8C
:1049D30013AE12AF13EE4F7003024A858E828F839C
:1049E300A3A3A3A3A3E064018E828F83A3A370690F
:1049F30012562A8E828F83A3A3A3A3A3A3E05418E2
:104A03006043902B37E4938E828F83A3A3A3A3F0F9
:104A1300EA650C7003EB650D6014EA650A7003EB3D
:104A2300650B600AEA65107003EB6511701F78105F
:104A330012093EAC0AAD0BAA0CAB0D121152740253
:104A430012095180089003671263DEA3F074FE6AB3
:104A5300700374FF6B601D804EA3A3A3E064036027
:104A6300298E828F83A3A3A3A3A3E0640470057A92
:104A7300FE0249B28E828F83A3A3A3A3A3E06402A1
:104A830070089003B4E064027010124AAD8B0BEA15
:104A9300450B6006AA08AB09800DAA08AB09900371
:104AA3004912441F1222250269D4900375125192B0
:104AB3001211162274F712043BEAFEEBFF120C608C
:104AC300E9700AEEFAEFFB120C6CE96006EEFAEFFE
:104AD300FB80047AFE7BFF023E9B74F012043B8A48
:104AE3000A8B0B8C0E8D0F8909750800121056E97D
:104AF30079006003024C54AA0AAB0B120E70A90989
:104B0300120E648A0C8B0DAE0CAF0DEE4F60198E36
:104B1300828F83A3A3A3A3A3E0640270559003B47D
:104B2300E064027003024C52AA0AAB0B90034F12CB
:104B3300441F122225120C728A0C8B0DA80CA90D8E
:104B4300E8497003024C5288828983A3A3A3A3A3D9
:104B5300E0A2E04003024C52750C01A2E1506879D7
:104B630001AC0AAD0BAA0EAB0F120DBCE9706402C7
:104B73004C528E828F83A3A3A3A3A3E06403700587
:104B8300750C0280528E828F83A3A3A3A3A3E06438
:104B9300016003024C52900375124C628E828F8324
:104BA300124FB78A0C8B0DA80CA90DE84960D19060
:104BB3002B30E493FA88828983E0C39A50C2A3E03E
:104BC3006003024C5280B988828983A3A3A3A3A361
:104BD300D2E1F0EE4F603A8E828F83A3A3A3A3A307
:104BE300A3E05418602B7508018E828F83A3A31250
:104BF300078B750CFE750DFF780C12093E7900AC1E
:104C03000AAD0BAA0EAB0F120E8274041209518067
:104C13003E900368E0650E7004A3E0650F70149086
:104C23002B38E493FCA909AA0AAB0B120D8C750867
:104C330001801CA90CAC0AAD0BAA0EAB0F120DBC64
:104C4300E9700C750801A909AA0AAB0B120E16A983
:104C530008024929E50C2415F582E50D125EED12D3
:104C6300594A2274EA12043B74F01209CF8A0C8B5E
:104C73000D8C088D097426120BB7E0F514A3E0F52B
:104C8300157512069003F51251B060239003751247
:104C93004C62AA08AB091211408A108B11EA451124
:104CA300600D8A828B83A3E070057900024F9FE534
:104CB3000C241DF50EE50D3400F50F850E821251FF
:104CC3009CF51388828983A3A3A3E0FA888289834E
:104CD300A3A3A3A3E0F9EA2400FEE439FFAA08ABE7
:104CE30009120E1C850E82850F83124FDAE029F517
:104CF3000BE50AA2E5500375120E7487550A701767
:104D03007418550A6418600FE50C2417F582E50D35
:104D13001265AC651260077901122010808C530A6A
:104D230078C3EE94F8EF94FF501D7900EEFAEFFB91
:104D3300124FA9601288828983A3A3A3A3A3A3E02C
:104D430054186003024CAD780812093E7D00124FDF
:104D5300CD120951E9F87403687003024CADE860A1
:104D630003024E187418550A7003024ECDE50AD299
:104D7300E0F50AA2E45004D2E1F50AA90A12562387
:104D8300124FA9605388828983A3A3A3A3A3A3E09B
:104D93005418604488828983A3A3A3A3A3E0640176
:104DA3007036E51045116030900375124C628882AD
:104DB3008983124FB78A0E8B0FA80EA90FE849609B
:104DC3001788828983A3E0600F851082851183A3EE
:104DD3001260FB5003024CADE50AF50E780E120982
:104DE30042124FC0120951E9702B7C007D008514DB
:104DF3008285158374FFF0A3F0850C82850D83A350
:104E0300A3A3A3A3A3A3A3E06003124C57A90B126C
:104E130056231219AA851482851583E0F47003A31F
:104E2300E0F460399003B4E064027003024CAD1205
:104E3300535CE0FAA3E012441B122225EA650870D2
:104E430003EB65096003024CADEEFAEF12441B124B
:104E53002225851482851583EAF0A3EBF0780812E6
:104E6300093E7D01124FCD120951A90AEEFAEFFB5B
:104E7300120E708A088B09A808A909900368E068D4
:104E83007003A3E0696003024F90EEFAEFFB120C8C
:104E9300728A088B09A808A909E849606E88828983
:104EA30083A3A3A3A3E06401600D88828983A3A3E2
:104EB300A3A3E064027054851882851983AC82AD84
:104EC30083EEFAEFFB120C0C8055900361E0600F48
:104ED300E50AF50E780E120942124FC0120951E588
:104EE3000AF50E780E12094279027CFE7DFFEEFA76
:104EF300EFFB12518C120951E96003024E1885141D
:104F03008285158374FFF0A3024E5F120FDEEAFC65
:104F1300EBFD851882851983AA82AB83122028852D
:104F23000C82850D83A3A3A3A3A3A3A3A3E064017E
:104F3300700F124C577408120BB7AA82AB8312205E
:104F430028125166125D724430F50878081209423E
:104F53007401120BB7858208858309780812093E0C
:104F6300740B120BB7858208858309780812093EF2
:104F7300E513F50878081209427900EEFCEFFD12FB
:104F83005623120DB67406120951024CAD12516626
:104F9300125EDC124FDAE50BF0120FF674101209F1
:104FA300517F0E020655120E648A0E8B0FA80EA9AE
:104FB3000FE84922A3A3125AC9121140227901AC66
:104FC30008AD09125ABE12518C22AC0BA913125A06
:104FD300BE120E22740222125D7AA3A3A3A322742B
:104FE300F012043B74F01209CF8A0C8B0DECFAED2E
:104FF300FB750F089003F51251B060141260F48A28
:10500300828B83E58245836007A3E07003025161CD
:10501300125166340012519CF50B88828983125118
:105023006FE0FBEC2400FEE43BFF88828983A3A3AB
:1050330012516FA3A3E0FBECF508E43BF50988826A
:105043008983A3A3A3A3A3A3A3E0F50EE50AA2E484
:105053005003750F10A2E550067408250FF50F7461
:105063008F550A700FE50C2417F582E50D1265AC18
:10507300650F60087901122010025161530A70789C
:1050830000E50AA2E450221251661265AC2408FC22
:10509300A3E03400FD7408120BB7AA82AB8312207D
:1050A300287808E50AC2E4F50AE50AA2E5502812C1
:1050B30051661265AC28F8A3E03400F9E82408FC33
:1050C300E93400FD851882851983AA82AB831220F7
:1050D30028E50AC2E5F50AAC0EA90BEEFAEFFB12BE
:1050E3000E28E9F87403686075900368E06E700336
:1050F300A3E06F605EE87054E50AF50F780F1209BC
:105103004212517D120951E97054780A120942740E
:1051130001120BB785820C85830D780C12093E743E
:105123000B120BB785820C85830D780C12093EE5B3
:105133000BF50A780A120942A90EAC08AD09EEFA7A
:10514300EFFB120DB67406120951801274046870D5
:105153000D80B7780A12094212517D120951741059
:10516300024926E50C241DF582E50D22A3A3A3E045
:10517300FC88828983A3A3A3A32279011253631218
:105183005EED12519212518C22120DE0740122E055
:10519300FCA3E0FDAA08AB0922F5831245A2A3E014
:1051A300F50A88828983A3A3E022900339125B2541
:1051B3002274E812043B74F51209CFEAFEEBFF8C6C
:1051C300088D0989147423120BB7E0F50F742412A8
:1051D3000BB7E0F512A3E0F5137426120BB7E0F555
:1051E30016A3E0F5177428120BB7E0F50EA90F12FA
:1051F3000E2E8A108B117401120BB77408F0E50E92
:10520300A2E450037410F0E50EA2E55004E0240874
:10521300F0851882851983AA82AB8312103E8A0C0B
:105223008B0DEA450D7003025343EA2417F582EB15
:10523300125355120FDEE50C241AF582E50D125EAA
:10524300DC123EAB7403120BB7AC82AD83AA10AB76
:1052530011120C0CE9601D12534D7403120BB7A805
:1052630082A983E50C2418F582E50D125EDCE8F0D3
:10527300A3E98024E50EA2E4501FE5106E7003E558
:10528300116F701512534DE50C2418F582E50D12BC
:105293005EDCE512F0A3E513F012535C12536B8549
:1052A3000A82F5837402F0A3E50E125373E50FF03F
:1052B300EE850A82850B83A3A3A3F0EF850A82857B
:1052C3000B83A3A3A3A3125373A3A3A3E508F0E53E
:1052D30009850A82850B83A3A3A3A3A3A3F0AA1022
:1052E300AB11120E1CE92514850A82850B83A3A337
:1052F300A3A3A3A3A3F0750800E50EA2E45011AC89
:1053030012AD13E50A2408FAE50B1248DF75080805
:10531300E50EA2E55014AC16AD17E50A2508F8E52D
:105323000B3400F9E824081248DD850C82850D83CF
:10533300A3A3E510F0A3E511F0AA0CAB0D120CAE7C
:10534300740B1209517F10020655E50C2416F582E1
:10535300E50D125EED7401F022125363125EED222D
:10536300E50C126EF3E50D22E0F50AA3E0F50B223E
:10537300F0850A82850B83A3A32274F212043B8A6D
:10538300088B09ECFEEDFF890A79001254117003B2
:10539300A3E069700479018073750B01900368E0E1
:1053A30065087004A3E06509601F750B00780B1294
:1053B3000942A90AEEFCEFFDAA08AB091210927488
:1053C30001120951E9F50B80417900EEFAEFFB1266
:1053D3000E64EA4B602B8A828B83A3A3A3A3A3A3AC
:1053E300E05418601C7508FE7509FF780812093E21
:1053F3008A828B83A3A312078B126D081209518033
:10540300097901EEFAEFFB120D3EA90B8014120E7F
:10541300708A0C8B0DA80CA90D900368E06822120A
:1054230009517F0602065574F412043B750863752F
:10543300090C7A10126A108B0BEA450B70031247A2
:1054430039900353E014F0700C902B36E4939003DF
:1054530053F0120E7C7E007F00806C8508828509E4
:1054630083A3A3A3A3E06059F46056E5082404F5DD
:1054730082E5091263D87049850882850983A3A34D
:10548300A3A3A3E0640370197902850882850983C5
:10549300124C62850882850983A3A312562A120D32
:1054A300BC850882850983A3A3A3A3A3E064016049
:1054B3001085088285098374FEF0A304125584E4E1
:1054C300F01238FC12374E902B24126B6C408C7EFA
:1054D300007F008039120F848E088F0974037808C7
:1054E300120AE674DB2508FC740D3509FD7AC87BC6
:1054F3000D120F72EA4B70DD8E088F097403780862
:10550300120AE6125552126DB3E4F01238FC902BD6
:105513002CE493F8C3EE98EF9400501B8E088F0988
:1055230074037808120AE612555AE82407F582E94B
:105533001263D870D680A17E007F00800A12556561
:10554300600214F01238FC126B6940F10240E81259
:10555300555A888289832274DB2508F8740D35092E
:10556300F922EEF8EFF9E875F006A4F8AAF075F061
:1055730006E9A42AF9747B28F582740D39F583E0D2
:105583002212558BA3A3A322F0850882850983A346
:10559300A32274F712043B74E11209CFECFEEDFF72
:1055A300750800EE4F60728A828B83E0241C1264BC
:1055B300091251B060638A828B8312562A8518823E
:1055C300851983AC82AD83EA241BF582EB1262DA80
:1055D300EA241CF582EB125626120FC6740B120B2B
:1055E300B712562E7003A3E069702E7402120BB724
:1055F300E064017024741D120BB712441FE06401B0
:105603007017741D120BB7124421A3A3E0F88E8206
:105613008F83E0687003750801A908741F023E9820
:105623001253633400F583125AC9221230A3E0687F
:105633002274F412043BE97024790090034D124460
:105643001F1222258A0A8B0BAE0AAF0B74FE6E70F3
:105653000374FF6F701A902B33E4936013790190F6
:10566300034D12441F1222258A0A8B0BAE0AAF0B7D
:10567300121002023A6474F612043B74F31209CF57
:105683001217168A088B09AE08AF09900368E06EFB
:105693007003A3E06F60E9120FEAEA6E7002EB6F2A
:1056A30060DEEEFAEFFB121056E970D4EE4F60D0D5
:1056B300851882851983E4F004120BB7EEF0A3EF8B
:1056C3001256DCE970BA74FE6E700374FF6F60B03B
:1056D300EEFAEFFB740D023F44123FC9120C242271
:1056E300C082C083121002023D0F7F0A0206557466
:1056F300F212043BEAFEEBFF8C0A8D0B8908740E51
:10570300120BB7E0F50974FC6E700374FF6F70053C
:1057130079000254257900120E708A0C8B0DAE0CA1
:10572300AF0D900368E06E7003A3E06F7006E509A8
:10573300A2E650DCA909126BF6706179007AFE7B50
:10574300FF126BF6705674185509700302582978C6
:10575300007900800312329D902B2412329440036F
:10576300025829E8FAE9FBEA75F007A4FAACF075E8
:10577300F007EBA42CFB74692AF582740C3BF583C8
:10578300E0541870D0E875F007A4F8AAF075F00794
:10579300E9A42AF9746328F8740C39F98882898397
:1057A300A3A3A3A3A3A3E054186009741855097015
:1057B3000302571388828983EEF0A3EFF074FE652A
:1057C3000A700474FF650B60031259508882898341
:1057D300A3A3A3A3A3A3E509F0A2E0500D888289A4
:1057E30083A3A3A3A3A3A3D2E2F0740165088882D1
:1057F3008983A3A3A3A3A370387401125974E0543B
:10580300186028902B37E49388828983A3A3A3A3EA
:1058130012593E1211408B0DEA450D6003025713D6
:105823007800790080397902025715900367E08088
:10583300D7E06401700302571388828983A3A3A36B
:10584300A3A3A3E054186007902B37E4938004903C
:105853000366E01248E6E508F002571312329D9002
:105863002B2DE493FAC3E89AE994004003025713FB
:105873007A007B00804BEAFCEBFDEC75F007A4FC9F
:10588300AEF075F007EDA42EFD74652CF582740C53
:105893003DF583125EF5E8FCE9FDEC75F017A4FC19
:1058A30085F00975F017EDA42509FD74F32CF58235
:1058B300740A3DF583E06E7003A3E06F609E1237B8
:1058C300D1902B2412375E40AD124970EC6A7002FE
:1058D300ED6B7088E875F017A4F8AAF075F017E976
:1058E300A42AF974F328FE740A39FF7C177D007922
:1058F30000EEFAEFFB1216FE8E828F83125956903A
:105903000375125930A3A3A3A3A3A3E8F0A3E91239
:1059130059367401F0EE240E125ED9740112595EE9
:105923001202EAEE240D125ED9E802585B123D2DF5
:10593300A3A322F0EE240F125EEA22F0125947AA23
:105943000AAB0B22900375E0FCA3E0FD2288828959
:1059530083A3A3E50AF0A3E50BF022F01259632217
:10596300902B30E4932401F8E43400F97A027B00AD
:10597300221248F2A32274ED12043B8A088B098990
:105983000E125AA740057905025A751219F8AA088A
:10599300AB09125B79902B22125A78650A7003E9DE
:1059A300650B70077AFE7BFF125B79902B22E41262
:1059B3005A80E50A98E50B994003025A73125A84F8
:1059C3006012E50A75F006A4F875F006E50B125AA5
:1059D300CF1217C4E50E6018E50A75F006A4F8AAFD
:1059E300F075F006E50B125AFB701A7901025A752D
:1059F300E50A75F006A4F8AAF075F006E50B125A4D
:105A0300DCE4F0A3F0E50A75F006A4F8AAF075F05B
:105A130006E50B125A9CA3125D8888828983A3AA88
:105A230082AB83125AEA8A828B83E0603F125A84E4
:105A3300603A8E108F11751200781012093AE50E34
:105A4300C333FCE433FDE50A75F006A4F50AA8F0B8
:105A530075F006E50BA428F50B747F250AF582740F
:105A63000D350B12562812376F1209517900800237
:105A73007907026C0C1233F6E822902B1A12659305
:105A830022E50A75F006A4F8AAF075F006E50B12F4
:105A93005AD7F8A3E0F9E84922A42A125C30888295
:105AA3008983A322ECFEEDFF902B2EE493F8E9C348
:105AB3009822F583125AC91217C422E50C126EF309
:105AC300E50D3400F583E0FAA3E0FB22125AD7FA7E
:105AD300A3E0FB22125ADCE022A42AF9747F28F502
:105AE30082740D39F58322E50EF0900F40125AF4BB
:105AF30022E088828983F022125C54F50CE9340099
:105B0300F50DE50EC333FAE433FB1217BE850C82A1
:105B1300850D83EAF0A3EBF0850C82850D83125B80
:105B2300252212491EE8492274F412043BECFEEDCF
