:020000040000FA
:06000000020A960201DB7A
:03002B000208D1F7
:030033000206EDD5
:030043000207862B
:0300530002010C9B
:03006B000206D3B7
:100083000201700101FF01010503010F10FEFF26AC
:1000930013261326132613DC11D6112613FF26006D
:1000A3000000006127000000000C0000000C0001AC
:1000B3000000F414000000000000AE150000000072
:1000C300000000000000FFFF414C44323533302074
:1000D3004C45440001000102006705000000DA05F9
:1000E3006400020200080000050207051E02051E47
:1000F300020A0A03B80B02803E0102FFFF141F002D
:10010300E00796511800020206C0E074F21203F4ED
:10011300A2AFE433FED2AFE5A7FFE5A1F5085F5434
:10012300106006121CFE75A1EFE5085F5408600815
:10013300121D0475A1F7802BEFA2E0C0D0E508A241
:10014300E092F01209D3158182F05017906198E084
:10015300F89008B7E0C398A2D265D0335002E8F014
:1001630075A1FEEEA2E092AF7F01020453C0E074DA
:10017300F21203F4A2AFE433FED2AF9061A4E0F82D
:10018300759B00E59158540860087591F7121D4C52
:10019300802AE59158541060087591EF121D528022
:1001A3001BE8A2E0C0D0E591A2E092F01209D315BA
:1001B3008182F05007E0C2E0F0121E969061A3E046
:1001C300F8E5E9585404600E121E6C75E9FB906162
:1001D30093E0A2E640F2808BC0E074F21203F4A233
:1001E300AFE433FED2AF9061A5E0F8E5BF58540405
:1001F300600675BFFB121EAE020166C3E498F8E405
:1002030099F912023F8026C3E49AFAE49BFBE920A2
:10021300E7E912023FE498F8E499F922C3E498F875
:10022300E499F912023FE498F8E499F9C3E49AFADD
:10023300E49BFB22EB20E7CFE920E7E0B90010BB0A
:100243000008E88AF084F8AAF022E4FBC8FA22EB5B
:1002530070227B10C833C8C933C9335007C39AC34C
:10026300DBF280069A50012ADBEAC833F4C8C933AB
:10027300F4C9FA2275F008E4C833C8C933C933C9CD
:100283009AC99B5004C92AC93BD5F0ECFBC833F487
:10029300C8E4C9FA22080808EAC0E0EBC0E086F027
:1002A300E7A4FA180986F0E7A42AFA180986F0E702
:1002B300A42AFA180986F0E7A42AFA1986F0E7A413
:1002C300FBE5F02AFA190886F0E7A42BFBE5F03AE0
:1002D300FA190886F0E7A42BFBE5F03AFA18180997
:1002E30086F0E7A4C5F02BFBE43AFA1908E7C5F05A
:1002F300C6A426F6E5F03BFBE43AFA1886F0E7A439
:10030300F6E5F00826F6E43B08F6E43A08F6D0E012
:10031300FBD0E0FA22E4CFC0E0E4CEC0E0E4CDC0FD
:10032300E0E4CCC0E075F020C3E633F608E633F62C
:1003330008E633F608E633F6181818EC33FCED3309
:10034300FDEE33FEEF33FFC3EC9709ED9709EE970C
:1003530009EF97191919400FFFEC97FC09ED97FD69
:1003630009EE97FE191906D5F0BEECF709EDF7096A
:10037300EEF709EFF7191919D0E0FCD0E0FDD0E052
:10038300FED0E0FF222518C582C0E0E51934FFC581
:1003930083C0E0E518C3958224F810AF088583195C
:1003A3008582188008858319858218D2AFCEF0A381
:1003B300E520F0A37808E608F0A3DEFAEFF0A3E562
:1003C3008124FAF8E608F0A3E608F0A3E608F0A310
:1003D3000808E608F0A3E608F0A315811581D0E02C
:1003E300FED0E0F8158115811581E8C0E0EEC0E08C
:1003F30022C0D02518C582C0E0E51934FFC583C0EB
:10040300E0E518C3958224F310AF0885831985822C
:10041300188008858319858218D2AFC8F0A3E9F044
:10042300A3EAF0A3EBF0A37908E709F0A3D8FAEC69
:10043300F0A3EDF0A3EEF0A3EFF0A3D0E0F0A3D090
:10044300E0F0A3D0E0F0A3E520F0A3E5F0F0A322D1
:10045300851983851882E0C0E0A3E0F9A3E0FAA33D
:10046300E0FBA37808E0F608A3DFFAE0FCA3E0FDD5
:10047300A3E0FEA3E0FFA3E0C0E0A3E0C0E0A3E0AD
:10048300F5D0A3E0F520A3E0A3F5F010AF08858332
:10049300198582188008858319858218D2AFD08286
:1004A300D083D0E0F8D0E032120AF8B90003020496
:1004B300EDE4900301787E790C8002F0A3D8FCD997
:1004C300FA900E7EAA82AB839000867887790180AA
:1004D30015E493A3AC82AD838A828B83F0A3AA82B3
:1004E300AB838C828D83D8E9D9E775821675838EA9
:1004F30074041208497582607583217400120849D7
:100503000975F0108E1A8F1B85821F85831E85182F
:1005130082851983E0CEA3E0CF851F82851E83EBFE
:10052300C9EAC8EDCBECCAC3E833C8E933C9EA3337
:10053300CAEB33CBC3EA9EF51DEB9FF51CB3500406
:10054300AB1CAA1DEC33CCED33CDD5F0DAAE1AAF2C
:100553001B22D083D082ECC0E0EDC0E0E493A3FC87
:10056300E493A3FDED4C600D12062DEC24FFFCED8E
:1005730034FFFD80EFE493A3FCE493A3FDED4C6013
:100583000D120731EC24FFFCED34FFFD80EFD0E0CA
:10059300FDD0E0FCE493A3C0E0E493C0E02285191E
:1005A30083851882E0A3FEE0A3F5207808E0A3F694
:1005B30008DFFAE0A3FFE0A3C0E0E0A3C0E0E0A30C
:1005C300C0E0E0A3C0E0E0A3C0E010AF088582185C
:1005D3008583198008858218858319D2AFD083D08B
:1005E3008202084FD083D082E9C0E0E493A3C3869C
:1005F300F0C5F095F0F908E493A386F0C5F095F003
:10060300700BE493A3C3994005E9048002A3E47546
:10061300F002A42582F582E5F03583F583D0E0F975
:10062300E493A3C0E0E493C0E022C0E0C3E4939664
:10063300087401939618400FE493667008087401D8
:1006430093661870007019A3A3C3E493960874010A
:10065300939618A3A3400DD0E0D0E0D0E00205911B
:10066300A3A3A3A3A3A3D0E022D083D082C5F0E4A5
:1006730093A3C5F0C395F0F5F0E493A3C395F040BD
:1006830005E5F0048001E475F002A42582F582E516
:10069300F03583F583E493A3C0E0E493C0E02274D0
:1006A30004800474028000CCC0E0EDC0E0E518C310
:1006B3009CCCAD1950011D10AF068C188D19800606
:1006C3008C188D19D2AF1207CBD0E0FDD0E0FC22FD
:1006D300C0E074F21203F4E589A2E15003121BB4E3
:1006E300758900C2C57F01020453C0E074F212038E
:1006F300F4E58BA2E05003121BB4758B00C2E880B3
:10070300E474028000CCC0E0EDC0E0E518C39CCCEB
:10071300AD1950011D10AF068C188D1980068C1869
:100723008D19D2AF1207A9D0E0FDD0E0FC22C0E0C2
:10073300C0F088F0E493667008087401936618703B
:1007430000A8F0A3A3700BD0F0D0E0D0E0D0E0027B
:100753000591A3A3D0F0D0E022D083D082CCC0E017
:10076300E493A3600612082A1470FAE493A36006C4
:1007730012091B1470FAD0E0FCE493A3C0E0E493E5
:10078300C0E022C0E074F21203F4A2AFE433FED25D
:10079300AFC2C0E5D1A2E45003121C74EEA2E092F2
:1007A300AF7F01020453CAC0E0E493A3C582CCC562
:1007B30082C583CDC583F0A3C582CCC582C583CD55
:1007C300C583DAE5D0E0CA22CAC0E0E0A3C582CC83
:1007D300C582C583CDC583F0A3C582CCC582C5833D
:1007E300CDC583DAE6D0E0CA227009080808226082
:1007F30016181818C6C333C608C633C608C633C688
:1008030008C633C6D5E0EA22C008C3E096F5080857
:10081300A3E096420808A3E096420808A3E09645A1
:10082300087001D3D00822C0E0E493A3D39C5010F6
:10083300E493A3C39C400AD0E0D0E0D0E002077960
:10084300A3A3A3D0E022C09FF59FE473D09F22D03F
:1008530083D082C09FE493C0E0740193C0E074022C
:1008630093F59F227404800A740380067402800245
:100873007401C0E0F404120882D0E0120AD32225E6
:1008830018F58210AF08F518400215198008F518FD
:1008930040021519D2AF85198322BB0102E722C09A
:1008A30082C08389828A83BB0003E08002E493D001
:1008B30083D08222C0D0251810AF08F51850020546
:1008C300198008F51850020519D2AFD0D022C0E024
:1008D300C0D0E8C0E0E5A8D2AFC2C7A2E792AFD0CC
:1008E300E0F8D0D0D0E0326016080808C6C313C6BB
:1008F30018C613C618C613C618C613C6D5E0EA220F
:10090300C3E0C696F608A3E0C696F608A3E0C6962B
:10091300F608A3E0C696F622C0E0E493A36C700940
:10092300D0E0D0E0D0E0020779A3A3D0E0222518DD
:1009330010AF08F518400215198008F51840021584
:1009430019D2AF22E76670100809E766700A080932
:10095300E76670040809E76622E066701008A3E002
:1009630066700A08A3E066700408A3E06622C3E089
:100973009608A3E09608A3E09608A3E096A2D265A2
:10098300D03322C3E096F008A3E096F008A3E096E4
:10099300F008A3E096F022E026F008A3E036F00882
:1009A300A3E036F008A3E036F022E627F60809E6CE
:1009B30037F60809E637F60809E637F622E026F6A1
:1009C30008A3E036F608A3E036F608A3E036F622DD
:1009D300C0E0E8C0E0E58124FCF8E6A2E7D0E0F857
:1009E300D0E022E647F60809E647F60809E647F6A7
:1009F3000809E647F622E657F60809E657F6080916
:100A0300E657F60809E657F622E056F608A3E0563D
:100A1300F608A3E056F608A3E056F622E056F008DF
:100A2300A3E056F008A3E056F008A3E056F02270C6
:100A33000422600D18C6C333C608C633C6D5E0F416
:100A43001822E4C396F608E496F608E496F608E45A
:100A530096F622600D08C6A2E713C618C613C6D5BC
:100A6300E0F322C6F4C608C6F4C608C6F4C608C630
:100A7300F4C622C3E7960809E7960809E79608092A
:100A8300E79622C3E09608A3E09608A3E09608A39E
:100A9300E0962275D0007581407518017519030021
:100AA3000204ABE0F608A3E0F608A3E0F608A3E02F
:100AB300F622600C08C6C313C618C613C6D5E0F4E5
:100AC30022E6F008A3E6F008A3E6F008A3E6F02286
:100AD300CAC0E0E6F0A308DAFAD0E0FA22E0FAA30B
:100AE300E0FBA3E0FCA3E0FD22EAF0A3EBF0A3EC20
:100AF300F0A3EDF022E5C754F84401F5C7790122CC
:100B03002518F582E43519F58322C2AF75D69F0205
:100B13000000221208520CE402120852AFE402123F
:100B23000852F6E50212085214E602120852812A0C
:100B330000120852932A00120852E52A00120852A2
:100B4300462B00120852D02B00120852742C0012AC
:100B53000852C82C00120852E12C00120852072D2B
:100B630000120852422D00120852862D001208521C
:100B7300AD2D00120852FE2D00120852AE2E0012A7
:100B83000852662F001208522E3000120852EE301F
:100B93000012085232310012085257310012085223
:100BA3009A3100120852E731001208523F33001203
:100BB3000852C53300120852E333001208520D34B1
:100BC3000012085227340012085236340012085219
:100BD3004134001208520135001208525A350012EE
:100BE30008521C3600120852243600120852E83606
:100BF300001208525437001208527F38001208526C
:100C0300A438001208521A3900120852AC390012E3
:100C13000852043A00120852C43A00120852E33A46
:100C230000120852F23B00120852043C0012085210
:100C3300733C00120852C83D00120852FA3D0012DC
:100C430008528D3E00120852C63E00120852123F4F
:100C5300001208522E400012085277420012085226
:100C63008242001208528D4200120852984200122A
:100C73000852A24200120852AD4200120852C74263
:100C830000120852D14200120852DB4200120852ED
:100C9300E642001208520E43001208526943001242
:100CA3000852734300120852974300120852BB4381
:100CB300001208521944001208525D4400120852EF
:100CC300794400120852F0440012085228450012D9
:100CD3000852744500120852D145001208528B463F
:100CE300001208526F4800120852C84800120852F6
:100CF300F849001208521E4A00120852A74B00126C
:100D03000852234F00120852F55000120852BE52E7
:100D1300001208526B5300120852D65400120852A4
:100D2300755500120852BA55001208522456001283
:100D33000852335600120852BA58001208526C5A1D
:100D430000120852D95A00120852B85B0012085216
:100D5300D15C001208524E5E001208526D5E001202
:100D63000852C25E00120852C75F00120852EF5FBA
:100D730000120852476000120852266100120852FE
:100D83006A6100120852B561001208522062001213
:100D93000852616300120852C563001208521365BA
:100DA30000120852736700120852A4670012085217
:100DB3005C6900120852B16900120852B56A001248
:100DC3000852526B00120852AB6B001208525E6C51
:100DD30000120852006D00120852A06D0012085252
:100DE300456E00120852DE81011208521D82011263
:100DF3000852648401120852AE8401120852C98554
:100E030001120852318601120852668601120852F5
:100E1300DA87011208525D8A01120852868B011289
:100E230008521C8C01120852249501120852B995DC
:100E330001120852A0980112085293990112085204
:100E4300019A01120852479B01120852299C011270
:100E530008520E9E011208521FA00112085289A0C7
:100E6300011208525BA10112085289A10112085212
:100E730046A2011208521DA301120852E4A3011253
:100E8300085288A401120852B1A401120852D3A433
:100E93000112085229A70112085201A8011208528F
:100EA30045A801120852ADA80112085265A9011202
:100EB300085297A901120852DBA90112085211AA7C
:100EC300011208525DAA01120852B2AA0112085275
:100ED300B7AA011208520AAB011208522FAB011232
:100EE30008523EAC01120852A2AC0112085212ADD4
:100EF300011208529EAD011208526BB00112085242
:100F03004FB101120852D2B20112085208B50112B0
:100F13000852B6B50112085266B601120852A7B8B4
:100F2300011208524AB90112085291B9011208522A
:100F33003DBB0112085251BB011208525BBB0112A7
:100F4300085283BB011208528FBB01120852AEBB79
:100F530001120852CEBD011208521DBF01120852E0
:100F630061BF0112085209C001120852ECC00112FC
:100F7300085297C101120852E3C201120852E1C399
:100F83000112085287C40112085217C501120852F0
:100F93002EC50112085265C5011208526FC5011210
:100FA30008527AC50112085298C501120852DCC5CD
:100FB3000112085239C6011208525EC601120852C4
:100FC30078C60112085204C70112085221C801123F
:100FD30008528EC80112085275C9011208529CC9E1
:100FE3000112085210CA011208528BCA0112085288
:100FF3008FCB0112085285CC0112085234CD011255
:10100300085247CE01120852E3CE0112085270CFA4
:10101300011208524ED00112085286D00112085212
:10102300DED001120852A7D101120852C8D1011211
:1010330008524FD20112085273D20112085295D2AC
:1010430001120852DED201120852F4D401120852DE
:10105300DBD5011208528CD601120852C2D80112F4
:10106300085212D90112085252D90112085294D9C6
:1010730001120852F0D9011208521EDA0112085265
:1010830042DA0112085295DA01120852C3DA011248
:101093000852FCDA0112085251DB01120852B7DB85
:1010A300011208520BDD011208522EDF0112085201
:1010B3009BDF01120852C4DF011208524FE00112F4
:1010C3000852B6E00112085201E10112085225E16B
:1010D3000112085249E101120852A4E10112085217
:1010E300BFE10112085278E20112085286AC0412E1
:1010F3000852C5AC04120852788002120852BE800E
:10110300021208529E8102120852A0820212085251
:10111300A383021208522F85021208528D850212F0
:1011230008524A8602120852688702120852D98767
:1011330002120852158802120852638802120852DA
:101143006D8802120852B188021208520D890212E8
:101153000852A88902120852258A02120852F48AF8
:10116300021208528D8B02120852AD8B02120852E2
:10117300E38B02120852148C02120852D58C02120D
:101183000852E58C02120852398D02120852548D0E
:1011930002120852668D021208526F8D0212085213
:1011A300C98D02120852258E02120852718E021244
:1011B30008528C8E02120852BD8E02120852DA8E29
:1011C30002120852E68E021208525A900212085274
:1011D300739002120852DA9002120852ED90021232
:1011E3000852FB9002120852AF91021208529392D6
:1011F30002120852999302120852239402120852BF
:101203002D94021208529A9402120852B1940212B7
:101213000852E394021208521C9502120852469592
:1012230002120852A79502120852C79502120852D9
:10123300E595021208522B96021208525197021298
:1012430008529E9702120852CD97021208524398F1
:10125300021208526B9802120852A4980212085202
:10126300B298021208520A990212085259990212AC
:101273000852989902120852C89902120852F49916
:1012830002120852FF99021208521D9A02120852C2
:10129300DF9A02120852E99A02120852249B0212A0
:1012A30008523A9B021208528F9B02120852A39BC8
:1012B30002120852B19C02120852C49C0212085234
:1012C300D99C021208527B9D02120852FE9D021203
:1012D3000852BC9E02120852C79E02120852F39F84
:1012E300021208520FA00212085261A00212085201
:1012F300A0A002120852B5A00212085217A10212AE
:101303000852A6A102120852F1A10212085242A4E5
:1013130002120852C0A40212085235A50212085242
:1013230057A7021208526FA70212085272A702129D
:1013330008527EA70212085292A7021208529AA7D5
:1013430002120852CDA7021208527DA802120852B7
:10135300F3A80212085266A9021208521AAA02122C
:101363000852CFAA02120852EEAA021208528EABFA
:10137300021208529AAB02120852C5AB021208526B
:10138300C8AB0212085232AC021208525AAD021212
:10139300085232AE02120852BDAE02120852D6AF44
:1013A3000212085293B002120852CCB00212085231
:1013B300FDB002120852BBB102120852EBB1021285
:1013C3000852C6B2021208525FB302120852EAB3BD
:1013D300021208529BB4021208521EB5021208529E
:1013E30050B50212085291B502120852B9B5031250
:1013F30008521EB6031208525BB603120852AAB66D
:1014030003120852C0B803120852A3BA03120852B7
:101413000DBE0312085248BE031208526ABE0312DD
:101423000852CDBE0312085201BF0312085224BF53
:101433000312085251BF03120852ADBF03120852E0
:10144300A39F0312085221A00312085257A00312AC
:101453000852C3A00312085236A20312085252A222
:101463000312085297A20312085225A3031208522B
:101473007EA303120852ABA403120852BDA50312A4
:1014830008521AA60312085286A603120852E7A6A8
:101493000312085228A703120852D5A703120852B1
:1014A300E7A80312085212A9031208525DA90312F6
:1014B3000852A4A90312085236AA03120852F1AA29
:1014C30003120852BEA104120852CFA104120852FB
:1014D30020A20412085265A2041208520FA3041298
:1014E3000852F4A80412085217A0041208526FA15C
:1014F3000412085268AB031208520DAC03120852CF
:101503002DAC031208524DAC0312085261AC031206
:101513000852B9AC03120852E9AC031208526AAE7E
:101523000312085210AF03120852F2AF031208520B
:1015330043B00312085286B003120852C9B0031213
:1015430008522FB10312085250B103120852DCB1F2
:10155300031208520DB20312085281B20312085249
:101563002FB40312085209B5031208524BB50312E4
:101573000852A5B5031208528E9C04120852AF9C60
:101583000412085271DA021208520F9E0412085212
:10159300EF7C00120852697D00120852747D00121C
:1015A3000852957D001208526693031208526993FC
:1015B300031208522394031208524E940312085242
:1015C300959403120852BA9403120852DB9403123F
:1015D30008520F9503120852489503120852719648
:1015E30003120852BFE202120852C89603120852AD
:1015F3006397031208522898031208525F98031244
:101603000852D49903120852779A03120852709B16
:1016130003120852999B03120852ED9B03120852BE
:10162300B39C03120852E19C03120852769E0312E4
:101633000852F79E031208522A9F03120852F9BF59
:101643000312085203C0031208524FC00312085278
:10165300BDC003120852DEC003120852F5C00312C4
:101663000852A5C10312085239C40312085242C4D6
:101673000312085295C403120852BEC4031208523F
:1016830025C503120852B6C503120852F8C5031242
:10169300085242C603120852A1C603120852CDC60D
:1016A300031208525EC7031208529DC70312085261
:1016B300DCC70312085211C80312085223C80312CD
:1016C300085235C80312085254C8031208525DC8A1
:1016D3000312085213C90312085253C903120852C2
:1016E300E3F403120852B6F503120852D0F50312BD
:1016F3000852E1F503120852F6F70312085215F8DF
:1017030003120852749804120852AA980412085239
:10171300F39804120852439A041208523BE6021249
:1017230008527AE702120852B6E70212085275E924
:10173300021208529EE90212085231EC02120852B8
:1017430075EC02120852FEED0212085296EE0212D6
:101753000852FEEE021208529FEF02120852E1EF06
:101763000212085221F002120852ACF1021208527E
:101773001CF30212085241F5021208526FF50212CD
:10178300085296F5021208529FF502120852FAF512
:10179300021208528DF602120852ABF902120852D5
:1017A3002CFA0212085298AD04120852AEAD04127C
:1017B3000852B07F00120852B18A04120852C48A38
:1017C30004120852618B041208529C8B04120852B3
:1017D300B78B04120852DC8B04120852218C0412BA
:1017E3000852528C04120852838C04120852098E38
:1017F3000412085287A404120852BDA4041208520A
:10180300D9A4041208521BA5041208522BA50412D2
:101813000852C0A504120852CAA50412085289FA34
:1018230002120852CAFA0212085278FB0212085234
:101833002CFC0212085272FC0212085220FE021201
:101843000852BAFE0212085243FF02120852916E66
:1018530000120852E96E00120852D26F00120852A9
:101863006B7000120852B570001208521271001208
:1018730008526B71001208527F7100120852B17145
:1018830000120852AF72001208521373001208526A
:101893002E73001208527D730012085293730012C4
:1018A3000852A07300120852D47300120852ED7349
:1018B300001208527E74001208528D7400120852EE
:1018C3001575001208526F7500120852BD7500128B
:1018D3000852DF75001208525678001208528B78AE
:1018E300001208521B790012085290790012085214
:1018F300957900120852D17900120852277A001202
:101903000852EB7A00120852107B001208521A7B1D
:10191300001208521D7B00120852A67B00120852C7
:10192300C17B00120852D47B00120852007C0012C3
:1019330008523B7C001208523E7C00120852497C3C
:1019430000120852857C00120852987C001208523B
:10195300BF7C0012085239AC0412085251AC041275
:101963000852B8D20312085207D303120852A9D45B
:101973000312085267D603120852AFD60312085255
:10198300D1D70312085202D90312085224D90312E1
:10199300085280D90312085202DA03120852B2E243
:1019A30001120852D3E2011208525DE301120852F8
:1019B300E2E3011208525EE401120852C7E4011285
:1019C300085213E50112085292E50112085224E667
:1019D30001120852B0E601120852F2E6011208524F
:1019E3005EEB01120852DEEC011208521DED0112EA
:1019F300085204EE0112085207EE01120852BBEE20
:101A030001120852F0EF01120852DBF101120852E1
:101A13005BF40112085214F50112085231F6011257
:101A2300085288F90112085298F901120852F9FA7A
:101A33000112085285FB01120852B9FC0112085227
:101A4300AAFD011208522CFE011208520080031253
:101A53000852BA80031208522C81031208523B81A8
:101A630003120852B581031208522482031208524A
:101A73002B8303120852548303120852F483031274
:101A83000852428403120852B284031208526B872D
:101A930003120852428803120852AF8803120852F5
:101AA3002C8A03120852E08A031208528E8B031207
:101AB3000852E98B03120852548C03120852548DB6
:101AC300031208522E8F0312085241900312085238
:101AD300DA90031208524C91031208521292031225
:101AE30008520D8004120852618004120852B98012
:101AF3000412085204810412085266810412085227
:101B0300D28104120852858204120852C68204123A
:101B13000852DC8204120852388304120852768376
:101B2300041208521E96041208524F9604120852C9
:101B33000997041208526F9704120852E09704128F
:101B43000852A18E041208522D9004120852E7A9DC
:101B530004120852F8A90412085298AA041208524F
:101B63005F9E041208526D9E04120852F4AD0412D3
:101B7300085252AB0412085262AB041208527DABF6
:101B830004120852DEAB04120852F2A704120852E0
:101B930077A804120852DBA804120852E0A6041224
:101BA300085202A7041208526CA70412085277A71E
:101BB30004120852BBA70412085236DA0312085261
:101BC30044DA0312085285DA03120852A6DA031222
:101BD300085223DB0312085223DC0312085245DCAC
:101BE30003120852B1DC03120852CCDC0312085270
:101BF300E7DC03120852F1DC03120852FBDC031288
:101C030008520EDD0312085227DD03120852C3DD0A
:101C1300031208527FDE03120852F6DE0312085243
:101C230070DF03120852D6DF03120852A78304128F
:101C33000852B583041208522F84041208521385E4
:101C430004120852CC860412085276AD04120852CC
:101C530080E103120852EDE103120852AEE20312CF
:101C630008521EE30312085227E4031208529FE5A9
:101C73000312085203E60312085258E603120852ED
:101C830061E60312085270E60312085283E6031258
:101C9300085299E603120852A2E60312085272EBA5
:101CA30003120852C7EB03120852C3ED0312085282
:101CB300F5ED0312085217EE0312085230EE031229
:101CC300085249EE0312085253EF03120852EEEF83
:101CD3000312085226A3041208524AA304120852FC
:101CE30063A30412085296A304120852C7A3041252
:101CF3000852F5A30412085257A40412085266A40A
:101D03000412085270A4041208527DA4041208524B
:101D130046FD031208526CFD03120852A9FD03127B
:101D23000852B8FD03120852D7FD031208523FFEB2
:101D33000312085248FE03120852A7FE0312085268
:101D4300CBFE031208528AFF0312085297FF0312B5
:101D53000852A8FF03120852C0FF02120852DDFF07
:101D63000212085265F003120852C3F1031208521B
:101D7300D0F103120852E3F10312085202F20312E4
:101D8300085218F2031208522CF203120852A1F25D
:101D93000312085206F303120852B6F30312085251
:101DA3008BF4031208529BF403120852AAF4031291
:101DB3000852B9AA04120852DDAA0412085205AB4C
:101DC300041208522DAB041208525B9104120852FC
:101DD300829104120852A391041208520892041229
:101DE3000852C19304120852DA9304120852E6937C
:101DF30004120852FA930412085218940412085257
:101E03002294041208522C94041208523F94041290
:101E13000852929404120852CB9404120852FA9472
:101E23000412085248950412085297950412085256
:101E3300B29504120852BC9504120852CD950412AF
:101E43000852139604120852E8AB041208527CC9D4
:101E530003120852A6C903120852C2C90312085238
:101E6300D5C903120852EBC90312085248CA031218
:101E730008527BCA03120852B7CE03120852DDCFB1
:101E83000312085210D0031208525CD003120852F6
:101E930088D103120852B0D103120852C5D10312DC
:101EA3000852D5D10312085219D2031208527AD21A
:101EB300031208528AD203120852C4FE01120852B6
:101EC300DFFE0112085208FF0112085222FF01121D
:101ED300085247FF0112085266FF011208527EFFA3
:101EE30001120852ACFF01120852C6FF0112085238
:101EF300CFAC0412085231870412085238870412F7
:101F030008524488041208527488041208529A88AA
:101F130004120852BD8804120852DF8804120852C2
:101F23001989041208527F8904120852B8890412CD
:101F33000852048A04120852318A04120852518A40
:101F430004120852A69A04120852BE9A04120852A6
:101F5300AC9B041208528B9C04120852CDA50412A8
:101F630008523FA6041208527DA604120852BEA6C8
:101F7300041208526EF9031208528DF90312085223
:101F8300DCF903120852F8F90312085229FA031272
:101F9300085239FA0312085246FA0312085253FA46
:101FA300031208523FFB031208527DFB031208522F
:101FB30087FB0312085297FC03120852A2FC031278
:101FC3000852B4FC03120852BDFC03120852C7FCAA
:101FD30003120852B5E603120852FAEA0312085232
:101FE30008EB03120852D6AD0412085249AD04128D
:101FF300085213AD04120852D6FF03120852B8ADAB
:1020030004120852D3D7021208529CD60212085265
:10201300F0D50212085236D402120852E6D1021247
:1020230008526DD10212085214D102120852A4D0E0
:10203300021208527BD0021208525BCE02120852DF
:1020430027CE02120852F4CD02120852D8CD021242
:102053000852F1CC02120852A9CC02120852F4CA57
:102063000212085274CA0212085271CA02120852AA
:102073006EC9021208523CC90212085279C80212F0
:102083000852A4C6021208526AE00212085288DFFC
:10209300021208526CDF021208520CDF02120852BD
:1020A300C4DE0212085235C60212085207C60212D3
:1020B300085204C602120852F1C50212085212DE77
:1020C300021208529CC5021208528BC50212085212
:1020D3007DC40212085247C40212085284DD021260
:1020E3000852A89603120852F5C30212085296C367
:1020F3000212085265C3021208522DC0021208527E
:10210300EDBF02120852E1BF0212085241BF021290
:10211300085281BE0212085203BC0212085294B93B
:102123000212085252B90212085226B80212085279
:10213300DBB7021208521AB702120852EDB60212A6
:10214300085230B602120852C6B50212085200B63F
:102153000212085277DD02120852E59D04000000C6
:1021630080FBE4730000000000000000000000009A
:10217300000000001010101010100000303000009C
:1021830000142850000000000000000000000000C0
:10219300002828FC284850FC50500000000010384C
:1021A3005454301814545438100000000044A8A8A4
:1021B300B0541A2A2A44000000000020505060AC9A
:1021C300A898927C000000606020C000000000001E
:1021D3000000000000040808101010101010080878
:1021E30004000000402010080408102040000000F4
:1021F3000000001010D63838D61010000000000080
:1022030000101010FE10101000000000000000006D
:10221300000000000000606020C00000000000001B
:10222300FC000000000000000000000000000000AF
:10223300000060600000000204040408081010207D
:102243002020400000000030488484848484483087
:10225300000000000010701010101010107C00001F
:1022630000000038444404081020447C00000000AF
:1022730000384444180404444438000000000808AB
:1022830018284848887C081C00000000007C404057
:1022930078440444443800000000003C4480B8C43F
:1022A3008484847800000000007C444808101010E7
:1022B30010100000000000788484487884848478B7
:1022C3000000000000788484848C740488F000008B
:1022D300000000000030300000003030000000003B
:1022E300000000001000000000101020000004088F
:1022F300102040201008040000000000000000FC33
:102303000000FC000000000000004020100804084A
:10231300102040000000000078848484081010001E
:102323003030000000000038449AAAAAAAB4423C04
:1023330000000000001010282828384444EE000054
:10234300000000F844447844444444F8000000008A
:10235300003C44848080808044380000000000F00A
:1023630048444444444448F00000000000FC444016
:102373004878484044FC0000000000FC4240487894
:10238300484040E000000000003C448480808E848C
:1023930044380000000000EE4444447C444444EECE
:1023A30000000000007C101010101010107C0000C2
:1023B3000000007C101010101010101090E00000AE
:1023C30000EE44485070484844EE0000000000E02E
:1023D30040404040404044FC0000000000EE6C6C74
:1023E3006C54545454D60000000000EE64645454FA
:1023F300544C4CE4000000000030488484848484FE
:1024030048300000000000F844444478404040E075
:102413000000000000304884848484B448380C00F1
:10242300000000F844447850484844E600000000A7
:10243300003C44402018040444780000000000FEDF
:1024430092101010101010380000000000EE4444E9
:102453004444444444380000000000EE4444282827
:10246300282810100000000000D6545454546C283F
:1024730028280000000000EE44282810282844EEF5
:102483000000000000EE442828101010103800004F
:102493000000007C88081020204044FC0000001C41
:1024A300101010101010101010101C0000701010DD
:1024B3001010101010101010700000701010101079
:1024C3001010101010107000001028000000000001
:1024D30000000000000000000000000000000000F9
:1024E300000000FE00606020C0000000000000004B
:1024F300000000000000000038441C24443E00009B
:10250300000000C040407844444444780000000088
:10251300000000003C444040443800000000000C30
:1025230004043C444444443E000000000000000016
:1025330038447C40443800000000001C2420F8206C
:102543002020207800000000000000003C484830B4
:1025530040784438000000C040405864444444EE8E
:10256300000000000010000070101010107C00002C
:102573000000000800003808080808080870000078
:1025830000C040405C48507048EC00000000007000
:10259300101010101010107C00000000000000004C
:1025A300F854545454D60000000000000000D864CE
:1025B300444444EE0000000000000000384444445A
:1025C30044380000000000000000F844444444780C
:1025D30040E00000000000003C444444443C040E3E
:1025E300000000000000EC30202020F80000000074
:1025F300000000003C443008447800000000000064
:1026030010107C101010100C0000000000000000DF
:10261300CC444444443E0000000000000000EE446B
:10262300282828100000000000000000D65454544D
:1026330028280000000000000000DC48303048EC8F
:102643000000000000000000EE442828101020E0E5
:102653000000000000007C481010247C00001010D3
:10266300101010101010101010101010000136363A
:10267300010100010201000103010001040106063A
:1026830005020000070100340801000F09040101DD
:102693000D0100FF0E08000017020000190100FFE2
:1026A3001A0100011B0100FE1C0100081D020000AD
:1026B3001F01000120010001210200002301000F7E
:1026C300240200002601000127010008280200FF60
:1026D3002A0100072B0102402C0100002D010001FB
:1026E3002E0100012F0100FF30010B1C31080000F7
:1026F3003A0100083B01000F2F01000003007100A5
:10270300300160001100700031022003500480008A
:102713001000610000001400630073007200620087
:102723004300000013000600000000000400120034
:102733000000000000000000040004003700370020
:102743003C0244000000000000000000650000009F
:102753003500810000000500000083000000010334
:1027630071030103010301030103010322030203B4
:10277300010310030003000300030003000300032D
:1027830000034203000324030603000300030403BE
:102793001203250323032503230304030403000374
:1027A3000003000344030003000323030003650342
:1027B3002100350381030003050300030003000325
:1027C3000101710101010101110101013101010146
:1027D30001018001100161013B00140063017301D9
:1027E3007201620143010001130106013D0135003D
:1027F30004011201000100010001000104010401B0
:10280300330133013C014401320136000001000170
:102813006501000135008101000105018201830189
:102823000001030271023001600211027002010211
:10283300020202028002100261023A0041006302B6
:1028430073027202620243020002130238000002A2
:10285300000204021202000200020002000204024B
:102863000402370037003C02440200023900000230
:1028730000026502000235028102000205028202A3
:10288300830200020304710402046004110470044F
:102893000204020401040204100461040004140489
:1028A30063047304720462044304000413040604FF
:1028B30000040004040412040004000400040004DF
:1028C30051046400000400040004440400040004F0
:1028D3000004000465040004350481046400050455
:1028E30000048304000436000100060000000F000A
:1028F30000000000000000000000000003FFFF00D4
:10290300000403FFFF0000FFFF0FF4010005C404F0
:102913000320000100030B0000000000000000037F
:10292300010F0000881A1300041A0100881A02001C
:10293300BC190300C2190400C8190500CE1906000A
:10294300DA191100F8191400FE191500EC19FFFF2C
:102953000000012E0E065E0E08580E0B6A0E10AA1A
:102963000D02340E054C0E073A0E0C100E0D220EFE
:10297300FF000003EAF5E5D5D5C5B5A59595858591
:102983007575656555554545353525251515053643
:102993001266123C124212601254124E126C1272E0
:1029A3001278128412481230122A1200160F0000F5
:1029B3000B150B020002220F3200000626133813F8
:1029C3003E1300124413FA1106123A113411701116
:1029D30076116A1122118613A413AA138C13981368
:1029E300921300011916181616152303000C0E0274
:1029F3000B040B0A0708000F00034948424D181740
:102A030025050200383C3E363B3B352B432C30300A
:102A130017181921301B1D1F3030301618192023A9
:102A23001A1C1E307A134A1350135C1356135A128E
:102A33007E129E138A1290120204020101010109FF
:102A43000246114C1140117C11000000000000529D
:102A530011641100BE040A0E00150004007F00E893
:102A6300030C002800000000000308100C0A0308F0
:102A73000900040001FF1E1E0C05040F1008C0828C
:102A8300C0838A828B83E0D2E7F012190E023C5096
:102A9300C082C0837900122F4D125E1DC082C08395
:102AA300900334124BA3D083D082C3E09CA3E09D58
:102AB300500C1264F1FAA3E0122AC4600109023C2B
:102AC30050FBEA75F00BA4FAA8F075F00BEBA42801
:102AD300FB900336E02AF8A3E03B8882F583E054B9
:102AE3000F2274F71203888908122F4D122FF3ACAB
:102AF300F075F00BE9A42CF9900336E028FEA3E06F
:102B030039FF7401650860067402650870208A82C3
:102B13008B83122FDF123E7F74026508701B122E07
:102B23009E12302670138E828F83E4F0800BEA248A
:102B330003FCEB122FC1122FCDEEFAEFFB120B2E7B
:102B4300023DDC74F4120388126E1879008E828FB2
:102B530083E06076890A890B8065E50A75F00BA42A
:102B6300FAA8F075F00BE50B122AD17046E50A7549
:102B7300F00BA4F8AAF075F00BE50B1230058E826A
:102B83008F83E08508828509831230E78508828573
:102B93000983A3123E7FEE2403FCEF122FCA123CDB
:102BA3005D125897AA08AB09120B2E7901900334D2
:102BB3001252ACE50A2401F50AE50B3400F50B12B9
:102BC3002EA6E50A9AE50B9B409002402974F51264
:102BD3000388EAFEEBFF740B120B03123C62750AC7
:102BE30001EC4D602BEC126E34ED125E1D123E773C
:102BF3007901120B3AE5084509606F85088285095A
:102C030083A3126E227902AA08AB09120B3A805AE7
:102C1300E5084509602B125E211244EB123C5E125B
:102C23003010700CEEFAEFFB120B40E9F50A80CB83
:102C3300EE2403FA122F4870317903EEFAEFFB808A
:102C4300CA8E828F83A3E064FE7003A3E0F4700B4B
:102C5300EE24030A0A0A122F48700CEEFAEFFB1255
:102C63000B40E9F50A8003750A00A90A7F030205F0
:102C7300A174F7120388900334123DECEA4B602FE2
:102C8300EA75F00BA4FAA8F075F00BEBA428FBEAA5
:102C9300FEEBFF121710900336123DEC9003361231
:102CA30050F16012EEFCEFFD790012165080079090
:102CB3000336E4F0A3F0023DDC90033412485BC317
:102CC300EE98EF9922C082C083EC4D6005121F6E0F
:102CD30080097C087D007900121650023C5074F67E
:102CE3001203887900EA4B6018780088081261643F
:102CF300EB1264ED60047901780808E8C394084096
:102D0300EA023E8874F712038874F3120931ECFE69
:102D1300EDFF851882851983E4F004120B03EAF0B2
:102D2300A3EB12561D7403120B03AC82AD83EEFAB0
:102D3300EFFB120B52EEFAEFFB120B58023DD77466
:102D4300F712038874F3120931ECFEEDFF85188244
:102D5300851983E4F0EAFCEBFD7403120B031230D4
:102D6300E07401120B03123E738E828F83123E7F37
:102D730074FE68700374FF6960047901800279004E
:102D8300023DD774F7120388EAFEEBFF122DE470BD
:102D930014122DEF8E828F83E0F4F88A828B83E006
:102DA30058F0120B2EA908023DDC74F7120388EACF
:102DB300FEEBFF7508008E828F83E06022122DE404
:102DC300701D122DEF8A828B83E08F838E82F8E051
:102DD30058700CE0F88A828B83E048F0120B2E8047
:102DE300C4120B34E9F5087401650822126E2D1222
:102DF3002FF7122F39FAA3E039FB2274F412038858
:102E03008A088B097C007D00122E9E122FCD122F73
:102E13005E126E1F7900850882850983A3E064FE34
:102E23007003A3E0F460717E007F008062EEFAEF2E
:102E3300122AC46057EEFAEFFBEA75F00BA4FAA866
:102E4300F075F00BEBA428FB900336E02AF50AA3F8
:102E5300E03BF50B850882850983A312556B850A30
:102E630082850B83A3E06A7003A3E06B701EE50AFF
:102E73002403FAE50B122F49700AE50A2403FCE543
:102E83000B122FCA122F527901125E3312383D12E0
:102E93002EA6EE9AEF9B4095024029EA24030A0AE4
:102EA3000AEB22900334125A0AC32274F3120388E2
:102EB3008A088B098A828B83A3126E22122F4D12EA
:102EC3006E1F750C00122E9E122F4970547E007FC8
:102ED300008049122F2BFAA3E0398A82F583E0544C
:102EE3000F6036122F2BF50AA3E039F50BE50A2400
:102EF30003FCE50B122FD43400FB121F68E96401B5
:102F03007017850A82850B83A3125ACBA3123E7FC7
:102F1300122F52750C01125E3312383D122CBC4035
:102F2300B2A90C7F050205A1EEF8EFF9E875F00BE5
:102F3300A4F8122F3922AAF075F00BE9A42AF9900C
:102F43000336E02822EF12302022126E33EB2212D6
:102F53002F5E125E2EEEF0A3EFF022E508126E3420
:102F6300E5092274F5120388EAFEEBFF8E828F8354
:102F7300A3126E227C007D00EE24030A0A0AEF12DC
:102F83002FCDEEFAEFFB120B34E9F50A7401650A53
:102F93007029126E2D122FF3AAF075F00BE912307F
:102FA30005850882F583122FDF123010700DE508B6
:102FB3002403FCE509122FC1122FCD022C6D34001E
:102FC300FDEE2403FAEF22122FD43400FB120B522E
:102FD300223400FDE5082403FAE50922A3122FE4B5
:102FE30022122FE822E0F8A3E0F98E828F83A32236
:102FF300122FF7223400F58312485FE875F00BA413
:10300300F822122F3FF508A3E039F50922E8F0A3CF
:10301300E9F0E5082403FAE50912302022123026EC
:103023006401223400FB120B58E92274F312038863
:1030330074E6120931126E18750C017508007509D2
:1030430000750A00750B00851882851983E4F0EE7C
:103053002403FCEF3400FD7403120B031230E0E988
:1030630064017023740B120B03123E777401120B6D
:103073000312556F7003A3E06960518518828519A7
:1030830083858208858309740D120B03E41230E7EC
:10309300740E120B03123E7F740D120B03AA82AB44
:1030A30083120B76E96401700B740D120B03858296
:1030B3000A85830B780A12086FAC08AD09EEFAEFA4
:1030C300FB120B4674021208B7E9F50CEEFAEFFB9C
:1030D300120B70A90C741A1208B7022F261233B3FD
:1030E300120B7C22123DE712485B22C082C0837818
:1030F30000790080031231DE122EA6E89AE99B5074
:1031030029E8FAE9FBEA75F00BA4FAACF075F00BC9
:10311300EBA42CFB900336E02AFCA3E03B8C82F566
:1031230083E0540F70CF790080027901023C50C0D4
:1031330082C083902A5C1248B1EC75F012A4FCA8FB
:10314300F075F012EDA428FD79FF7A267B0912169B
:1031530050023C5074F7120388E9FEEAFF7A007BC1
:1031630000780079008028E8FCE9FDEC75F012A4F2
:10317300FC85F00875F012EDA425081235F3C39E03
:10318300400AE0FCEFC39C40031237121231DE12F7
:1031930035E740D3023DDCC082C0837800790080EC
:1031A300031231DE1231D2501F1235F7F470F2E8F8
:1031B30075F012A4F8AAF075F012E9A42AF974269E
:1031C30028FA740939FB80047A007B00023C509092
:1031D3002A5C1236A8C3E89AE99B22E8240108E98D
:1031E3003400F92274F012038874F31209318A0A45
:1031F3008B0B8C0C8D0D8908EC450D6016AA0CAB5E
:103203000D120BCA8A0E8B0FAE0EAF0FEE4F60037B
:103213000232A5120BA08A0E8B0FA80EA90FE8FE8F
:10322300E9FFE849607C902A6A123307602274033D
:10323300650860067404650870167A047903120B36
:103243009A902A6A12331E40077A007B00023304E5
:10325300902A68123307601B7401650860067402C4
:103263006508700F7A027901120B9A902A6812335B
:103273001E50D68518828519837401F0120B031230
:103283005897AC0CAD0D7403120B031233AC740BD3
:10329300120B03123C6A12425FE412587F12107A37
:1032A3008004EE4F604A780074FF2508C3940450ED
:1032B3000278048E828F831258978E828F83A3A302
:1032C300A3A3E508F0E88E828F83A3A3A3A3A3128D
:1032D300589F1202371236BF8E828F83A3A3A3A3F4
:1032E300A3A3A3F01236B6120AE0125E17120AEC79
:1032F30012330C4005900E82E4F0120F54EEFAEFF5
:10330300FB0248651259B949227A047900120B9AD3
:10331300902A5C1264D3EA98EB99221233377583AF
:103323002A75825CE493C398F8A3E49399F9C3EAFA
:1033330098EB9922E493F8740193F92274F212033F
:103343008874F31209318A088B09ECFEEDFF750AC4
:1033530000EEFAEFFB120BCA8A0C8B0DA80CA90D19
:10336300E849603E88828983E065087004A3E065CC
:1033730009602F88828983A3A3A3A3E0C394055084
:1033830021125CC58518828519837401F0120B0321
:10339300125CC9EEFCEFFD7403120B031233AC7520
:1033A3000A01A90A740D0253631233B3120B882264
:1033B300AA82AB83120B52851882851983AA82AB2A
:1033C300832274F6120388123401600FA3A3A3A30C
:1033D300E014C394045004790180027900023E880A
:1033E30074F6120388123401600FA3A3A3A3E0149D
:1033F300C394025004790180027900023E88120BC3
:10340300C48A828B83E58245832274F61203881271
:103413003401600BA3A3A3A3E070047901800279B4
:1034230000023E88C082C083EAFCEBFD7A007B0089
:10343300023C4DC082C0837C007D00023C4D74F48D
:1034430012038874F3120931EAFEEBFF8C0A8D0B29
:10345300C3EC94F8ED94FF4007EE4F70030234FA87
:10346300750800750900802E8518828519837401FB
:10347300F0123865120B0312387360137403120BC6
:1034830003AC82AD83EEFAEFFB121F68E97049E5E6
:10349300082401123693902A5CE41259C1E5089876
:1034A300E509995052E50875F012A4F8AAF075F0F1
:1034B30012E509A42AF912650660D4EE4F70A974C7
:1034C300FF650A700474FF650B60C4123855650A02
:1034D3007004A3E0650B70B7E50875F012A4F50856
:1034E300A8F075F012E509A428F50974262508FA51
:1034F30074093509FB80047A007B0002402474F4CC
:1035030012038874F3120931750800120BCA8A0A70
:103513008B0BAE0AAF0BEE4F602A85188285198399
:103523007401123DE1F8A3E0F9740B120B03123F8F
:1035330002120B6A7C127D0079FFEEFAEFFB121682
:103543005075080112330C5009900E827401F01269
:103553000F54A90802402474F7120388E9FE74FE8D
:103563006A700374FF6B7800790070058052123122
:10357300DE1235E7504AE8FCE9FDEC75F012A4FCD5
:10358300AFF075F012EDA42F1235F3F460E0E8FC10
:10359300E9FDEC75F012A4FC75F012EDA42FFD7497
:1035A300262CF58274093DF583E06A7003A3E06B72
:1035B30070BC80091235F714C3940440171231DE2E
:1035C3001231D25018EE70EC1235F764016005E049
:1035D300640370E9123846FAA3E0FB80047AFE7BA9
:1035E300FF023DDC902A5C1248B5C3E89CE99D22AA
:1035F30012374722E8FAE9FBEA75F012A4FAACF0B5
:1036030075F012EBA42CFB742A2AF58274093BF59E
:1036130083E022120BDC023C50C082C0837901801C
:10362300F274F01203888A0A8B0B7A047901120B65
:103633009A8A0C8B0DEA450D603EEAC333FAEB33ED
:10364300FB1217108A088B09AE08AF09EE4F6023EF
:103653007AFE7BFF120BE274FE6A700374FF6B60E9
:103663001B850882850983123DECE5082402123686
:103673009380E1750C0080047E007F00850A8285BB
:103683000B83E50CF0EEFAEFFB02486AE50824072A
:10369300F508E5093400F50922902A5C1248B5C300
:1036A300EA9CEB9D22E493FA740193FB22121644E5
:1036B300740322125E28E4F090819522E88E828FB3
:1036C30083A3A3A3A3A3A3A3A31236E17401123676
:1036D300E1A3F0EE2410125E2BE4F0A3F0221242D9
:1036E3006BA3A3A322C082C0837A007B008004194A
:1036F30012371212369C5010123731C3940550F012
:10370300E970EC12371B80047A007B00023C50EA1C
:1037130024010AEB3400FB22EA75F012A4FA75F0D7
:1037230012EBA428FB74262AFA74093BFB22EAFC59
:10373300EBFDEC75F012A4FCA8F075F012EDA428D3
:1037430012374722FD742A2CF58274093DF583E074
:103753002274F712038874F31209317E007F00028A
:1037630037F9E50875F017A4F8A9F0126767FAA30B
:10377300E0FBEEF8EFF9E875F012A4F8ACF075F0A1
:1037830012E9A42C1238546A7003A3E06B603FE57E
:103793000875F017A4F8AAF0EA126766F8A3E0F92F
:1037A3007401120B03E0687003A3E0696020E5086D
:1037B30075F017A4F8EAF974A228FC740A39FD74A9
:1037C30003120B03AA82AB83121F68E96014E50896
:1037D30075F017A4F8A9F074A028FA740A39FB123B
:1037E30010860508902A6EE493F8E508C398500301
:1037F30002376512383D902A5C126AAD5039EEF8F3
:10380300EFF9123846F47003A3E0F460E6851882FA
:103813008519837401F0EEF8EFF9E875F012A4F856
:1038230075F012E9A42AF9123865120B03123873E2
:1038330060C175080080AD023DD7EE24010EEF3460
:1038430000FF22E875F012A4F8AAF075F012E9A4BB
:103853002AF912385922742628F582740939F58316
:10386300E022742828F582740939124859740B220E
:10387300E8F0A3E9123F0A120B82E922C082C08357
:1038830090033D7446F0A3740EF090033F7440F030
:10389300A3740EF09003437460F0A3740CF0023C25
:1038A3005074F7120388EAFEEBFF900377E0640895
:1038B300601BE0640460168E828F83E0540364010E
:1038C3007048123C5D124360E06406703D8E828F47
:1038D30083A3A3E064FE7003A3E0F4602D8E828FC4
:1038E30083A3A3123E73900368E0687003A3E069A7
:1038F300700BEE2415F582EF1264ED6008120EF4DE
:10390300E9F5088008120EFA80F67508C2EEFAEFA0
:10391300FB121716022DA874F41203888A088B0968
:103923008A828B83E0F8A3E0FAE82AFAE43400FB06
:103933001217108A0A8B0BAE0AAF0BEE4F6063852A
:103943000882850983E0FC7D0079001216508E827F
:103953008F83A3A3126E22120F368E828F83A3A3AB
:10396300A3A3123DEC850882850983E0F8EE28F8CD
:10397300EF3400123E7B850882850983A3E0C0E013
:10398300EE240D125E1AD0E0F0120F48EE240E1250
:103993005E1AE91254CCE0C0E0EE2411125E1AD094
:1039A300E0F0EEFAEFFB02402974F412038874EBA3
:1039B3001209318A088B098C0A8D0BE9FE90037773
:1039C300E064046005E06408700479C2802EA37883
:1039D30008120AC4EE90037E123C57120AC47405FF
:1039E300120B03E9F07404120B037401F074071251
:1039F3000B03E4F09003777402123BEB741502405F
:103A03002674F612038874EB120931EAFEEBFF12F7
:103A130050EE6003023AA87A077B00121710900356
:103A230039123DEC1250EE60788E828F83120AE0D9
:103A330090033A124363120AEC126CE6C0E0123AA6
:103A4300B4D0E0F0EE2405FAEF3400FB8A088B09CA
:103A53008A82F583E0C0E0123AAFD0E0124020E062
:103A6300C0E0123AAFA3D0E0123E60120AE085181C
:103A730082851983120AEC88828983E0C0E0740589
:103A8300120B03D0E0F0850882850983E0C0E0745F
:103A930004120B03D0E0F07407120B03123BEA800D
:103AA300067910800279017415023E85123AB4A397
:103AB30022900339E0FAA3E0F5838A82A3A3A3A3A8
:103AC30022C082C0831250EE600D9003391259F860
:103AD300900339E4F0A3F0120E64121026023C5056
:103AE30074F012038874EB120931ECFEEDFF8908C0
:103AF3007425120B03780C120AA67429120B03E027
:103B0300F9742A120B03E0FC742B120B03E0FD740F
:103B13000F697005740F6C6012900EEBE064027015
:103B23000579C1023BE5E9C39C40F6900378780C24
:103B3300120AC4E50890037EF0E990037CF0ECA33D
:103B4300F0ED90037FF074FF6A700374FF6B701DD8
:103B5300900EF6E0F47003A3E0F47005121668808B
:103B63000C900EF6123DB4E8F0A3E98007900375BC
:103B7300EAF0A3EBF0EE4F6017EEFAEFFB1210E65C
:103B8300E96401700BEEFCEFFD7A897B03121F6E73
:103B9300900368E4F0A3F090036BF0A3F090038824
:103BA300F0900EEBE06402700890037C740FF0A3B6
:103BB300F09003777405F014120B03E4F09003788C
:103BC300120AE0851882851983120AEC90037EE0BD
:103BD300C0E07405120B03D0E0F07407120B03125C
:103BE3003BEA7415024867E4123F0A121F9E22C083
:103BF30082C083900338E070031219F2120C2A80FA
:103C03004CC082C083900338E0900E817004E4F0CE
:103C1300802D7401F0900338E0F460237C41E0C30D
:103C230094415002E0FCECF8E0C398F0EC75F0E846
:103C3300A4CCA8F075F003A428FD7A801248BD7ABD
:103C4300817B0E7941121F868003120BD0D083D063
:103C53008202084F123E6B780822EE125E2922E0A0
:103C6300F508A3E0F50922123C6E22122FE8A322E5
:103C730074F512038874E212093185188285198359
:103C8300ECF0A3EDF0EAFEEBFF89087429120B03B5
:103C9300E0F509742C120B03E0F50A900377E06456
:103CA300046005E06408700579C2023DA5742A1218
:103CB3000B03E064FE7003A3E0F4700579C3023DD7
:103CC300A59003777403123F067950121F86742A56
:103CD300120B03AA82AB83794B121F868518828548
:103CE3001983123DB4123E7FE50890036AF0742AEB
:103CF300120B03123DAD123E7FE509900362123DA4
:103D0300BB74CE55094480C0E07412120B03D0E09B
:103D1300F07401250A900388F0740F120B037402E8
:103D2300F0742A120B03123E737407120B03E8F0AC
:103D3300A3E9123DF27410120B03123E7F740512B5
:103D43000B03E508F0741B120B03E4F090037D747E
:103D53000FF07A7D7B037954121F8690037C740FD6
:103D6300F07A7C7B037947121F8690037CE0C3942F
:103D73000F50237405120B03E0C0E07402120B030F
:103D8300D0E0F07404120B037401F004120B03AAC5
:103D930082AB83121FAA7405120B03AA82AB831290
:103DA3001F8C741E1208B7022C6F12485B90036BB2
:103DB3002212485B90037522F0EEFCEFFD7A897BBB
:103DC30003121F6E2274F7120388EB90037FF01225
:103DD3000E528005740D1208B77F010205A1123D32
:103DE300E7A3E022123E60A322EAF0A3EBF0221243
:103DF3003E66F8A3E0F92274F712038874F81209F7
:103E030031EAFEEBFF7900900377E06408704485A4
:103E1300188285198374FDF0A374FFF0120F3074B8
:103E230002120B03123DEC7405120B03E4123DE77F
:103E3300E0C0E07404120B03D0E0123E5BC0E074F8
:103E430006120B03D0E0F07407120B03E4123F06D3
:103E5300120F727408023DD9123E60E022F08E8286
:103E63008F8322123E6BE022F0851882851983220C
:103E730012485B22E0F8A3E0F9125E28E8F0A3E918
:103E8300F0221208B77F020205A1C082C08390030B
:103E93004974F0F0A3740CF09003EF74CCF0A374A6
:103EA3000FF090034D7426F0A3740DF090034F743C
:103EB300F0F0A3740CF0900351742CF0A3740DF084
:103EC300023C5074F412038874F91209318A088B86
:103ED300098C0A8D0B8518828519837808120AC408
:103EE3007404120B03E9F07405120B03E4F0740677
:103EF300120B03E4123F06120C127407024026E869
:103F0300F0A3E9123F0A22123E6BAA82AB8322740A
:103F1300F41203888A088B098A828B83125E36EE39
:103F23004F700302401E9003121250F160158A82F3
:103F33008B83A3A3E0F9EEFAEFFB90031312436321
:103F43001221658E828F83A3A3A3A3A3A3A3A3A3F9
:103F5300E0640270748E828F83A3A3A3A3A3A3E060
:103F630054027003023FF0850882850983A3A3E00E
:103F730064E960798E828F83A3A3A3A3A3A3A3A3DE
:103F8300A3A3E07014900EEEE0048E828F83A3A3AC
:103F9300A3A3A3A3A3A3A3A3F08E828F83A3A3A30B
:103FA300A3A3A3A3A3A3A3E014124020A3A3A374D6
:103FB30004F0900EEF125871E8F0A3E912694A8BEE
:103FC3000BEA450B70031263288E828F83A3A3A38E
:103FD300A3A3A3A3A3A3E0640260128E828F83A38F
:103FE300A3A3A3A3A3A3A3A3E06406702E8E828F2F
:103FF30083A3A3A3A3A3A3E0A2E0501F8508828504
:104003000983A3A3E0F9EEFAEFFB1220468E828F19
:1040130083A3A3A3A3A3A3E054FEF08009124267E2
:1040230022740D1208B77F040205A174EC120388F1
:1040330074DD120931EAFEEBFF8C088D0974371227
:104043000B03780C120AA6750A007405120B03AC55
:1040530082AD831220887412120B03E0700874156A
:10406300120B03E060207405120B03E0A2E6501E5E
:104073008E828F83A3A3A3A3A3A3A3A3A312556B8E
:10408300120FA8E960087903121F5602424D740506
:10409300120B03E0540C64047005750B0180037567
:1040A3000B00E0A2E55035750A01E50BA2E0402CB8
:1040B300120F368A108B11A810A911123C5DE0680B
:1040C3007003A3E06960157405120B03126E2912C5
:1040D3005567122052E96004790480AC7405120B11
:1040E30003E0A2E650227406120B03E05403701897
:1040F3007405120B03E0540C640C600CE0540C6464
:1041030008600575100180037510007405120B0318
:10411300E05403F8740268700C126E29125567128A
:104123000B1C02424D740168703AE510A2E0500383
:104133001242557405120B03A882A9837403120B50
:1041430003E8F0A3E912484F8518828519831242C8
:104153005FE0C0E07402120B03D0E0123F061221AD
:104163003602424DE8600302424D90035FE0640172
:1041730070108E828F83A3A3A3A3A3A3E070030273
:1041830040DB7422120B03740212484F741A120B91
:1041930003123E7FE510A2E050087405120B0312D0
:1041A3004255E50BA2E0506AEE240FF582EF12644C
:1041B300EDC0E07417120B03D0E0F090031412501B
:1041C300F1700302424D120F368A128B13A812A903
:1041D30013741A120B03E0687003A3E069706B7821
:1041E3000C120867780A120873780812086FA9106E
:1041F300740C120B03AC82AD837421120B03AA82DD
:10420300AB8390031412436012216574071208B73D
:104213008038780C120867780A1208737808120835
:104223006F9003751206A6EE2412F582EF12621B3D
:104233007423120B03AC82AD83740E120B03AA8298
:10424300AB8312203A74091208B774231208B70219
:104253006915126E29125A061215E422E8F0A3E931
:104263001242672212426B22F08E828F83A3A3A392
:10427300A3A3A32274F71203881218C6023DDC74A9
:10428300F71203881218CC023DDC74F7120388126C
:1042930018D8023DDCC082C0831218D2023C50748D
:1042A300F71203881218DE023DDC74F712038874D8
:1042B30009120B03E0F50878081208731218EA7460
:1042C30001023DD9C082C0831218F6023C50C0825D
:1042D300C0831218FC023C5074F7120388121902AF
:1042E300023DDC74F7120388EAFEEBFF89087401D0
:1042F300650870147900120D68902A79E493FC79AB
:1043030000EEFAEFFB120CDE023DDC74F4120388BC
:1043130074F9120931E9FE8A088B098C0A8D0B7432
:1043230013120B0312556B90059A1250F16027EE8E
:10433300851882851983F07401120B037808120A19
:10434300C4EAF8EBF97405120B03123F0290059AC5
:10435300124360122165023EFDFB90034BE0F8A37C
:10436300E0F583888222C082C083121938023C5050
:1043730074F7120388900E84E0F97E00800B1264B8
:10438300D9540D64017001190E12456D5003E97083
:10439300ED023DDC74F7120388900E85E0F97E0090
:1043A300800B1264D9548D64817001190E12456D0E
:1043B3005003E970ED023DDC74F2120388890BE9C6
:1043C30075F006A4240CF508E5F01236978A0CE57F
:1043D30008250CFAE5093400FB1217108A0C8B0D23
:1043E300AE0CAF0DEE4F6027AC08AD097900121685
:1043F30050123C5DE50BF0EE2508F8EF3509F98E18
:10440300828F83A3A3A3A3A3A3A3A3A3123E7FEE9D
:10441300FAEFFB02536674F6120388EAFEEBFF120F
:104423000CBA900E83E0F8E9C39840099003451253
:10443300556B120CC0EE2402F8EF125B7B9003471E
:10444300125A35900347E004F0EEFAEFFB120CC664
:10445300850882850983E0026031C082C0837900C8
:1044630090034580010912556B8A828B83E582454F
:104473008370F2023C5074F7120388EAFEEBFFEEFE
:104483004F60569003451250F1604E888289837ABB
:10449300007B00EE65827003EF6583600FAA82AB39
:1044A300831244DFE5824583602F80E79003451242
:1044B30044EB687002EF698E828F837008123E733B
:1044C3009003458003126927123E7FEEFAEFFB1239
:1044D3002106EEFAEFFB121716023DDC1244E3222B
:1044E30012485F888289832212485BEE22C082C011
:1044F300839003458004888289831250F1600B887E
:10450300828983124BA3EC4D70EC8A828B83E4F097
:10451300A3F0E849600688828983800390034512EB
:104523003DEC023C5074F712038890034580048AE3
:10453300828B831245684B60257E0080010E1245F5
:104543006D50ECEE75F006A4FCADF0EA2CFCEB3DEF
:10455300FDEC2410F582ED1245BD70E180047A0074
:104563007B00023DDC125A0AEA221245C6EEC398CA
:104573002274F71203887D0080010D1245C2EDC33A
:10458300985034ED75F006A4FEA8F0E8FFEA2EFE7D
:10459300EB3FFFEE2410F582EF1245BD70DCED75A5
:1045A300F006A4FEE8FFEA2EFAEB3FFBEA2411F53E
:1045B30082EB1264ED4CF0023DDC1264F9692212C5
:1045C30045C622126E33EB3400F583E0F82274F60D
:1045D300120388120DE07A007B008025EAF8EBF9DC
:1045E300E875F006A4F8ACF075F006E9A42C1259AE
:1045F300DF126CF4A3E4125AD5F0A3126CFA126E14
:1046030071902A6412331640D37A007B00801C8A8F
:10461300088B0974037808120A32125493A374FEA8
:10462300F0A3041258B5A3E4126E71902A6D1246DA
:104633007040DC7A007B00801D8A088B0974037844
:1046430008120A3274C8126165740D1269AC74FEE3
:10465300F0A304126E71902A7312467040DB902A05
:1046630077E493900353F012467A023E88E493F87A
:10467300C3EA98EB9400227CE87D037A107B0090D8
:1046830003C2E0F91217D62274F012038874F512EC
:1046930009318A088B09890A8C0BE9A2E050147549
:1046A30008FC7509FFA2E15005D2E402474DD2E3AD
:1046B30002474D1253527003A3E06970057900025B
:1046C300481AAC0A7902AA08AB09120DBCE960EDDD
:1046D300E50AF50C780C12087379027CFE7DFFAABB
:1046E30008AB091250CD1208B7E96003024818E578
:1046F3000AC2E5F50A9003B5E07051E50AA2E64067
:104703004B7403120B03AC82AD83AA08AB09120BE3
:104713005EE970321249EE8A0C8B0DA80CA90DE8E4
:10472300FEE9FFE8496025EE24020A0AEF1230266B
:10473300601AEE2402FCEF3400FD7403120B03AA8B
:1047430082AB83121F6EE50AD2E5F50A900348E0B7
:10475300F50C900368E0F50EA3E0F50F780E120850
:104763006F7D017C00900348E0F9AA0EAB0F120D98
:104773007474021208B7E9F8900348E004F0E860A3
:1047830003024818E50AA2E55004740E8002740679
:10479300C0E07401120B03D0E0125E478A0E8B0F48
:1047A300AE0EAF0FEE4F606912483812484F888241
:1047B30089837401F07478550AA3126E39E50C12DB
:1047C3006E39A3E508F0E509124827E4F0E50AA2EB
:1047D300E5500F7403120B03AC82AD83E824061279
:1047E300481E8E828F83A3A374FDF0A374FFF0E5AC
:1047F3000B6015902A7AE493F8E50BC3985009EE01
:104803002413125E1AE50BF0EEFAEFFB120C008094
:10481300067910800279C7740B8049FAE93400FBEA
:10482300121F6E2288828983A3A3A3A31248332273
:10483300125BAEA322EE2417125E2B7401F0120F4B
:1048430030EE241A125E2BEAF0A3EB22F0126E2D47
:10485300340012485922F58312485F22E0F8A3E09E
:10486300F922740D1208B77F080205A174F612032A
:10487300887A007B1012633560089003D47401F0CA
:10488300802990063BE06401900EEC7006E0FC7911
:10489300018004E0FC79037A007B00120CDE902A8D
:1048A300621248B17A007B101248BF023E88124858
:1048B300B522E493FC740193FD227B009003C2E0D4
:1048C300F91217D02274EC1203888A088B098C0C16
:1048D3008D0D890E7414120B031252AC7416120B45
:1048E30003E0F510A3E0F511120FA8E960077AFFC2
:1048F3007BFF0249EB900EEBE0640260030249DEAA
:104903007900AA08AB09120DC2A90E120DB68A12BC
:104913008B13AE12AF13EE4F70030249C68E828F14
:1049230083A3A3A3A3A3E064018E828F83A3A370B5
:104933006912556B8E828F83A3A3A3A3A3A3E05411
:10494300186043902A78E4938E828F83A3A3A3A352
:10495300F0EA650C7003EB650D6014EA650A7003F9
:10496300EB650B600AEA65107003EB6511701F7845
:104973001012086FAC0AAD0BAA0CAB0D1210A47485
:10498300021208B7800890036712631FA3F074FE36
:104993006A700374FF6B601D804EA3A3A3E06403DE
:1049A30060298E828F83A3A3A3A3A3E0640470056D
:1049B3007AFE0248F38E828F83A3A3A3A3A3E064AA
:1049C3000270089003B4E0640270101249EE8B0B7E
:1049D300EA450B6006AA08AB09800DAA08AB09904B
:1049E3000349124360122165026915900375125041
:1049F300D31210682274F7120388EAFEEBFF120B3E
:104A0300B2E9700AEEFAEFFB120BBEE96006EEFAAA
:104A1300EFFB80047AFE7BFF023DDC74F012038817
:104A23008A0A8B0B8C0E8D0F8909750800120FA84B
:104A3300E979006003024B95AA0AAB0B120DC2A9D8
:104A430009120DB68A0C8B0DAE0CAF0DEE4F60192B
:104A53008E828F83A3A3A3A3A3E064027055900364
:104A6300B4E064027003024B93AA0AAB0B90034FAA
:104A7300124360122165120BC48A0C8B0DA80CA97A
:104A83000DE8497003024B9388828983A3A3A3A3F0
:104A9300A3E0A2E04003024B93750C01A2E150682E
:104AA3007901AC0AAD0BAA0EAB0F120D0EE97064BF
:104AB300024B938E828F83A3A3A3A3A3E06403700B
:104AC30005750C0280528E828F83A3A3A3A3A3E058
:104AD30064016003024B93900375124BA38E828F84
:104AE30083124EF88A0C8B0DA80CA90DE84960D1EE
:104AF300902A71E493FA88828983E0C39A50C2A30F
:104B0300E06003024B9380B988828983A3A3A3A3A4
:104B1300A3D2E1F0EE4F603A8E828F83A3A3A3A3C7
:104B2300A3A3E05418602B7508018E828F83A3A37F
:104B33001206A6750CFE750DFF780C12086F79002E
:104B4300AC0AAD0BAA0EAB0F120DD474041208B746
:104B5300803E900368E0650E7004A3E0650F701457
:104B6300902A79E493FCA909AA0AAB0B120CDE750F
:104B73000801801CA90CAC0AAD0BAA0EAB0F120DD9
:104B83000EE9700C750801A909AA0AAB0B120D688E
:104B9300A90802486AE50C2415F582E50D125E2E7C
:104BA30012588B2274EA12038874F01209318A0CAA
:104BB3008B0D8C088D097426120B03E0F514A3E00A
:104BC300F5157512069003F51250F16023900375E5
:104BD300124BA3AA08AB091210928A108B11EA4553
:104BE30011600D8A828B83A3E070057900024EE089
:104BF300E50C241DF50EE50D3400F50F850E82122C
:104C030050DDF51388828983A3A3A3E0FA88828900
:104C130083A3A3A3A3E0F9EA2400FEE439FFAA08CF
:104C2300AB09120D6E850E82850F83124F1BE0298F
:104C3300F50BE50AA2E5500375120E7487550A7049
:104C4300177418550A6418600FE50C2417F582E5EC
:104C53000D1264ED651260077901121F56808C53A3
:104C63000A78C3EE94F8EF94FF501D7900EEFAEF43
:104C7300FB124EEA601288828983A3A3A3A3A3A392
:104C8300E054186003024BEE780812086F7D00129F
:104C93004F0E1208B7E9F87403687003024BEEE88D
:104CA3006003024D597418550A7003024E0EE50A4B
:104CB300D2E0F50AA2E45004D2E1F50AA90A12559A
:104CC30064124EEA605388828983A3A3A3A3A3A398
:104CD300E05418604488828983A3A3A3A3A3E06458
:104CE300017036E51045116030900375124BA388AF
:104CF300828983124EF88A0E8B0FA80EA90FE849FA
:104D0300601788828983A3E0600F851082851183F1
:104D1300A312603C5003024BEEE50AF50E780E1227
:104D23000873124F011208B7E9702B7C007D0085D0
:104D3300148285158374FFF0A3F0850C82850D839F
:104D4300A3A3A3A3A3A3A3A3E06003124B98A90B5C
:104D53001255641218F0851482851583E0F47003EC
:104D6300A3E0F460399003B4E064027003024BEEF5
:104D730012529DE0FAA3E012435C122165EA650832
:104D83007003EB65096003024BEEEEFAEF12435C2E
:104D9300122165851482851583EAF0A3EBF0780868
:104DA30012086F7D01124F0E1208B7A90AEEFAEF2F
:104DB300FB120DC28A088B09A808A909900368E0B1
:104DC300687003A3E0696003024ED1EEFAEFFB12B1
:104DD3000BC48A088B09A808A909E849606E888270
:104DE3008983A3A3A3A3E06401600D88828983A3BD
:104DF300A3A3A3E064027054851882851983AC824F
:104E0300AD83EEFAEFFB120B5E8055900361E06019
:104E13000FE50AF50E780E120873124F011208B748
:104E2300E50AF50E780E12087379027CFE7DFFEE1B
:104E3300FAEFFB1250CD1208B7E96003024D598512
:104E4300148285158374FFF0A3024DA0120F30EA7C
:104E5300FCEBFD851882851983AA82AB83121F6E32
:104E6300850C82850D83A3A3A3A3A3A3A3A3E064BB
:104E730001700F124B987408120B03AA82AB8312B2
:104E83001F6E1250A7125CB34430F508780812085D
:104E9300737401120B03858208858309780812084D
:104EA3006F740B120B038582088583097808120837
:104EB3006FE513F50878081208737900EEFCEFFD2F
:104EC300125564120D0874061208B7024BEE125005
:104ED300A7125E1D124F1BE50BF0120F4874101240
:104EE30008B77F0E0205A1120DB68A0E8B0FA80E0E
:104EF300A90FE84922A3A3125A0A12109222790198
:104F0300AC08AD091259FF1250CD22AC0BA91312F4
:104F130059FF120D74740222125CBBA3A3A3A32234
:104F230074F012038874F01209318A0C8B0DECFAB9
:104F3300EDFB750F089003F51250F1601412603504
:104F43008A828B83E58245836007A3E07003025066
:104F5300A21250A734001250DDF50B888289831208
:104F630050B0E0FBEC2400FEE43BFF88828983A37E
:104F7300A31250B0A3A3E0FBECF508E43BF50988CA
:104F8300828983A3A3A3A3A3A3A3E0F50EE50AA2A7
:104F9300E45003750F10A2E550067408250FF50FB2
:104FA300748F550A700FE50C2417F582E50D126412
:104FB300ED650F60087901121F560250A2530A7063
:104FC3007800E50AA2E450221250A71264ED2408E7
:104FD300FCA3E03400FD7408120B03AA82AB831216
:104FE3001F6E7808E50AC2E4F50AE50AA2E550282F
:104FF3001250A71264ED28F8A3E03400F9E824085E
:10500300FCE93400FD851882851983AA82AB8312DB
:105013001F6EE50AC2E5F50AAC0EA90BEEFAEFFB2B
:10502300120D7AE9F87403686075900368E06E7096
:1050330003A3E06F605EE87054E50AF50F780F1282
:1050430008731250BE1208B7E97054780A12087335
:105053007401120B0385820C85830D780C12086F83
:10506300740B120B0385820C85830D780C12086F69
:10507300E50BF50A780A120873A90EAC08AD09EE20
:10508300FAEFFB120D0874061208B7801274046855
:10509300700D80B7780A1208731250BE1208B774E5
:1050A30010024867E50C241DF582E50D22A3A3A396
:1050B300E0FC88828983A3A3A3A32279011252A4CB
:1050C300125E2E1250D31250CD22120D32740122D1
:1050D300E0FCA3E0FDAA08AB0922F5831244E3A395
:1050E300E0F50A88828983A3A3E022900339125A48
:1050F300662274E812038874F5120931EAFEEBFFA5
:105103008C088D0989147423120B03E0F50F7424A2
:10511300120B03E0F512A3E0F5137426120B03E060
:10512300F516A3E0F5177428120B03E0F50EA90F8B
:10513300120D808A108B117401120B037408F0E5B1
:105143000EA2E450037410F0E50EA2E55004E0242F
:1051530008F0851882851983AA82AB83120F908A7F
:105163000C8B0DEA450D7003025284EA2417F58275
:10517300EB125296120F30E50C241AF582E50D124C
:105183005E1D123DEC7403120B03AC82AD83AA10B7
:10519300AB11120B5EE9601D12528E7403120B03E6
:1051A300A882A983E50C2418F582E50D125E1DE89B
:1051B300F0A3E98024E50EA2E4501FE5106E70030E
:1051C300E5116F701512528EE50C2418F582E50D6A
:1051D300125E1DE512F0A3E513F012529D1252ACBC
:1051E300850A82F5837402F0A3E50E1252B4E50F2B
:1051F300F0EE850A82850B83A3A3A3F0EF850A82D1
:10520300850B83A3A3A3A31252B4A3A3A3E508F01E
:10521300E509850A82850B83A3A3A3A3A3A3F0AA0D
:1052230010AB11120D6EE92514850A82850B83A339
:10523300A3A3A3A3A3A3F0750800E50EA2E4501152
:10524300AC12AD13E50A2408FAE50B1248207508E1
:1052530008E50EA2E55014AC16AD17E50A2508F8CB
:10526300E50B3400F9E8240812481E850C82850DED
:1052730083A3A3E510F0A3E511F0AA0CAB0D120C68
:1052830000740B1208B77F100205A1E50C2416F574
:1052930082E50D125E2E7401F0221252A4125E2ECC
:1052A30022E50C126E34E50D22E0F50AA3E0F50BBE
:1052B30022F0850A82850B83A3A32274F21203884A
:1052C3008A088B09ECFEEDFF890A790012535270AC
:1052D30003A3E069700479018073750B019003687F
:1052E300E065087004A3E06509601F750B00780B87
:1052F300120873A90AEEFCEFFDAA08AB09120FE42A
:1053030074011208B7E9F50B80417900EEFAEFFB5F
:10531300120DB6EA4B602B8A828B83A3A3A3A3A3AC
:10532300A3E05418601C7508FE7509FF780812087D
:105333006F8A828B83A3A31206A6126C491208B745
:1053430080097901EEFAEFFB120C90A90B8014127D
:105353000DC28A0C8B0DA80CA90D900368E068227E
:105363001208B77F060205A174F4120388750810AA
:1053730075090C7A101269518B0BEA450B700312F5
:10538300467A900353E014F0700C902A77E49390DC
:105393000353F0120DCE7E007F00806C850882855A
:1053A3000983A3A3A3A3E06059F46056E50824048A
:1053B300F582E5091263197049850882850983A37B
:1053C300A3A3A3A3E0640370197902850882850966
:1053D30083124BA3850882850983A3A312556B12FD
:1053E3000D0E850882850983A3A3A3A3A3E064010B
:1053F300601085088285098374FEF0A3041254C5E6
:10540300E4F012383D12368F902A66126AAD408C52
:105413007E007F008039120ED68E088F09740378C0
:1054230008120A3274882508FC740D3509FD7A1AAE
:105433007B0D120EC4EA4B70DD8E088F097403785E
:1054430008120A32125493126CF4E4F012383D90AD
:105453002A6DE493F8C3EE98EF9400501B8E088FE7
:105463000974037808120A3212549BE82407F58260
:10547300E912631970D680A17E007F00800A12545E
:10548300A6600214F012383D126AAA40F1024029C4
:1054930012549B888289832274882508F8740D35F9
:1054A30009F922EEF8EFF9E875F006A4F8AAF07509
:1054B300F006E9A42AF9742828F582740D39F583D6
:1054C300E0221254CCA3A3A322F08508828509838A
:1054D300A3A32274F712038874E1120931ECFEEDE1
:1054E300FF750800EE4F60728A828B83E0241C12E2
:1054F300634A1250F160638A828B8312556B85185D
:1055030082851983AC82AD83EA241BF582EB126298
:105513001BEA241CF582EB125567120F18740B1249
:105523000B0312556F7003A3E069702E7402120B04
:1055330003E064017024741D120B03124360E064E2
:10554300017017741D120B03124362A3A3E0F88EBC
:10555300828F83E0687003750801A908741F023DF8
:10556300D91252A43400F583125A0A22122FE4E00E
:10557300682274F4120388E97024790090034D12B1
:1055830043601221658A0A8B0BAE0AAF0B74FE6E61
:10559300700374FF6F701A902A74E4936013790197
:1055A30090034D1243601221658A0A8B0BAE0AAF3A
:1055B3000B120F540239A574F612038874F31209FF
:1055C300311216688A088B09AE08AF09900368E0A8
:1055D3006E7003A3E06F60E9120F3CEA6E7002EB9A
:1055E3006F60DEEEFAEFFB120FA8E970D4EE4F60A6
:1055F300D0851882851983E4F004120B03EEF0A31F
:10560300EF12561DE970BA74FE6E700374FF6F607B
:10561300B0EEFAEFFB740D023E85123F0A120B76D1
:1056230022C082C083120F54023C507F0A0205A19C
:1056330074F2120388EAFEEBFF8C0A8D0B8908745F
:105643000E120B03E0F50974FC6E700374FF6F70A8
:105653000579000253667900120DC28A0C8B0DAED8
:105663000CAF0D900368E06E7003A3E06F7006E566
:1056730009A2E650DCA909126B37706179007AFE42
:105683007BFF126B37705674185509700302576A03
:105693007800790080031231DE902A661231D540FA
:1056A3000302576AE8FAE9FBEA75F007A4FAACF0DB
:1056B30075F007EBA42CFB74162AF582740C3BF5EA
:1056C30083E0541870D0E875F007A4F8AAF075F0D9
:1056D30007E9A42AF9741028F8740C39F988828927
:1056E30083A3A3A3A3A3A3E05418600974185509C3
:1056F300700302565488828983EEF0A3EFF074FEA0
:10570300650A700474FF650B6003125891888289DF
:1057130083A3A3A3A3A3A3E509F0A2E0500D88826A
:105723008983A3A3A3A3A3A3D2E2F074016508888A
:10573300828983A3A3A3A3A3703874011258B5E08D
:1057430054186028902A78E49388828983A3A3A3BA
:10575300A312587F1210928B0DEA450D6003025677
:10576300547800790080397902025656900367E035
:1057730080D7E06401700302565488828983A3A30F
:10578300A3A3A3A3E054186007902A78E4938004AA
:10579300900366E0124827E508F00256541231DE02
:1057A300902A6EE493FAC3E89AE994004003025600
:1057B300547A007B00804BEAFCEBFDEC75F007A408
:1057C300FCAEF075F007EDA42EFD74122CF5827477
:1057D3000C3DF583125E36E8FCE9FDEC75F017A489
:1057E300FC85F00975F017EDA42509FD74A02CF5CF
:1057F30082740A3DF583E06E7003A3E06F609E122E
:105803003712902A6612369F40AD1248B1EC6A7087
:1058130002ED6B7088E875F017A4F8AAF075F0171D
:10582300E9A42AF974A028FE740A39FF7C177D00C5
:105833007900EEFAEFFB1216508E828F831258977F
:10584300900375125871A3A3A3A3A3A3E8F0A3E93C
:105853001258777401F0EE240E125E1A7401125876
:105863009F120237EE240D125E1AE802579C123C77
:105873006EA3A322F0EE240F125E2B22F01258889F
:10588300AA0AAB0B22900375E0FCA3E0FD228882F9
:105893008983A3A3E50AF0A3E50BF022F01258A431
:1058A30022902A71E4932401F8E43400F97A027B0C
:1058B3000022124833A32274ED1203888A088B094D
:1058C300890E1259E8400579050259B612193EAA04
:1058D30008AB09125ABA902A641259B9650A7003BF
:1058E300E9650B70077AFE7BFF125ABA902A64E4CB
:1058F3001259C1E50A98E50B9940030259B41259AC
:10590300C56012E50A75F006A4F875F006E50B12FA
:105913005A10121716E50E6018E50A75F006A4F87A
:10592300AAF075F006E50B125A3C701A7901025978
:10593300B6E50A75F006A4F8AAF075F006E50B12B1
:105943005A1DE4F0A3F0E50A75F006A4F8AAF07571
:10595300F006E50B1259DDA3125CC988828983A383
:10596300AA82AB83125A2B8A828B83E0603F12593F
:10597300C5603A8E108F11751200781012086BE50E
:105983000EC333FCE433FDE50A75F006A4F50AA85B
:10599300F075F006E50BA428F50B742C250AF582A7
:1059A300740D350B1255691236B01208B7790080A1
:1059B300027907026B4D123337E822902A5C126496
:1059C300D422E50A75F006A4F8AAF075F006E50BF3
:1059D300125A18F8A3E0F9E84922A42A125B718845
:1059E300828983A322ECFEEDFF902A6FE493F8E90A
:1059F300C39822F583125A0A12171622E50C126E67
:105A030034E50D3400F583E0FAA3E0FB22125A18C3
:105A1300FAA3E0FB22125A1DE022A42AF9742C28CF
:105A2300F582740D39F58322E50EF0900EED125ACE
:105A33003522E088828983F022125B95F50CE934E4
:105A430000F50DE50EC333FAE433FB121710850C92
:105A530082850D83EAF0A3EBF0850C82850D83121A
:105A63005A662212485FE8492274F4120388ECFE56
:105A7300EDFF740C120B03123E7388088909125A46
:105A8300BAAC0AAD0BECF8EDF9902A64125AC25085
:105A930021E875F006A4F8AAF075F006E91259DDBD
:105AA300E08E828F83125AD5125ACB123E7F790031
:105AB30080027904024029120D448A0A8B0B2212B8
:105AC30036A8C3EC9AED9B2212485B8508828509B0
:105AD3008322125BAA2274F61203887E007F008061
:105AE30028EEF8EFF9E875F006A4F8ACF075F006C7
:105AF300E9A42CF9742A28F582740D1267586A7088
:105B030003A3E06B605712383D126AAA40D3126AAE
:105B1300A57002E96F704674FE6A700374FF6B70C0
:105B23003C7E007F00800312383D126AAA502E1279
