:020000040000FA
:06000000020AFE0201CC21
:03002B000209388F
:03003300020702BF
:030043000207CCE5
:0300530002010C9B
:03005B0002028816
:03006B000206E8A2
:10008300020160011F00E007965118000202000000
:10009300260F000000000000E00F00000000000039
:1000A3000000000006FFFF414C4432353330204C42
:1000B3004544000100010200E70C0000005A0D64F2
:1000C30000020200080000050207051E02050202E5
:1000D3000A0A03B80B02803E0102FFFF140101FF6D
:1000E30001010503010F10FEFFD01FD01FD01FD049
:1000F3001F861E801ED01FA1270000000029290093
:100103000000000C0000000C00C0E074F212047246
:10011300A2AFE433F508D2AFAFA7AEA1EE5F5410A0
:100123006006120CB075A1EFEE5F54086008120C64
:10013300B675A1F78023EEA2E092F0EFA2E082F081
:100143005017906198E0F8900583E0C398A2D265B8
:10015300D0335002E8F075A1FEE5088063C0E07477
:10016300F2120472A2AFE433FED2AF9061A4E0F8BE
:10017300759B00E59158540860087591F7120CFEC1
:100183008023E59158541060087591EF120D048097
:1001930014E591A2E092F0E8A2E082F05007E0C2F9
:1001A300E0F0120E489061A3E0F8E5E958540460CA
:1001B3000E120E1E75E9FB906193E0A2E640F2EE8B
:1001C300A2E092AF7F010204D1C0E074F212047284
:1001D300A2AFE433FED2AF9061A5E0F8E5BF585477
:1001E30004600675BFFB120E6080D4C3E498F8E484
:1001F30099F912022F8026C3E49AFAE49BFBE920C3
:10020300E7E912022FE498F8E499F922C3E498F895
:10021300E499F912022FE498F8E499F9C3E49AFAFD
:10022300E49BFB22EB20E7CFE920E7E0B90010BB1A
:100233000008E88AF084F8AAF022E4FBC8FA22EB6B
:1002430070227B10C833C8C933C9335007C39AC35C
:10025300DBF280069A50012ADBEAC833F4C8C933BB
:10026300F4C9FA2275F008E4C833C8C933C933C9DD
:100273009AC99B5004C92AC93BD5F0ECFBC833F497
:10028300C8E4C9FA22C0E074F212047275C0009087
:100293000CBF12030A900CBFEAF0A3EBF0C3E8947F
:1002A30097E99400A2D265D0334007900CBFE4F0E5
:1002B300A3F0900CBD12030A900CBDEAF0A3EBF07F
:1002C300C3E89403E99400A2D265D0334034900C80
:1002D300BDE4F0A3F0900CB9E064017002A3E070F8
:1002E30021900CBBE0F8A3E0F9E849900CBB700B3C
:1002F3007401F0A3E4F01212928007E4F0A3F01269
:10030300128C7F010204D1E0F8A3E0F9E82401FA9A
:10031300E439FB22080808EAC0E0EBC0E086F0E716
:10032300A4FA180986F0E7A42AFA180986F0E7A4C4
:100333002AFA180986F0E7A42AFA1986F0E7A4FB3B
:10034300E5F02AFA190886F0E7A42BFBE5F03AFA60
:10035300190886F0E7A42BFBE5F03AFA181809868A
:10036300F0E7A4C5F02BFBE43AFA1908E7C5F0C699
:10037300A426F6E5F03BFBE43AFA1886F0E7A4F688
:10038300E5F00826F6E43B08F6E43A08F6D0E0FB8D
:10039300D0E0FA22E4CFC0E0E4CEC0E0E4CDC0E098
:1003A300E4CCC0E075F020E626F608E633F608E66E
:1003B30033F608E633F6181818EC33FCED33FDEE8C
:1003C30033FEEF33FFC3EC9709ED9709EE9709EF7F
:1003D30097191919400FFFEC97FC09ED97FD09EEEA
:1003E30097FE191906D5F0BFECF709EDF709EEF7FB
:1003F30009EFF7191919D0E0FCD0E0FDD0E0FED0E9
:10040300E0FF222518C582C0E0E51934FFC583C08B
:10041300E0E518C3958224F810AF08858319858217
:10042300188008858319858218D2AFCEF0A3E52002
:10043300F0A37808E608F0A3DEFAEFF0A3E5812441
:10044300FAF8E608F0A3E608F0A3E608F0A3080824
:10045300E608F0A3E608F0A315811581D0E0FED0ED
:10046300E0F8158115811581E8C0E0EEC0E022C0F7
:10047300D02518C582C0E0E51934FFC583C0E0E587
:1004830018C3958224F310AF0885831985821880D9
:1004930008858319858218D2AFC8F0A3E9F0A3EACF
:1004A300F0A3EBF0A37908E709F0A3D8FAECF0A3E3
:1004B300EDF0A3EEF0A3EFF0A3D0E0F0A3D0E0F0D3
:1004C300A3D0E0F0A3E520F0A3E5F0F0A322851983
:1004D30083851882E0C0E0A3E0F9A3E0FAA3E0FB80
:1004E300A37808E0F608A3DFFAE0FCA3E0FDA3E0AD
:1004F300FEA3E0FFA3E0C0E0A3E0C0E0A3E0F5D0EB
:10050300A3E0F520A3E0A3F5F010AF0885831985D8
:1005130082188008858319858218D2AFD082D08350
:10052300D0E0F8D0E032120B78B90003020568E49A
:100533009003017873790D8002F0A3D8FCD9FA7A7D
:10054300737B0F900086788779018015E493A3ADC0
:1005530082AE838A828B83F0A3AA82AB838D828E41
:1005630083D8E9D9E775821B75839274041208AFA7
:1005730075820475832274001208AFE47375F0105A
:100583008E1A8F1B85821F85831E8518828519838A
:10059300E0CEA3E0CF851F82851E83EBC9EAC8EDB9
:1005A300CBECCAC3E833C8E933C9EA33CAEB33CB6C
:1005B300C3EA9EF51DEB9FF51CB35004AB1CAA1DAB
:1005C300EC33CCED33CDD5F0DAAE1AAF1B22D083AA
:1005D300D082ECC0E0EDC0E0E493A3FCE493A3FD80
:1005E300ED4C600D1206A9EC24FFFCED34FFFD80F9
:1005F300EFE493A3FCE493A3FDED4C600D120777A6
:10060300EC24FFFCED34FFFD80EFD0E0FDD0E0FCF7
:10061300E493A3C0E0E493C0E022851983851882A4
:10062300E0A3FEE0A3F5207808E0A3F608DFFAE0F4
:10063300A3FFE0A3C0E0E0A3C0E0E0A3C0E0E0A329
:10064300C0E0E0A3C0E010AF08858218858319805D
:1006530008858218858319D2AFD083D0820208B56A
:10066300D083D082E9C0E0E493A3C386F0C5F095BC
:10067300F0F908E493A386F0C5F095F0700BE493CA
:10068300A3C3994005E9048002A3E475F002A425FD
:1006930082F582E5F03583F583D0E0F9E493A3C0D6
:1006A300E0E493C0E022C0E0C3E4939608740193AE
:1006B3009618400FE49366700808740193661870E7
:1006C300007019A3A3C3E49396087401939618A327
:1006D300A3400DD0E0D0E0D0E002060DA3A3A3A376
:1006E300A3A3D0E022C0E074F2120472E589A2E170
:1006F300500312213E758900C2C57F010204D1C097
:10070300E074F2120472E58BA2E0500312213E75ED
:100713008B00C2E880E47404800474028000CCC0BF
:10072300E0EDC0E0E518C39CCCAD1950011D10AF3E
:10073300068C188D1980068C188D19D2AF120811EA
:10074300D0E0FDD0E0FC2274028000CCC0E0EDC01C
:10075300E0E518C39CCCAD1950011D10AF068C18F1
:100763008D1980068C188D19D2AF1207EFD0E0FDDA
:10077300D0E0FC22C0E0C0F088F0E4936670080883
:1007830074019366187000A8F0A3A3700BD0F0D087
:10079300E0D0E0D0E002060DA3A3D0F0D0E022D059
:1007A30083D082CCC0E0E493A36006120852147095
:1007B300FAE493A360061209991470FAD0E0FCE4FA
:1007C30093A3C0E0E493C0E022C0E074F212047289
:1007D300A2AFE433FED2AFC2C0E5D1A2E45003120C
:1007E3000C26EEA2E092AF7F010204D1CAC0E0E47E
:1007F30093A3C582CCC582C583CDC583F0A3C5822F
:10080300CCC582C583CDC583DAE5D0E0CA22CAC090
:10081300E0E0A3C582CCC582C583CDC583F0A3C563
:1008230082CCC582C583CDC583DAE6D0E0CA222552
:1008330018F8E43519F9222518FAE43519FB2225AD
:1008430018FCE43519FD222518FEE43519FF22C0F2
:10085300E0E493A3D39C5010E493A3C39C400AD039
:10086300E0D0E0D0E00207BFA3A3A3D0E022C008FA
:10087300C3E096F50808A3E096420808A3E0964271
:100883000808A3E09645087001D3D0082270090830
:100893000808226016181818C6C333C608C633C61C
:1008A30008C633C608C633C6D5E0EA22C09FF59F03
:1008B300E473D09F22D083D082C09FE493C0E074BE
:1008C3000193C0E0740293F59F227404800A7403B9
:1008D3008006740280027401C0E0F404120903D09C
:1008E300E0120B3B2200C0D0251810AF08F51850BA
:1008F3000C05198008F51850020519D2AFD0D02283
:100903002518F58210AF08F518400C15198008F565
:100913001840021519D2AF85198322BB0102E722C1
:10092300C082C08389828A83BB0003E08002E49390
:10093300D083D08222C0E0C0D0E8C0E0A8A8D2AF64
:10094300C2C7E8A2E792AFD0E0F8D0D0D0E03260DF
:1009530016080808C6C313C618C613C618C613C696
:1009630018C613C6D5E0EA22C3E0C696F608A3E08C
:10097300C696F608A3E0C696F608A3E0C696F62246
:10098300251810AF08F518400C15198008F5184004
:10099300021519D2AF22C0E0E493A36C7009D0E032
:1009A300D0E0D0E00207BFA3A3D0E022C3E09608C3
:1009B300A3E09608A3E09608A3E096A2D265D033FD
:1009C30022E066701008A3E066700A08A3E0667070
:1009D3000408A3E06622E76670100809E766700A58
:1009E3000809E76670040809E76622C3E096F00881
:1009F300A3E096F008A3E096F008A3E096F022E0C7
:100A030026F008A3E036F008A3E036F008A3E036AA
:100A1300F022E627F60809E637F60809E637F6086E
:100A230009E637F622E026F608A3E036F608A3E047
:100A330036F608A3E036F622C0E0E8C0E0E58124FC
:100A4300FCF8E6A2E7D0E0F8D0E022E647F6080992
:100A5300E647F60809E647F60809E647F622E657A9
:100A6300F60809E657F60809E657F60809E657F6C1
:100A730022E056F608A3E056F608A3E056F608A3CC
:100A8300E056F622E056F008A3E056F008A3E0563D
:100A9300F008A3E056F022700422600D18C6C33399
:100AA300C608C633C6D5E0F41822E4C396F608E4B4
:100AB30096F608E496F608E496F622600D08C6A2B8
:100AC300E713C618C613C6D5E0F322C6F4C608C694
:100AD300F4C608C6F4C608C6F4C622C3E7960809D6
:100AE300E7960809E7960809E79622C3E09608A364
:100AF300E09608A3E09608A3E0962275D0007581DE
:100B03004075180175190300020529E6F008A3E6EC
:100B1300F008A3E6F008A3E6F022600C08C6C313AE
:100B2300C618C613C6D5E0F422E0F608A3E0F6081B
:100B3300A3E0F608A3E0F622CAC0E0E6F0A308DAD1
:100B4300FAD0E0FA22E8F0A3E9F0A3EAF0A3EBF08D
:100B530022E0F8A3E0F9A3E0FAA3E0FB22EAF0A382
:100B6300EBF0A3ECF0A3EDF022E0FAA3E0FBA3E0AB
:100B7300FCA3E0FD22E5C754F84401F5C77901223F
:100B83002518F582E43519F58322C2AF75D69F0285
:100B93000000221208B85AE7031208B875E70312D7
:100BA30008B890E7031208B89AE7031208B8A4E755
:100BB300031208B8B7E7031208B8D0E7031208B85E
:100BC30061E8031208B823E9031208B8A0E9031285
:100BD30008B813EA031208B875EA031208B80080CC
:100BE300041208B80E80041208B88780041208B8EB
:100BF3005F81041208B8F383041208B88BB304129C
:100C030008B823EC031208B890EC031208B850EDAF
:100C1300031208B8C5ED031208B8CAEE031208B8E8
:100C230067F0031208B8CCF0031208B81BF10312E3
:100C330008B824F1031208B833F1031208B849F1D4
:100C4300031208B85CF1031208B865F1031208B87F
:100C530078FA031208B8CDFA031208B8C0FC0312DD
:100C630008B8F4FC031208B816FD031208B82FFDE8
:100C7300031208B848FD031208B81AFE031208B895
:100C8300B4FE031208B8A5A9041208B8C9A904122E
:100C930008B8E2A9041208B814AA041208B83CAAB6
:100CA300041208B869AA041208B8D3AA041208B82F
:100CB300E2AA041208B8ECAA041208B8F9AA0412AA
:100CC30008B85295041208B87295041208B8B19581
:100CD300041208B8C095041208B8DF95041208B8C6
:100CE3004596041208B84E96041208B8AB9604123F
:100CF30008B8CF96041208B89097041208B89D97C5
:100D0300041208B8AE97041208B818B3041208B84E
:100D130035B3041208B8BAF1031208B807F3031283
:100D230008B815F3031208B828F3031208B83DF303
:100D3300031208B852F3031208B865F3031208B894
:100D4300D9F3031208B83EF4031208B8E0F403120F
:100D530008B8A4F5031208B8B4F5031208B8C3F52C
:100D6300031208B855B1041208B879B1041208B8CF
:100D7300A1B1041208B8C9B1041208B84E9A0412FA
:100D830008B8759A041208B8949A041208B8019B1B
:100D9300041208B8AD9C041208B8C69C041208B823
:100DA300D29C041208B8E69C041208B8049D0412ED
:100DB30008B80E9D041208B8189D041208B82B9D9C
:100DC300041208B87C9D041208B8B59D041208B833
:100DD300E49D041208B8329E041208B8819E0412DE
:100DE30008B89C9E041208B8A69E041208B8B79EC1
:100DF300041208B8FA9E041208B880FF011208B85A
:100E0300B1D4031208B8DBD4031208B8F8D4031220
:100E130008B80BD5031208B821D5031208B87FD53B
:100E2300031208B8B7D5031208B8CBD9031208B810
:100E33001BDB031208B84EDB031208B898DB03125E
:100E430008B8C2DC031208B8EADC031208B8FFDCF6
:100E5300031208B80FDD031208B853DD031208B8F4
:100E6300AEDD031208B8BEDD031208B845AC0412A8
:100E730008B85FAC041208B887AC041208B8A0AC79
:100E8300041208B8C4AC041208B8E2AC041208B8DF
:100E9300F9AC041208B827AD041208B842AD041225
:100EA30008B8D4B2041208B80A88041208B81A8819
:100EB300041208B81F89041208B85189041208B82B
:100EC3007789041208B89A89041208B8B189041200
:100ED30008B8EB89041208B8548A041208B88D8A3A
:100EE300041208B8CC8A041208B8FD8A041208B8A0
:100EF3001D8B041208B845A8041208B856A804129A
:100F030008B8A4A8041208B8ECA8041208B88EA95B
:100F1300041208B88BAF041208B8BAA6041208B8B2
:100F2300FEA7041208B8C9B7031208B878B80312A9
:100F330008B898B8031208B8B8B8031208B8CCB800
:100F4300031208B824B9031208B848B9031208B841
:100F5300A6BA031208B848BB031208B816BC03129A
:100F630008B870BC031208B8B7BC031208B81CBD9C
:100F7300031208B874BD031208B895BD031208B86C
:100F83000EBE031208B83FBE031208B8A5BE031273
:100F930008B849C0031208B81AC1031208B852C1ED
:100FA300031208B8A6C1031208B83BA3041208B879
:100FB3005CA3041208B88EA4041208B8B8A40412DF
:100FC30008B8257D001208B8997D001208B8A47DE1
:100FD300001208B8C57D001208B84694031208B879
:100FE3004994031208B80395031208B842950312F3
:100FF30008B87195031208B8A795031208B8D595D8
:10100300031208B81F96031208B86C96031208B8A7
:10101300DB97031208B80998031208B8379803122C
:1010230008B87F98031208B82099031208B88C995E
:10103300031208B81D9B031208B8E79B031208B8F4
:10104300D79C031208B8139D031208B87C9D0312A2
:1010530008B8159E031208B8439E031208B806A0E9
:10106300031208B885A0031208B8BEA0031208B87B
:1010730045A1041208B85DA1041208B84BA20412DA
:1010830008B838A3041208B803AB041208B839AB84
:10109300041208B853AB041208B895AB041208B88D
:1010A300A5AB041208B838AC041208B842AC041259
:1010B30008B8BAC1031208B8C4C1031208B813C2EE
:1010C300031208B898C2031208B8B5C2031208B8CD
:1010D300CEC2031208B8A6C3031208B828C6031267
:1010E30008B831C6031208B876C6031208B89FC6FB
:1010F300031208B8F4C6031208B873C7031208B87A
:10110300AAC7031208B801C8031208B87AC80312A1
:1011130008B8B1C8031208B812C9031208B875C9D0
:10112300031208B8B0C9031208B8E3C9031208B818
:10113300F5C9031208B807CA031208B826CA03126E
:1011430008B82FCA031208B8E1CA031208B829CB9A
:10115300031208B8FCF5031208B8CCF6031208B85A
:10116300E6F6031208B8F7F6031208B8D8F8031224
:1011730008B8F8F8031208B8059F041208B83B9F93
:10118300041208B8839F041208B8E6A0041208B832
:101193003BE6021208B877E7021208B8ACE702127E
:1011A30008B85BE9021208B88CE9021208B809EC26
:1011B300021208B849EC021208B8D3ED021208B8BB
:1011C30066EE021208B8BEEE021208B840EF021231
:1011D30008B878EF021208B8BAEF021208B83AF169
:1011E300021208B8D8F2021208B82AF5021208B897
:1011F30058F5021208B87CF5021208B885F50212F8
:1012030008B8DFF5021208B871F6021208B80EFA30
:10121300021208B895FA021208B8ADB3041208B85E
:10122300C3B3041208B8EEB1041208B8DB8E04127B
:1012330008B8ED8E041208B8888F041208B8C38F5B
:10124300041208B8DE8F041208B80290041208B81A
:101253004390041208B87390041208B8A4900412BF
:1012630008B80E92041208B875AD041208B8E7ADB9
:10127300041208B825AE041208B866AE041208B802
:1012830063CB031208B8A4CB031208B8B7CB03127D
:1012930008B8C0CB031208B8C9CB031208B890CC66
:1012A300031208B842CD031208B85DCD031208B883
:1012B3000ECE031208B8A0CE031208B85ED10312F3
:1012C30008B8F8D2031208B87CD3031208B8E6D3DF
:1012D300031208B8346F001208B88C6F001208B8F4
:1012E3007870001208B80A71001208B8547100121D
:1012F30008B8B471001208B80D72001208B8217250
:10130300001208B85372001208B83573001208B8F7
:10131300BA73001208B8D573001208B82474001207
:1013230008B83A74001208B84774001208B87B74FE
:10133300001208B89474001208B81E75001208B899
:101343002975001208B87975001208B8CE75001215
:1013530008B80B76001208B82D76001208B89978F1
:10136300001208B8CE78001208B85F79001208B8E6
:10137300D679001208B8DB79001208B80A7A00128D
:1013830008B86A7A001208B81F7B001208B8447BB9
:10139300001208B84E7B001208B8517B001208B83F
:1013A300E77B001208B8027C001208B8157C001213
:1013B30008B8417C001208B87C7C001208B87F7C16
:1013C300001208B8897C001208B8B87C001208B86B
:1013D300D27C001208B8F77C001208B83EB204129F
:1013E30008B856B2041208B8EEDD031208B83DDEA1
:1013F300031208B8E0DF031208B891E1031208B83A
:10140300D3E1031208B8D2E2031208B8FBE30312D4
:1014130008B81DE4031208B879E4031208B8FAE423
:10142300031208B8FDE2011208B81EE3011208B85E
:10143300A4E3011208B827E4011208B8A5E40112D5
:1014430008B809E5011208B84BE5011208B8BAE576
:10145300011208B852E6011208B8CDE6011208B825
:1014630016E7011208B80CEC011208B874ED01126A
:1014730008B8A7ED011208B8A1EE011208B8A4EE4E
:10148300011208B883EF011208B8DAF0011208B8A4
:10149300B7F2011208B83CF5011208B8D4F50112ED
:1014A30008B8EFF6011208B857FA011208B867FA3C
:1014B300011208B881FB011208B8E6FB011208B853
:1014C30007FD011208B849FE011208B8C9FE01124E
:1014D30008B80080031208B8A280031208B812816A
:1014E300031208B82181031208B8A081031208B8B7
:1014F3000D82031208B84183031208B868830312EC
:1015030008B8E083031208B82B84031208B88A844E
:10151300031208B87187031208B88C88031208B83D
:10152300F488031208B8AA8A031208B8498B031275
:1015330008B8E88B031208B84B8C031208B8C58CA3
:10154300031208B8128E031208B8FE8F031208B8EC
:101553000C91031208B8AA91031208B8149203124B
:1015630008B8F592031208B8828B041208B8CC8B22
:10157300041208B8378C041208B88E8C041208B809
:10158300C68C041208B8258D041208B8C18D041244
:1015930008B8058E041208B81B8E041208B8688EAA
:1015A300041208B8AC8E041208B8DC97041208B809
:1015B3000F98041208B8DF98041208B84799041268
:1015C30008B8BB99041208B85884041208B8778481
:1015D300041208B8C684041208B8E284041208B8D6
:1015E3001285041208B82285041208B8388504123B
:1015F30008B85185041208B81486041208B8568630
:10160300041208B86086041208B86A87041208B87E
:10161300E7FE031208B88787041208B890870412FC
:1016230008B89A87041208B8DDFA021208B8F5FE62
:10163300021208B803FF021208B8A692041208B8EF
:101643002094041208B8CDB3041208B8CA7F00125C
:1016530008B854B3041208B8D1FF011208B8EBB3A9
:10166300041208B8C6B5021208B800B6021208B8C8
:10167300F2E6031208B8EDB6021208B81AB702125E
:1016830008B8DBB7021208B826B8021208B852B974
:10169300021208B894B9021208B803BC021208B8BF
:1016A30081BE021208B841BF021208B8E1BF02129C
:1016B30008B8EDBF021208B82DC0021208B865C3FE
:1016C300021208B896C3021208B8F5C3021208B88A
:1016D30047C4021208B87DC4021208B88BC50212AF
:1016E30008B89CC5021208B8F1C5021208B804C6AE
:1016F300021208B807C6021208B835C6021208B8A3
:10170300A4C6021208B879C8021208B83CC902126A
:1017130008B86EC9021208B871CA021208B874CAAE
:10172300021208B8F4CA021208B8A9CC021208B807
:10173300F1CC021208B8D8CD021208B8F4CD0212C7
:1017430008B827CE021208B85BCE021208B87BD0C5
:10175300021208B8A4D0021208B814D1021208B8B1
:101763006DD1021208B8E6D1021208B836D40212BB
:1017730008B8F0D5021208B89CD6021208B8D3D71D
:10178300021208B871DA021208B877DD021208B83B
:1017930084DD021208B812DE021208B8C4DE021297
:1017A30008B80CDF021208B86CDF021208B888DF31
:1017B300021208B86AE0021208B8BFE2021208B8BF
:1017C3000CE4021208B8AFE4021208B8F6E50212FC
:1017D30008B814E6021208B8242B001208B8362BF6
:1017E300001208B8882B001208B8E92B001208B8B9
:1017F300732C001208B8172D001208B86B2D0012B5
:1018030008B8842D001208B8AA2D001208B8E52DD7
:10181300001208B8292E001208B8502E001208B87A
:10182300A12E001208B8512F001208B80930001277
:1018330008B8D130001208B89131001208B8D53178
:10184300001208B8FA31001208B83D32001208B885
:101853008A32001208B8E233001208B86834001262
:1018630008B88634001208B8B034001208B8CA3475
:10187300001208B8D934001208B8E434001208B8CA
:10188300A435001208B8FD35001208B8BF3600129F
:1018930008B8C736001208B88B37001208B8F737F4
:1018A300001208B82239001208B84739001208B8E4
:1018B300BD39001208B84F3A001208B8A73A00120F
:1018C30008B8673B001208B8863B001208B8953C7D
:1018D300001208B8A73C001208B8163D001208B859
:1018E3006B3E001208B89D3E001208B8303F00124C
:1018F30008B8693F001208B8B53F001208B8D140D4
:10190300001208B81A43001208B82543001208B899
:101913003043001208B83B43001208B84543001295
:1019230008B85043001208B86A43001208B8744359
:10193300001208B87E43001208B88943001208B8A1
:10194300B143001208B80C44001208B81644001240
:1019530008B83A44001208B85E44001208B8BC4400
:10196300001208B80045001208B81C45001208B858
:101973009345001208B8CB45001208B81746001269
:1019830008B87446001208B82E47001208B8124966
:10199300001208B86B49001208B89B4A001208B835
:1019A300C14A001208B84A4C001208B8C64F0012C8
:1019B30008B89851001208B86153001208B80E54C1
:1019C300001208B87955001208B81856001208B862
:1019D3005D56001208B8C756001208B8D656001252
:1019E30008B85D59001208B80F5B001208B87C5B99
:1019F300001208B85B5C001208B8745D001208B8E6
:101A0300F15E001208B8105F001208B8655F00129B
:101A130008B86A60001208B89260001208B8EA6059
:101A2300001208B8C961001208B80D62001208B8A4
:101A33005862001208B8C362001208B804640012A6
:101A430008B86864001208B8B665001208B81668CA
:101A5300001208B84768001208B8FF69001208B8F6
:101A6300546A001208B8586B001208B8F56B0012DC
:101A730008B84E6C001208B8016D001208B8A36DC7
:101A8300001208B8436E001208B8E86E001208B8D6
:101A93002982011208B86882011208B8AF840112C2
:101AA30008B8F984011208B81486011208B87C86B4
:101AB300011208B8B186011208B82588011208B8C6
:101AC300A88A011208B8D18B011208B8678C0112D9
:101AD30008B86F95011208B80496011208B8EB987C
:101AE300011208B8DE99011208B84C9A011208B81D
:101AF300929B011208B8749C011208B8599E0112F6
:101B030008B86AA0011208B8D4A0011208B8A6A1A7
:101B1300011208B8D4A1011208B891A2011208B8A1
:101B230068A3011208B82FA4011208B8D3A40112A4
:101B330008B8FCA4011208B81EA5011208B874A7BE
:101B4300011208B84CA8011208B890A8011208B8ED
:101B5300F8A8011208B8B0A9011208B8E2A9011245
:101B630008B826AA011208B85CAA011208B8A8AAE4
:101B7300011208B8FDAA011208B802AB011208B895
:101B830055AB011208B87AAB011208B889AC01123F
:101B930008B8EDAC011208B85DAD011208B8E9ADA3
:101BA300011208B8B6B0011208B89AB1011208B808
:101BB3001DB3011208B853B5011208B801B60112DA
:101BC30008B8B1B6011208B8F2B8011208B895B94D
:101BD300011208B8DCB9011208B888BB011208B8B1
:101BE3009CBB011208B8A6BB011208B8CEBB0112F8
:101BF30008B8DABB011208B8F9BB011208B819BE5C
:101C0300011208B868BF011208B8ACBF011208B8C6
:101C130054C0011208B837C1011208B8E2C1011259
:101C230008B82EC3011208B82CC4011208B8D2C4D4
:101C3300011208B862C5011208B879C5011208B8C3
:101C4300B0C5011208B8BAC5011208B8C5C501125A
:101C530008B8E3C5011208B827C6011208B884C63C
:101C6300011208B8A9C6011208B8C3C6011208B800
:101C73004FC7011208B86CC8011208B8D9C80112BD
:101C830008B8C0C9011208B8E7C9011208B85BCA8D
:101C9300011208B8D6CA011208B8DACB011208B883
:101CA300D0CC011208B87FCD011208B892CE011230
:101CB30008B82ECF011208B8BBCF011208B899D0CB
:101CC300011208B8D1D0011208B829D1011208B8FD
:101CD300F2D1011208B813D2011208B89AD2011234
:101CE30008B8BED2011208B8E0D2011208B829D34D
:101CF300011208B83FD5011208B826D6011208B858
:101D0300D7D6011208B80DD9011208B85DD901124E
:101D130008B89DD9011208B8DFD9011208B83BDA17
:101D2300011208B869DA011208B88DDA011208B88D
:101D3300E0DA011208B80EDB011208B847DB011222
:101D430008B89CDB011208B802DC011208B856DDA2
:101D5300011208B879DF011208B8E6DF011208B8EA
:101D63000FE0011208B89AE0011208B801E101126C
:101D730008B84CE1011208B870E1011208B894E107
:101D8300011208B8EFE1011208B80AE2011208B81B
:101D9300C3E2011208B88BB2041208B8CAB2041223
:101DA30008B87880021208B8BE80021208B89E8173
:101DB300021208B8A082021208B8A383021208B85C
:101DC3002F85021208B88D85021208B84A860212BE
:101DD30008B86887021208B8D987021208B81588AC
:101DE300021208B86388021208B86D88021208B894
:101DF300B188021208B80D89021208B8A889021224
:101E030008B8258A021208B8F48A021208B88D8B22
:101E1300021208B8AD8B021208B8E38B021208B89D
:101E2300148C021208B8D58C021208B8E58C021281
:101E330008B8398D021208B8548D021208B8668D9D
:101E4300021208B86F8D021208B8C98D021208B8C1
:101E5300258E021208B8718E021208B88C8E0212F7
:101E630008B8BD8E021208B8DA8E021208B8E68EE0
:101E7300021208B85A90021208B87390021208B8F6
:101E8300DA90021208B8ED90021208B8FB90021221
:101E930008B8AF91021208B89392021208B8999346
:101EA300021208B82394021208B82D94021208B83B
:101EB3009A94021208B8B194021208B8E394021279
:101EC30008B81C95021208B84695021208B8A795DF
:101ED300021208B8C795021208B8E595021208B8AD
:101EE3002B96021208B85197021208B89E97021255
:101EF30008B8CD97021208B84398021208B86B9835
:101F0300021208B8A498021208B8B298021208B8CC
:101F13000A99021208B85999021208B8989902123C
:101F230008B8C899021208B8F499021208B8FF99C0
:101F3300021208B81D9A021208B8DF9A021208B8F2
:101F4300E99A021208B8249B021208B83A9B0212BB
:101F530008B88F9B021208B8A39B021208B8B19C61
:101F6300021208B8C49C021208B8D99C021208B81D
:101F73007B9D021208B8FE9D021208B8BC9E021295
:101F830008B8C79E021208B8F39F021208B80FA040
:101F9300021208B861A0021208B8A0A0021208B881
:101FA300B5A0021208B817A1021208B8A6A102121E
:101FB30008B8F1A1021208B842A4021208B8C0A4DA
:101FC300021208B835A5021208B857A7021208B8BA
:101FD3006FA7021208B872A7021208B87EA70212EE
:101FE30008B892A7021208B89AA7021208B8CDA798
:101FF300021208B87DA8021208B8F3A8021208B8A2
:1020030066A9021208B81AAA021208B8CFAA0212C5
:1020130008B8EEAA021208B88EAB021208B89AAB3F
:10202300021208B8C5AB021208B8C8AB021208B84E
:1020330032AC021208B85AAD021208B832AE02121C
:1020430008B8BDAE021208B8D6AF021208B893B0F2
:10205300021208B8CCB0021208B8FDB0021208B8D8
:10206300BBB1021208B8EBB1021208B8C6B2021231
:1020730008B85FB3021208B8EAB3021208B89BB4F7
:10208300021208B81EB5021208B850B5021208B8F9
:1020930091B5021208B872AF041208B80CAF04125B
:1020A30008B888AE041208B8F6FF021208B895FF04
:1020B300021208B87AFF021208B86AFF021208B8BF
:1020C30009B4041208B816A5041208B808A5041226
:1020D30008B836B1041208B898B0041208B887B02B
:1020E300041208B8AEAC031208B8FFAB031208B869
:1020F30067AB031208B822AB031208B8D7AA0312BE
:1021030008B8ACAA031208B8B6A9031208B8FBA80A
:10211300031208B8BAA8031208B8D0E6031208B825
:1021230001E6031208B889E5031208B868E503124B
:1021330008B83CE5031208B82EE5031208B8C3FF3C
:10214300031208B878A8031208B809A8031208B83C
:10215300B2A7031208B8A6A6031208B87EFF03129B
:1021630008B889A5031208B831A5031208B8A3A4B7
:10217300031208B85EA4031208B873FF031208B869
:1021830042A4031208B830B6021208B88CA2031294
:1021930008B819A2031208B8D5A1031208B857A1A9
:1021A300031208B884B7031208B82BB7031208B890
:1021B300F3B6031208B8CFB6031208B89BB60312DE
:1021C30008B828B6031208B810B6031208B8DAB56F
:1021D300031208B8B4B2031208B889B0031208B8DE
:1021E3000FAE031208B809FF031208B8CAAD0312F1
:1021F30008B895AD031208B835AD031208B8758752
:102203000400000080FB000000000000000000004C
:1022130000000000000010101010101000003030FB
:10222300000000142850000000000000000000001F
:102233000000002828FC284850FC505000000000F3
:10224300103854543018145454381000000000440B
:10225300A8A8B0541A2A2A440000000000205050B5
:1022630060ACA898927C000000606020C000000071
:1022730000000000000000040808101010101010E7
:102283000808040000004020100804081020400043
:1022930000000000001010D63838D61010000000DF
:1022A300000000101010FE101010000000000000CD
:1022B3000000000000000000606020C0000000007B
:1022C3000000FC000000000000000000000000000F
:1022D300000000006060000000020404040808100D
:1022E300102020204000000000304884848484842F
:1022F3004830000000000010701010101010107C07
:10230300000000000038444404081020447C00000E
:10231300000000384444180404444438000000001A
:10232300080818284848887C081C00000000007C26
:10233300404078440444443800000000003C44809A
:10234300B8C48484847800000000007C44480810EA
:1023530010101010000000000078848448788484F2
:1023630084780000000000788484848C740488F0EE
:10237300000000000000003030000000303000009A
:1023830000000000000010000000001010200000FA
:102393000408102040201008040000000000000082
:1023A30000FC0000FC0000000000000040201008BA
:1023B3000408102040000000000078848484081082
:1023C30010003030000000000038449AAAAAAAB4D2
:1023D300423C00000000001010282828384444EE36
:1023E3000000000000F844447844444444F80000EA
:1023F3000000003C4484808080804438000000005A
:1024030000F048444444444448F00000000000FC09
:1024130044404878484044FC0000000000FC42402F
:102423004878484040E000000000003C448480803D
:102433008E8444380000000000EE4444447C44444D
:1024430044EE00000000007C101010101010107CEF
:1024530000000000007C101010101010101090E00D
:10246300000000EE44485070484844EE000000006D
:1024730000E040404040404044FC0000000000EECB
:102483006C6C6C54545454D60000000000EE646429
:102493005454544C4CE400000000003048848484BD
:1024A300848448300000000000F8444444784040ED
:1024B30040E00000000000304884848484B448383D
:1024C3000C00000000F844447850484844E60000FB
:1024D3000000003C4440201804044478000000003D
:1024E30000FE92101010101010380000000000EED3
:1024F30044444444444444380000000000EE44444F
:102503002828282810100000000000D654545454E2
:102513006C2828280000000000EE442828102828F2
:1025230044EE0000000000EE44282810101010387C
:1025330000000000007C88081020204044FC0000BC
:10254300001C101010101010101010101C00007040
:1025530010101010101010101010700000701010D8
:102563001010101010101010700000102800000040
:102573000000000000000000000000000000000058
:102583000000000000FE00606020C00000000000AA
:102593000000000000000000000038441C24443EFA
:1025A3000000000000C040407844444444780000E8
:1025B3000000000000003C4440404438000000009C
:1025C300000C04043C444444443E0000000000006A
:1025D300000038447C40443800000000001C2420E4
:1025E300F8202020207800000000000000003C4874
:1025F300483040784438000000C0404058644444A8
:1026030044EE000000000010000070101010107C59
:1026130000000000000800003808080808080870D7
:10262300000000C040405C48507048EC00000000CF
:102633000070101010101010107C0000000000003B
:102643000000F854545454D6000000000000000069
:10265300D864444444EE0000000000000000384405
:10266300444444380000000000000000F84444449F
:10267300447840E00000000000003C444444443CF3
:10268300040E000000000000EC30202020F80000C1
:102693000000000000003C443008447800000000C3
:1026A300000010107C101010100C0000000000003F
:1026B3000000CC444444443E0000000000000000FD
:1026C300EE44282828100000000000000000D65423
:1026D300545428280000000000000000DC4830307B
:1026E30048EC0000000000000000EE442828101011
:1026F30020E00000000000007C481010247C000053
:1027030010101010101010101010101010100001E5
:102713003636010100010201000103010001040139
:10272300060605020000070100340801000F090432
:1027330001010D0100FF0E0800001702000019013E
:1027430000FF1A0100011B0100FE1C0100081D020D
:1027530000001F01000120010001210200002301EC
:10276300000F2402000026010001270100082802AF
:1027730000FF2A0100072B0102402C0100002D015C
:1027830000012E0100012F0100FF30010B1C310855
:1027930000003A0100083B01000F2F010000030075
:1027A30071003001600011007000310220035004F9
:1027B30080001000610000001400630073007200C9
:1027C3006200430000001300060000000000040044
:1027D30012000000000000000000040004003700A5
:1027E30037003C02440000000000000000006500C8
:1027F3000000350081000000050000008300000098
:102803000101710101010101110101013101010105
:1028130001018001100161013B0014006301730198
:102823007201620143010001130106013D013500FC
:10283300040112010001000100010001040104016F
:10284300330133013C014401320136000001000130
:102853006501000135008101000105018201830149
:1028630000010302710230016002110270020102D1
:10287300020202028002100261023A004100630276
:102883007302720262024302000213023800000262
:10289300000204021202000200020002000204020B
:1028A3000402370037003C024402000239000002F0
:1028B3000002650200023502810200020502820263
:1028C300830200020304710402046004110470040F
:1028D3000204020401040204100461040004140449
:1028E30063047304720462044304000413040604BF
:1028F300000400040404120400040004000400049F
:1029030051046400000400040004440400040004AF
:102913000004000465040004350481046400050414
:102923000004830400040103710301030103010391
:102933000103010322030203010310030003000345
:102943000003000300030003000342030003240306
:1029530006030003000304031203250323032503D3
:1029630023030403040300030003000344030003DD
:1029730000032303000365032100350381030003E0
:1029830005030003000300033600010006000000F6
:102993000F0000000000000000000000000003FF23
:1029A300FF00000403FFFF0000FFFF0FF401000519
:1029B300C4040320000100030B000000000000001A
:1029C3000003010F00000E1513008A1401000E15F9
:1029D300020042140300481404004E14050054146A
:1029E3000600601411007E14140084141500721480
:1029F300FFFF000001D81A06081B08021B0B141B5B
:102A030010541A02DE1A05F61A07E41A0CBA1A0D44
:102A1300CC1AFF0000E01E101FE61EEC1E0A1FFE6C
:102A23001EF81E161F1C1F221F2E1FF21EDA1ED495
:102A33001E03EAF5E5D5D5C5B5A5959585857575C7
:102A43006565555545453535252515150500160F7D
:102A530000000B150B020002220F32000006D01FEC
:102A6300E21FE81FAA1EEE1FA41EB01EE41DDE1DFA
:102A73001A1E201E141ECC1D30204E20542036203A
:102A830042203C20303016181920231A1C1E3030E7
:102A93003017181921301B1D1F3000383C3E363BC0
:102AA3003B352B432C0C0E020B040B0A0708000FBB
:102AB300000119161816161523030000034948428E
:102AC3004D1817250502041F281F4820341F3A1FDD
:102AD3002420F41FFA1F0620002002040201010132
:102AE300010902F01DF61DEA1D261E00000000006C
:102AF3000000BE040AFC1D0E1E28007F0004001502
:102B030000E8030E00000000000C00100904031E7F
:102B1300FF00040001090C05080F08030A0C100844
:102B23001EC082C0838A828B83E0D2E7F0121394A3
:102B3300023CF3C082C0837900122FF0125EC0C042
:102B430082C083900E02124C46D083D082C3E09C95
:102B5300A3E09D500C126594FAA3E0122B67600169
:102B630009023CF3FBEA75F00BA4FAA8F075F00B2D
:102B7300EBA428FB900E04E02AF8A3E03B8882F53F
:102B830083E0540F2274F71204068908122FF012FF
:102B93003096ACF075F00BE9A42CF9900E04E02804
:102BA300FEA3E039FF7401650860067402650870CE
:102BB300208A828B83123082123F2274026508704E
:102BC3001B122F411230C970138E828F83E4F08061
:102BD3000BEA2403FCEB123064123070EEFAEFFBC5
:102BE3001217D8023E7F74F4120406126EBB7900EA
:102BF3008E828F83E06076890A890B8065E50A758A
:102C0300F00BA4FAA8F075F00BE50B122B747046C9
:102C1300E50A75F00BA4F8AAF075F00BE50B12307A
:102C2300A88E828F83E085088285098312318A8585
:102C33000882850983A3123F22EE2403FCEF12309E
:102C43006D123D0012593AAA08AB091217D879013F
:102C5300900E0212534FE50A2401F50AE50B3400E6
:102C6300F50B122F49E50A9AE50B9B40900240CCE5
:102C730074F5120406EAFEEBFF740B120B83123D8C
:102C830005750A01EC4D602BEC126ED7ED125EC098
:102C9300123F1A79011217E4E5084509606F8508A8
:102CA30082850983A3126EC57902AA08AB0912179C
:102CB300E4805AE5084509602B125EC412458E1262
:102CC3003D011230B3700CEEFAEFFB1217EAE9F58F
:102CD3000A80CBEE2403FA122FEB70317903EEFA5C
:102CE300EFFB80CA8E828F83A3E064FE7003A3E0B0
:102CF300F4700BEE24030A0A0A122FEB700CEEFA9F
:102D0300EFFB1217EAE9F50A8003750A00A90A7FA7
:102D13000302061D74F7120406900E02123E8FEA98
:102D23004B602FEA75F00BA4FAA8F075F00BEBA437
:102D330028FBEAFEEBFF121184900E04123E8F90E3
:102D43000E041251946012EEFCEFFD79001210C4D0
:102D53008007900E04E4F0A3F0023E7F900E02126F
:102D630048FEC3EE98EF9922C082C083EC4D600504
:102D730012127A80097C087D0079001210C4023C8B
:102D8300F374F61204067900EA4B60187800880899
:102D9300126207EB12659060047901780808E8C3B2
:102DA300940840EA023F2B74F712040674F31209E5
:102DB30083ECFEEDFF851882851983E4F004120B82
:102DC30083EAF0A3EB1256C07403120B83AC82ADFB
:102DD30083EEFAEFFB1217FCEEFAEFFB1218020276
:102DE3003E7A74F712040674F3120983ECFEEDFFC6
:102DF300851882851983E4F0EAFCEBFD7403120B5A
:102E0300831231837401120B83123F168E828F83D8
:102E1300123F2274FE68700374FF696004790180B5
:102E2300027900023E7A74F7120406EAFEEBFF12FF
:102E33002E877014122E928E828F83E0F4F88A828A
:102E43008B83E058F01217D8A908023E7F74F7125B
:102E53000406EAFEEBFF7508008E828F83E0602292
:102E6300122E87701D122E928A828B83E08F838E9F
:102E730082F8E058700CE0F88A828B83E048F01205
:102E830017D880C41217DEE9F50874016508221209
:102E93006ED012309A122FDCFAA3E039FB2274F4BD
:102EA3001204068A088B097C007D00122F41123020
:102EB30070123001126EC27900850882850983A3DE
:102EC300E064FE7003A3E0F460717E007F00806223
:102ED300EEFAEF122B676057EEFAEFFBEA75F00B91
:102EE300A4FAA8F075F00BEBA428FB900E04E02ADB
:102EF300F50AA3E03BF50B850882850983A31256E7
:102F03000E850A82850B83A3E06A7003A3E06B70CE
:102F13001EE50A2403FAE50B122FEC700AE50A24D6
:102F230003FCE50B12306D122FF57901125ED612F8
:102F330038E0122F49EE9AEF9B40950240CCEA24E9
:102F4300030A0A0AEB22900E02125AADC32274F34B
:102F53001204068A088B098A828B83A3126EC51218
:102F63002FF0126EC2750C00122F41122FEC705409
:102F73007E007F008049122FCEFAA3E0398A82F5C2
:102F830083E0540F6036122FCEF50AA3E039F50B18
:102F9300E50A2403FCE50B1230773400FB121274AC
:102FA300E964017017850A82850B83A3125B6EA304
:102FB300123F22122FF5750C01125ED61238E01261
:102FC3002D5F40B2A90C7F0502061DEEF8EFF9E86C
:102FD30075F00BA4F8122FDC22AAF075F00BE9A40C
:102FE3002AF9900E04E02822EF1230C322126ED683
:102FF300EB22123001125ED1EEF0A3EFF022E508CE
:10300300126ED7E5092274F5120406EAFEEBFF8E71
:10301300828F83A3126EC57C007D00EE24030A0A0F
:103023000AEF123070EEFAEFFB1217DEE9F50A74BD
:1030330001650A7029126ED0123096AAF075F00B52
:10304300E91230A8850882F5831230821230B370FA
:103053000DE5082403FCE509123064123070022DDB
:10306300103400FDEE2403FAEF221230773400FB14
:103073001217FC223400FDE5082403FAE50922A314
:103083001230872212308B22E0F8A3E0F98E828F70
:1030930083A32212309A223400F583124902E87581
:1030A300F00BA4F822122FE2F508A3E039F5092268
:1030B300E8F0A3E9F0E5082403FAE5091230C32296
:1030C3001230C96401223400FB121802E92274F39E
:1030D30012040674E6120983126EBB750C0175089F
:1030E30000750900750A00750B0085188285198320
:1030F300E4F0EE2403FCEF3400FD7403120B83129F
:103103003183E964017023740B120B83123F1A7429
:1031130001120B831256127003A3E06960518518E4
:1031230082851983858208858309740D120B83E4D4
:1031330012318A740E120B83123F22740D120B8309
:10314300AA82AB83121820E96401700B740D120B71
:103153008385820A85830B780A1208D5AC08AD09EA
:10316300EEFAEFFB1217F074021208E8E9F50CEE21
:10317300FAEFFB12181AA90C741A1208E8022FC9E5
:1031830012345612182622123E8A1248FE22C08298
:10319300C083780079008003123281122F49E89AA4
:1031A300E99B5029E8FAE9FBEA75F00BA4FAACF0C5
:1031B30075F00BEBA42CFB900E04E02AFCA3E03B80
:1031C3008C82F583E0540F70CF790080027901027D
:1031D3003CF3C082C083902B02124954EC75F01269
:1031E300A4FCA8F075F012EDA428FD79FF7A007B0A
:1031F300061210C4023CF374F7120406E9FEEAFF58
:103203007A007B00780079008028E8FCE9FDEC7502
:10321300F012A4FC85F00875F012EDA4250812360F
:1032230096C39E400AE0FCEFC39C40031237B512DD
:10323300328112368A40D3023E7FC082C083780037
:1032430079008003123281123275501F12369AF4BC
:1032530070F2E875F012A4F8AAF075F012E9A42A46
:10326300F9740028FA740639FB80047A007B0002A3
:103273003CF3902B0212374BC3E89AE99B22E824D4
:103283000108E93400F92274F012040674F31209F8
:10329300838A0A8B0B8C0C8D0D8908EC450D601607
:1032A300AA0CAB0D1218748A0E8B0FAE0EAF0FEE75
:1032B3004F600302334812184A8A0E8B0FA80EA9D7
:1032C3000FE8FEE9FFE849607C902B0A1233AA60FD
:1032D300227403650860067404650870167A04791D
:1032E30003121844902B0A1233C140077A007B0063
:1032F3000233A7902B081233AA601B740165086080
:103303000674026508700F7A027901121844902B33
:10331300081233C150D68518828519837401F012BF
:103323000B8312593AAC0CAD0D7403120B83123498
:103333004F740B120B83123D0D124302E4125922F8
:10334300121D248004EE4F604A780074FF2508C3E1
:103353009404500278048E828F8312593A8E828F9E
:1033630083A3A3A3A3E508F0E88E828F83A3A3A37B
:10337300A3A31259421202271237628E828F83A3AC
:10338300A3A3A3A3A3A3F0123759120B6C125EBA23
:10339300120B601233AF4005900FD1E4F0121BFE05
:1033A300EEFAEFFB024908125A5C49227A047900CB
:1033B300121844902B02126576EA98EB9922123385
:1033C300DA75832B758202E493C398F8A3E4939987
:1033D300F9C3EA98EB9922E493F8740193F9227400
:1033E300F212040674F31209838A088B09ECFEEDCA
:1033F300FF750A00EEFAEFFB1218748A0C8B0DA806
:103403000CA90DE849603E88828983E06508700451
:10341300A3E06509602F88828983A3A3A3A3E0C3E4
:1034230094055021125D688518828519837401F013
:10343300120B83125D6CEEFCEFFD7403120B83120F
:10344300344F750A01A90A740D0254061234561238
:10345300183222AA82AB831217FC8518828519833E
:10346300AA82AB832274F61204061234A4600FA35B
:10347300A3A3A3E014C39404500479018002790048
:10348300023F2B74F61204061234A4600FA3A3A305
:10349300A3E014C394025004790180027900023F2F
:1034A3002B12186E8A828B83E58245832274F6126F
:1034B30004061234A4600BA3A3A3A3E07004790150
:1034C30080027900023F2BC082C083EAFCEBFD7AC5
:1034D300007B00023CF0C082C0837C007D00023C84
:1034E300F074F412040674F3120983EAFEEBFF8C02
:1034F3000A8D0BC3EC94F8ED94FF4007EE4F700375
:1035030002359D750800750900802E85188285197E
:10351300837401F0123908120B8312391660137485
:1035230003120B83AC82AD83EEFAEFFB121274E944
:103533007049E5082401123736902B02E4125A64CD
:10354300E50898E509995052E50875F012A4F8AA20
:10355300F075F012E509A42AF91265A960D4EE4FBB
:1035630070A974FF650A700474FF650B60C4123898
:10357300F8650A7004A3E0650B70B7E50875F012EF
:10358300A4F508A8F075F012E509A428F50974005C
:103593002508FA74063509FB80047A007B00024093
:1035A300C774F412040674F3120983750800121821
:1035B300748A0A8B0BAE0AAF0BEE4F602A85188212
:1035C3008519837401123E84F8A3E0F9740B120B7E
:1035D30083123FA51218147C127D0079FFEEFAEFD7
:1035E300FB1210C47508011233AF5009900FD17448
:1035F30001F0121BFEA9080240C774F7120406E982
:10360300FE74FE6A700374FF6B78007900700580A6
:103613005212328112368A504AE8FCE9FDEC75F009
:1036230012A4FCAFF075F012EDA42F123696F460DD
:10363300E0E8FCE9FDEC75F012A4FC75F012EDA4D2
:103643002FFD74002CF58274063DF583E06A700348
:10365300A3E06B70BC800912369A14C3940440171C
:103663001232811232755018EE70EC12369A6401E0
:103673006005E0640370E91238E9FAA3E0FB800413
:103683007AFE7BFF023E7F902B02124958C3E89CCF
:10369300E99D221237EA22E8FAE9FBEA75F012A45F
:1036A300FAACF075F012EBA42CFB74042AF58274C7
:1036B300063BF583E022121886023CF3C082C083E6
:1036C300790180F274F01204068A0A8B0B7A04796A
:1036D300011218448A0C8B0DEA450D603EEAC33390
:1036E300FAEB33FB1211848A088B09AE08AF09EE9B
:1036F3004F60237AFE7BFF12188C74FE6A7003748A
:10370300FF6B601B850882850983123E8FE50824C1
:103713000212373680E1750C0080047E007F00853D
:103723000A82850B83E50CF0EEFAEFFB02490DE507
:10373300082407F508E5093400F50922902B021245
:103743004958C3EA9CEB9D22E493FA740193FB224C
:103753001210B8740322125ECBE4F09081E522E8E4
:103763008E828F83A3A3A3A3A3A3A3A312378474DB
:1037730001123784A3F0EE2410125ECEE4F0A3F01E
:103783002212430EA3A3A322C082C0837A007B002C
:103793008004191237B512373F50101237D4C3942F
:1037A3000550F0E970EC1237BE80047A007B00020A
:1037B3003CF3EA24010AEB3400FB22EA75F012A47D
:1037C300FA75F012EBA428FB74002AFA74063BFB8B
:1037D30022EAFCEBFDEC75F012A4FCA8F075F012E4
:1037E300EDA4281237EA22FD74042CF58274063DF9
:1037F300F583E02274F712040674F31209837E0042
:103803007F0002389CE50875F017A4F8A9F0126848
:103813000AFAA3E0FBEEF8EFF9E875F012A4F8ACAE
:10382300F075F012E9A42C1238F76A7003A3E06B69
:10383300603FE50875F017A4F8AAF0EA126809F8E2
:10384300A3E0F97401120B83E0687003A3E06960DD
:1038530020E50875F017A4F8EAF9747C28FC7407CE
:1038630039FD7403120B83AA82AB83121274E960CD
:1038730014E50875F017A4F8A9F0747A28FA740708
:1038830039FB121D300508902B21E493F8E508C39A
:103893009850030238081238E0902B02126B5050F4
:1038A30039EEF8EFF91238E9F47003A3E0F460E6B7
:1038B3008518828519837401F0EEF8EFF9E875F045
:1038C30012A4F875F012E9A42AF9123908120B832D
:1038D30012391660C175080080AD023E7AEE2401EC
:1038E3000EEF3400FF22E875F012A4F8AAF075F089
:1038F30012E9A42AF91238FC22740028F58274060E
:1039030039F583E022740228F5827406391248FCE3
:10391300740B22E8F0A3E9123FAD12182CE922C080
:1039230082C083900E0B74F0F0A3741AF0900E0D06
:1039330074EAF0A3741AF0900E11740AF0A37419C8
:10394300F0023CF374F7120406EAFEEBFF900E4517
:10395300E06408601BE0640460168E828F83E05489
:103963000364017048123D00124403E06406703D95
:103973008E828F83A3A3E064FE7003A3E0F4602D23
:103983008E828F83A3A3123F16900E36E0687003D6
:10399300A3E069700BEE2415F582EF1265906008C1
:1039A300121B9EE9F5088008121BA480F67508C255
:1039B300EEFAEFFB12118A022E4B74F41204068AFC
:1039C300088B098A828B83E0F8A3E0FAE82AFAE4F9
:1039D3003400FB1211848A0A8B0BAE0AAF0BEE4F35
:1039E3006063850882850983E0FC7D0079001210FD
:1039F300C48E828F83A3A3126EC5121BE08E828FA7
:103A030083A3A3A3A3123E8F850882850983E0F8CD
:103A1300EE28F8EF3400123F1E850882850983A340
:103A2300E0C0E0EE240D125EBDD0E0F0121BF2EE1A
:103A3300240E125EBDE912556FE0C0E0EE241112B0
:103A43005EBDD0E0F0EEFAEFFB0240CC74F412045A
:103A53000674EB1209838A088B098C0A8D0BE9FE25
:103A6300900E45E064046005E06408700479C28048
:103A73002EA37808120B0EEE900E4C123CFA120B8A
:103A83000E7405120B83E9F07404120B837401F0B6
:103A93007407120B83E4F0900E457402123C8E748B
:103AA300150240C974F612040674EB120983EAFE88
:103AB300EBFF1251916003023B4B7A077B0012111B
:103AC30084900E07123E8F12519160788E828F83FD
:103AD300120B6C900E08124406120B60126D89C013
:103AE300E0123B57D0E0F0EE2405FAEF3400FB8AF6
:103AF300088B098A82F583E0C0E0123B52D0E012C2
:103B030040C3E0C0E0123B52A3D0E0123F03120BCC
:103B13006C851882851983120B6088828983E0C0C3
:103B2300E07405120B83D0E0F0850882850983E0F9
:103B3300C0E07404120B83D0E0F07407120B8312FD
:103B43003C8D80067910800279017415023F28129A
:103B53003B57A322900E07E0FAA3E0F5838A82A3E2
:103B6300A3A3A322C082C083125191600D900E07BC
:103B7300125A9B900E07E4F0A3F0121B0E121CD0F6
:103B8300023CF374F012040674EB120983ECFEEDAD
:103B9300FF89087425120B83780C120B2C742912DD
:103BA3000B83E0F9742A120B83E0FC742B120B8352
:103BB300E0FD740F697005740F6C6012900FBFE025
:103BC3006402700579C1023C88E9C39C40F6900EFB
:103BD30046780C120B0EE508900E4CF0E9900E4A55
:103BE300F0ECA3F0ED900E4DF074FF6A700374FFD8
:103BF3006B701D900FCAE0F47003A3E0F47005121C
:103C030010DC800C900FCA123E57E8F0A3E980073E
:103C1300900E43EAF0A3EBF0EE4F6017EEFAEFFBE2
:103C2300121D90E96401700BEEFCEFFD7A577B0ED9
:103C330012127A900E36E4F0A3F0900E39F0A3F04E
:103C4300900E56F0900FBFE064027008900E4A7415
:103C53000FF0A3F0900E457405F014120B83E4F0FB
:103C6300900E46120B6C851882851983120B609097
:103C73000E4CE0C0E07405120B83D0E0F074071221
:103C83000B83123C8D741502490AE4123FAD1215E1
:103C9300F222C082C083900E06E0700312147812E1
:103CA30018D4804CC082C083900E06E0900FD07071
:103CB30004E4F0802D7401F0900E06E0F460237CA0
:103CC30041E0C394415002E0FCECF8E0C398F0EC0F
:103CD30075F0E8A4CCA8F075F003A428FD7A80124F
:103CE30049607AD07B0F79411215DA800312187A72
:103CF300D083D0820208B5123F0E780822EE125EFE
:103D0300CC22E0F508A3E0F50922123D112212307E
:103D13008BA32274F512040674E2120983851882B8
:103D2300851983ECF0A3EDF0EAFEEBFF8908742913
:103D3300120B83E0F509742C120B83E0F50A900E45
:103D430045E064046005E06408700579C2023E48FA
:103D5300742A120B83E064FE7003A3E0F470057908
:103D6300C3023E48900E457403123FA979501215C1
:103D7300DA742A120B83AA82AB83794B1215DA8584
:103D83001882851983123E57123F22E508900E3898
:103D9300F0742A120B83123E50123F22E509900E53
:103DA30030123E5E74CE55094480C0E07412120B8B
:103DB30083D0E0F07401250A900E56F0740F120BB5
:103DC300837402F0742A120B83123F167407120BCA
:103DD30083E8F0A3E9123E957410120B83123F227D
:103DE3007405120B83E508F0741B120B83E4F09047
:103DF3000E4B740FF07A4B7B0E79541215DA900E3A
:103E03004A740FF07A4A7B0E79471215DA900E4AFC
:103E1300E0C3940F50237405120B83E0C0E07402D7
:103E2300120B83D0E0F07404120B837401F00412BC
:103E33000B83AA82AB831215FE7405120B83AA822D
:103E4300AB831215E0741E1208E8022D121248FE0D
:103E5300900E39221248FE900E4322F0EEFCEFFD45
:103E63007A577B0E12127A2274F7120406EB900E25
:103E73004DF0121AFC8005740D1208E87F0102064A
:103E83001D123E8AA3E022123F03A322EAF0A3EB12
:103E9300F022123F09F8A3E0F92274F71204067422
:103EA300F8120983EAFEEBFF7900900E45E06408FF
:103EB300704485188285198374FDF0A374FFF01292
:103EC3001BDA7402120B83123E8F7405120B83E408
:103ED300123E8AE0C0E07404120B83D0E0123EFE6F
:103EE300C0E07406120B83D0E0F07407120B83E476
:103EF300123FA9121C1C7408023E7C123F03E022ED
:103F0300F08E828F8322123F0EE022F08518828585
:103F13001983221248FE22E0F8A3E0F9125ECBE8EF
:103F2300F0A3E9F0221208E87F0202061DC082C056
:103F330083900E17749AF0A37419F0900EBD7476E3
:103F4300F0A3741CF0900E1B74D0F0A37419F090BE
:103F53000E1D749AF0A37419F0900E1F74D6F0A37B
:103F63007419F0023CF374F412040674F912098311
:103F73008A088B098C0A8D0B85188285198378082A
:103F8300120B0E7404120B83E9F07405120B83E415
:103F9300F07406120B83E4123FA91218BC740702D3
:103FA30040C9E8F0A3E9123FAD22123F0EAA82AB4B
:103FB300832274F41204068A088B098A828B831283
:103FC3005ED9EE4F70030240C1900DE01251946030
:103FD300158A828B83A3A3E0F9EEFAEFFB900DE140
:103FE30012440612057E8E828F83A3A3A3A3A3A3E9
:103FF300A3A3A3E0640270748E828F83A3A3A3A3FD
:10400300A3A3E054027003024093850882850983C9
:10401300A3A3E064E960798E828F83A3A3A3A3A300
:10402300A3A3A3A3A3E07014900FC2E0048E828F16
:1040330083A3A3A3A3A3A3A3A3A3A3F08E828F838A
:10404300A3A3A3A3A3A3A3A3A3A3E0141240C3A363
:10405300A3A37404F0900FC3125914E8F0A3E91258
:1040630069ED8B0BEA450B70031263CB8E828F8352
:10407300A3A3A3A3A3A3A3A3A3E0640260128E82BA
:104083008F83A3A3A3A3A3A3A3A3A3E06406702E78
:104093008E828F83A3A3A3A3A3A3E0A2E0501F85D3
:1040A3000882850983A3A3E0F9EEFAEFFB12173C1C
:1040B3008E828F83A3A3A3A3A3A3E054FEF080095E
:1040C30012430A22740D1208E87F0402061D74ECE1
:1040D30012040674DD120983EAFEEBFF8C088D09D6
:1040E3007437120B83780C120B2C750A00740512AB
:1040F3000B83AC82AD831217B47412120B83E0707E
:10410300087415120B83E060207405120B83E0A280
:10411300E6501E8E828F83A3A3A3A3A3A3A3A3A36B
:1041230012560E121C52E9600879031210820242E1
:10413300F07405120B83E0540C64047005750B01D5
:104143008003750B00E0A2E55035750A01E50BA26B
:10415300E0402C121BE08A108B11A810A911123D0C
:1041630000E0687003A3E06960157405120B831205
:104173006ECC12560A121730E96004790480AC74CD
:1041830005120B83E0A2E650227406120B83E0545F
:104193000370187405120B83E0540C640C600CE07C
:1041A300540C6408600575100180037510007405D4
:1041B300120B83E05403F8740268700C126ECC1275
:1041C300560A1217C60242F0740168703AE510A24B
:1041D300E050031242F87405120B83A882A983747A
:1041E30003120B83E8F0A3E91248F28518828519BC
:1041F30083124302E0C0E07402120B83D0E0123F4B
:10420300A912167C0242F0E860030242F0900E2DE0
:10421300E0640170108E828F83A3A3A3A3A3A3E002
:10422300700302417E7422120B8374021248F274EB
:104233001A120B83123F22E510A2E05008740512F4
:104243000B831242F8E50BA2E0506AEE240FF582CD
:10425300EF126590C0E07417120B83D0E0F0900D5D
:10426300E212519470030242F0121BE08A128B1384
:10427300A812A913741A120B83E0687003A3E069F0
:10428300706B780C1208CD780A1208D978081208D6
:10429300D5A910740C120B83AC82AD837421120B5D
:1042A30083AA82AB83900DE212440312057E740746
:1042B3001208E88038780C1208CD780A1208D978E9
:1042C300081208D5900E4312071DEE2412F582EF53
:1042D3001262BE7423120B83AC82AD83740E120B75
:1042E30083AA82AB8312174874091208E874231255
:1042F30008E80269B8126ECC125AA91217BA22E85A
:10430300F0A3E912430A2212430E22F08E828F8316
:10431300A3A3A3A3A3A32274F712040612134C02AC
:104323003E7F74F7120406121352023E7F74F71293
:10433300040612135E023E7FC082C083121358022A
:104343003CF374F7120406121364023E7F74F712EF
:1043530004067409120B83E0F50878081208D912D1
:1043630013707401023E7CC082C08312137C023C32
:10437300F3C082C083121382023CF374F712040663
:10438300121388023E7F74F7120406EAFEEBFF89DC
:10439300087401650870147900121A12902B12E444
:1043A30093FC7900EEFAEFFB121988023E7F74F456
:1043B30012040674F9120983E9FE8A088B098C0A30
:1043C3008D0B7413120B8312560E900D1A12519407
:1043D3006027EE851882851983F07401120B8378A8
:1043E30008120B0EEAF8EBF97405120B83123FA5C2
:1043F300900D1A12440312057E023FA0FB900E1982
:10440300E0F8A3E0F583888222C082C0831213BE42
:10441300023CF374F7120406900FD3E0F97E008098
:104423000B12657C540D64017001190E1246105075
:1044330003E970ED023E7F74F7120406900FD4E097
:10444300F97E00800B12657C548D64817001190E16
:104453001246105003E970ED023E7F74F212040617
:10446300890BE975F006A4240CF508E5F012373A38
:104473008A0CE508250CFAE5093400FB1211848A3D
:104483000C8B0DAE0CAF0DEE4F6027AC08AD097968
:10449300001210C4123D00E50BF0EE2508F8EF35CD
:1044A30009F98E828F83A3A3A3A3A3A3A3A3A31218
:1044B3003F22EEFAEFFB02540974F6120406EAFEF9
:1044C300EBFF121964900FD2E0F8E9C3984009900A
:1044D3000E1312560E12196AEE2402F8EF125C1E26
:1044E300900E15125AD8900E15E004F0EEFAEFFB79
:1044F300121970850882850983E00260D4C082C0E6
:10450300837900900E1380010912560E8A828B83E1
:10451300E582458370F2023CF374F7120406EAFE67
:10452300EBFFEE4F6056900E13125194604E88824B
:1045330089837A007B00EE65827003EF6583600FE9
:10454300AA82AB83124582E5824583602F80E79080
:104553000E1312458E687002EF698E828F83700886
:10456300123F16900E1380031269CA123F22EEFA0D
:10457300EFFB1216ACEEFAEFFB12118A023E7F122A
:1045830045862212490288828983221248FEEE223E
:10459300C082C083900E1380048882898312519451
:1045A300600B88828983124C46EC4D70EC8A828BB7
:1045B30083E4F0A3F0E8496006888289838003904E
:1045C3000E13123E8F023CF374F7120406900E137F
:1045D30080048A828B8312460B4B60257E00800108
:1045E3000E12461050ECEE75F006A4FCADF0EA2C6A
:1045F300FCEB3DFDEC2410F582ED12466070E1808A
:10460300047A007B00023E7F125AADEA2212466909
:10461300EEC3982274F71204067D0080010D124642
:1046230065EDC3985034ED75F006A4FEA8F0E8FFDD
:10463300EA2EFEEB3FFFEE2410F582EF1246607088
:10464300DCED75F006A4FEE8FFEA2EFAEB3FFBEA89
:104653002411F582EB1265904CF0023E7F12659CAB
:10466300692212466922126ED6EB3400F583E0F814
:104673002274F6120406121A8A7A007B008025EA55
:10468300F8EBF9E875F006A4F8ACF075F006E9A4C8
:104693002C125A82126D97A3E4125B78F0A3126D69
:1046A3009D126F14902B0C1233B940D37A007B0008
:1046B300801C8A088B0974037808120A9A125536EB
:1046C300A374FEF0A304125958A3E4126F14902BA1
:1046D3002212471340DC7A007B00801D8A088B0975
:1046E30074037808120A9A74A2126208740A126A8E
:1046F3004F74FEF0A304126F14902B18124713404B
:10470300DB902B17E493900E21F012471D023F2BF1
:10471300E493F8C3EA98EB9400227CE87D037A10D3
:104723007B00900E90E0F912124A2274F0120406F4
:1047330074F51209838A088B09890A8C0BE9A2E0B4
:1047430050147508FC7509FFA2E15005D2E4024735
:10475300F0D2E30247F01253F57003A3E06970054A
:1047630079000248BDAC0A7902AA08AB09121A669D
:10477300E960EDE50AF50C780C1208D979027CFEA4
:104783007DFFAA08AB091251701208E8E960030221
:1047930048BBE50AC2E5F50A900E83E07051E50ACD
:1047A300A2E6404B7403120B83AC82AD83AA08AB21
:1047B30009121808E97032124A918A0C8B0DA80C61
:1047C300A90DE8FEE9FFE8496025EE24020A0AEF95
:1047D3001230C9601AEE2402FCEF3400FD74031298
:1047E3000B83AA82AB8312127AE50AD2E5F50A900B
:1047F3000E16E0F50C900E36E0F50EA3E0F50F78FB
:104803000E1208D57D017C00900E16E0F9AA0EABBE
:104813000F121A1E74021208E8E9F8900E16E0044B
:10482300F0E860030248BBE50AA2E55004740E8079
:10483300027406C0E07401120B83D0E0125EEA8AB0
:104843000E8B0FAE0EAF0FEE4F60691248DB1248AE
:10485300F2888289837401F07478550AA3126EDC9E
:10486300E50C126EDCA3E508F0E5091248CAE4F092
:10487300E50AA2E5500F7403120B83AC82AD83E803
:1048830024061248C18E828F83A3A374FDF0A37400
:10489300FFF0E50B6015902B23E493F8E50BC39829
:1048A3005009EE2413125EBDE50BF0EEFAEFFB1296
:1048B30018AA80067910800279C7740B8049FAE937
:1048C3003400FB12127A2288828983A3A3A3A31242
:1048D30048D622125C51A322EE2417125ECE740135
:1048E300F0121BDAEE241A125ECEEAF0A3EB22F0EA
:1048F300126ED034001248FC22F58312490222E0E2
:10490300F8A3E0F922740D1208E87F0802061D746B
:10491300F61204067A007B101263D86008900EA288
:104923007401F08029900DBBE06401900FC0700604
:10493300E0FC79018004E0FC79037A007B00121922
:1049430088902B041249547A007B10124962023F6B
:104953002B12495822E493FC740193FD227B0090AF
:104963000E90E0F91212442274EC1204068A088BAA
:10497300098C0C8D0D890E7414120B8312534F7412
:1049830016120B83E0F510A3E0F511121C52E96037
:10499300077AFF7BFF024A8E900FBFE06402600339
:1049A300024A817900AA08AB09121A6CA90E121ADD
:1049B300608A128B13AE12AF13EE4F7003024A6973
:1049C3008E828F83A3A3A3A3A3E064018E828F832C
:1049D300A3A3706912560E8E828F83A3A3A3A3A3EE
:1049E300A3E054186043902B13E4938E828F83A328
:1049F300A3A3A3F0EA650C7003EB650D6014EA65ED
:104A03000A7003EB650B600AEA65107003EB65112E
:104A1300701F78101208D5AC0AAD0BAA0CAB0D129F
:104A23001D4E74021208E88008900E351263C2A36B
:104A3300F074FE6A700374FF6B601D804EA3A3A322
:104A4300E0640360298E828F83A3A3A3A3A3E064FE
:104A53000470057AFE0249968E828F83A3A3A3A3D3
:104A6300A3E064027008900E82E064027010124AA0
:104A7300918B0BEA450B6006AA08AB09800DAA08C7
:104A8300AB09900E1712440312057E0269B8900E0B
:104A930043125176121D122274F7120406EAFEEB3A
:104AA300FF12185CE9700AEEFAEFFB121868E9606E
:104AB30006EEFAEFFB80047AFE7BFF023E7F74F082
:104AC3001204068A0A8B0B8C0E8D0F890975080058
:104AD300121C52E979006003024C38AA0AAB0B128C
:104AE3001A6CA909121A608A0C8B0DAE0CAF0DEE6D
:104AF3004F60198E828F83A3A3A3A3A3E0640270E4
:104B030055900E82E064027003024C36AA0AAB0B86
:104B1300900E1D12440312057E12186E8A0C8B0D23
:104B2300A80CA90DE8497003024C3688828983A337
:104B3300A3A3A3A3E0A2E04003024C36750C01A299
:104B4300E150687901AC0AAD0BAA0EAB0F1219B88C
:104B5300E97064024C368E828F83A3A3A3A3A3E0E0
:104B630064037005750C0280528E828F83A3A3A306
:104B7300A3A3E064016003024C36900E43124C463B
:104B83008E828F83124F9B8A0C8B0DA80CA90DE884
:104B93004960D1902B1EE493FA88828983E0C39AFB
:104BA30050C2A3E06003024C3680B988828983A394
:104BB300A3A3A3A3D2E1F0EE4F603A8E828F83A327
:104BC300A3A3A3A3A3E05418602B7508018E828FBF
:104BD30083A3A312071D750CFE750DFF780C120835
:104BE300D57900AC0AAD0BAA0EAB0F121A7E740472
:104BF3001208E8803E900E36E0650E7004A3E0656F
:104C03000F7014902B12E493FCA909AA0AAB0B12A0
:104C13001988750801801CA90CAC0AAD0BAA0EAB50
:104C23000F1219B8E9700C750801A909AA0AAB0B90
:104C3300121A12A90802490DE50C2415F582E50D97
:104C4300125ED112592E2274EA12040674F012096C
:104C5300838A0C8B0D8C088D097426120B83E0F567
:104C630014A3E0F515751206900EC3125194602338
:104C7300900E43124C46AA08AB09121D3C8A108BB6
:104C830011EA4511600D8A828B83A3E070057900D8
:104C9300024F83E50C241DF50EE50D3400F50F8559
:104CA3000E82125180F51388828983A3A3A3E0FAAD
:104CB30088828983A3A3A3A3E0F9EA2400FEE4394D
:104CC300FFAA08AB09121A18850E82850F83124FAB
:104CD300BEE029F50BE50AA2E5500375120E7487B1
:104CE300550A70177418550A6418600FE50C2417D9
:104CF300F582E50D12659065126007790112108245
:104D0300808C530A78C3EE94F8EF94FF501D79001A
:104D1300EEFAEFFB124F8D601288828983A3A3A35F
:104D2300A3A3A3E054186003024C9178081208D59A
:104D33007D00124FB11208E8E9F8740368700302AA
:104D43004C91E86003024DFC7418550A7003024E3F
:104D5300B1E50AD2E0F50AA2E45004D2E1F50AA9CA
:104D63000A125607124F8D605388828983A3A3A327
:104D7300A3A3A3E05418604488828983A3A3A3A3B5
:104D8300A3E064017036E51045116030900E4312C4
:104D93004C4688828983124F9B8A0E8B0FA80EA9DB
:104DA3000FE849601788828983A3E0600F8510822A
:104DB300851183A31260DF5003024C91E50AF50EBF
:104DC300780E1208D9124FA41208E8E9702B7C0060
:104DD3007D0085148285158374FFF0A3F0850C8212
:104DE300850D83A3A3A3A3A3A3A3A3E06003124CF2
:104DF3003BA90B125607121376851482851583E09F
:104E0300F47003A3E0F46039900E82E0640270034F
:104E1300024C91125340E0FAA3E01243FF12057EC5
:104E2300EA65087003EB65096003024C91EEFAEF43
:104E33001243FF12057E851482851583EAF0A3EBE6
:104E4300F078081208D57D01124FB11208E8A90ABB
:104E5300EEFAEFFB121A6C8A088B09A808A90990CD
:104E63000E36E0687003A3E0696003024F74EEFA44
:104E7300EFFB12186E8A088B09A808A909E8496094
:104E83006E88828983A3A3A3A3E06401600D888253
:104E93008983A3A3A3A3E0640270548518828519B0
:104EA30083AC82AD83EEFAEFFB1218088055900EA7
:104EB3002FE0600FE50AF50E780E1208D9124FA401
:104EC3001208E8E50AF50E780E1208D979027CFE7D
:104ED3007DFFEEFAEFFB1251701208E8E96003025E
:104EE3004DFC85148285158374FFF0A3024E431293
:104EF3001BDAEAFCEBFD851882851983AA82AB8352
:104F030012127A850C82850D83A3A3A3A3A3A3A363
:104F1300A3E06401700F124C3B7408120B83AA8246
:104F2300AB8312127A12514A125D564430F5087857
:104F3300081208D97401120B8385820885830978C6
:104F4300081208D5740B120B8385820885830978B0
:104F5300081208D5E513F50878081208D97900EE88
:104F6300FCEFFD1256071219B274061208E8024C40
:104F73009112514A125EC0124FBEE50BF0121BF2A2
:104F830074101208E87F0E02061D121A608A0E8B37
:104F93000FA80EA90FE84922A3A3125AAD121D3C74
:104FA300227901AC08AD09125AA212517022AC0B3E
:104FB300A913125AA2121A1E740222125D5EA3A32F
:104FC300A3A32274F012040674F01209838A0C8BD3
:104FD3000DECFAEDFB750F08900EC312519460149B
:104FE3001260D88A828B83E58245836007A3E070D1
:104FF3000302514512514A3400125180F50B888245
:105003008983125153E0FBEC2400FEE43BFF8882CA
:105013008983A3A3125153A3A3E0FBECF508E43B5C
:10502300F50988828983A3A3A3A3A3A3A3E0F50E11
:10503300E50AA2E45003750F10A2E5500674082593
:105043000FF50F748F550A700FE50C2417F582E5E1
:105053000D126590650F60087901121082025145A7
:10506300530A707800E50AA2E4502212514A1265ED
:10507300902408FCA3E03400FD7408120B83AA8279
:10508300AB8312127A7808E50AC2E4F50AE50AA2AC
:10509300E5502812514A12659028F8A3E03400F92C
:1050A300E82408FCE93400FD851882851983AA8267
:1050B300AB8312127AE50AC2E5F50AAC0EA90BEE30
:1050C300FAEFFB121A24E9F87403686075900E3640
:1050D300E06E7003A3E06F605EE87054E50AF50FBD
:1050E300780F1208D91251611208E8E97054780A4E
:1050F3001208D97401120B8385820C85830D780CF9
:105103001208D5740B120B8385820C85830D780CE2
:105113001208D5E50BF50A780A1208D9A90EAC08CE
:10512300AD09EEFAEFFB1219B274061208E8801209
:10513300740468700D80B7780A1208D9125161128D
:1051430008E8741002490AE50C241DF582E50D22D6
:10515300A3A3A3E0FC88828983A3A3A3A322790149
:10516300125347125ED1125176125170221219DC7A
:10517300740122E0FCA3E0FDAA08AB0922F5831227
:105183004586A3E0F50A88828983A3A3E022900ED3
:1051930007125B092274E812040674F5120983EA04
:1051A300FEEBFF8C088D0989147423120B83E0F541
:1051B3000F7424120B83E0F512A3E0F51374261287
:1051C3000B83E0F516A3E0F5177428120B83E0F5C3
:1051D3000EA90F121A2A8A108B117401120B8374F1
:1051E30008F0E50EA2E450037410F0E50EA2E550BA
:1051F30004E02408F0851882851983AA82AB831200
:105203001C3A8A0C8B0DEA450D7003025327EA24DE
:1052130017F582EB125339121BDAE50C241AF582C7
:10522300E50D125EC0123E8F7403120B83AC82AD88
:1052330083AA10AB11121808E9601D1253317403CD
:10524300120B83A882A983E50C2418F582E50D12BD
:105253005EC0E8F0A3E98024E50EA2E4501FE51048
:105263006E7003E5116F7015125331E50C2418F5B8
:1052730082E50D125EC0E512F0A3E513F012534070
:1052830012534F850A82F5837402F0A3E50E12537D
:1052930057E50FF0EE850A82850B83A3A3A3F0EFF6
:1052A300850A82850B83A3A3A3A3125357A3A3A3A6
:1052B300E508F0E509850A82850B83A3A3A3A3A3CD
:1052C300A3F0AA10AB11121A18E92514850A8285D6
:1052D3000B83A3A3A3A3A3A3A3F0750800E50EA2C6
:1052E300E45011AC12AD13E50A2408FAE50B124899
:1052F300C3750808E50EA2E55014AC16AD17E50A10
:105303002508F8E50B3400F9E824081248C1850C98
:1053130082850D83A3A3E510F0A3E511F0AA0CABDE
:105323000D1218AA740B1208E87F1002061DE50C73
:105333002416F582E50D125ED17401F02212534753
:10534300125ED122E50C126ED7E50D22E0F50AA319
:10535300E0F50B22F0850A82850B83A3A32274F266
:105363001204068A088B09ECFEEDFF890A79001204
:1053730053F57003A3E069700479018073750B0121
:10538300900E36E065087004A3E06509601F750B95
:1053930000780B1208D9A90AEEFCEFFDAA08AB09A5
:1053A300121C8E74011208E8E9F50B80417900EEB6
:1053B300FAEFFB121A60EA4B602B8A828B83A3A35A
:1053C300A3A3A3A3E05418601C7508FE7509FF7816
:1053D300081208D58A828B83A3A312071D126CECD3
:1053E3001208E880097901EEFAEFFB12193AA90BCA
:1053F3008014121A6C8A0C8B0DA80CA90D900E3612
:10540300E068221208E87F0602061D74F4120406FF
:105413007508EA7509087A101269F48B0BEA450BD3
:10542300700312471D900E21E014F0700C902B179F
:10543300E493900E21F0121A787E007F00806C8531
:105443000882850983A3A3A3A3E06059F46056E50A
:10545300082404F582E5091263BC70498508828536
:105463000983A3A3A3A3A3E06403701979028508A6
:1054730082850983124C46850882850983A3A3127A
:10548300560E1219B8850882850983A3A3A3A3A383
:10549300E06401601085088285098374FEF0A3042B
:1054A300125568E4F01238E0123732902AFC126B7E
:1054B30050408C7E007F008039121B808E088F093C
:1054C30074037808120A9A74622508FC740A350971
:1054D300FD7AC47B19121B6EEA4B70DD8E088F09AF
:1054E30074037808120A9A125536126D97E4F01273
:1054F30038E0902B22E493F8C3EE98EF9400501B0E
:105503008E088F0974037808120A9A12553EE8240C
:1055130007F582E91263BC70D680A17E007F00800C
:105523000A125549600214F01238E0126B4D40F133
:105533000240CC12553E888289832274622508F882
:10554300740A3509F922EEF8EFF9E875F006A4F8C4
:10555300AAF075F006E9A42AF9740228F582740A00
:1055630039F583E02212556FA3A3A322F0850882A5
:10557300850983A3A32274F712040674E112098335
:10558300ECFEEDFF750800EE4F60728A828B83E0BC
:10559300241C1263ED12519460638A828B8312562A
:1055A3000E851882851983AC82AD83EA241BF582AC
:1055B300EB1262BEEA241CF582EB12560A121BC2DE
:1055C300740B120B831256127003A3E069702E74CE
:1055D30002120B83E064017024741D120B831244C6
:1055E30003E064017017741D120B83124405A3A317
:1055F300E0F88E828F83E0687003750801A9087450
:105603001F023E7C1253473400F583125AAD221217
:105613003087E0682274F4120406E970247900905C
:105623000E1B12440312057E8A0A8B0BAE0AAF0BC4
:1056330074FE6E700374FF6F701A902B16E4936000
:10564300137901900E1B12440312057E8A0A8B0BF9
:10565300AE0AAF0B121BFE023A4874F6120406742C
:10566300F31209831210DC8A088B09AE08AF099084
:105673000E36E06E7003A3E06F60E9121BE6EA6E7C
:105683007002EB6F60DEEEFAEFFB121C52E970D48E
:10569300EE4F60D0851882851983E4F004120B83E2
:1056A300EEF0A3EF1256C0E970BA74FE6E70037485
:1056B300FF6F60B0EEFAEFFB740D023F28123FADAF
:1056C30012182022C082C083121BFE023CF37F0A01
:1056D30002061D74F2120406EAFEEBFF8C0A8D0B20
:1056E3008908740E120B83E0F50974FC6E70037461
:1056F300FF6F700579000254097900121A6C8A0C45
:105703008B0DAE0CAF0D900E36E06E7003A3E06F01
:105713007006E509A2E650DCA909126BDA7061791B
:10572300007AFE7BFF126BDA70567418550970030A
:1057330002580D780079008003123281902AFC12FE
:105743003278400302580DE8FAE9FBEA75F007A442
:10575300FAACF075F007EBA42CFB74F02AF5827415
:10576300083BF583E0541870D0E875F007A4F8AA55
:10577300F075F007E9A42AF974EA28F8740839F9EE
:1057830088828983A3A3A3A3A3A3E0541860097405
:1057930018550970030256F788828983EEF0A3EF48
:1057A300F074FE650A700474FF650B6003125934CC
:1057B30088828983A3A3A3A3A3A3E509F0A2E0504E
:1057C3000D88828983A3A3A3A3A3A3D2E2F07401C8
:1057D300650888828983A3A3A3A3A37038740112E5
:1057E3005958E054186028902B13E49388828983D6
:1057F300A3A3A3A3125922121D3C8B0DEA450D60EE
:10580300030256F778007900803979020256F9903D
:105813000E35E080D7E0640170030256F788828971
:1058230083A3A3A3A3A3A3E054186007902B13E4BB
:10583300938004900E34E01248CAE508F00256F74C
:10584300123281902B21E493FAC3E89AE994004041
:10585300030256F77A007B00804BEAFCEBFDEC7504
:10586300F007A4FCAEF075F007EDA42EFD74EC2C4C
:10587300F58274083DF583125ED9E8FCE9FDEC7509
:10588300F017A4FC85F00975F017EDA42509FD7444
:105893007A2CF58274073DF583E06E7003A3E06F05
:1058A300609E1237B5902AFC12374240AD1249541C
:1058B300EC6A7002ED6B7088E875F017A4F8AAF033
:1058C30075F017E9A42AF9747A28FE740739FF7C66
:1058D300177D007900EEFAEFFB1210C48E828F83DE
:1058E30012593A900E43125914A3A3A3A3A3A3E8F6
:1058F300F0A3E912591A7401F0EE240E125EBD747E
:1059030001125942120227EE240D125EBDE802581D
:105913003F123D11A3A322F0EE240F125ECE22F01C
:1059230012592BAA0AAB0B22900E43E0FCA3E0FD15
:105933002288828983A3A3E50AF0A3E50BF022F072
:1059430012594722902B1EE4932401F8E43400F902
:105953007A027B00221248D6A32274ED1204068A2F
:10596300088B09890E125A8B40057905025A591280
:1059730013C4AA08AB09125B5D902B0C125A5C6529
:105983000A7003E9650B70077AFE7BFF125B5D907B
:105993002B0CE4125A64E50A98E50B994003025A6A
:1059A30057125A686012E50A75F006A4F875F006F6
:1059B300E50B125AB312118AE50E6018E50A75F069
:1059C30006A4F8AAF075F006E50B125ADF701A79EF
:1059D30001025A59E50A75F006A4F8AAF075F00613
:1059E300E50B125AC0E4F0A3F0E50A75F006A4F83B
:1059F300AAF075F006E50B125A80A3125D6C88823B
:105A03008983A3AA82AB83125ACE8A828B83E060F6
:105A13003F125A68603A8E108F1175120078101277
:105A230008D1E50EC333FCE433FDE50A75F006A4A3
:105A3300F50AA8F075F006E50BA428F50B74062506
:105A43000AF582740A350B12560C1237531208E802
:105A5300790080027907026BF01233DAE822902B87
:105A63000212657722E50A75F006A4F8AAF075F02C
:105A730006E50B125ABBF8A3E0F9E84922A42A125F
:105A83005C1488828983A322ECFEEDFF902B20E433
:105A930093F8E9C39822F583125AAD12118A22E5CD
:105AA3000C126ED7E50D3400F583E0FAA3E0FB2278
:105AB300125ABBFAA3E0FB22125AC0E022A42AF92D
:105AC300740628F582740A39F58322E50EF0900FE7
:105AD300C1125AD822E088828983F022125C38F5F9
:105AE3000CE93400F50DE50EC333FAE433FB121170
:105AF30084850C82850D83EAF0A3EBF0850C828507
:105B03000D83125B0922124902E8492274F412043C
:105B130006ECFEEDFF740C120B83123F1688088906
:105B230009125B5DAC0AAD0BECF8EDF9902B0C128E
