:020000040000FA
:06000000020A960201D97C
:03002B000208D1F7
:030033000206EDD5
:030043000207862B
:0300530002010A9D
:03006B000206D3B7
:1000830002016E0101FF050301561056105610566A
:1000930010120F0C0F56109B2300000000FD2300CD
:1000A3000000000C0000000C0001000024120000FE
:1000B30000000000DE12000000000000000000004D
:1000C300FFFF414C4432353330204C45440001009E
:1000D3000101010016050000006705E803640064E0
:1000E30000B801020200080000050207051E020510
:1000F3001E0A03B80B020102F1FF021F00E007967C
:1001030051180002020612C0E074F21203F2A2AF09
:10011300E433FED2AFE5A7FFE5A1F5085F54106015
:100123000612195075A1EFE5085F5408600812190B
:100133005675A1F7802BEFA2E0C0D0E508A2E092AC
:10014300F01209D3158182F05017906198E0F8906E
:100153000840E0C398A2D265D0335002E8F075A1FD
:10016300FEEEA2E092AF7F01020451C0E074F212EE
:1001730003F2A2AFE433FED2AF9061A4E0F8759B23
:1001830000E59158540860087591F712199E802A6A
:10019300E59158541060087591EF1219A4801BE87B
:1001A300A2E0C0D0E591A2E092F01209D3158182BA
:1001B300F05007E0C2E0F0121AE89061A3E0F8E51E
:1001C300E9585404600E121ABE75E9FB906193E07E
:1001D300A2E640F2808BC0E074F21203F2A2AFE415
:1001E30033FED2AF9061A5E0F8E5BF585404600632
:1001F30075BFFB121B00020164C3E498F8E499F98C
:1002030012023D8026C3E49AFAE49BFBE920E7E966
:1002130012023DE498F8E499F922C3E498F8E499CA
:10022300F912023DE498F8E499F9C3E49AFAE49BDD
:10023300FB22EB20E7CFE920E7E0B90010BB000881
:10024300E88AF084F8AAF022E4FBC8FA22EB7022D1
:100253007B10C833C8C933C9335007C39AC3DBF211
:1002630080069A50012ADBEAC833F4C8C933F4C9BB
:10027300FA2275F008E4C833C8C933C933C99AC927
:100283009B5004C92AC93BD5F0ECFBC833F4C8E43E
:10029300C9FA22080808EAC0E0EBC0E086F0E7A448
:1002A300FA180986F0E7A42AFA180986F0E7A42ABF
:1002B300FA180986F0E7A42AFA1986F0E7A4FBE501
:1002C300F02AFA190886F0E7A42BFBE5F03AFA19AD
:1002D3000886F0E7A42BFBE5F03AFA18180986F034
:1002E300E7A4C5F02BFBE43AFA1908E7C5F0C6A466
:1002F30026F6E5F03BFBE43AFA1886F0E7A4F6E5C8
:10030300F00826F6E43B08F6E43A08F6D0E0FBD022
:10031300E0FA22E4CFC0E0E4CEC0E0E4CDC0E0E404
:10032300CCC0E075F020C3E633F608E633F608E602
:1003330033F608E633F6181818EC33FCED33FDEE0C
:1003430033FEEF33FFC3EC9709ED9709EE9709EFFF
:1003530097191919400FFFEC97FC09ED97FD09EE6A
:1003630097FE191906D5F0BEECF709EDF709EEF77C
:1003730009EFF7191919D0E0FCD0E0FDD0E0FED069
:10038300E0FF222518C582C0E0E51934FFC583C00C
:10039300E0E518C3958224F810AF08858319858298
:1003A300188008858319858218D2AFCEF0A3E52083
:1003B300F0A37808E608F0A3DEFAEFF0A3E58124C2
:1003C300FAF8E608F0A3E608F0A3E608F0A30808A5
:1003D300E608F0A3E608F0A315811581D0E0FED06E
:1003E300E0F8158115811581E8C0E0EEC0E022C078
:1003F300D02518C582C0E0E51934FFC583C0E0E508
:1004030018C3958224F310AF088583198582188059
:1004130008858319858218D2AFC8F0A3E9F0A3EA4F
:10042300F0A3EBF0A37908E709F0A3D8FAECF0A363
:10043300EDF0A3EEF0A3EFF0A3D0E0F0A3D0E0F053
:10044300A3D0E0F0A3E520F0A3E5F0F0A322851903
:1004530083851882E0C0E0A3E0F9A3E0FAA3E0FB00
:10046300A37808E0F608A3DFFAE0FCA3E0FDA3E02D
:10047300FEA3E0FFA3E0C0E0A3E0C0E0A3E0F5D06B
:10048300A3E0F520A3E0A3F5F010AF088583198559
:1004930082188008858319858218D2AFD082D083D1
:1004A300D0E0F8D0E032120AF8B900030204EBE41A
:1004B3009003017897790A8002F0A3D8FCD9FA90C7
:1004C3000C97AA82AB83900086788579018015E426
:1004D30093A3AC82AD838A828B83F0A3AA82AB837E
:1004E3008C828D83D8E9D9E77582B275838E7403C4
:1004F30012084975829A75831D7400120849E8032E
:100503000875F0108E1A8F1B85821F85831E851830
:1005130082851983E0CEA3E0CF851F82851E83EBFE
:10052300C9EAC8EDCBECCAC3E833C8E933C9EA3337
:10053300CAEB33CBC3EA9EF51DEB9FF51CB3500406
:10054300AB1CAA1DEC33CCED33CDD5F0DAAE1AAF2C
:100553001B22D083D082ECC0E0EDC0E0E493A3FC87
:10056300E493A3FDED4C600D12062DEC24FFFCED8E
:1005730034FFFD80EFE493A3FCE493A3FDED4C6013
:100583000D120731EC24FFFCED34FFFD80EFD0E0CA
:10059300FDD0E0FCE493A3C0E0E493C0E02285191E
:1005A30083851882E0A3FEE0A3F5207808E0A3F694
:1005B30008DFFAE0A3FFE0A3C0E0E0A3C0E0E0A30C
:1005C300C0E0E0A3C0E0E0A3C0E010AF088582185C
:1005D3008583198008858218858319D2AFD083D08B
:1005E3008202084FD083D082E9C0E0E493A3C3869C
:1005F300F0C5F095F0F908E493A386F0C5F095F003
:10060300700BE493A3C3994005E9048002A3E47546
:10061300F002A42582F582E5F03583F583D0E0F975
:10062300E493A3C0E0E493C0E022C0E0C3E4939664
:10063300087401939618400FE493667008087401D8
:1006430093661870007019A3A3C3E493960874010A
:10065300939618A3A3400DD0E0D0E0D0E00205911B
:10066300A3A3A3A3A3A3D0E022D083D082C5F0E4A5
:1006730093A3C5F0C395F0F5F0E493A3C395F040BD
:1006830005E5F0048001E475F002A42582F582E516
:10069300F03583F583E493A3C0E0E493C0E02274D0
:1006A30004800474028000CCC0E0EDC0E0E518C310
:1006B3009CCCAD1950011D10AF068C188D19800606
:1006C3008C188D19D2AF1207CBD0E0FDD0E0FC22FD
:1006D300C0E074F21203F2E589A2E1500312180C90
:1006E300758900C2C57F01020451C0E074F2120390
:1006F300F2E58BA2E0500312180C758B00C2E88060
:10070300E474028000CCC0E0EDC0E0E518C39CCCEB
:10071300AD1950011D10AF068C188D1980068C1869
:100723008D19D2AF1207A9D0E0FDD0E0FC22C0E0C2
:10073300C0F088F0E493667008087401936618703B
:1007430000A8F0A3A3700BD0F0D0E0D0E0D0E0027B
:100753000591A3A3D0F0D0E022D083D082CCC0E017
:10076300E493A3600612082A1470FAE493A36006C4
:1007730012091B1470FAD0E0FCE493A3C0E0E493E5
:10078300C0E022C0E074F21203F2A2AFE433FED25F
:10079300AFC2C0E5D1A2E450031218C6EEA2E092A4
:1007A300AF7F01020451CAC0E0E493A3C582CCC564
:1007B30082C583CDC583F0A3C582CCC582C583CD55
:1007C300C583DAE5D0E0CA22CAC0E0E0A3C582CC83
:1007D300C582C583CDC583F0A3C582CCC582C5833D
:1007E300CDC583DAE6D0E0CA227009080808226082
:1007F30016181818C6C333C608C633C608C633C688
:1008030008C633C6D5E0EA22C008C3E096F5080857
:10081300A3E096420808A3E096420808A3E09645A1
:10082300087001D3D00822C0E0E493A3D39C5010F6
:10083300E493A3C39C400AD0E0D0E0D0E002077960
:10084300A3A3A3D0E022C09FF59FE473D09F22D03F
:1008530083D082C09FE493C0E0740193C0E074022C
:1008630093F59F227404800A740380067402800245
:100873007401C0E0F404120882D0E0120AD32225E6
:1008830018F58210AF08F518400215198008F518FD
:1008930040021519D2AF85198322BB0102E722C09A
:1008A30082C08389828A83BB0003E08002E493D001
:1008B30083D08222C0D0251810AF08F51850020546
:1008C300198008F51850020519D2AFD0D022C0E024
:1008D300C0D0E8C0E0E5A8D2AFC2C7A2E792AFD0CC
:1008E300E0F8D0D0D0E0326016080808C6C313C6BB
:1008F30018C613C618C613C618C613C6D5E0EA220F
:10090300C3E0C696F608A3E0C696F608A3E0C6962B
:10091300F608A3E0C696F622C0E0E493A36C700940
:10092300D0E0D0E0D0E0020779A3A3D0E0222518DD
:1009330010AF08F518400215198008F51840021584
:1009430019D2AF22E76670100809E766700A080932
:10095300E76670040809E76622E066701008A3E002
:1009630066700A08A3E066700408A3E06622C3E089
:100973009608A3E09608A3E09608A3E096A2D265A2
:10098300D03322C3E096F008A3E096F008A3E096E4
:10099300F008A3E096F022E026F008A3E036F00882
:1009A300A3E036F008A3E036F022E627F60809E6CE
:1009B30037F60809E637F60809E637F622E026F6A1
:1009C30008A3E036F608A3E036F608A3E036F622DD
:1009D300C0E0E8C0E0E58124FCF8E6A2E7D0E0F857
:1009E300D0E022E647F60809E647F60809E647F6A7
:1009F3000809E647F622E657F60809E657F6080916
:100A0300E657F60809E657F622E056F608A3E0563D
:100A1300F608A3E056F608A3E056F622E056F008DF
:100A2300A3E056F008A3E056F008A3E056F02270C6
:100A33000422600D18C6C333C608C633C6D5E0F416
:100A43001822E4C396F608E496F608E496F608E45A
:100A530096F622600D08C6A2E713C618C613C6D5BC
:100A6300E0F322C6F4C608C6F4C608C6F4C608C630
:100A7300F4C622C3E7960809E7960809E79608092A
:100A8300E79622C3E09608A3E09608A3E09608A39E
:100A9300E0962275D0007581407518017519030021
:100AA3000204A9E0F608A3E0F608A3E0F608A3E031
:100AB300F622600C08C6C313C618C613C6D5E0F4E5
:100AC30022E6F008A3E6F008A3E6F008A3E6F02286
:100AD300CAC0E0E6F0A308DAFAD0E0FA22E0FAA30B
:100AE300E0FBA3E0FCA3E0FD22EAF0A3EBF0A3EC20
:100AF300F0A3EDF022E5C754F84401F5C7790122CC
:100B03002518F582E43519F58322C2AF75D69F0205
:100B13000000221208523FAD011208528EAF01129B
:100B23000852E1B00112085284B101120852CFB247
:100B330001120852EDB201120852D15D001208529F
:100B4300E35D00120852355E00120852965E0012F1
:100B53000852205F00120852C45F00120852186046
:100B630000120852316000120852576000120852F6
:100B7300926000120852D66000120852FD60001203
:100B830008524E6100120852FE6100120852B6620A
:100B9300001208527E63001208525B64001208526E
:100BA300E16400120852F06400120852FB64001260
:100BB30008520466001208521566001208528B662A
:100BC300001208521D67001208527567001208527E
:100BD3003B68001208526C6800120852B168001298
:100BE3000852BE6800120852526A00120852B56BCE
:100BF30000120852D16C001208523B6F00120852C7
:100C0300466F00120852506F001208525B6F0012B9
:100C13000852656F001208526F6F001208527A6F04
:100C230000120852856F00120852B66F0012085264
:100C3300DA6F00120852FE6F00120852637000123E
:100C43000852A77000120852C370001208523A717A
:100C530000120852727100120852BE71001208523B
:100C63001B7200120852FD730012085283740012A3
:100C73000852547500120852647800120852B97869
:100C830000120852E57800120852317A0012085215
:100C9300817A00120852D67A00120852D77B0012CA
:100CA30008526F7C00120852F17C00120852917DA9
:100CB300001208521C260012085255260012085230
:100CC3002F28001208526E2800120852B82800126A
:100CD30008525D2900120852BC2900120852F0295B
:100CE300001208525D2A001208527A2B0012085291
:100CF300822C00120852182D001208525F30001285
:100D03000852083100120852E431001208524532E9
:100D1300001208526233001208528C350012085236
:100D23004336001208524D36001208528036001224
:100D33000852473700120852E23700120852473868
:100D430000120852703800120852923800120852EA
:100D5300C13A00120852983B00120852DC3B0012C1
:100D63000852493C00120852043D00120852363D15
:100D7300001208527A3D00120852AD3D001208528B
:100D8300023E00120852573E00120852EB3E001278
:100D930008524D3F00120852B53F001208525E41FF
:100DA30000120852464200120852884300120852A9
:100DB300B64500120852764600120852A5480012A2
:100DC3000852484900120852864900120852324B11
:100DD30000120852464B00120852504B00120852A0
:100DE3007A4B00120852864B00120852A54B001290
:100DF30008525C4C001208529B4C00120852A54C3E
:100E030000120852594D00120852584E001208524F
:100E1300514F00120852EE4F001208529050001228
:100E23000852A75000120852DE5000120852FC501C
:100E33000012085240510012085265510012085224
:100E43004B5200120852B75200120852315300128B
:100E530008524054001208527F5500120852E155BF
:100E6300001208529B5600120852BE560012085236
:100E7300925700120852DD57001208521F580012F1
:100E83000852765800120852AD5800120852DB5827
:100E9300001208521459001208523959001208520C
:100EA300C15900120852E45B00120852435C00125D
:100EB3000852D75C00120852435D00120852975D36
:100EC300001208524FB5031208528EB5031208528E
:100ED30032B4011208528CB401120852E8B4011260
:100EE300085234B5011208524FB50112085280B5A9
:100EF300011208529DB501120852A9B501120852F8
:100F03001DB70112085236B7011208529DB70112DC
:100F13000852B0B701120852BEB70112085272B894
:100F23000112085256B9011208525CBA0112085252
:100F3300E2BA01120852ECBA0112085259BB01126B
:100F4300085270BB01120852A2BB01120852DBBB4C
:100F53000112085205BC0112085266BC0112085264
:100F630086BC01120852A4BC01120852EABC011249
:100F7300085210BE011208525DBE011208528CBE07
:100F83000112085202BF011208522ABF011208526D
:100F930063BF0112085271BF01120852C9BF011287
:100FA300085218C00112085257C00112085287C0D4
:100FB30001120852B3C001120852BEC001120852F6
:100FC300DCC0011208529EC101120852A8C10112CD
:100FD3000852E3C101120852F9C10112085202C2B8
:100FE3000112085257C2011208526BC20112085271
:100FF30079C3011208528CC301120852A1C3011212
:10100300085243C401120852C6C40112085284C5CF
:10101300011208528FC501120852B5C601120852B7
:10102300D1C60112085223C70112085262C7011226
:10103300085277C701120852B9C70112085206CAEB
:101043000112085284CA01120852F7CA0112085247
:1010530019CD0112085231CD0112085234CD0112BB
:10106300085240CD0112085254CD011208525CCDF2
:10107300011208528FCD011208523FCE01120852BD
:10108300B5CE0112085228CF01120852DCCF01124B
:10109300085291D001120852B0D00112085250D117
:1010A300011208525CD10112085287D10112085271
:1010B3008AD101120852F4D1011208521CD3011231
:1010C3000852F4D3011208527FD40112085298D562
:1010D3000112085255D6011208528ED60112085237
:1010E300BFD6011208525FD7011208528FD70112DF
:1010F30008526AD80112085203D9011208528ED934
:10110300011208523FDA01120852C1DA01120852E1
:10111300F3DA0112085234DB01120852A0C20212A0
:10112300085205C30212085242C30212085291C365
:1011330002120852A7C5021208528AC702120852A5
:10114300F4CA021208522FCB0212085251CB0212D8
:101153000852B4CB02120852E8CB021208520BCC4D
:101163000212085238CC0212085294CC02120852CE
:101173008AAC0212085208AD021208523EAD0212A6
:101183000852AAAD021208521DAF0212085239AF1B
:10119300021208527EAF021208520CB00212085219
:1011A30065B00212085292B102120852A4B202129E
:1011B300085201B3021208526DB302120852CEB3A1
:1011C300021208520FB402120852BCB4021208529F
:1011D300CEB502120852F9B50212085244B60212F1
:1011E30008528BB6021208521DB702120852D8B722
:1011F3000212085227A90312085238A903120852EF
:1012030089A903120852CEA90312085278AA03121D
:1012130008528DB103120852F3A5031208524BA7CB
:10122300031208524FB802120852F4B802120852BD
:1012330014B90212085234B90212085248B9021200
:101243000852A0B902120852D0B90212085251BB77
:1012530002120852F7BB02120852D9BC02120852FA
:101263002ABD021208526DBD02120852B0BD02120D
:10127300085216BE0212085237BE02120852C3BEEB
:1012830002120852F4BE0212085268BF0212085238
:1012930016C102120852F0C10212085232C20212DF
:1012A30008528CC20212085222A40312085243A409
:1012B3000312085279A503120852A3A50312085278
:1012C3000A95031208528495031208528F9503124C
:1012D3000852B095031208524DA00212085250A0B2
:1012E300021208520AA10212085235A10212085230
:1012F3007CA102120852A1A102120852C2A1021239
:101303000852F6A1021208522FA20212085258A341
:10131300021208528FA302120852AFA302120852FC
:101323004AA4021208520FA50212085246A502123D
:101333000852BBA6021208525EA70212085257A80F
:101343000212085280A802120852D4A802120852AC
:101353009AA902120852C8A9021208525DAB0212DE
:101363000852DEAB0212085211AC02120852E0CC52
:1013730002120852EACC0212085236CD0212085267
:10138300A4CD02120852C5CD02120852DCCD0212BE
:1013930008528CCE0212085220D10212085229D1CF
:1013A3000212085268A301120852A5D10212085270
:1013B3000CD2021208529DD202120852DFD202123C
:1013C300085229D30212085288D30212085219D4A0
:1013D3000212085258D40212085297D40212085229
:1013E300CCD402120852DED402120852F0D40212F4
:1013F30008520FD50212085218D50212085248ACEF
:10140300011208520ED60212085224F9021208528F
:10141300F7F90212085211FA0212085222FA0212C2
:10142300085237FC0212085256FC02120852AFFD52
:1014330002120852E5FD021208522EFE0212085251
:101443007EFF0212085269DB01120852A8DC011266
:101453000852E4DC01120852A3DE01120852CCDE6A
:10146300011208525FE101120852A3E1011208526E
:101473002CE301120852C4E3011208522CE40112B6
:101483000852CDE4011208520FE5011208524FE54C
:1014930001120852DAE6011208524AE80112085210
:1014A3006FEA011208529DEA01120852C4EA0112BE
:1014B3000852CDEA0112085228EB01120852BBEB85
:1014C30001120852D9EE011208525AEF01120852C2
:1014D300C1B60312085204B5031208524D8B03120E
:1014E3000852608B03120852FD8B03120852388C8A
:1014F30003120852538C03120852788C03120852B9
:10150300BD8C03120852EE8C031208521F8D031276
:101513000852A58E03120852F0AB0312085226ACF0
:101523000312085242AC0312085284AC031208524D
:1015330094AC0312085229AD03120852008003121F
:101543000852418003120852E380031208528A8131
:1015530003120852B581031208524B830312085237
:10156300C68303120852BE90021208521691021249
:101573000852C09102120852689202120852C59290
:10158300021208521E930212085232930212085298
:10159300FC9402120852779502120852A195021286
:1015A30008525E9702120852799702120852C8979E
:1015B30002120852DE9702120852EB9702120852E7
:1015C3001F9802120852359802120852BB98021251
:1015D3000852CA98021208522399021208527D999E
:1015E30002120852CB9902120852D59A02120852DB
:1015F300579D02120852F19D02120852339E0212A5
:101603000852C89E02120852E59E02120852E89E32
:1016130002120852EB9E021208525E9F02120852F7
:10162300799F02120852A59F02120852E09F0212EC
:101633000852E39F02120852F69F021208521DA09D
:101643000212085281B4031208528DB403120852D5
:10165300C7B403120852B7EF01120852E2EF0112A6
:101663000852AEF00112085233F1011208529CF1F4
:1016730001120852E8F10112085267F201120852EE
:10168300F9F20112085285F301120852C7F301124D
:10169300085233F801120852B3F901120852F2F951
:1016A30001120852BBFA011208526FFB01120852D1
:1016B3001FFD01120852ABFD0112085200800212F5
:1016C3000852BA80021208522C81021208523B813E
:1016D30002120852B58102120852248202120852E1
:1016E3002E8302120852578302120852F783021202
:1016F3000852458402120852B58402120852E98541
:1017030002120852C5860212085236870212085284
:10171300B38802120852758902120852108A021203
:1017230008526B8A02120852D68A02120852DA8BC6
:10173300021208529B8D021208523A8E021208526C
:10174300AC8E02120852698F02120852D897031204
:1017530008522C9803120852849803120852CF9807
:1017630003120852319903120852CA9903120852FC
:10177300329A031208523E9A03120852CCA1031262
:101783000852FDA103120852B7A2031208521DA367
:10179300031208528EA3031208523D8F03120852FC
:1017A300C9900312085280B20312085291B2031275
:1017B300085231B303120852447E00120852527E7B
:1017C30000120852D7B603120852EBB303120852A1
:1017D300FBB30312085216B40312085277B4031270
:1017E30008528BB00312085210B10312085274B19D
:1017F3000312085279AF031208529BAF0312085227
:1018030005B00312085210B00312085254B0031269
:10181300085273DF0212085281DF02120852C2DF3C
:1018230002120852E3DF021208526DE0021208525C
:101833008FE002120852FBE00212085216E1021274
:10184300085231E1021208523BE10212085245E10B
:101853000212085258E10212085271E102120852B0
:101863000DE202120852C9E20212085240E30212C8
:101873000852BAE30212085220E4021208524384C7
:1018830003120852518403120852CB8403120852E4
:10189300AF8503120852688703120852D9FF011259
:1018A3000852CAE50212085237E602120852F8E655
:1018B3000212085268E70212085271E80212085233
:1018C300E9E9021208524DEA02120852A2EA021290
:1018D3000852ABEA02120852BAEA02120852CDEADF
:1018E30002120852E3EA02120852ECEA0212085208
:1018F300FFEA0212085254EB0212085250ED021290
:10190300085282ED02120852A4ED02120852BDEDF4
:1019130002120852D6ED02120852E0EE02120852E9
:101923007BEF021208528FAA03120852B3AA0312C2
:101933000852CCAA03120852FFAA0312085230AB72
:10194300031208525EAB03120852C0AB03120852D3
:10195300CFAB03120852D9AB03120852E6AB031202
:101963000852799A031208529F9A03120852DC9A7A
:1019730003120852EB9A031208520A9B03120852ED
:10198300729B031208527B9B03120852DA9B0312C9
:101993000852FE9B03120852BD9C03120852CA9CB4
:1019A30003120852DB9C03120852DCB503120852DF
:1019B300F9B503120852F2EF0212085250F1021263
:1019C30008525DF10212085270F1021208528FF1AF
:1019D30002120852A5F102120852B9F1021208527A
:1019E3002EF20212085293F20212085243F3021229
:1019F300085218F40212085228F40212085237F45B
:101A03000212085252B30312085276B30312085259
:101A13009EB303120852C6B303120852099D031260
:101A23000852309D03120852519D03120852B69D6D
:101A3300031208526F9F03120852889F0312085221
:101A4300949F03120852A89F03120852C69F0312C1
:101A53000852D09F03120852DA9F03120852ED9FD7
:101A63000312085240A00312085279A0031208522D
:101A7300A8A003120852F6A00312085245A10312AC
:101A8300085260A1031208526AA1031208527BA1F3
:101A930003120852C1A10312085288FF011208520F
:101AA30037D60212085261D6021208527DD60212AC
:101AB300085290D602120852A6D60212085203D731
:101AC3000212085236D70212085272DB021208526F
:101AD30098DC02120852CBDC0212085217DD021204
:101AE300085243DE021208526BDE0212085280DEF5
:101AF3000212085290DE02120852D4DE0212085279
:101B030035DF0212085245DF0212085233AD0312C9
:101B130008524EAD0312085277AD0312085291AD2D
:101B230003120852B6AD03120852D5AD0312085280
:101B3300EDAD031208521BAE0312085235AE031269
:101B4300085298B503120852CD8703120852D4875E
:101B530003120852E0880312085210890312085234
:101B63003689031208525989031208527B890312DA
:101B73000852B589031208521B8A03120852548A69
:101B830003120852A08A03120852CD8A0312085284
:101B9300ED8A031208529AA703120852ACA7031244
:101BA300085297A80312085224A90312085266AEDA
:101BB30003120852D8AE0312085216AF031208528A
:101BC30057AF03120852F7910312085213920312EC
:101BD30008526292031208527E9203120852AF9285
:101BE30003120852BF9203120852AB930312085216
:101BF300B59303120852C29303120852D2940312EC
:101C03000852E69403120852EF940312085270F438
:101C130002120852B5F802120852BAF80212085218
:101C2300E1FF021208524EB60312085218B603120D
:101C330008527BB603120852A3B603120852BCA281
:101C4300011208520DA101120852C89E0112085236
:101C53004F9E01120852F69D011208528A9D0112ED
:101C63000852619D01120852549B01120852209B95
:101C730001120852ED9A01120852D19A0112085228
:101C8300F79901120852AF9901120852E497011211
:101C9300085264970112085261970112085268961C
:101CA3000112085236960112085273950112085216
:101CB3009E93011208522F930112085201930112AD
:101CC30008522CAC01120852D8AB0112085290AB47
:101CD30001120852CEAA0112085241AA0112085257
:101CE300FE9201120852EB920112085283920112E2
:101CF300085272920112085234AA011208525391E7
:101D0300011208521D9101120852E090011208526B
:101D130081900112085242A701120852CED5021235
:101D230008525090011208520B8D01120852FC8B7D
:101D3300011208528B8B01120852508B0112085268
:101D43001B8B011208520F8B011208526F8A01126A
:101D53000852B68901120852898701120852158563
:101D630001120852D384011208529E8301120852B1
:101D7300538301120852858201120852DC81011239
:101D83000852788101120852B2810112085294A4B8
:101D9300011208527CD10200000080FBE4730000B2
:101DA3000000000000000000000000000000101010
:101DB30010101010000030300000001428500000F4
:101DC30000000000000000000000002828FC284854
:101DD30050FC505000000000103854543018145474
:101DE3005438100000000044A8A8B0541A2A2A440A
:101DF300000000000020505060ACA898927C0000C6
:101E030000606020C000000000000000000000042B
:101E130008081010101010100808040000004020DB
:101E2300100804081020400000000000001010D625
:101E33003838D61010000000000000101010FE10FB
:101E4300101000000000000000000000000000006F
:101E5300606020C0000000000000FC0000000000E3
:101E630000000000000000000000000060600000AF
:101E73000002040404080810102020204000000081
:101E830000304884848484844830000000000010BB
:101E9300701010101010107C000000000038444433
:101EA30004081020447C0000000000384444180457
:101EB3000444443800000000080818284848887C77
:101EC300081C00000000007C40407844044444386F
:101ED30000000000003C4480B8C48484847800007F
:101EE3000000007C4448081010101010000000008F
:101EF3000078848448788484847800000000007823
:101F03008484848C740488F0000000000000003096
:101F1300300000003030000000000000000010001E
:101F230000000010102000000408102040201008BA
:101F3300040000000000000000FC0000FC000000A2
:101F4300000000004020100804081020400000009A
:101F530000007884848408101000303000000000F2
:101F63000038449AAAAAAAB4423C00000000001018
:101F730010282828384444EE0000000000F84444A8
:101F83007844444444F800000000003C44848080CA
:101F9300808044380000000000F048444444444436
:101FA30048F00000000000FC44404878484044FCEE
:101FB3000000000000FC42404878484040E0000038
:101FC3000000003C448480808E844438000000007C
:101FD30000EE4444447C444444EE00000000007C92
:101FE300101010101010107C00000000007C101066
:101FF30010101010101090E0000000EE44485070D4
:10200300484844EE0000000000E0404040404040AB
:1020130044FC0000000000EE6C6C6C54545454D625
:102023000000000000EE64645454544C4CE400007F
:102033000000003048848484848448300000000019
:1020430000F844444478404040E000000000003081
:102053004884848484B448380C00000000F8444465
:102063007850484844E600000000003C44402018F3
:10207300040444780000000000FE921010101010B9
:1020830010380000000000EE444444444444443803
:102093000000000000EE4444282828281010000007
:1020A300000000D6545454546C2828280000000023
:1020B30000EE44282810282844EE0000000000EE1B
:1020C300442828101010103800000000007C8808F5
:1020D3001020204044FC0000001C101010101010B1
:1020E300101010101C0000701010101010101010A1
:1020F300101070000070101010101010101010103D
:102103007000001028000000000000000000000024
:1021130000000000000000000000000000FE00605E
:102123006020C0000000000000000000000000006C
:10213300000038441C24443E0000000000C040401E
:1021430078444444447800000000000000003C440C
:102153004040443800000000000C04043C44444464
:10216300443E000000000000000038447C40443836
:1021730000000000001C2420F8202020207800000C
:102183000000000000003C4848304078443800001C
:1021930000C040405864444444EE00000000001076
:1021A300000070101010107C0000000000080000F8
:1021B3003808080808080870000000C040405C4860
:1021C300507048EC00000000007010101010101048
:1021D300107C0000000000000000F854545454D652
:1021E3000000000000000000D864444444EE0000F6
:1021F300000000000000384444444438000000005C
:1022030000000000F8444444447840E0000000002B
:1022130000003C444444443C040E00000000000021
:10222300EC30202020F800000000000000003C44B7
:102233003008447800000000000010107C101010DB
:10224300100C0000000000000000CC444444443E55
:102253000000000000000000EE44282828100000C1
:10226300000000000000D654545428280000000049
:1022730000000000DC48303048EC000000000000A3
:102283000000EE442828101020E0000000000000A9
:102293007C481010247C0000101010101010101037
:1022A3001010101010100001363601010001020158
:1022B30000010301000104010606050200000701F5
:1022C30000340801000F090401010D0100FF0E088D
:1022D300000017020000190100FF1A0100011B0191
:1022E30000FE1C0100081D0200001F010001200167
:1022F3000001210200002301000F24020000260137
:10230300000127010008280200FF2A0100072B0112
:1023130002402C0100002D0100012E0100012F01BC
:1023230000FF30010B1C310800003A0100083B019B
:10233300000F2F010000030271023001600211023D
:1023430070020102020202028002100261023A00DC
:10235300410063027302720262024302000213022B
:10236300380000020002040212020002000200020E
:10237300000204020402370037003C024402000258
:1023830039000002000265020002350281020002E8
:102393000502820283020002030071003001600023
:1023A300110070003102200350048000100061000E
:1023B3000000140063007300720062004300000019
:1023C30013000600000000000400120000000000DB
:1023D3000000000004000400370037003C02440002
:1023E30000000000000000006500000035008100CF
:1023F30000000500000083000000010371030103D6
:102403000103010301030103220302030103100378
:10241300000300030003000300030003000342035F
:10242300000324030603000300030403120325032C
:10243300230325032303040304030003000300030E
:102443004403000300032303000365032100350352
:10245300810300030503000300030003010171016D
:10246300010101011101010131010101010180019A
:10247300100161013B0014006301730172016201E9
:1024830043010001130106013D013500040112015E
:1024930000010001000100010401040133013301C3
:1024A3003C014401320136000001000165010001D5
:1024B300350081010001050182018301000136001D
:1024C3000100060000000F000000000000000000F3
:1024D3000000000003FFFF00000403FFFF0000FFF4
:1024E300FF0FF4010005C4040320000100030B00E7
:1024F3000000000000000003010F0100F8160200B5
:102503006E160300741604007A1605008016060082
:102513008C161100A4161400AA1615009E16FFFFB0
:1025230000006C0F9C0F720F780F960F8A0F840FA9
:10253300A20FA80FAE0FBA0F7E0F660F600F03EA4C
:10254300F5E5D5D5C5B5A5959585857575656555A8
:10255300554545353525251515050A380D02020D56
:1025630005140D07080D0CE40C0DF60CFF0000001C
:10257300160F00000B150B020002220F320000069B
:10258300561068106E10360F7410300F3C0FB610D3
:10259300D410DA10BC10C810C21000034948424DD1
:1025A30018172505020C0E020B040B0A0708000F6F
:1025B300000119161816161523030000383C3E3681
:1025C3003B3B352B432C303016181920231A1C1E85
:1025D30030303017181921301B1D1F30900FB40FE6
:1025E300CE10C00FC60FAA107A1080108C10861060
:1025F30002040201010101090200000000000000C1
:10260300BE040A0E00150004002800050C0A030985
:1026130008FF1E1E0F0404100C74F7120386E990C2
:1026230003B0F0900365E4F0121B969003B5E4F059
:10263300A3F09003B1F0A3F0120E70121B9C900351
:1026430034E4F0A3F090261793FA7902121BFC02EC
:1026530052B274F2120386EAFEEBFF548060699073
:1026630003B0E0F91213B08A088B09EA4509604FF9
:102673007C0080010CEC75F003A4F8A9F0745D28CC
:10268300F582742539F583E493F4602CE493F8859B
:1026930008828B83E06870DCAA08EC75F003A4F869
:1026A300745E28F582742539F583E493C0E07401E0
:1026B30093F583D082121D9FAA08AB09121D94EED5
:1026C300FAEF6480FB022822EF5420601D120D9262
:1026D3008A088B09EA4509600A120CF6AA08AB09B5
:1026E300121D94EEFAEF642080DAEEA2E0501A9005
:1026F300036AE0640F700B7900120CC0E9600312E7
:102703002825EE6401FAEF80BB542070030227F002
:10271300750C00123CF78B09EA450970107C027DA9
:10272300007A207B009003B0E0F91214FA7C007960
:10273300047A007B00120D6E8A088B0980188508C5
:1027430082850983A3A3A3A3A3A3A3A3A37401F0D3
:10275300850A08850B09E5084509606D7C00790445
:10276300AA08AB09120D6E8A0A8B0B750C01E508DA
:102773002404F8E509123A9B24FFF0A3E034FF1286
:102783005D8E70CC850882850983A3A3A3A3A3A32D
:10279300A3A3A3A3E0640170A5850882850983A38D
:1027A300A3A3A3A3A3E0540470948508828509839B
:1027B300A3A3A3A3A3A3A3A3A37406F07AB7850833
:1027C300828509831229518087120D3E7C0079018D
:1027D3007A007B00120D6E8B09EA45097009E50C3E
:1027E30070057A20124C51EE6420022708EF540240
:1027F300600B120E6AEEFAEF64020226C7EF54046E
:102803006019124DE8124D08790190036312506C60
:10281300120C06EEFAEF64040226C77A007B00026C
:102823002A58900CEF1230EF120CD822C082C083CA
:1028330074EA120931851882851983AA82AB8379D8
:102843004B121BD27408120B037402F07409120B9F
:1028530003AA82AB837950121BD27413120B03E4C5
:1028630012523B121BF0741602421574F7120386C0
:1028730074E1120931EAFEEBFFEE4F6033851882F3
:10288300851983AC82AD83120DB67406120B03E077
:10289300601E7417120B03E0FD7401120B03E0FCBE
:1028A300EEFAEFFB7900120B2EE9600479A48002A3
:1028B30079000252AD74F6120386EAFEEBFF8E82B4
:1028C3008F83A3A3A3A3A3A3E05440601B12572A9F
:1028D300122A1F60067AFF7BFF801A8E828F831273
:1028E3003EA1FAA3E0FB8003120DDA74FE6A7003C3
:1028F30074FF6B604112572A124C95120E2EE98E0B
:10290300828F83600612294AE4800512294A7401E2
:10291300F07CC67D0C8E828F8312506C121BF6E9FD
:10292300F5087015EE4F60097901EEFAEFFB120D11
:102933004AA908024CC67508CDAA088E828F831255
:102943002951E960DF80EAE0240D12437022E0247C
:102953000C124370E0F9120CD22274F6120386E9CA
:10296300FEEAFF7A0F7B0012139EEA4B60198A82FC
:102973008B83740CF0EEA3A3F0EF8A828B83A3F016
:10298300124CF17900802FEEF9120D748A088B092D
:10299300A808A909E849601C88828983A3A3A3A383
:1029A300A3A3A3A3A374061259B5E0F9120C8AEEEC
:1029B300F9120D507910024CC6C082C08390036A8D
:1029C300E0640F7014EA4B6010900365E0640860E4
:1029D30005E0640470031229DF02423FEAFCEBFDC9
:1029E3007A017B009003B0E0F91214F422C082C094
:1029F300837900EA241DF582EB123E9E24FD600BD1
:102A030014600824FD600424FD70010902423F8E16
:102A1300828F83A3A3A3A3A3A3A3A3A3122A2322E3
:102A2300123EE6FB120E2EE9228E828F83A3A3A30E
:102A3300A3A3A3A3A3A3122A236402228E828F83B8
:102A4300A3A3A3A3A3A3A3A3A3124236900356E075
:102A530068221208B77F060205A174F41203867474
:102A6300FD1209318A088B098A828B83A3A3E0F9BB
:102A7300120D748A0A8B0BAE0AAF0BEE4F70030272
:102A83002B64850882850983A3E064F1603085089F
:102A930082850983A3E064CD602485088285098348
:102AA300A3E0641A6018850882850983A3E064E9BA
:102AB300600C850882850983A3E064E170087900CE
:102AC300120D4AE9706C850882850983A3E0C0E092
:102AD3007402120B03D0E012421AEEF0A3EF123588
:102AE30045851882851983AA82AB837005120BEE84
:102AF3008003120E167402120B03E064E970338E26
:102B0300828F83122B70750A01780A120873750A73
:102B1300E9780A120873E508240CF582E5091230F6
:102B230037123522FCA3E0FD8A828B8312353C12D7
:102B330008B78E828F83A3A3A3A3A3A3A3A3A3E016
:102B4300640270108E828F83A3A3A3A3A3A3A3A362
:102B5300A37406F0850882850983A3A3E0F9120D07
:102B630050120D3E900CF31228280230F4E0F8A323
:102B7300E0F9E8FAE9FB2274F4120386EAFEEBFFBC
:102B83007508008E828F83A3A3A3A3A3E06042757D
:102B930008088E828F83A3A3A3A3A3A3A3A3124195
:102BA300498B0BEA450B601075082C8E828F83A32B
:102BB300A3A3A3A3E0D2E0F08E828F83A3A3A3A356
:102BC300A3E0540364016003022C63430811022C45
:102BD30063EE24181231016033EE241A12310170AE
:102BE3000F122A3F7003A3E0697075750822807085
:102BF300EE241BF582EF122C68241AF582EF1235AE
:102C03004DEE241912575E120C788054122A2C7040
:102C130003750801122A3F7003A3E0697006E508F3
:102C2300D2E1F508E50860158E828F83A3A3E070D7
:102C330006E508D2E58004E508D2E6F508122A1273
:102C430064017006E508D2E0F5088E828F83A3A3A2
:102C5300E0600D122C7664016006E508C2E0F50819
:102C6300A9080230F9123E8C122C6F22E0FCA3E07B
:102C7300FDEE22123E86123EBEF9120E1CE922C060
:102C830082C08379018A828B83A3A3E0C394024029
:102C930001198A828B83A3A3A3A3E0C394024002F6
:102CA30079008A828B83A3A3A3A3A3A3A3A3A3E0F3
:102CB30064F87003A3E0F460458A828B83A3A3A323
:102CC300A3A3A3A3A3A3E064F97003A3E0F4602E7A
:102CD3008A828B83A3A3A3A3A3A3A3A3A3E064FADE
:102CE3007003A3E0F460178A828B83A3A3A3A3A337
:102CF300A3A3A3A3E064FB7003A3E0F47002790031
:102D03008A828B83A3A3A3E0F8900353E068600255
:102D1300790002423F74F012038674DE120931EA2D
:102D2300FEEBFF8E828F83A3A3A3A3E0600E900C20
:102D3300F1124CBD6006900CF11228287403120B9B
:102D430003AC82AD838E828F83A3A3A3124D3F1264
:102D53005578E9600F7403120B03AA82AB83120C3C
:102D6300F0E970087901121BA802302CEE241B1223
:102D73003E917410120B03124D087409120B03E0F9
:102D83006021741A120B03E0FD7404120B03E0FCC0
:102D93008E828F8312506A7901120B2EE9600479B7
:102DA3000280C37403120B03AA82AB83120CEAE9F9
:102DB300F50A7409120B03E0702A90034DE06024B6
:102DC3007422550A6422601C7442550A644270CF0F
:102DD3007420120B0312304A600A7420120B031280
:102DE300304370BBE9A2E650417403120B03AA827D
:102DF300AB83120CDEE97003022D677420120B0300
:102E0300123EA16403700F7420120B03A3124CAF84
:102E1300A3E0640D60147403120B03AA82AB831244
:102E23000E40E96401700302302CEE242C1230347E
:102E33001233587003A3E069701C750800780812F8
:102E430008737808120873EE242E12575E1230505E
:102E530012353C1208B77409120B03E07003022FFA
:102E63000912305012506C120E948A088B09EA45ED
:102E7300097003022FA67404120B03E0F88E828FED
:102E830083A3A3E028F8A3E03400F9E8240D12306B
:102E93003B8A828B83A3A3A3E068601CE88A828BAE
:102EA30083A3A3A3F0908136120AE08508828509E3
:102EB30083A3A3A3A3120AEC7904E9120B0312550B
:102EC300552AF8A3E034008882F583A3AA82AB8352
:102ED30012138C8A0C8B0D8C0E8D0F85088285093D
:102EE30083A3A3A3A3780C12080B400302302C90F6
:102EF300816A780C1209C0850882850983A3A3A37C
:102F0300A3780C120AC4900365E064046008E064CB
:102F130009600302302CE50AA2E54003022FE4EE28
:102F2300242E123101851882851983F0EE242F1285
:102F33003101C0E07401120B03D0E0F0EE24301233
:102F43003101C0E07402120B03D0E0F07414120BD1
:102F530003E064017027740E120B03123E97EE24F4
:102F630012123101687003A3E0697011740C120B23
:102F730003122A3970077414120B03E4F0EE2424AD
:102F83001230341206A27404120B03AC82AD8374A4
:102F930007120B03AA82AB83120BF474041208B753
:102FA30002302C9003AAE064016003022F0974200D
:102FB300120B0312304A7009E50AA2E65003022FEE
:102FC300097410120B03E0F47003A3E0F4605AEEEB
:102FD300FCEFFD7403120B03AA82AB83120CFC807B
:102FE30048A2E650447420120B0312507B701A74EB
:102FF3001A120B03E0640270307403120B03AA82EB
:10300300AB837900120E0A80207420120B03123056
:10301300437016741A120B03E06404700C740312E9
:103023000B03AA82AB83120E047422025427EE24EC
:103033000BF582EF123E8C22F582E9124D21F82224
:1030430012573CE0640722123EBE640622EE242A95
:10305300123E89122C6F2412123E892274F4120339
:1030630086EAFEEBFF8C088D099005C4E0600F1221
:103073002A3F7003A3E0697005120C66804F790044
:1030830012505F120C968A828B83E58245836035EA
:10309300A3A3A3A3A3A3E05418602AE508241BF564
:1030A30082E5091230371206A6123735123037126D
:1030B30006A6EE241812575E1230D2120CA874041E
:1030C3001208B7800879001230D2120C6C80278E58
:1030D300828F83A3A3A3A3A3A3A3A3A3122C6F24CD
:1030E3000BF582EF1230EB223400F583123EE6FB40
:1030F3002274031208B77F040205A1EE2417F58298
:10310300EF124D212274F712038674F7120931EA84
:10311300FEEBFF900365E06403600DE0640160086B
:10312300E0640960030231D28E828F83A3E0707E54
:103133007C007D007A027B00121BA2EE2402FAEFD0
:10314300123AA2123E97900356124D087953121B5E
:10315300D879001231D7E06409600312356A851803
:10316300828519837401124CDE9003657404F07434
:1031730001120B03AA82AB83794A121BD274011288
:103183000B03AC82AD837A5B7B03121BC0900356A7
:1031930012556E7A03123574900350E0A2E3500483
:1031A300D2F08002C2F0124CCB122825801E8E82F0
:1031B3008F83A3AE82AF83FC7D007A037B10121B47
:1031C300A28E828F83E0F91231D7E4F0120D2674B8
:1031D300090252AF9003631230EF120C069003659D
:1031E30022C082C083900334124CBD701F900365CC
:1031F300E014600924FC600A14600C800F90033C07
:103203008032900338802D90033A8028E849600883
:1032130090033512351C700C8A828B83A3E0F9125C
:103223000BFA801B9003351237D17005120E5E80A6
:103233000E9003D2124CBD6006124CAF121D9F02BA
:10324300423F74F412038674FB1209318A088B0916
:103253007A0F7B0012139E8A0A8B0BAE0AAF0BEE1A
:103263004F700302334C8E828F831252397950127E
:103273001BD2850882850983A3E06003023334905F
:103283000363E0F47003A3E0F46034900363E06449
:10329300FE7003A3E0F46027851882851983123337
:1032A300587003A3E0696017850882850983A374B6
:1032B300EA1235527A637B037950121BD8807285E8
:1032C300188285198312571D124D087A567B03798C
:1032D30053121BD2900356124D39124D087A597B63
:1032E30003794B121BD27A587B0379E1121BD290DC
:1032F300036AE0C3940F5021900358E0C0E07402C6
:10330300120B03D0E0F07404120B037401F00412E7
:103313000B03AA82AB83121BEA750A00780A120810
:1033230073780A120873900D19E0F91235331208F5
:10333300B7850882850983123351A3F0900365741E
:1033430003F0EEFAEFFB124CF174050230F6A3E042
:103353008E828F8322125721E068221243772274D0
:10336300F512038674D81209318A088B098A828B75
:1033730083A3A3A3123EC37415120B03AC82AD83C4
:103383008A828B83A3A3A3A3A3A3A3A3123522FAA5
:10339300A3E0FB120D2C7415120B03E0706B850870
:1033A30082850983A3A3A3A3A3A3A3A3E0C3940B2D
:1033B30040578E828F83A3A3A3A3A3A3A3A3E064F5
:1033C300027046EE240B123101F4703D900365E068
:1033D3006402603AE064066035900334124CBD60C9
:1033E3000512351C604F900365E064086005E064D6
:1033F3000470167417120B03E0F9741C120B03AC60
:1034030082AD8312505F120D327428025C3B90032D
:1034130034124CBD701F75080078081208737808C1
:10342300120873EE2410123034125776123B8A12AC
:10343300353C1208B78E828F83124FDB123AB412D7
:103443003E977402120B03124D08EE240D12310144
:10345300C0E07404120B03D0E0123545F508A3E075
:10346300F509740F7808120AB57405120B03E50801
:10347300F07419120B03E0C0E07406120B03D0E0E2
:10348300F0741B120B03E0C0E07407120B03D0E0CF
:10349300F07416120B03E0C0E07409120B03D0E0C2
:1034A300F07417120B03E0C0E07408120B03D0E0B2
:1034B300F0EE2410123101C0E0740A120B03D0E0C5
:1034C300F0741A120B03E0C0E0740B120B03D0E08C
:1034D300F07427120B03E0C0E0740C120B03D0E06E
:1034E300F0741C120B03A982AA8389088A09750A3E
:1034F30000780812086B7C087D007410120B03AA75
:1035030082AB8312486C1208B7851882851983AA87
:1035130082AB83120C0002340C1237D7640122E011
:10352300F98A828B83A3A3A3A3A3A3A3A3A3E022C8
:103533009003631255729003591230EF120DEC741D
:103543000222F0EE240B124D1E22124D21FA22F01C
:103553007A567B03795312355D22121BD87A597B35
:1035630003794B121BD8229003631230EF120E8E95
:10357300227B00121BA29003591255727A047B001E
:10358300121BA222F01257812274F212038674F8DE
:10359300120931EAFEEBFF8C0A8D0B890C85188228
:1035A300851983AC82AD8375838175821374081288
:1035B30007CBF50DEEFCEFFD851882851983AA82F2
:1035C300AB83124F3C7003750D019003B1803BEE4A
:1035D300FCEFFDE508240BFAE5093400124F3B60CC
:1035E3001E850882850983A3A3E0650C70118508F5
:1035F30082850983E0650A7004A3E0650B6038E502
:10360300082414F582E509123037123AACE508456F
:10361300096024E50DA2E040B6850882850983E0B0
:10362300650A7004A3E0650B70D58508828509835C
:10363300A3A3E0650C70C8AA08AB097408022A5555
:10364300C082C0839003B102423C74F71203869098
:1036530003B1123EE68012EA2414F582EB123037EE
:10366300123EC3121440EEFAEFFBEA4B70E99003EB
:10367300B1E4F0A3F00252B27F070205A174F11284
:103683000386EAFEEBFF890A8C088D098E828F83FD
:10369300E08C828D83124153AE82AF83E012492CBA
:1036A30012489DC412492C12373EE054038C828D7C
:1036B3008312489BA2E2E4338C828D8312489A13CF
:1036C3001313541F12492C124899A2E7E4338C8236
:1036D3008D83A3A3A3A312373E8E0C8F0D750E000B
:1036E300780C12086B7C087D00E50824071254E16E
:1036F3001208B712554C8E0C8F0D780C12086B7C88
:10370300037D00E508240F1254E11208B7E50AC34C
:10371300940F40148E828F83A3A3A3E0C0E01237DB
:1037230035123037D0E080061237351259A9F0022E
:10373300367BE5082412F582E50922A3A31241573B
:103743000EAF832274F412038674F9120931EAFE70
:10375300EBFF8908900334124CBD600E1237D17011
:1037630009EEFAEFFB120E58805F900363E06E7070
:1037730003A3E06F70537401650860097A777B03D4
:10378300124F3C70447A007B02123CFB8B0BEA45E0
:103793000B7036900366120AE0851882851983122E
:1037A3000AEC90036CE0C0E07404120B03D0E0F069
:1037B3007405120B037401F07406120B03125239D1
:1037C300120BCAE9609B120BD074070230F6123752
:1037D300D764022212573DA3A3A3A3A3A3E0227499
:1037E300F51203868A088B098A828B83A3AE82AF84
:1037F30083E0F9120C1E8E828F83E064EB600C85EC
:103803000882850983A3E064E1700985088285093C
:1038130083A3E4F0122825750A01780A1208738538
:103823000882850983A3E0F50878081208737900F4
:103833001235331208B7120D3E025C3EEAF0A3EBD9
:10384300F002423F74F61203869003B4E0701B7CCF
:103853000079017A007B00120D6EEA4B600C8A82BC
:103863008B83124CBD6003120CCC024CC6C082C0C9
:1038730083123CE3401079FF120D68E9F890261B90
:10388300E493C398500479018002790002423F74A3
:10389300F01203868A088B09890B750C008A828BC8
:1038A30083A3A3A3A3A3A3A3A3E0F9120D748A0E76
:1038B3008B0FAE0EAF0F750A01EE4F600302397026
:1038C300850882850983A3A3A3A3A3A312556E85A9
:1038D3000882850983A3A3A3A3A3A3A312466C12FF
:1038E300506C120D5C8A0C8B0DAE0CAF0DEE4F704D
:1038F30003023A938E828F83A3A3A3A3E4F0A3F0DE
:10390300E508240B123A9FE0C0E0123031D0E0F01A
:10391300120E34EE240CF582EF124C91E508240EBE
:10392300F582E509123E94EE240EF582EF124D0561
:10393300750C01EE2406F8EF123A9B547FF0A3E0D6
:1039430054FC1257D3E0540460030239F6900CF789
:1039530012465D74077808120A328E828F83A3A3FE
:10396300A3A3A3A3E04508F0A3E04509F08E828F4B
:1039730083A3A3A3A3123AAA74077808120AB5E58E
:10398300085407F508E50B607A8E828F83A3A3A3FF
:10399300A3A3A3A3A3A3740212489E240D12436CF2
:1039A300E0A2E2500B900351124D39A3A3124D082C
:1039B300E5087003023A68EE2406F8EF3400F9E8EC
:1039C300FAE9FB8A828B83E0547FFCA3E054FCFD7D
:1039D300E50824FFF508E434FFF5097407780812B5
:1039E3000A32EC4508F8ED4509F98A828B83124DBA
:1039F3000880728E828F83A3A3A3A3A3A3E0448032
:103A030002396FE5087005750A0080598E828F832D
:103A1300A3A3A3A3A3A3E054206012121398EA5410
:103A23007F245F8E828F83A3A3A3A380238E828FA1
:103A330083A3A3A3A3A3A3E05410600A121398EAD9
:103A4300540F240A80DD8E828F83A3A3A3A3740162
:103A5300F0A3E4123AB47404123CF28B09EA450968
:103A63007003124C84E50CA2E050288E828F83A34E
:103A7300A3A3A312529FF9EEFAEFFB120D62E960C2
:103A830012124CB36003123E7CEEFAEFFB121440A9
:103A9300750A00A90A02542A124DFC22FAE50934D8
:103AA30000FB8A828B8322A3A3E0F508A3E0F50938
:103AB30022123AB8221254FDA3A3A3A3A32274F49F
:103AC30012038674F71209317E00120D74EA4B70EB
:103AD30003023B838A828B83A3A3A3A3A3A3A3A3EE
:103AE300A3E064066003023B838A828B83A3A3A3C0
:103AF300A3A3A3A3E0FF8A828B8312437FE0C0E0EA
:103B03007408120B03D0E0123EB7124F42124D0855
:103B1300120D86EF54086066851882851983125545
:103B23006E7A007B00120D568B0BEA450B704F909B
:103B33000363123FA7121C027C007D007A007B0006
:103B430080288E828F83123EA1F47003A3E0F46079
:103B53002D900363123B8A12506C1218F6E9641A13
:103B6300601C7C007D00EEFAEFFB120D568A0A8B77
:103B73000BAE0AAF0BEE4F70C97900121C087E0121
:103B8300EEF974090230F6123B8E22E0FCA3E0FD4D
:103B93008E828F8322C082C083EA4B70059003B567
:103BA30080068A828B83A3A3123DA760258A828B1A
:103BB30083A3A3A3A3A3A3A3E0540860E5EC4D60F0
:103BC300158A828B83123EA16C7003A3E06D70D2C1
:103BD30080047A007B0002423F74F2120386EAFEFD
:103BE300EBFF890A8C088D097A107B0012143AEADC
:103BF3004B603F8A828B83A3A3A3A3A3A3A3A3A303
:103C0300E4123EA5A3E50A125743A3123C3F8A825E
:103C13008B83A3A3A3A3E4F0A3123EB1A3F0125595
:103C2300D7EA240CF582EB124143123C38A3A3F0EC
:103C3300A3F0022A58A3F08A828B8322A3A3E50868
:103C4300F0A3E509F02274F4120386EAFEEBFF8980
:103C5300088C0A8D0BEE4F6055740165087014795A
:103C630001120D68E9F8902613E493C398500F7975
:103C730011806A74046508702F123CE340F18E8250
:103C83008F83A3A3A3A3A3A3A3A3A3E508124153D1
:103C9300A3125CC88E828F83A3A3E4F0A3F09003E6
:103CA300B5124CBD6021800D7402650860D079C1E6
:103CB300802BE0F8A3124D32A3A3123DA78882897B
:103CC30083A3A370ED80039003B5EEF0A3EF123C42
:103CD300F28B0BEA450B7003124C8479000230F926
:103CE3007904120D68E9F890260EE493C39822F044
:103CF300123CF7227A207B009003B0E0F9121506FC
:103D030022C082C083E9F879009003B5801D8A82BE
:103D13008B83A3A3A3A3A3A3A3A3A3E068600574B6
:103D2300FF687001098A828B83A3A3123DA770DE0B
:103D330002423F74F7120386EA4B70059003B58085
:103D4300068A828B83A3A3123DA760248A828B8376
:103D5300A3A3A3A3A3A3A3A3A3E06970E4EC6014A8
:103D63008A828B83E0240D12555FA2E240D3800444
:103D73007A007B000252B2C082C0839003B58006F2
:103D83008A828B83A3A3123DA760128A828B83A3AB
:103D9300A3A3A3A3A3A3A3E06970E580047A007B94
:103DA3000002423F1230EFEA4B2274F21203868A7A
:103DB3000A8B0B8C0C8D0D750800750900EA450BF9
:103DC300602E9003B580068E828F83A3A3123DFAE3
:103DD300601EAC0CAD0DEEFAEFFB850A82850B83FA
:103DE300121D9FE9640170DFEEF8EFF98808890975
:103DF300AA08AB09022A58E0FEA3E0FFEE4F2274A3
:103E0300F71203869003B5123E977C007D00800D68
:103E1300E8FCE9FD88828983A3A3123E97E8496001
:103E230030EA687002EB6970E79003B512506CE8F2
:103E33006A7002E96B88828983A3A37008123E9794
:103E43009003B58009123E978C828D83A3A3124DF4
:103E5300080252B274F7120386EAFEEBFFEE4F60DC
:103E630015120D80123EC9124CB36003123E7CEE54
:103E7300FAEFFB1214400252B2EE240C123E8912E6
:103E83003EDE22EE241DF582EF3400F58322F58217
:103E9300EF123E8C12423622F582EF123E8C123E16
:103EA300BE22123EA92212574BA3A3A3A322123E62
:103EB300A9A3A322123C39123EBE22125736E02296
:103EC300E0FEA3E0FF228E828F83E0241C12437066
:103ED300123EDE8E828F83123EDE22123EE6FB12FC
:103EE300144022E0FAA3E022C082C083EAFCEBFD87
:103EF300EC4D700479058044EC24FBF582ED34FF2E
:103F0300124CBB7007123F42E0F46005121D94800F
:103F1300E39003B0E0C0E0123F42D0E0F0902610FF
:103F2300E493F97AB77B031213CEE96401700B7A39
:103F3300007B20124C8879008002790402423FEC16
:103F430024FFF582ED34FFF5832274F4120386A275
:103F5300AFE433F508C2AF9003B7123DFA6038EE11
:103F630024FBF582EF34FF124CBB7A007B209003D5
:103F7300B06005124C8B8005E0F91213DAE4F50A00
:103F8300F50B780A12086FEEFCEFFD7AB77B03128C
:103F930013C874021208B7E508A2E092AFEEFAEF75
:103FA300FB0230F9125572851882851983AA82ABF8
:103FB300832274F212038674FC120931EAFEEBFFCA
:103FC300750AFE750BFF120D44E960057911024174
:103FD30038EE24151231016037900D0BE0C43354D1
:103FE300E0F8E0333354FC48C0E0EE2415123034DB
:103FF300D0E01241531241498B09EA45096011751A
:104003000AFFEE240F1231014404124D16D2E0F0E0
:104013008E828F83122A1D6006EE2412124140EE17
:1040230024131231017010902616E493C0E0EE249D
:1040330013123034D0E0F08E828F83E0A2E7500475
:104043005403801CEE24141231017015900342E0D6
:10405300C0E0EE2414123034D0E0F0900342E004C8
:10406300F0EE2411123101640170169005BBE0607B
:104073000D90034DE0700A8E828F83E0700312412E
:104083003D8E828F83E064017013EE240B123E9BFE
:1040930064027009EE240F1231014440F085188246
:1040A300851983AC82AD83EEFAEFFB120DAA8A0861
:1040B3008B0974FE650A700374FFF470098E828F96
:1040C30083A3A31254EDEA450960668E828F83E0D1
:1040D300C0E07401120B03D0E0F07402120B031260
:1040E30055DB7401120B0385820C85830D780C124A
:1040F300086FEE240F1230341206A6EE240E12318E
:1041030001F50C780C1208739003561206A6740777
:10411300120B03E0F9AC0AAD0B120DA474071208DD
:10412300B7E9FE74106E700BAA08AB091214408035
:10413300027E10EEF97404022A55EE2411F582EF83
:10414300123E8CE4F022A31230EF79FF121CCE2230
:1041530012415722F08E828F83A322C082C08374C0
:10416300DE1209318A828B83A3A3A3A3123E977421
:104173000E120B03E8F0A3E912422D740C120B0389
:10418300124226240DF582EB123104C0E0741A1298
:104193000B03D0E0F012543AEB123E947420120B4E
:1041A300031242262415F582EB123104C0E0740891
:1041B300120B03D0E0F0EA241CF582EB123E947458
:1041C30012120B031242262411F582EB123104C0A2
:1041D300E07409120B03D0E012421A74FFF0740169
:1041E300120B0374FFF07402120B0374FFF090813F
:1041F300361206A27404120B03AC82AD8374071249
:104203000B03AA82AB83120BF474041208B7790070
:1042130074221208B7802512421E22F08518828567
:10422300198322E8F0A3E9F0EA22123C39A31242EF
:104233003522A3E0F8A3E0F92212506CD083D08298
:1042430002084F74EC12038674EE1209318A128B42
:1042530013ECFEEDFF89097426120B031254ED745F
:1042630028120B03E0F5107429120B031243617437
:104273002B120B03E0F50EA3E0F50F7508107A1E61
:104283007B0012143A7402120B03124C957402123F
:104293000B03124CBD700302435A851882851983A0
:1042A300AA82AB837950124B7012506C7402120BBA
:1042B3000312437FA3124C957410120B03125CCAB2
:1042C3007402120B03E0240B12436C7402F0120B02
:1042D3000312437F7402F0120B0312572E1255DBA5
:1042E3007402120B03125081E509F07402120B03DE
:1042F300E0240C12436CE510F07402120B0312431A
:1043030069E512F0A3E513F07408120B03E50CF052
:10431300A3E50DF0740A120B03E510F0850E8285F8
:104323000F83C082C083740D120B03AC82AD83D0A4
:1043330083D08274031207CBF97402120B03AA828F
:10434300AB83120D4AE96401700575080080087497
:1043530002120B03123E82A9087412025504E0F5FF
:104363000CA3E0F50D22E0241C12437022F8A3E015
:10437300124377223400F98882898322125074A36E
:10438300A3A3A3A32274EE120386EAFEEBFF8C0819
:104393008D098E828F83A37408124D51E060088EBD
:1043A300828F83A37410F01230FE60098E828F8394
:1043B300A3E02408F0EE241512310160088E828FE9
:1043C30083A3E004F08E828F83A3A3A3A3A3A3E01C
:1043D30060198E828F83A3A3A3A3A3A3A3E0C333F4
:1043E3002402F88E828F83A3E028F0EE2411123189
:1043F300016005750B0E8003750B008E828F83A3FE
:10440300C082C083EE240D123101D083D082F8E044
:1044130028250B8C828D83F0EE2411123101600567
:1044230012487C28F0850882850983E0C39475408F
:104433000975080075090002456AE0FA7B00125607
:1044430089700302456AEEFAEFFB120DB0EA8508A4
:1044530082850983124C96EE2402F8EF12335E1222
:1044630046641245A6F0EE24040808EF12335E12E8
:104473004AA6A31245A6A3A3F0EE241312458CF07B
:10448300EE241412458CA3F0750A08EE241612319B
:10449300016010EE241812556BE508240812576CBE
:1044A300750A101230FE6016EE241A12556B850A37
:1044B3000CE508250C12576C7408250AF50A8E8240
:1044C3008F83A3A3A3A3A3A3E06059EE2407F5104E
:1044D300EF3400F511851082F583E0C0E0124573D7
:1044E300123037D0E0124596E0C0E0124573123027
:1044F30037D0E0124596A312457F12086B851082D0
:10450300851183E0C333FCE433FD850A0CE50825FC
:104513000C1254E11208B7851082851183E0C3336E
:10452300250AF50AEE2415123101600BC0E012458D
:1045330073123037D0E0F012303112457F12086B1E
:10454300EE240D123101FC7D00850B0A8E828F83D0
:10455300A3E0F8E50828F8E5093400F9E8250AFAA4
:10456300E91254E41208B7AA08AB097F0A0205A1AD
:10457300850A0CE508250CF582E50922E0F50CA374
:10458300E0F50D750E00780C22123E891245B0A39A
:10459300A3A322F0050A8E828F83A3A3A3A3A3A3BD
:1045A300A3A322A3A31257D7A31245B022124AAA48
:1045B300A3A32274F61203868A828B83E0FC900302
:1045C3005312465D74027808120A32EC4508FCADBA
:1045D30009EA241212465774067808120A32EC4587
:1045E30008FCED4509FDEA2415F582EB1231046060
:1045F30004780180027800E4C8F9ED49FDEA24114A
:10460300F582EB123104F508880974097808120A57
:1046130032ED4509FDEA2416124657740B78081249
:104623000A32ED4509FDEA2417124657740C78083F
:10463300120A32ED4509FD8A828B83A3A3A3A3A3A8
:10464300A312465D740A7808120A32ECFAED4509A2
:10465300FB024CC6F582EB123E8CE0F508750900AF
:1046630022E085088285098322A3E0F985088285F3
:1046730009832274EE1203868A0A8B0BECFEEDFF8C
:10468300750F01E9C39408500579000248698E82C9
:104693008F83E9F0124ACFE96003750F00124AB322
:1046A3008E828F83124AFDEE12543BEF124AF2C000
:1046B300E0EE2411123034D0E0124AEAC0E0EE24D6
:1046C30012123034D0E012415374081254F5A3A3EC
:1046D300A3E06015124A9BEE2413F582EF124D05F9
:1046E3008E828F83A3E02408F08E828F83A3A3A3FB
:1046F300A3A3A3A3A3E060218E828F83A385820853
:10470300858309124ADEEE2415F582EF124D0585E5
:104713000882850983E02408F08E828F83A3A3A3F4
:10472300A3A3E0601A8E828F83A385820885830901
:10473300124AC28E828F83A3A3A3A3A312488EEE31
:104743002419124140EE241B124140A3124D49E0AB
:1047530070030247FDEE2419F8EF3400F98E828FBF
:1047630083A3858208858309E0FAE50A2AF582E5B1
:104773000B1231048882898312488EFAE50A2AF5DE
:1047830082E50B123104C0E0EE241A123034D0E07B
:1047930012488E88828983E06059F890260FE4934B
:1047A300C398500575110C8008EE2419123101F5D8
:1047B300118E828F83A3E0F8E50A28F50CE50B122E
:1047C300487212086BE511C333FCE433FD7A9B7B1B
:1047D3000B12486C1208B7EE241B123034749BF092
:1047E300A3740BF0E511C333F8850882850983E0D0
:1047F300288006EE24181259A6F08E828F83A3E038
:10480300F88E828F83E0C398500302468CA3E0FAAC
:104813008A08E50A2508F8E50B3400F9EE241DF5AE
:1048230082EF124E1112489EC39AC0E0EE24171273
:104833003034D0E0124D0E602BEE2417F8EF340025
:10484300F9880889098882F583E024F2124DF2245D
:104853000EFAA3E03400FB88828983124C95124838
:104863007CC398F0A90F02456E12137474032234AB
:1048730000F50D750E00780C2290034EE0F9120B33
:1048830034E9F8850882850983E022F0850882856A
:104893000983E004F022A3A3A3A3A3F08E828F8352
:1048A300E02274F41203868A088B09EA124933F072
:1048B300EA1313543F12492CA3A3A3F0EAC413131E
:1048C300124933A3A3F0EB12492512493D74097829
:1048D3000A120AB512492312493C740A780A120AC9
:1048E300B5E50A5401C0E0EC2418F582ED12303727
:1048F300D0E0124942740B780A120AB5124923A375
:1049030012493C740C780A120AB5124923A3A3A3D3
:10491300A3A3A3A3A3F0740D7808120AB5022C6312
:10492300E50A54018C828D8322540F8C828D83225D
:1049330054038C828D83A3A322A3A3A3A3A3A3F0D5
:104943008A0A8B0B22C082C08379008A828B83A35D
:10495300A3A3A3A3A3E090034D600FE070228A8278
:104963008B83A3A3E07019098016E060138A828BFE
:1049730083125063900356E06A7003A3E06B70E701
:1049830002423F74F01203868A0A8B0B890C8C084F
:104993008D09124ACF124AB3850882850983124AC8
:1049A300FDE50812543BE509124AF2C0E0E508248C
:1049B30011F582E509123037D0E0124AEAC0E0125D
:1049C3003735123037D0E0124E197408124E326068
:1049D30011124A9BE5082413124E0D124E19E024BE
:1049E30008F0850882850983A3A3A3A3A3A3A3A394
:1049F300E06017850882850983A3124ADAE5082453
:104A030015124E0D12489E2408F0850882850983ED
:104A1300A3A3A3A3A3E06019850882850983A3AE9A
:104A230082AF83124AC2850882850983124899049A
:104A3300F0AA08AB09120DC2E9F50D70568508827C
:104A4300850983A3A3A3A3A3A3124AA67014E0FA20
:104A53008A0EE50A250EF8E50B124CFAE50CC39A0B
:104A63008021124ADAE8240EF8E9124CFA90034E38
:104A7300E0F9120B348E828F83E0F8E50CC398249F
:104A8300F2C399C0E0E5082417F582E5091230372F
:104A9300D0E0F0A90D02542AE50A2408F8E50B3406
:104AA30000F922124AAA22E0850882850983A322FB
:104AB300850A82850B83A3A3124B13E0F9EA22E054
:104AC300F8E50A28F582E50B124D21228A828B83B1
:104AD30012542F120DBC22AE82AF83E0F8E50A28F0
:104AE300F8E50B3400F922124B26A3A3A3E022120C
:104AF3003E8CE8124B1FA3A3E022A3A3A3A3A3A36B
:104B0300A3A3A3124B1F124B13A3A3E0F9EAF822AA
:104B1300E0FA850A82850B83A3A3A322F0A3E912FB
:104B23004B2622F0850A82850B83A3A3A3A322C06D
:104B330082C0837AC57B0379E2121BD27AC57B03D9
:104B430002423FC082C08390035602423CC082C0EF
:104B53008374FE120931851882851983AA82AB8377
:104B6300794B124B7012506C7402024215121BD215
:104B730085188285198322C082C083794A121BD289
:104B830002423F74F61203869003CDE0FE04F0EE7A
:104B9300F9120D748B09EA450970EDEE60EAF9022A
:104BA3004CC674F0120386EAFEEBFF8C088D09896C
:104BB3000A7410120B03E0F50B7411120B03E0F5EA
:104BC3000C120E94EA4B7013E50C7042A90AAC0860
:104BD300AD09EEFAEFFB120EAC806EE50A6021EA36
:104BE3002402F582EB123104850A082508F8E4341F
:104BF3000013E813F070098A828B83A3A37401F076
:104C0300E50C6045E50B70068A828B83E4F0740142
:104C1300650C7035E50B9003D47004E4F0802AE052
:104C230004F0900CF8E0F89003D4E0C398401AE441
:104C3300F0900359E06E7003A3E06F700CEEFAEF8F
:104C4300FB7901120C18124C4F02542A7A017B0093
:104C53009003B0E0F912150022C082C08374016A88
:104C63007001EB70077A01124C868012900CEF12E0
:104C73004C95EA4B60051229DF8003124C4F024228
:104C83003F7A207B009003B0E0F91213D422340062
:104C9300F583EAF0A3EBF022C082C083900CF1020B
:104CA300383FC082C083900CF302383F12573D2235
:104CB300EE240CF582EF3400F583124236E84922E4
:104CC3001208B77F020205A1A2F0E433851882859A
:104CD3001983124CE77952121BD822124CE77942FE
:104CE300121BD822F0AA82AB8322AA08AB09900335
:104CF300B0E0F91213AA223400F9E508241DF58265
:104D0300E509123E8CE8F0A3E9F0221254F9A3A3BB
:104D1300E022A3F0EE2415124D1E22F582EF34009B
:104D2300F583E022124D2B223400F583E0F8A3E053
:104D3300F98882898322E0F8124D3F22A3E0F98E9D
:104D4300828F83A3A322F0EE2418123E8922F0EE71
:104D53002416123E892274F4120386EAFEEBFF7ACC
:104D6300007B04124C53124DE8124D0890036574F6
:104D730009F0120DCE8A088B09AC08AD09EE241395
:104D830012303412506C124F3C640170487A0F1287
:104D93004DDB60418A828B837402124DF2FAA3E0E9
:104DA300FB8A828B83A3E0FC8A828B83A3A3E0FB31
:104DB300EC850882850983A3A3124C968882898394
:104DC300125070124664124D15FAA3E0FB794A1291
:104DD3001BD8124CED0230F97B0012139E8A088B0C
:104DE30009EA450922900336124236900CF322F069
:104DF300EE241DF8EF124DFC22124377E022124EEF
:104E030005223400F5837401F022F582E509123E90
:104E13008CE8F0A3E922124E1D22124E2122F085C6
:104E23000882850983A322124E21A3A3A3A32212DE
:104E33004E2AA3A3E022125243120E2222EE24177B
:104E4300F582EF124E05120DCEEE241A123E89EAB8
:104E5300F0A3EBF02274F412038674F31209318980
:104E630008EAFEEBFF7C0D7D007900851882851929
:104E730083AA82AB83121380EE241D12303412579F
:104E83002EA3E0F8741F58600A7901121BA8790059
:104E9300024F33E8A2E55008740C120B037401F0BF
:104EA300E8A2E75008740B120B037401F0E8A2E6C2
:104EB300740A5008120B037401F08008120B03E00C
:104EC30064017005EE24138003EE241512556B74F0
:104ED30002120B03AA82AB83121BC0123031124F92
:104EE30041124D08740A120B03E064017033122A55
:104EF30012703B120DDA8A0A8B0BA80AA90BEE2457
:104F03000B123101687003A3E0697022120DCEEA1F
:104F1300FCEBFD7402120B03AA82AB83124F3C60BD
:104F23000D851882851983AA82AB83120C12A908F6
:104F3300740D0230F6EEFAEFFB121BBAE922E0120F
:104F43004F4622F8A3E0F98518828519832274F667
:104F530012038674F31209318A088B09ECFEEDFF04
:104F63007C0D7D007900851882851983AA82AB8325
:104F73001258D3A3A3A3A3A3A3A3A3A3124FDB12E8
:104F83004FE4F8A2E55008740B120B037401F0E828
:104F9300A2E75008740A120B037401F0E8A2E6EECC
:104FA300500424138002241512556B7402120B0350
:104FB300124FCDA3A3E0C0E0740C120B03D0E01298
:104FC300523B120C0C740D024CC3AA82AB83121B0E
:104FD300C085088285098322E0124F46E8F0A3E9E1
:104FE30022F0123E86125732A3E02274F712038690
:104FF30074E1120931EAFEEBFF8E828F8312507047
:10500300A3A3A3E0A2E050518E828F83122B728A56
:10501300828B83A3A3A3A3A3A3E054FE1250888A85
:10502300828B83125081E0F98A828B83E0241CFAFD
:10503300A3E0123AA212506C120DC8E9701B741D42
:10504300120B0312507B7011851882851983AC8271
:10505300AD83EEFAEFFB120E100252AD8E828F83F8
:10506300A3A3A3A3A3A3A3A3A31230EF2212507459
:1050730022125736A3A3A322123EBE640422E024C5
:105083001B1243702212421EAC82AD8322E9F879CF
:1050930000740468600A740A686005740368700128
:1050A3000902084F74F61203868A828B837420F0F8
:1050B300A3A37401F0120BBE8A088B09AE08AF09D3
:1050C300EE4F60108E828F837401F09003A3E07023
:1050D30003124E40EEFAEFFB024CC6C082C083902F
:1050E30003B97401F0E9A2E350037403F0E9A2E108
:1050F3005004E0D2E2F002423F74F61203867900D4
:105103007C008A088B0978081205E7F8FF072F51FE
:105113002D512D512D512D5126512A512F512351AE
:105123000C80097C0480050C80F67C089003B9E0B0
:105133005C6003098003EC600109024CC674F6123B
:1051430003868A828B83E07012A3124CBD600C8AA3
:10515300828B8312506B121CFE80047A007B000248
:105163004CC674F512038674F31209318A088B094D
:10517300ECFEEDFF750A12EA45097005790002524B
:1051830034900356E065087004A3E06509701412B7
:105193000DCEEAFCEBFD124F387005750A01800352
:1051A300750A00851882851983E4F004120B03E560
:1051B30008F0A3E50912523B120B82E9602774033E
:1051C300120B03AA82AB83120B64E9640170167598
:1051D3000A017403120B03AC82AD83124F386021B2
:1051E300750A00801C7412650A70169003A2E064AD
:1051F30002700EEEFCEFFDAA08AB09120B9AE970E0
:10520300DFEEFCEFFDAA08AB09120E9AE9F8740A67
:10521300687005750A01801774A0687012EEFCEFC0
:10522300FDAA08AB09120EA6AA08AB09120EB8A96B
:105233000A740D025C3B740212523F221252432243
:1052430012421EAA82AB832274F7120386EAFEEB94
:10525300FF8E828F83A3A3A3A3A3A3A3A3E06015BD
:10526300EE24151230341230DF120E3AE964017065
:1052730004790180258E828F83A3A3A3A3A3A3A371
:10528300E06015EE241312303412529FFAA3E0FBB0
:10529300120E3AE9640160D979008013123B8EA3A0
:1052A300A3A3A3A3A3A3A3A3E022741F1208B77FFE
:1052B300010205A174F012038674FD1209318A08F4
:1052C3008B09ECFEEDFF890B7413120B03E0F50C55
:1052D300750A017401120B0374041257666048E5E2
:1052E3000C601DEA2417F582EB1259A91257548A50
:1052F300828B83E0D2E7F0EA2414F582EB12414378
:1053030012543AEB124D277403125CCCEE88828957
:1053130083A3A3F0EF88828983A3A3123C38123CB2
:105323003F120BB8E9F50AA90A740302542774EC77
:1053330012038674F51209318A0A8B0B890C8C0EC1
:105343008D0F741F120B03E0F50D7420120B03E095
:10535300F510A3E0F5117E01EE120B03740AF0E9D8
:105363007007E50DC333240AF012550C7003025481
:105373000E1255217409F0A3E50CC43354E0450D16
:10538300125533E50C702D7C008023ECC333F8E415
:1053930033F9E51028F8E51139F988828983125425
:1053A3001B88828983123351F0A30EAF830CECC3A5
:1053B300950D40D7E5082417F582E509124E011231
:1053C3000DCEE508241AF582E509124C91740312F7
:1053D3000B03AC82AD83AA0AAB0B120B6AE960190B
:1053E300E5082416F582E509125415120B03A88269
:1053F300A983E5082418124D0185088285098312C3
:105403005CC8AA08AB09120BB8E9FEEEF9740B02EB
:105413005504124E05740322E08E828F83F0A3AEEF
:1054230082AF83221208B77F080205A1123EE6F974
:10543300EA2400E439FB22EA240BF5822274EE12FB
:1054430003868A0C8B0D890E8C088D097412120B3E
:1054530003E0F50F7413120B031254ED90052A1297
:105463004CBD6077E50FC333F8E433F9E8240EFA53
:10547300E93400FB12139E8A108B11AE10AF11EEAC
:105483004F60588E828F8374D4F0A3A3E50CF0A3EE
:10549300E50D1254F5E50EF0AC08AD09EE2405FA5E
:1054A300EF12576FEE240D123034E50FF0850A0822
:1054B300850B09750A00780812086BE50FC333FCE6
:1054C300E433FDEE240EFAEF1254E41208B7EEFAB9
:1054D300EFFB90052A12572E121D9F02456EFAE527
:1054E300093400FB121374740322E0F50AA3E0F5F8
:1054F3000B221254F9221254FD22124157A3A3A3E3
:10550300221208B77F0C0205A1851882851983AA88
:1055130082AB83120E228A088B09EA450922EA2408
:105523000BF582EB124D21FEA3E0FF8E828F8322C7
:10553300F0A3AE82AF83AC0EAD0FEEFAEFFB1255C4
:105543004522121BC012554C22EE2408FEEF3400F4
:10555300FF22E0FA8E828F83A3A3E022FEA3E0342E
:1055630000FF8E828F83E022123E8912557222E061
:10557300FCA3E0FD221230EF120DB62274F61203E3
:1055830086EAFEEBFF9003BA801388828983E06E7C
:105593007003A3E06F603A88828983A3A3124CBD92
:1055A30070E87A047B0012143A8A088B09A808A9C8
:1055B30009E849601C888289831255DB9003BA127B
:1055C300506C88828983A3A3124C959003BA124D21
:1055D30008024CC68A828B83EEF0A3EFF02274F4A8
:1055E3001203867E009003BA80070E88828983A304
:1055F300A3124CBD70F4EEC333FAE433FB125689A5
:10560300607E7F009003BA80248882898312556E5E
:10561300EFC333FAE433FBE5082AF582E5093BF5EA
:1056230083ECF0A3EDF00F88828983A3A3124CBD12
:1056330070D79003AB122A4C7003A3E0697808700B
:105643001912086FEEF50A780A1208737C777D0346
:1056530079009003AB125694801A12086FEEF50A84
:10566300780A1208737C777D0379009003AB12509C
:105673006C120E4C74031208B7AA08AB091214403B
:10568300120BD00230F912143A8A088B09EA450941
:10569300221230EF120E5222C082C08380128A82FD
:1056A3008B83A3A3123E979003BA124D08121440A2
:1056B3009003BA123DA770E602423F74F6120386C6
:1056C300900363123EC39003CE12571D124D087A06
:1056D300CE7B037950121BD89003CE122C6BFAEFBA
:1056E300FB120EB29003CE123EC390052C124CBD9A
:1056F30060257A067B0012139EEA4B601A8A828B1E
:105703008374D5F0A3A3E4125743041257549005AE
:105713002C12572E121D9F024CC612572122E0F85D
:10572300A3E0F9900363228E828F831257322212F1
:10573300573622E0F812573C22A3E0F583888222F1
:105743001257472212574B22F08A828B83A3A3A3BB
:1057530022125747A3EEF0A3EFF022F582EF124D8A
:1057630021F922124E39EA4B22FAE5093400FB12E1
:105773001BC022124D40A3A3A3A3A3A3A32290263D
:1057830011E4932401F8E43400F97A027B002274D3
:10579300F71203867E008004125D7F0E1258A34029
:1057A300F77E00EE1257BE74FEF0A3041257D3E443
:1057B300F00EEEC3940340EB0252B275F003A4F86B
:1057C300A9F074BC28F8740339F988828983A32269
:1057D3001257D722F0888289832274F71203867FB7
:1057E3000080010F902619E493F8EFC3985026EF39
:1057F30012598F6A7003A3E06B70E8125D2C6C7012
:1058030003A3E06D600A74FF6C700374FF6D70D3C3
:1058130012589A80047A007B000252B274F6120383
:10582300867CFF7DFF7AFE7BFF120E76EA4B70408B
:105833007508008036E50875F017A4F8A9F07436EA
:1058430028F582740A1259A1600C743528F5827404
:105853000A1259A17013742728FE740A39FF8E8225
:105863008F831259AEEEFAEFFB050812590940C5B2
:10587300024CC674F41203868A088B09ECFEEDFF12
:10588300800B120E88EEFCEFFDAA08AB09120E7610
:10589300EA4B70EE0230F9742728FA740A39FB22B6
:1058A300902619E493F8EEC3982274F7120386EA5C
:1058B300FEEBFFEE4F60101258CD74FEF0A30412FE
:1058C3005CD214F0A304F00252B27C177D0079007D
:1058D3001213808E828F832274F7120386EAFEEB03
:1058E300FF7508008018E50875F017A4F8A9F012F1
:1058F3005D377003A3E06F6003125D8705081259DB
:105903000940E30252B2902619E493F8E508C398DC
:105913002274F6120386120E768A088B09A808A948
:1059230009E849600AE8240DFAE93400FB80047AA7
:10593300007B00024CC674F41203868A0A8B0BECBC
:10594300FEEDFF750800750900802EE50975F01757
:10595300A4F8A9F0125D72601EE50912598F650A59
:105963007004A3E0650B700375080AEEFCEFFD12EB
:105973005C2E60034308A00509902619E493F8E51B
:1059830009C3985004E50860C2022C6375F017A49C
:10599300F8A9F012599A22742728F582740A39F566
:1059A30083E022F582EF123E8CE4221230EF120CD8
:1059B300AE221257D7A3A3A3A3A3A3A3A32274F234
:1059C3001203868A088B09ECFEEDFF740E120B039B
:1059D3001254ED750C007C007D018010121398E5C4
:1059E3000CF5F0EA84ACF0750C007D0078007900CA
:1059F3008003125B6B125BC74003025A8DE8FAE91E
:105A0300FBEA75F017A4FA85F00D75F017EBA425E2
:105A13000D125BA37003A3E0F460D7125B816508EA
:105A23007004A3E0650960CA125B816E7003A3E092
:105A33006F60BF125B81650A7004A3E0650B60B2FF
:105A4300E8FAE9FBEA75F017A4FA75F017EBA42559
:105A53000DFB74352AF582740A125B62509474014B
:105A63006D050C608DE50CC39C4087E875F017A4A9
:105A7300F8AAF075F017E9A42AF9742728F58274B7
:105A83000A39F58312506C025B5F7800790080035A
:105A9300125B6B125BD44003025B46E8FAE9FBEA54
:105AA30075F012A4FA85F00D125BB364FE7003A3C4
:105AB300E0F460DC125BA965087004A3E06509608B
:105AC300CF125BA96E7003A3E06F60C4125BA9657C
:105AD3000A7004A3E0650B60B7E8FAE9FBEA75F026
:105AE30012A4FA75F012EBA4250DFB74B62AF58205
:105AF3007408125B625099E8FAE9FBEA75F012A4A4
:105B0300FA75F012EBA4250D125B7464016081E059
:105B130064027003025A9374016D050C7003025AF8
:105B230093E50CC39C5003025A93E875F012A4F852
