:020000040000FA
:06000000020B460201D9CB
:03002B0002099A2D
:0300330002076C55
:030043000208367A
:0300530002010A9D
:03005B000201FCA3
:03006B0002075237
:1000830002016E0101FF05030100110011001100BF
:1000930011BC0FB60F0011512400000000B324005F
:1000A3000000000C0000000C00010000CE12000054
:1000B30000000000881300000000000000000000A2
:1000C300FFFF414C4432353330204C45440001009E
:1000D300010101008F05000000E005E803640064EE
:1000E30000B801020200080000050207051E020510
:1000F3001E0A03B80B020102FFFF021F00E007966E
:1001030051180002020612C0E074F21204A5A2AF55
:10011300E433FED2AFE5A7FFE5A1F5085F54106015
:1001230006121A0075A1EFE5085F54086008121A59
:100133000675A1F7802BEFA2E0C0D0E508A2E092FC
:10014300F0120A83158182F05017906198E0F890BD
:1001530008B9E0C398A2D265D0335002E8F075A184
:10016300FEEEA2E092AF7F0102055CC0E074F212E2
:1001730004A5A2AFE433FED2AF9061A4E0F8759B6F
:1001830000E59158540860087591F7121A4E802AB9
:10019300E59158541060087591EF121A54801BE8CA
:1001A300A2E0C0D0E591A2E092F0120A8315818209
:1001B300F05007E0C2E0F0121B989061A3E0F8E56D
:1001C300E9585404600E121B6E75E9FB906193E0CD
:1001D300A2E640F2808BC0E074F21204A5A2AFE461
:1001E30033FED2AF9061A5E0F8E5BF585404600632
:1001F30075BFFB121BB0020164C0E0C0D0E8C0E0D1
:10020300E9C0E0EAC0E0EBC0E0C082C08375C00093
:100213009005671202A1900567EAF0A3EBF0C3E82B
:100223009497E99400A2D265D0334007900567E420
:10023300F0A3F09005651202A1900565EAF0A3EB27
:10024300F0C3E89403E99400A2D265D033403A9016
:100253000565E4F0A3F0900561E064017002A3E09A
:100263007027900563E0F8A3E0F9E849900563700F
:100273000E7401F0A3E4F075DB0075DAFF800AE485
:10028300F0A3F075DB0075DA00D083D082D0E0FBF9
:10029300D0E0FAD0E0F9D0E0F8D0D0D0E032E0F806
:1002A300A3E0F9E82401FAE93400FB22C3E498F857
:1002B300E499F91202F08026C3E49AFAE49BFBE97D
:1002C30020E7E91202F0E498F8E499F922C3E498EC
:1002D300F8E499F91202F0E498F8E499F9C3E49A7E
:1002E300FAE49BFB22EB20E7CFE920E7E0B900101B
:1002F300BB0008E88AF084F8AAF022E4FBC8FA22DB
:10030300EB70227B10C833C8C933C9335007C39A73
:10031300C3DBF280069A50012ADBEAC833F4C8C96A
:1003230033F4C9FA2275F008E4C833C8C933C933B2
:10033300C99AC99B5004C92AC93BD5F0ECFBC83301
:10034300F4C8E4C9FA22080808EAC0E0EBC0E08672
:10035300F0E7A4FA180986F0E7A42AFA180986F048
:10036300E7A42AFA180986F0E7A42AFA1986F0E71F
:10037300A4FBE5F02AFA190886F0E7A42BFBE5F0C5
:100383003AFA190886F0E7A42BFBE5F03AFA1818B5
:100393000986F0E7A4C5F02BFBE43AFA1908E7C590
:1003A300F0C6A426F6E5F03BFBE43AFA1886F0E73C
:1003B300A4F6E5F00826F6E43B08F6E43A08F6D09E
:1003C300E0FBD0E0FA22E4CFC0E0E4CEC0E0E4CD2D
:1003D300C0E0E4CCC0E075F020C3E633F608E633B2
:1003E300F608E633F608E633F6181818EC33FCED96
:1003F30033FDEE33FEEF33FFC3EC9709ED9709EEC0
:100403009709EF97191919400FFFEC97FC09ED971E
:10041300FD09EE97FE191906D5F0BEECF709EDF7C5
:1004230009EEF709EFF7191919D0E0FCD0E0FDD078
:10043300E0FED0E0FF222518C582C0E0E51934FFB5
:10044300C583C0E0E518C3958224F810AF088583FF
:10045300198582188008858319858218D2AFCEF05A
:10046300A3E520F0A37808E608F0A3DEFAEFF0A3F3
:10047300E58124FAF8E608F0A3E608F0A3E608F01D
:10048300A30808E608F0A3E608F0A315811581D0B8
:10049300E0FED0E0F8158115811581E8C0E0EEC0DB
:1004A300E022C0D02518C582C0E0E51934FFC5831A
:1004B300C0E0E518C3958224F310AF08858319853E
:1004C30082188008858319858218D2AFC8F0A3E902
:1004D300F0A3EAF0A3EBF0A37908E709F0A3D8FAB5
:1004E300ECF0A3EDF0A3EEF0A3EFF0A3D0E0F0A3C4
:1004F300D0E0F0A3D0E0F0A3E520F0A3E5F0F0A373
:1005030022120BA8B90003020546E49003017810F8
:10051300790B8002F0A3D8FCD9FA900D10AA82AB14
:1005230083900086788579018015E493A3AC82AD2E
:10053300838A828B83F0A3AA82AB838C828D83D838
:10054300E9D9E775822475839074031208F97582DB
:100553005075831E74001208F9851983851882E08B
:10056300C0E0A3E0F9A3E0FAA3E0FBA37808E0F678
:1005730008A3DFFAE0FCA3E0FDA3E0FEA3E0FFA3F2
:10058300E0C0E0A3E0C0E0A3E0F5D0A3E0F520A342
:10059300E0A3F5F010AF08858319858218800885DC
:1005A3008319858218D2AFD082D083D0E0F8D0E00F
:1005B3003275F0108E1A8F1B85821F85831E851856
:1005C30082851983E0CEA3E0CF851F82851E83EB4E
:1005D300C9EAC8EDCBECCAC3E833C8E933C9EA3387
:1005E300CAEB33CBC3EA9EF51DEB9FF51CB3500456
:1005F300AB1CAA1DEC33CCED33CDD5F0DAAE1AAF7C
:100603001B22D083D082ECC0E0EDC0E0E493A3FCD6
:10061300E493A3FDED4C600D1206DDEC24FFFCED2D
:1006230034FFFD80EFE493A3FCE493A3FDED4C6062
:100633000D1207E1EC24FFFCED34FFFD80EFD0E069
:10064300FDD0E0FCE493A3C0E0E493C0E02285196D
:1006530083851882E0A3FEE0A3F5207808E0A3F6E3
:1006630008DFFAE0A3FFE0A3C0E0E0A3C0E0E0A35B
:10067300C0E0E0A3C0E0E0A3C0E010AF08858218AB
:100683008583198008858218858319D2AFD083D0DA
:10069300820208FFD083D082E9C0E0E493A3C3863B
:1006A300F0C5F095F0F908E493A386F0C5F095F052
:1006B300700BE493A3C3994005E9048002A3E47596
:1006C300F002A42582F582E5F03583F583D0E0F9C5
:1006D300E493A3C0E0E493C0E022C0E0C3E49396B4
:1006E300087401939618400FE49366700808740128
:1006F30093661870007019A3A3C3E493960874015A
:10070300939618A3A3400DD0E0D0E0D0E0020641B9
:10071300A3A3A3A3A3A3D0E022D083D082C5F0E4F4
:1007230093A3C5F0C395F0F5F0E493A3C395F0400C
:1007330005E5F0048001E475F002A42582F582E565
:10074300F03583F583E493A3C0E0E493C0E022C0D3
:10075300E074F21204A5E589A2E150031218BC75F6
:100763008900C2C57F0102055CC0E074F21204A5D2
:10077300E58BA2E050031218BC758B00C2E880E43D
:100783007404800474028000CCC0E0EDC0E0E5187E
:10079300C39CCCAD1950011D10AF068C188D198068
:1007A300068C188D19D2AF12087BD0E0FDD0E0FC87
:1007B3002274028000CCC0E0EDC0E0E518C39CCCFD
:1007C300AD1950011D10AF068C188D1980068C18B9
:1007D3008D19D2AF120859D0E0FDD0E0FC22C0E061
:1007E300C0F088F0E493667008087401936618708B
:1007F30000A8F0A3A3700BD0F0D0E0D0E0D0E002CB
:100803000641A3A3D0F0D0E022D083D082CCC0E0B5
:10081300E493A360061208BB1470FAE493A3600682
:100823001209E11470FAD0E0FCE493A3C0E0E4936E
:10083300C0E022C0E074F21204A5A2AFE433FED2FA
:10084300AFC2C0E5D1A2E45003121976EEA2E09242
:10085300AF7F0102055CCAC0E0E493A3C582CCC5A7
:1008630082C583CDC583F0A3C582CCC582C583CDA4
:10087300C583DAE5D0E0CA22CAC0E0E0A3C582CCD2
:10088300C582C583CDC583F0A3C582CCC582C5838C
:10089300CDC583DAE6D0E0CA2270090808082260D1
:1008A30016181818C6C333C608C633C608C633C6D7
:1008B30008C633C6D5E0EA22C0E0E493A3D39C5034
:1008C30010E493A3C39C400AD0E0D0E0D0E0020838
:1008D30029A3A3A3D0E022C008C3E096F50808A388
:1008E300E096420808A3E096420808A3E09645086C
:1008F3007001D3D00822C09FF59FE473D09F22D00C
:1009030083D082C09FE493C0E0740193C0E074027B
:1009130093F59F222518F58210AF08F518400215AC
:10092300198008F51840021519D2AF85198322746E
:1009330004800A74038006740280027401C0E0F428
:1009430004120917D0E0120B8322C0D0251810AF70
:1009530008F518500205198008F51850020519D238
:10096300AFD0D022BB0102E722C082C08389828A32
:1009730083BB0003E08002E493D083D0822260161D
:10098300080808C6C313C618C613C618C613C61864
:10099300C613C6D5E0EA22C0E0C0D0E8C0E0E5A8AF
:1009A300D2AFC2C7A2E792AFD0E0F8D0D0D0E03246
:1009B300C3E0C696F608A3E0C696F608A3E0C6967B
:1009C300F608A3E0C696F622251810AF08F51840DE
:1009D3000215198008F51840021519D2AF22C0E09C
:1009E300E493A36C7009D0E0D0E0D0E0020829A31F
:1009F300A3D0E022E066701008A3E066700A08A3A3
:100A0300E066700408A3E06622C3E09608A3E096BC
:100A130008A3E09608A3E096A2D265D03322E76646
:100A230070100809E766700A0809E7667004080988
:100A3300E76622C3E096F008A3E096F008A3E096E9
:100A4300F008A3E096F022E026F008A3E036F008D1
:100A5300A3E036F008A3E036F022E627F60809E61D
:100A630037F60809E637F60809E637F622E026F6F0
:100A730008A3E036F608A3E036F608A3E036F6222C
:100A8300C0E0E8C0E0E58124FCF8E6A2E7D0E0F8A6
:100A9300D0E022E647F60809E647F60809E647F6F6
:100AA3000809E647F622E657F60809E657F6080965
:100AB300E657F60809E657F622E056F608A3E0568D
:100AC300F608A3E056F608A3E056F622E056F0082F
:100AD300A3E056F008A3E056F008A3E056F0227016
:100AE3000422600D18C6C333C608C633C6D5E0F466
:100AF3001822E4C396F608E496F608E496F608E4AA
:100B030096F622600D08C6A2E713C618C613C6D50B
:100B1300E0F322C6F4C608C6F4C608C6F4C608C67F
:100B2300F4C622C3E7960809E7960809E796080979
:100B3300E79622C3E09608A3E09608A3E09608A3ED
:100B4300E0962275D0007581407518017519030070
:100B5300020504E0F608A3E0F608A3E0F608A3E024
:100B6300F622600C08C6C313C618C613C6D5E0F434
:100B730022E6F008A3E6F008A3E6F008A3E6F022D5
:100B8300CAC0E0E6F0A308DAFAD0E0FA22E0FAA35A
:100B9300E0FBA3E0FCA3E0FD22EAF0A3EBF0A3EC6F
:100BA300F0A3EDF022E5C754F84401F5C77901221B
:100BB3002518F582E43519F58322C2AF75D69F0255
:100BC300000022120902D9AF011209022CB101124D
:100BD3000902CFB1011209021AB30112090238B393
:100BE300011209028A5E001209029C5E00120902C8
:100BF300EE5E001209024F5F00120902D95F001274
:100C030009027D6000120902D16000120902EA6044
:100C1300001209021061001209024B61001209025D
:100C23008F6100120902B661001209020762001205
:100C33000902B762001209026F63001209023764E6
:100C4300001209021465001209029A6500120902D2
:100C5300A96500120902B46500120902BD660012FB
:100C63000902CE6600120902446700120902D66720
:100C7300001209022E6800120902F4680012090228
:100C83002569001209026A690012090277690012D4
:100C930009020B6B001209026E6C001209028A6DC5
:100CA30000120902F46F00120902FF6F0012090219
:100CB3000970001209021470001209021E7000125A
:100CC30009022870001209023370001209023E70F3
:100CD300001209026F7000120902937000120902D8
:100CE300B770001209021C71001209026071001230
:100CF30009027C7100120902F371001209022B72BE
:100D030000120902777200120902D472001209025A
:100D1300B674001209023C75001209020D76001226
:100D230009021D79001209027279001209029E79E3
:100D330000120902EA7A001209023A7B0012090240
:100D43008F7B00120902907C00120902287D001299
:100D53000902AA7D001209024A7E00120902D52661
:100D6300001209020E2700120902E82800120902E4
:100D7300272900120902712900120902162A0012FA
:100D83000902752A00120902A92A00120902162B68
:100D930000120902332C001209023B2D0012090232
:100DA300D12D00120902183100120902C1310012BB
:100DB30009029D3200120902FE32001209021B349D
:100DC30000120902453600120902FC36001209021C
:100DD30006370012090239370012090200380012DF
:100DE30009029B380012090200390012090229394D
:100DF300001209024B39001209027A3B0012090260
:100E0300513C00120902953C00120902023D0012F6
:100E13000902BD3D00120902EF3D00120902333EF3
:100E230000120902663E00120902BB3E00120902CB
:100E3300103F00120902A43F0012090206400012EB
:100E430009026E4000120902174200120902FF4212
:100E5300001209024144001209026F4600120902FE
:100E63002F47001209025E4900120902014A0012CB
:100E730009023F4A00120902EB4B00120902FF4B21
:100E830000120902094C00120902334C0012090234
:100E93003F4C001209025E4C00120902154D00126C
:100EA3000902544D001209025E4D00120902124E4E
:100EB30000120902114F001209020A50001209021E
:100EC300A750001209024951001209026051001291
:100ED3000902975100120902B55100120902F95192
:100EE300001209021E5200120902045300120902E1
:100EF300705300120902EA5300120902F954001256
:100F030009023856001209029A5600120902545770
:100F1300001209027757001209024B580012090206
:100F2300965800120902D858001209022F590012CC
:100F33000902665900120902945900120902CD5997
:100F430000120902F259001209027A5A0012090228
:100F53009D5C00120902FC5C00120902905D001204
:100F63000902FC5D00120902505E0012090271B908
:100F730003120902B0B9031209027DB40112090276
:100F8300D7B40112090233B5011209027FB5011268
:100F930009029AB501120902CBB501120902E8B59B
:100FA30001120902F4B50112090268B7011209021C
:100FB30081B701120902E8B701120902FBB7011256
:100FC300090209B801120902BDB801120902A1B947
:100FD30001120902A7BA011209022DBB011209026B
:100FE30037BB01120902A4BB01120902BBBB0112E8
:100FF3000902EDBB0112090226BC0112090250BC11
:1010030001120902B1BC01120902D1BC0112090289
:10101300EFBC0112090235BD011209025BBE0112C8
:101023000902A8BE01120902D7BE011209024DBF6F
:101033000112090275BF01120902AEBF01120902B2
:10104300BCBF0112090214C00112090263C00112DC
:101053000902A2C001120902D2C001120902FEC094
:101063000112090209C10112090227C10112090271
:10107300E9C101120902F3C1011209022EC20112D0
:10108300090244C2011209024DC201120902A2C29D
:1010930001120902B6C201120902C4C301120902F4
:1010A300D7C301120902ECC3011209028EC4011253
:1010B300090211C501120902CFC501120902DAC5DD
:1010C3000112090200C7011209021CC70112090219
:1010D3006EC701120902ADC701120902C2C701128C
:1010E300090204C80112090251CA01120902CFCA36
:1010F3000112090242CB0112090264CD0112090255
:101103007CCD011209027FCD011209028BCD0112A0
:1011130009029FCD01120902A7CD01120902DACDFE
:10112300011209028ACE0112090200CF011209023B
:1011330073CF0112090227D001120902DCD0011278
:101143000902FBD0011209029BD101120902A7D1A6
:1011530001120902D2D101120902D5D101120902E9
:101163003FD20112090267D3011209023FD40112CF
:101173000902CAD401120902E3D501120902A0D659
:1011830001120902D9D6011209020AD70112090272
:10119300AAD701120902DAD701120902B5D801123E
:1011A30009024ED901120902D9D9011209028ADAB8
:1011B300011209020CDB011209023EDB01120902D2
:1011C3007FDB01120902A0C20212090205C3021247
:1011D300090242C30212090291C302120902A7C5FE
:1011E300021209028AC702120902F4CA0212090290
:1011F3002FCB0212090251CB02120902B4CB021205
:101203000902E8CB021209020BCC0212090238CC04
:101213000212090294CC021209028AAC02120902D8
:1012230008AD021209023EAD02120902AAAD021272
:1012330009021DAF0212090239AF021209027EAF81
:10124300021209020CB00212090265B0021209026D
:1012530092B102120902A4B20212090201B30212EC
:1012630009026DB302120902CEB3021209020FB4CE
:1012730002120902BCB402120902CEB5021209021B
:10128300F9B50212090244B6021209028BB6021220
:1012930009021DB702120902D8B70212090290AE61
:1012A30003120902A1AE03120902F2AE03120902EC
:1012B30037AF03120902E1AF03120902F4B50312B7
:1012C30009024FAB03120902A7AC031209024FB87C
:1012D30002120902F4B80212090214B90212090235
:1012E30034B90212090248B902120902A0B9021262
:1012F3000902D0B90212090251BB02120902F7BB5B
:1013030002120902D9BC021209022ABD0212090201
:101313006DBD02120902B0BD0212090216BE02120D
:10132300090237BE02120902C3BE02120902F4BE49
:101333000212090268BF0212090216C1021209024F
:10134300F0C10212090232C2021209028CC2021255
:101353000902C6A703120902E7A7031209021DA97E
:101363000312090247A9031209027C960312090218
:10137300F696031209020197031209022297031238
:1013830009024DA00212090250A0021209020AA189
:101393000212090235A1021209027CA102120902FA
:1013A300A1A102120902C2A102120902F6A10212AC
:1013B30009022FA20212090258A3021209028FA3E3
:1013C30002120902AFA3021209024AA4021209027D
:1013D3000FA50212090246A502120902BBA60212B8
:1013E30009025EA70212090257A80212090280A885
:1013F30002120902D4A8021209029AA902120902CE
:10140300C8A9021209025DAB02120902DEAB021285
:10141300090211AC02120902E0CC02120902EACC61
:101423000212090236CD02120902A4CD02120902E8
:10143300C5CD02120902DCCD021209028CCE0212C2
:10144300090220D10212090229D1021209027CD118
:1014530002120902DFA4011209020CD202120902CC
:101463009DD202120902DFD20212090229D302120B
:10147300090288D30212090219D40212090258D4AC
:101483000212090297D402120902CCD402120902F1
:10149300DED402120902F0D4021209020FD502129D
:1014A300090218D502120902CED5021209028AAD29
:1014B30001120902B4840312090287850312090287
:1014C300A18503120902B28503120902C787031219
:1014D3000902E6870312090294A503120902CAA5A9
:1014E3000312090213A60312090263A703120902D6
:1014F300B4DB01120902F3DC011209022FDD011230
:101503000902EEDE0112090217DF01120902AAE144
:1015130001120902EEE10112090277E30112090245
:101523000FE40112090277E40112090218E501121E
:1015330009025AE5011209029AE50112090225E797
:101543000112090295E801120902BAEA011209021D
:10155300E8EA011209020FEB0112090218EB01126A
:10156300090273EB0112090206EC0112090224EFCE
:1015730001120902A5EF01120902F6BA03120902C8
:1015830026B903120902BF8C03120902D28C03127B
:1015930009026F8D03120902AA8D03120902C58D78
:1015A30003120902EA8D031209022F8E03120902A4
:1015B300608E03120902918E03120902179003121F
:1015C300090259B1031209028FB103120902ABB127
:1015D30003120902EDB103120902FDB1031209025C
:1015E30092B20312090273DF02120902B4DF02127C
:1015F3000902C7DF0212090287E00212090235E17C
:10160300021209026FE20212090253E502120902F1
:10161300F2E502120902BE900212090216910212A9
:101623000902C09102120902689202120902C592CC
:10163300021209021E9302120902329302120902D4
:10164300FC9402120902779502120902A195021273
:1016530009025E9702120902799702120902C897DA
:1016630002120902DE9702120902EB970212090223
:101673001F9802120902359802120902BB9802123E
:101683000902CA98021209022399021209027D99DA
:1016930002120902CB9902120902D59A0212090217
:1016A300579D02120902F19D02120902339E021292
:1016B3000902C89E02120902E59E02120902E89E6F
:1016C30002120902EB9E021209025E9F0212090234
:1016D300799F02120902A59F02120902E09F0212DA
:1016E3000902E39F02120902F69F021209021DA0DA
:1016F3000212090252B8031209025EB80312090268
:1017030098B80312090202F0011209022DF0011226
:101713000902F9F0011209027EF101120902E7F14F
:101723000112090233F201120902B2F20112090293
:1017330044F301120902D0F30112090212F4011257
:1017430009027EF801120902FEF9011209023DFAAB
:101753000112090206FB01120902BAFB0112090276
:101763006AFD01120902F6FD01120902008002124C
:101773000902BA80021209022C81021209023B817A
:1017830002120902B581021209022482021209021D
:101793002E8302120902578302120902F7830212EF
:1017A3000902458402120902B58402120902E9857D
:1017B30002120902C58602120902368702120902C1
:1017C300B38802120902758902120902108A0212F1
:1017D30009026B8A02120902D68A02120902DA8B03
:1017E300021209029B8D021209023A8E02120902A9
:1017F300AC8E02120902698F021209024A9903127E
:1018030009029E9903120902F69903120902419AE9
:1018130003120902A39A031209023C9B0312090251
:10182300A49B03120902B09B031209023EA30312F5
:1018330009026FA30312090229A4031209028FA448
:101843000312090200A503120902AF900312090251
:101853003B9203120902E7B603120902F8B6031218
:10186300090298B70312090297A903120902A5A94D
:10187300031209020CBB0312090264FF02120902DC
:1018830074FF021209028FFF02120902F0FF021213
:101893000902FD7E00120902827F00120902E67F1F
:1018A30000120902E2B40312090204B50312090289
:1018B3006EB50312090279B503120902BDB503120D
:1018C3000902DCE602120902EAE6021209022BE728
:1018D300021209024CE702120902D7E702120902B7
:1018E300F9E70212090265E80212090280E802120E
:1018F30009029BE802120902A5E802120902AFE8F5
:1019030002120902C2E802120902DBE8021209020A
:1019130077E90212090233EA02120902AAEA021261
:10192300090224EB021209028AEB02120902DAFB12
:1019330002120902E8FB0212090262FC0212090206
:1019430046FD02120902FFFE0212090298BA0312AF
:10195300090234ED02120902A1ED0212090262EE3C
:1019630002120902D2EE02120902DBEF021209028D
:1019730053F102120902B7F1021209020CF2021228
:10198300090215F20212090224F20212090237F2C5
:10199300021209024DF20212090256F20212090260
:1019A30069F202120902BEF202120902BAF4021229
:1019B3000902ECF4021209020EF50212090227F5DC
:1019C3000212090240F5021209024AF60212090242
:1019D300E5F602120902F8AF031209021CB0031262
:1019E300090235B00312090268B00312090299B063
:1019F30003120902C7B00312090229B10312090233
:101A030038B10312090242B1031209024FB10312A2
:101A13000902EB9B03120902119C031209024E9C5B
:101A2300031209025D9C031209027C9C0312090242
:101A3300E49C03120902ED9C031209024C9D03125C
:101A43000902709D031209022F9E031209023C9E94
:101A5300031209024D9E03120902FEB90312090281
:101A63001BBA031209025CF702120902BAF8021246
:101A73000902C7F802120902DAF802120902F9F898
:101A8300021209020FF90212090223F902120902D2
:101A930098F902120902FDF902120902ADFA0212C3
:101AA300090282FB0212090292FB02120902A1FB44
:101AB30002120902B9B703120902DDB703120902C0
:101AC30005B8031209022DB8031209027B9E031203
:101AD3000902A29E03120902C39E03120902289F50
:101AE30003120902E1A003120902FAA00312090278
:101AF30006A1031209021AA10312090238A1031253
:101B0300090242A1031209024CA1031209025FA1B7
:101B130003120902B2A103120902EBA10312090283
:101B23001AA20312090268A203120902B7A203123E
:101B33000902D2A203120902DCA203120902EDA2D6
:101B43000312090233A303120902D5B803120902CF
:101B530037D60212090261D6021209027DD6021299
:101B6300090290D602120902A6D60212090203D76D
:101B73000212090236D70212090272DB02120902AB
:101B830098DC02120902CBDC0212090217DD0212F1
:101B9300090243DE021209026BDE0212090280DE31
:101BA3000212090290DE02120902D4DE02120902B5
:101BB30035DF0212090245DF021209029CB2031249
:101BC3000902B7B203120902E0B203120902FAB220
:101BD300031209021FB3031209023EB303120902DF
:101BE30056B30312090284B3031209029EB303120C
:101BF3000902BAB9031209023F890312090246898D
:101C030003120902528A03120902828A0312090289
:101C1300A88A03120902CB8A03120902ED8A03126E
:101C23000902278B031209028D8B03120902C68B4B
:101C330003120902128C031209023F8C03120902D8
:101C43005F8C03120902F6AC0312090208AD0312FA
:101C53000902F3AD031209028DAE03120902CFB3D9
:101C63000312090241B4031209027FB403120902E9
:101C7300C0B4031209026993031209028593031284
:101C83000902D49303120902F09303120902219467
:101C9300031209023194031209021D95031209026A
:101CA300279503120902349503120902449603127D
:101CB3000902589603120902619603120902008071
:101CC300031209024584031209024A84031209021A
:101CD300BABA03120902D3FF011209023ABA031274
:101CE300090270BA03120902D8BA03120902B3A394
:101CF3000112090207A30112090258A101120902E4
:101D0300139F011209029A9E01120902419E0112B8
:101D13000902D59D01120902AC9D011209029F9B84
:101D2300011209026B9B01120902389B011209027D
:101D33001C9B01120902429A01120902FA9901122B
:101D430009022F9801120902AF9701120902AC97F9
:101D530001120902B39601120902819601120902C6
:101D6300BE9501120902E993011209027A93011245
:101D7300090293AC0112090277AC0112090223ACE8
:101D830001120902DBAB0112090219AB01120902AC
:101D93004C9301120902499301120902369301126D
:101DA3000902CE92011209028CAA01120902BD9204
:101DB300011209029E91011209026891011209029E
:101DC3002B91011209027FAA011209020ED60212F7
:101DD3000902CC90011209029B9001120902568D4F
:101DE30001120902478C01120902D68B0112090262
:101DF3009B8B01120902668B011209025A8B011295
:101E03000902BA8A01120902018A01120902D4875E
:101E1300011209026085011209021E8501120902DD
:101E2300E983011209029E8301120902D082011281
:101E33000902C381011209022782011209028DA737
:101E430001120902FD8101120902A5D1020000005D
:101E530080FBE473000000000000000000000000AD
:101E630000000000101010101010000030300000AF
:101E730000142850000000000000000000000000D3
:101E8300002828FC284850FC50500000000010385F
:101E93005454301814545438100000000044A8A8B7
:101EA300B0541A2A2A44000000000020505060ACAD
:101EB300A898927C000000606020C0000000000031
:101EC300000000000004080810101010101008088B
:101ED3000400000040201008040810204000000007
:101EE3000000001010D63838D61010000000000093
:101EF30000101010FE101010000000000000000081
:101F0300000000000000606020C00000000000002E
:101F1300FC000000000000000000000000000000C2
:101F23000000606000000002040404080810102090
:101F3300202040000000003048848484848448309A
:101F4300000000000010701010101010107C000032
:101F530000000038444404081020447C00000000C2
:101F630000384444180404444438000000000808BE
:101F730018284848887C081C00000000007C40406A
:101F830078440444443800000000003C4480B8C452
:101F93008484847800000000007C444808101010FA
:101FA30010100000000000788484487884848478CA
:101FB3000000000000788484848C740488F000009E
:101FC300000000000030300000003030000000004E
:101FD30000000000100000000010102000000408A2
:101FE300102040201008040000000000000000FC46
:101FF3000000FC000000000000004020100804085E
:102003001020400000000000788484840810100031
:102013003030000000000038449AAAAAAAB4423C17
:1020230000000000001010282828384444EE000067
:10203300000000F844447844444444F8000000009D
:10204300003C44848080808044380000000000F01D
:1020530048444444444448F00000000000FC444029
:102063004878484044FC0000000000FC42404878A7
:10207300484040E000000000003C448480808E849F
:1020830044380000000000EE4444447C444444EEE1
:1020930000000000007C101010101010107C0000D5
:1020A3000000007C101010101010101090E00000C1
:1020B30000EE44485070484844EE0000000000E041
:1020C30040404040404044FC0000000000EE6C6C87
:1020D3006C54545454D60000000000EE646454540D
:1020E300544C4CE400000000003048848484848411
:1020F30048300000000000F844444478404040E089
:102103000000000000304884848484B448380C0004
:10211300000000F844447850484844E600000000BA
:10212300003C44402018040444780000000000FEF2
:1021330092101010101010380000000000EE4444FC
:102143004444444444380000000000EE444428283A
:10215300282810100000000000D6545454546C2852
:1021630028280000000000EE44282810282844EE08
:102173000000000000EE4428281010101038000062
:102183000000007C88081020204044FC0000001C54
:10219300101010101010101010101C0000701010F0
:1021A300101010101010101070000070101010108C
:1021B3001010101010107000001028000000000014
:1021C300000000000000000000000000000000000C
:1021D300000000FE00606020C0000000000000005E
:1021E300000000000000000038441C24443E0000AE
:1021F300000000C04040784444444478000000009C
:10220300000000003C444040443800000000000C43
:1022130004043C444444443E000000000000000029
:1022230038447C40443800000000001C2420F8207F
:102233002020207800000000000000003C484830C7
:1022430040784438000000C040405864444444EEA1
:10225300000000000010000070101010107C00003F
:10226300000000080000380808080808087000008B
:1022730000C040405C48507048EC00000000007013
:10228300101010101010107C00000000000000005F
:10229300F854545454D60000000000000000D864E1
:1022A300444444EE0000000000000000384444446D
:1022B30044380000000000000000F844444444781F
:1022C30040E00000000000003C444444443C040E51
:1022D300000000000000EC30202020F80000000087
:1022E300000000003C443008447800000000000077
:1022F30010107C101010100C0000000000000000F3
:10230300CC444444443E0000000000000000EE447E
:10231300282828100000000000000000D654545460
:1023230028280000000000000000DC48303048ECA2
:102333000000000000000000EE442828101020E0F8
:102343000000000000007C481010247C00001010E6
:10235300101010101010101010101010000136364D
:10236300010100010201000103010001040106064D
:1023730005020000070100340801000F09040101F0
:102383000D0100FF0E08000017020000190100FFF5
:102393001A0100011B0100FE1C0100081D020000C0
:1023A3001F01000120010001210200002301000F91
:1023B300240200002601000127010008280200FF73
:1023C3002A0100072B0102402C0100002D0100010E
:1023D3002E0100012F0100FF30010B1C310800000A
:1023E3003A0100083B01000F2F01000003027102B4
:1023F3003001600211027002010202020202800235
:10240300100261023A004100630273027202620227
:102413004302000213023800000200020402120207
:102423000002000200020002040204023700370027
:102433003C0244020002390000020002650200026D
:1024430035028102000205028202830200020300B8
:10245300710030016000110070003102200350044C
:10246300800010006100000014006300730072001C
:102473006200430000001300060000000000040097
:1024830012000000000000000000040004003700F8
:1024930037003C024400000000000000000065001B
:1024A30000003500810000000500000083000000EB
:1024B3000103710301030103010301030103220368
:1024C30002030103100300030003000300030003DE
:1024D3000003000342030003240306030003000375
:1024E3000403120325032303250323030403040323
:1024F300000300030003440300030003230300035A
:102503006503210035038103000305030003000372
:1025130000030101710101010101110101013101F7
:10252300010101018001100161013B0014006301FD
:1025330073017201620143010001130106013D01B0
:102543003500040112010001000100010001040132
:102553000401330133013C0144013201360000011F
:1025630000016501000135008101000105018201BF
:102573008301000136000100060000000F00000087
:102583000000000000000000000003FFFF00000443
:1025930003FFFF0000FFFF0FF4010005C404032045
:1025A300000100030B000000000000000003010F06
:1025B3000100A81702001E170300241704002A179E
:1025C3000500301706003C171100541714005A1762
:1025D30015004E17FFFF0000161046101C102210A6
:1025E300401034102E104C10521058106410281044
:1025F30010100A1003EAF5E5D5D5C5B5A59595855F
:102603008575756565555545453535252515150577
:102613000AE20D02AC0D05BE0D07B20D0C8E0D0DB9
:10262300A00DFF000000160F00000B150B020002A7
:10263300220F32000006001112111811E00F1E11B3
:10264300DA0FE60F60117E118411661172116C119D
:1026530000034948424D18172505020C0E020B04CE
:102663000B0A0708000F0001191618161615230385
:102673000000383C3E363B3B352B432C303016189C
:102683001920231A1C1E30303017181921301B1D36
:102693001F303A105E1078116A1070105411241113
:1026A3002A1136113011020402010101010902004D
:1026B300000000000000BE040AE8030E0015000439
:1026C30000280008050C0A030908FF1E1E0F040456
:1026D300100C74F7120439E99003B0F0900365E429
:1026E300F0121C469003B5E4F0A3F09003B1F0A3FD
:1026F300F0120F1A121C4C900334E4F0A3F090264E
:10270300D093FA7902121CAC02536B74F21204399F
:10271300EAFEEBFF548060699003B0E0F912145AAB
:102723008A088B09EA4509604F7C0080010CEC752F
:10273300F003A4F8A9F0741328F582742639F583FD
:10274300E493F4602CE493F88508828B83E068704B
:10275300DCAA08EC75F003A4F8741428F582742637
:1027630039F583E493C0E0740193F583D082121E9C
:1027730055AA08AB0912144EEEFAEF6480FB022847
:10278300DBEF5420601D120E3C8A088B09EA4509D1
:10279300600A120DA0AA08AB0912144EEEFAEF64F8
:1027A3002080DAEEA2E0501A90036AE0640F700B07
:1027B3007900120D6AE960031228DEEE6401FAEF74
:1027C30080BB542070030228A9750C00123DB08B06
:1027D30009EA450970107C027D007A207B00900392
:1027E300B0E0F91215A47C0079047A007B00120E84
:1027F300188A088B098018850882850983A3A3A3F7
:10280300A3A3A3A3A3A37401F0850A08850B09E579
:10281300084509606D7C007904AA08AB09120E18FB
:102823008A0A8B0B750C01E5082404F8E509123BB1
:102833005424FFF0A3E034FF125E4770CC85088276
:10284300850983A3A3A3A3A3A3A3A3A3A3E06401D1
:1028530070A5850882850983A3A3A3A3A3A3E0543A
:10286300047094850882850983A3A3A3A3A3A3A3C8
:10287300A3A37406F07AB7850882850983122A0A0E
:102883008087120DE87C0079017A007B00120E1814
:102893008B09EA45097009E50C70057A20124D0A87
:1028A300EE64200227C1EF5402600B120F14EEFAFC
:1028B300EF6402022780EF54046019124EA1124DF7
:1028C300C17901900363125125120CB0EEFAEF6443
:1028D300040227807A007B00022B11900D681231CD
:1028E300A8120D8222C082C08374EA1209CB851814
:1028F30082851983AA82AB83794B121C82740812D6
:102903000BB37402F07409120BB3AA82AB83795030
:10291300121C827413120BB3E41252F4121CA0742F
:10292300160242CE74F712043974E11209CBEAFE9F
:10293300EBFFEE4F6033851882851983AC82AD833C
:10294300120E607406120BB3E0601E7417120BB301
:10295300E0FD7401120BB3E0FCEEFAEFFB79001219
:102963000BD8E9600479A48002790002536674F6F7
:10297300120439EAFEEBFF8E828F83A3A3A3A3A3E2
:10298300A3E05440601B1257E3122AD860067AFF73
:102993007BFF801A8E828F83123F5AFAA3E0FB805B
:1029A30003120E8474FE6A700374FF6B6041125746
:1029B300E3124D4E120ED8E98E828F836006122ADF
:1029C30003E48005122A037401F07C707D0D8E826E
:1029D3008F83125125121CA6E9F5087015EE4F607E
:1029E300097901EEFAEFFB120DF4A908024D7F7588
:1029F30008CDAA088E828F83122A0AE960DF80EA53
:102A0300E0240D12442922E0240C124429E0F91297
:102A13000D7C2274F6120439E9FEEAFF7A0F7B007B
:102A2300121448EA4B60198A828B83740CF0EEA36C
:102A3300A3F0EF8A828B83A3F0124DAA7900802F33
:102A4300EEF9120E1E8A088B09A808A909E8496045
:102A53001C88828983A3A3A3A3A3A3A3A3A374060C
:102A6300125A6EE0F9120D34EEF9120DFA791002D2
:102A73004D7FC082C08390036AE0640F7014EA4BF9
:102A83006010900365E064086005E064047003125D
:102A93002A980242F8EAFCEBFD7A017B009003B02E
:102AA300E0F912159E22C082C0837900EA241DF545
:102AB30082EB123F5724FD600B14600824FD600471
:102AC30024FD7001090242F88E828F83A3A3A3A37E
:102AD300A3A3A3A3A3122ADC22123F9FFB120ED8A7
:102AE300E9228E828F83A3A3A3A3A3A3A3A3A312E9
:102AF3002ADC6402228E828F83A3A3A3A3A3A3A3AE
:102B0300A3A31242EF900356E0682212094D7F06F9
:102B130002065174F412043974FD1209CB8A088B2E
:102B2300098A828B83A3A3E0F9120E1E8A0A8B0BF8
:102B3300AE0AAF0BEE4F7003022C1D850882850988
:102B430083A3E064F16030850882850983A3E06490
:102B5300CD6024850882850983A3E0641A60188503
:102B63000882850983A3E064E9600C8508828509EE
:102B730083A3E064E170087900120DF4E9706C85B9
:102B83000882850983A3E0C0E07402120BB3D0E08E
:102B93001242D3EEF0A3EF1235FE85188285198316
:102BA300AA82AB837005120C988003120EC07402C4
:102BB300120BB3E064E970338E828F83122C297574
:102BC3000A01780A12093E750AE9780A12093EE5F4
:102BD30008240CF582E5091230F01235DBFCA3E082
:102BE300FD8A828B831235F512094D8E828F83A362
:102BF300A3A3A3A3A3A3A3A3E0640270108E828F55
:102C030083A3A3A3A3A3A3A3A3A37406F08508820A
:102C1300850983A3A3E0F9120DFA120DE8900D6C58
:102C23001228E10231ADE0F8A3E0F9E8FAE9FB226A
:102C330074F4120439EAFEEBFF7508008E828F8369
:102C4300A3A3A3A3A3E060427508088E828F83A386
:102C5300A3A3A3A3A3A3A31242028B0BEA450B6076
:102C63001075082C8E828F83A3A3A3A3A3E0D2E0C5
:102C7300F08E828F83A3A3A3A3A3E0540364016014
:102C830003022D1C430811022D1CEE24181231BA25
:102C93006033EE241A1231BA700F122AF87003A3AC
:102CA300E06970757508228070EE241BF582EF12BF
:102CB3002D21241AF582EF123606EE241912581725
:102CC300120D228054122AE57003750801122AF8A6
:102CD3007003A3E0697006E508D2E1F508E5086032
:102CE300158E828F83A3A3E07006E508D2E58004E6
:102CF300E508D2E6F508122ACB64017006E508D28E
:102D0300E0F5088E828F83A3A3E0600D122D2F645C
:102D1300016006E508C2E0F508A9080231B2123FD6
:102D230045122D2822E0FCA3E0FDEE22123F3F12C4
:102D33003F77F9120EC6E922C082C08379018A82E5
:102D43008B83A3A3E0C394024001198A828B83A3DC
:102D5300A3A3A3E0C39402400279008A828B83A3D6
:102D6300A3A3A3A3A3A3A3A3E064F87003A3E0F422
:102D730060458A828B83A3A3A3A3A3A3A3A3A3E0F6
:102D830064F97003A3E0F4602E8A828B83A3A3A368
:102D9300A3A3A3A3A3A3E064FA7003A3E0F46017BF
:102DA3008A828B83A3A3A3A3A3A3A3A3A3E064FB0C
:102DB3007003A3E0F4700279008A828B83A3A3A338
:102DC300E0F8900353E068600279000242F874F07F
:102DD30012043974DE1209CBEAFEEBFF8E828F8375
:102DE300A3A3A3A3E0600E900D6A124D7660069034
:102DF3000D6A1228E17403120BB3AC82AD838E8289
:102E03008F83A3A3A3124DF8125631E9600F740305
:102E1300120BB3AA82AB83120D9AE97008790112DF
:102E23001C580230E5EE241B123F4A7410120BB3F8
:102E3300124DC17409120BB3E06021741A120BB363
:102E4300E0FD7404120BB3E0FC8E828F83125123D6
:102E53007901120BD8E96004790280C37403120B61
:102E6300B3AA82AB83120D94E9F50A7409120BB36A
:102E7300E0702A90034DE060247422550A642260B6
:102E83001C7442550A644270CF7420120BB3123182
:102E930003600A7420120BB31230FC70BBE9A2E684
:102EA30050417403120BB3AA82AB83120D88E970ED
:102EB30003022E207420120BB3123F5A6403700FC7
:102EC3007420120BB3A3124D68A3E0640D60147455
:102ED30003120BB3AA82AB83120EEAE964017003F7
:102EE3000230E5EE242C1230ED1234117003A3E00E
:102EF30069701C750800780812093E780812093EAB
:102F0300EE242E1258171231091235F512094D7499
:102F130009120BB3E07003022FC2123109125125BB
:102F2300120F3E8A088B09EA4509700302305F7469
:102F330004120BB3E0F88E828F83A3A3E028F8A3D7
:102F4300E03400F9E8240D1230F48A828B83A3A3C2
:102F5300A3E068601CE88A828B83A3A3A3F090811B
:102F630092120B90850882850983A3A3A3A3120B56
:102F73009C7904E9120BB312560E2AF8A3E034002D
:102F83008882F583A3AA82AB831214368A0C8B0D35
:102F93008C0E8D0F850882850983A3A3A3A3780CC8
:102FA3001208DA40030230E5908182780C120A702D
:102FB300850882850983A3A3A3A3780C120B7490BD
:102FC3000365E064046008E0640960030230E5E53A
:102FD3000AA2E5400302309DEE242E1231BA851871
:102FE30082851983F0EE242F1231BAC0E0740112E6
:102FF3000BB3D0E0F0EE24301231BAC0E074021209
:103003000BB3D0E0F07414120BB3E06401702774B7
:103013000E120BB3123F50EE24121231BA68700332
:10302300A3E0697011740C120BB3122AF2700774C7
:1030330014120BB3E4F0EE24241230ED1207837460
:1030430004120BB3AC82AD837407120BB3AA82AB29
:1030530083120C9E740412094D0230E59003AAE01A
:1030630064016003022FC27420120BB31231037088
:1030730009E50AA2E65003022FC27410120BB3E053
:10308300F47003A3E0F4605AEEFCEFFD7403120B3B
:10309300B3AA82AB83120DA68048A2E650447420E3
:1030A300120BB3125134701A741A120BB3E0640288
:1030B30070307403120BB3AA82AB837900120EB47F
:1030C30080207420120BB31230FC7016741A120B8A
:1030D300B3E06404700C7403120BB3AA82AB8312C3
:1030E3000EAE74220254E0EE240BF582EF123F453C
:1030F30022F582E9124DDAF8221257F5E06407222D
:10310300123F77640622EE242A123F42122D28240E
:1031130012123F422274F4120439EAFEEBFF8C08C8
:103123008D0990063DE0600F122AF87003A3E06951
:103133007005120D10804F7900125118120D408A3C
:10314300828B83E58245836035A3A3A3A3A3A3E076
:103153005418602AE508241BF582E5091230F012A1
:1031630007871237EE1230F0120787EE2418125831
:103173001712318B120D52740412094D8008790015
:1031830012318B120D1680278E828F83A3A3A3A3E4
:10319300A3A3A3A3A3122D28240BF582EF1231A41A
:1031A300223400F583123F9FFB22740312094D7FE3
:1031B30004020651EE2417F582EF124DDA2274F75A
:1031C30012043974F71209CBEAFEEBFF900365E0B2
:1031D3006403600DE064016008E064096003023287
:1031E3008B8E828F83A3E0707E7C007D007A027BCE
:1031F30000121C52EE2402FAEF123B5B123F509076
:103203000356124DC17953121C887900123290E093
:1032130064096003123623851882851983740112A9
:103223004D979003657404F07401120BB3AA82AB3B
:1032330083794A121C827401120BB3AC82AD837A78
:103243005B7B03121C709003561256277A031236C7
:103253002D900350E0A2E35004D2F08002C2F0129A
:103263004D841228DE801E8E828F83A3AE82AF83AD
:10327300FC7D007A037B10121C528E828F83E0F94F
:10328300123290E4F0120DD0740902536890036374
:103293001231A8120CB090036522C082C083900340
:1032A30034124D76701F900365E014600924FC60AE
:1032B3000A14600C800F90033C8032900338802DF9
:1032C30090033A8028E84960089003351235D57099
:1032D3000C8A828B83A3E0F9120CA4801B90033524
:1032E30012388A7005120F08800E9003D2124D76A1
:1032F3006006124D68121E550242F874F412043926
:1033030074FB1209CB8A088B097A0F7B00121448CD
:103313008A0A8B0BAE0AAF0BEE4F70030234058E95
:10332300828F831252F27950121C8285088285099A
:1033330083A3E060030233ED900363E0F47003A31F
:10334300E0F46034900363E064FE7003A3E0F46090
:10335300278518828519831234117003A3E06960ED
:1033630017850882850983A374EA12360B7A637B77
:10337300037950121C88807285188285198312572D
:10338300D6124DC17A567B037953121C8290035691
:10339300124DF2124DC17A597B03794B121C827A7A
:1033A300587B0379E1121C8290036AE0C3940F50A7
:1033B30021900358E0C0E07402120BB3D0E0F07424
:1033C30004120BB37401F004120BB3AA82AB831281
:1033D3001C9A750A00780A12093E780A12093E906F
:1033E3000D92E0F91235EC12094D850882850983A7
:1033F30012340AA3F09003657403F0EEFAEFFB12A4
:103403004DAA74050231AFA3E08E828F8322125737
:10341300DAE068221244302274F512043974D812A7
:1034230009CB8A088B098A828B83A3A3A3123F7CCF
:103433007415120BB3AC82AD838A828B83A3A3A3CF
:10344300A3A3A3A3A31235DBFAA3E0FB120DD67447
:1034530015120BB3E0706B850882850983A3A3A3C0
:10346300A3A3A3A3A3E0C3940B40578E828F83A38C
:10347300A3A3A3A3A3A3A3E064027046EE240B12A9
:1034830031BAF4703D900365E06402603AE064068B
:103493006035900334124D7660051235D5604F9038
:1034A3000365E064086005E0640470167417120B8A
:1034B300B3E0F9741C120BB3AC82AD831251181232
:1034C3000DDC7428025CF4900334124D76701F7582
:1034D3000800780812093E780812093EEE241012FB
:1034E30030ED12582F123C431235F512094D8E82DE
:1034F3008F83125094123B6D123F507402120BB320
:10350300124DC1EE240D1231BAC0E07404120BB394
:10351300D0E01235FEF508A3E0F509740F78081220
:103523000B657405120BB3E508F07419120BB3E0C5
:10353300C0E07406120BB3D0E0F0741B120BB3E0BF
:10354300C0E07407120BB3D0E0F07416120BB3E0B3
:10355300C0E07409120BB3D0E0F07417120BB3E0A0
:10356300C0E07408120BB3D0E0F0EE24101231BAAD
:10357300C0E0740A120BB3D0E0F0741A120BB3E07C
:10358300C0E0740B120BB3D0E0F07427120BB3E05E
:10359300C0E0740C120BB3D0E0F0741C120BB3A98F
:1035A30082AA8389088A09750A0078081209367C79
:1035B300087D007410120BB3AA82AB831249251243
:1035C300094D851882851983AA82AB83120CAA023E
:1035D30034C5123890640122E0F98A828B83A3A355
:1035E300A3A3A3A3A3A3A3E02290036312562B9048
:1035F30003591231A8120E96740222F0EE240B1214
:103603004DD722124DDAFA22F07A567B0379531200
:10361300361622121C887A597B03794B121C882296
:103623009003631231A8120F38227B00121C5290B0
:10363300035912562B7A047B00121C5222F01258A3
:103643003A2274F212043974F81209CBEAFEEBFF42
:103653008C0A8D0B890C851882851983AC82AD8306
:1036630075838175824C740812087BF50DEEFCEFAF
:10367300FD851882851983AA82AB83124FF57003E7
:10368300750D019003B1803BEEFCEFFDE508240BC3
:10369300FAE5093400124FF4601E85088285098318
:1036A300A3A3E0650C7011850882850983E0650A90
:1036B3007004A3E0650B6038E5082414F582E5097E
:1036C3001230F0123B65E50845096024E50DA2E0E0
:1036D30040B6850882850983E0650A7004A3E06526
:1036E3000B70D5850882850983A3A3E0650C70C898
:1036F300AA08AB097408022B0EC082C0839003B1E1
:103703000242F574F71204399003B1123F9F8012FD
:10371300EA2414F582EB1230F0123F7C1214EAEE25
:10372300FAEFFBEA4B70E99003B1E4F0A3F0025324
:103733006B7F0702065174F1120439EAFEEBFF892D
:103743000A8C088D098E828F83E08C828D831242CE
:103753000CAE82AF83E01249E5124956C41249E523
:103763001237F7E054038C828D83124954A2E2E4AA
:10377300338C828D83124953131313541F1249E55B
:10378300124952A2E7E4338C828D83A3A3A3A3122D
:1037930037F78E0C8F0D750E00780C1209367C08E6
:1037A3007D00E508240712559A12094D1256058E1D
:1037B3000C8F0D780C1209367C037D00E508240F6D
:1037C30012559A12094DE50AC3940F40148E828F45
:1037D30083A3A3A3E0C0E01237EE1230F0D0E08061
:1037E300061237EE125A62F0023734E5082412F556
:1037F30082E50922A3A31242100EAF832274F412AE
:10380300043974F91209CBEAFEEBFF8908900334FB
:10381300124D76600E12388A7009EEFAEFFB120F22
:1038230002805F900363E06E7003A3E06F705374D4
:1038330001650860097A777B03124FF570447A00BB
:103843007B02123DB48B0BEA450B70369003661274
:103853000B90851882851983120B9C90036CE0C032
:10386300E07404120BB3D0E0F07405120BB37401CF
:10387300F07406120BB31252F2120C74E9609B122D
:103883000C7A74070231AF1238906402221257F691
:10389300A3A3A3A3A3A3E02274F51204398A088B7C
:1038A300098A828B83A3AE82AF83E0F9120CC88EA0
:1038B300828F83E064EB600C850882850983A3E033
:1038C30064E17009850882850983A3E4F01228DE88
:1038D300750A01780A12093E850882850983A3E0E7
:1038E300F508780812093E79001235EC12094D12D9
:1038F3000DE8025CF7EAF0A3EBF00242F874F6126B
:1039030004399003B4E0701B7C0079017A007B00DA
:10391300120E18EA4B600C8A828B83124D76600379
:10392300120D76024D7FC082C083123D9C401079F8
:10393300FF120E12E9F89026D4E493C39850047949
:1039430001800279000242F874F01204398A088B6C
:1039530009890B750C008A828B83A3A3A3A3A3A35A
:10396300A3A3E0F9120E1E8A0E8B0FAE0EAF0F75D6
:103973000A01EE4F6003023A29850882850983A371
:10398300A3A3A3A3A3125627850882850983A3A310
:10399300A3A3A3A3A3124725125125120E068A0C33
:1039A3008B0DAE0CAF0DEE4F7003023B4C8E828F2E
:1039B30083A3A3A3A3E4F0A3F0E508240B123B58CD
:1039C300E0C0E01230EAD0E0F0120EDEEE240CF597
:1039D30082EF124D4AE508240EF582E509123F4DA8
:1039E300EE240EF582EF124DBE750C01EE2406F89F
:1039F300EF123B54547FF0A3E054FC12588CE05474
:103A0300046003023AAF900D7012471674077808EA
:103A1300120AE28E828F83A3A3A3A3A3A3E0450884
:103A2300F0A3E04509F08E828F83A3A3A3A3123BE7
:103A33006374077808120B65E5085407F508E50B6E
:103A4300607A8E828F83A3A3A3A3A3A3A3A3A37448
:103A530002124957240D124425E0A2E2500B9003B1
:103A630051124DF2A3A3124DC1E5087003023B218D
:103A7300EE2406F8EF3400F9E8FAE9FB8A828B8337
:103A8300E0547FFCA3E054FCFDE50824FFF508E4C3
:103A930034FFF50974077808120AE2EC4508F8EDDB
:103AA3004509F98A828B83124DC180728E828F837E
:103AB300A3A3A3A3A3A3E04480023A28E5087005C7
:103AC300750A0080598E828F83A3A3A3A3A3A3E0C7
:103AD30054206012121442EA547F245F8E828F8333
:103AE300A3A3A3A380238E828F83A3A3A3A3A3A3B0
:103AF300E05410600A121442EA540F240A80DD8E47
:103B0300828F83A3A3A3A37401F0A3E4123B6D7478
:103B130004123DAB8B09EA45097003124D3DE50CD8
:103B2300A2E050288E828F83A3A3A3A3125358F934
:103B3300EEFAEFFB120E0CE96012124D6C600312E9
:103B43003F35EEFAEFFB1214EA750A00A90A025494
:103B5300E3124EB522FAE5093400FB8A828B8322F5
:103B6300A3A3E0F508A3E0F50922123B7122125545
:103B7300B6A3A3A3A3A32274F412043974F71209FE
:103B8300CB7E00120E1EEA4B7003023C3C8A828BF2
:103B930083A3A3A3A3A3A3A3A3A3E0640660030235
:103BA3003C3C8A828B83A3A3A3A3A3A3A3E0FF8AA2
:103BB300828B83124438E0C0E07408120BB3D0E068
:103BC300123F70124FFB124DC1120E30EF540860BA
:103BD300668518828519831256277A007B00120E98
:103BE300008B0BEA450B704F900363124060121C6D
:103BF300B27C007D007A007B0080288E828F831246
:103C03003F5AF47003A3E0F4602D900363123C4326
:103C13001251251219A6E9641A601C7C007D00EE7E
:103C2300FAEFFB120E008A0A8B0BAE0AAF0BEE4FB4
:103C330070C97900121CB87E01EEF974090231AF24
:103C4300123C4722E0FCA3E0FD8E828F8322C082D8
:103C5300C083EA4B70059003B580068A828B83A3E9
:103C6300A3123E6060258A828B83A3A3A3A3A3A38D
:103C7300A3E0540860E5EC4D60158A828B83123F04
:103C83005A6C7003A3E06D70D280047A007B00024B
:103C930042F874F2120439EAFEEBFF890A8C088DAC
:103CA300097A107B001214E4EA4B603F8A828B830B
:103CB300A3A3A3A3A3A3A3A3A3E4123F5EA3E50A21
:103CC3001257FCA3123CF88A828B83A3A3A3A3E419
:103CD300F0A3123F6AA3F0125690EA240CF582EB8C
:103CE3001241FC123CF1A3A3F0A3F0022B11A3F0A9
:103CF3008A828B8322A3A3E508F0A3E509F022744B
:103D0300F4120439EAFEEBFF89088C0A8D0BEE4F9F
:103D130060557401650870147901120E12E9F89068
:103D230026CCE493C398500F7911806A7404650814
:103D3300702F123D9C40F18E828F83A3A3A3A3A374
:103D4300A3A3A3A3E50812420CA3125D818E828F65
:103D530083A3A3E4F0A3F09003B5124D7660218012
:103D63000D7402650860D079C1802BE0F8A3124D71
:103D7300EBA3A3123E6088828983A3A370ED800323
:103D83009003B5EEF0A3EF123DAB8B0BEA450B703E
:103D930003124D3D79000231B27904120E12E9F893
:103DA3009026C7E493C39822F0123DB0227A207B79
:103DB300009003B0E0F91215B022C082C083E9F885
:103DC30079009003B5801D8A828B83A3A3A3A3A349
:103DD300A3A3A3A3E068600574FF687001098A8246
:103DE3008B83A3A3123E6070DE0242F874F71204C1
:103DF30039EA4B70059003B580068A828B83A3A3AF
:103E0300123E6060248A828B83A3A3A3A3A3A3A3EC
:103E1300A3A3E06970E4EC60148A828B83E0240D31
:103E2300125618A2E240D380047A007B0002536B3F
:103E3300C082C0839003B580068A828B83A3A312BA
:103E43003E6060128A828B83A3A3A3A3A3A3A3A32D
:103E5300E06970E580047A007B000242F81231A821
:103E6300EA4B2274F21204398A0A8B0B8C0C8D0DE7
:103E7300750800750900EA450B602E9003B58006AE
:103E83008E828F83A3A3123EB3601EAC0CAD0DEEE6
:103E9300FAEFFB850A82850B83121E55E9640170D4
:103EA300DFEEF8EFF988088909AA08AB09022B119C
:103EB300E0FEA3E0FFEE4F2274F71204399003B53E
:103EC300123F507C007D00800DE8FCE9FD8882896B
:103ED30083A3A3123F50E8496030EA687002EB699C
:103EE30070E79003B5125125E86A7002E96B888286
:103EF3008983A3A37008123F509003B58009123F32
:103F0300508C828D83A3A3124DC102536B74F7129D
:103F13000439EAFEEBFFEE4F6015120E2A123F82C0
:103F2300124D6C6003123F35EEFAEFFB1214EA02F6
:103F3300536BEE240C123F42123F9722EE241DF5E1
:103F430082EF3400F58322F582EF123F451242EFF0
:103F530022F582EF123F45123F7722123F6222126F
:103F63005804A3A3A3A322123F62A3A322123CF2E9
:103F7300123F77221257EFE022E0FEA3E0FF228EEA
:103F8300828F83E0241C124429123F978E828F83F1
:103F9300123F9722123F9FFB1214EA22E0FAA3E09A
:103FA30022C082C083EAFCEBFDEC4D7004790580EE
:103FB30044EC24FBF582ED34FF124D747007123F7D
:103FC300FBE0F4600512144E80E39003B0E0C0E020
:103FD300123FFBD0E0F09026C9E493F97AB77B0354
:103FE300121478E96401700B7A007B20124D417939
:103FF30000800279040242F8EC24FFF582ED34FFDD
:10400300F5832274F4120439A2AFE433F508C2AF86
:104013009003B7123EB36038EE24FBF582EF34FF12
:10402300124D747A007B209003B06005124D4480DA
:1040330005E0F9121484E4F50AF50B780A12093A3B
:10404300EEFCEFFD7AB77B03121472740212094D72
:10405300E508A2E092AFEEFAEFFB0231B212562B63
:10406300851882851983AA82AB832274F2120439DC
:1040730074FC1209CBEAFEEBFF750AFE750BFF1207
:104083000DEEE9600579110241F1EE24151231BA02
:104093006037900D84E0C43354E0F8E0333354FCCC
:1040A30048C0E0EE24151230EDD0E012420C12426B
:1040B300028B09EA45096011750AFFEE240F1231DC
:1040C300BA4404124DCFD2E0F08E828F83122AD6E7
:1040D3006006EE24121241F9EE24131231BA701065
:1040E3009026CFE493C0E0EE24131230EDD0E0F03D
:1040F3008E828F83E0A2E750045403801CEE2414C5
:104103001231BA7015900342E0C0E0EE241412306D
:10411300EDD0E0F0900342E004F0EE24111231BA46
:1041230064017016900634E0600D90034DE0700A50
:104133008E828F83E070031241F68E828F83E06458
:10414300017013EE240B123F5464027009EE240F26
:104153001231BA4440F0851882851983AC82AD834D
:10416300EEFAEFFB120E548A088B0974FE650A708F
:104173000374FFF470098E828F83A3A31255A6EAFA
:10418300450960668E828F83E0C0E07401120BB331
:10419300D0E0F07402120BB31256947401120BB3F5
:1041A30085820C85830D780C12093AEE240F1230A8
:1041B300ED120787EE240E1231BAF50C780C1209B2
:1041C3003E9003561207877407120BB3E0F9AC0A4B
:1041D300AD0B120E4E740712094DE9FE74106E708A
:1041E3000BAA08AB091214EA80027E10EEF97404DC
:1041F300022B0EEE2411F582EF123F45E4F022A3C9
:104203001231A879FF121D842212421022F08E82ED
:104213008F83A322C082C08374DE1209CB8A828B70
:1042230083A3A3A3A3123F50740E120BB3E8F0A30E
:10423300E91242E6740C120BB31242DF240DF5822D
:10424300EB1231BDC0E0741A120BB3D0E0F012547C
:10425300F3EB123F4D7420120BB31242DF2415F51A
:1042630082EB1231BDC0E07408120BB3D0E0F0EA68
:10427300241CF582EB123F4D7412120BB31242DF72
:104283002411F582EB1231BDC0E07409120BB3D0D7
:10429300E01242D374FFF07401120BB374FFF07495
:1042A30002120BB374FFF09081921207837404120D
:1042B3000BB3AC82AD837407120BB3AA82AB831228
:1042C3000C9E740412094D7900742212094D802545
:1042D3001242D722F085188285198322E8F0A3E9D8
:1042E300F0EA22123CF2A31242EE22A3E0F8A3E08A
:1042F300F922125125D083D0820208FF74EC1204F4
:104303003974EE1209CB8A128B13ECFEEDFF890987
:104313007426120BB31255A67428120BB3E0F510D2
:104323007429120BB312441A742B120BB3E0F50E5B
:10433300A3E0F50F7508107A1E7B001214E47402D3
:10434300120BB3124D4E7402120BB3124D7670035F
:10435300024413851882851983AA82AB837950128C
:104363004C291251257402120BB3124438A3124D77
:104373004E7410120BB3125D837402120BB3E0245C
:104383000B1244257402F0120BB31244387402F07A
:10439300120BB31257E71256947402120BB3125155
:1043A3003AE509F07402120BB3E0240C124425E53C
:1043B30010F07402120BB3124422E512F0A3E513BA
:1043C300F07408120BB3E50CF0A3E50DF0740A12B8
:1043D3000BB3E510F0850E82850F83C082C0837412
:1043E3000D120BB3AC82AD83D083D0827403120859
:1043F3007BF97402120BB3AA82AB83120DF4E96446
:1044030001700575080080087402120BB3123F3B5C
:10441300A90874120255BDE0F50CA3E0F50D22E0E6
:10442300241C12442922F8A3E0124430223400F958
:10443300888289832212512DA3A3A3A3A32274EEFE
:10444300120439EAFEEBFF8C088D098E828F83A359
:104453007408124E0AE060088E828F83A37410F0F2
:104463001231B760098E828F83A3E02408F0EE2413
:10447300151231BA60088E828F83A3E004F08E8216
:104483008F83A3A3A3A3A3A3E060198E828F83A327
:10449300A3A3A3A3A3A3E0C3332402F88E828F8331
:1044A300A3E028F0EE24111231BA6005750B0E80DB
:1044B30003750B008E828F83A3C082C083EE240D0D
:1044C3001231BAD083D082F8E028250B8C828D83F9
:1044D300F0EE24111231BA600512493528F085082F
:1044E30082850983E0C39475400975080075090046
:1044F300024623E0FA7B001257427003024623EE82
:10450300FAEFFB120E5AEA850882850983124D4F92
:10451300EE2402F8EF12341712471D12465FF0EE35
:1045230024040808EF123417124B5FA312465FA34B
:10453300A3F0EE2413124645F0EE2414124645A3CD
:10454300F0750A08EE24161231BA6010EE24181220
:104553005624E5082408125825750A101231B7604D
:1045630016EE241A125624850A0CE508250C125857
:10457300257408250AF50A8E828F83A3A3A3A3A318
:10458300A3E06059EE2407F510EF3400F511851010
:1045930082F583E0C0E012462C1230F0D0E01246E0
:1045A3004FE0C0E012462C1230F0D0E012464FA389
:1045B300124638120936851082851183E0C333FC15
:1045C300E433FD850A0CE508250C12559A12094DB2
:1045D300851082851183E0C333250AF50AEE24157D
:1045E3001231BA600BC0E012462C1230F0D0E0F06A
:1045F3001230EA124638120936EE240D1231BAFC93
:104603007D00850B0A8E828F83A3E0F8E50828F8E6
:10461300E5093400F9E8250AFAE912559D12094D16
:10462300AA08AB097F0A020651850A0CE508250C86
:10463300F582E50922E0F50CA3E0F50D750E00788F
:104643000C22123F42124669A3A3A322F0050A8E4D
:10465300828F83A3A3A3A3A3A3A3A322A3A31258D9
:1046630090A312466922124B63A3A32274F6120489
:10467300398A828B83E0FC900353124716740278C5
:1046830008120AE2EC4508FCAD09EA2412124710AD
:1046930074067808120AE2EC4508FCED4509FDEAC8
:1046A3002415F582EB1231BD600478018002780095
:1046B300E4C8F9ED49FDEA2411F582EB1231BDF5A9
:1046C30008880974097808120AE2ED4509FDEA240D
:1046D30016124710740B7808120AE2ED4509FDEA39
:1046E3002417124710740C7808120AE2ED4509FDED
:1046F3008A828B83A3A3A3A3A3A3124716740A7866
:1047030008120AE2ECFAED4509FB024D7FF582EB54
:10471300123F45E0F50875090022E0850882850906
:104723008322A3E0F98508828509832274EE1204AB
:10473300398A0A8B0BECFEEDFF750F01E9C3940870
:10474300500579000249228E828F83E9F0124B884B
:10475300E96003750F00124B6C8E828F83124BB688
:10476300EE1254F4EF124BABC0E0EE24111230ED15
:10477300D0E0124BA3C0E0EE24121230EDD0E012D1
:10478300420C74081255AEA3A3A3E06015124B5458
:10479300EE2413F582EF124DBE8E828F83A3E024A5
:1047A30008F08E828F83A3A3A3A3A3A3A3A3E06094
:1047B300218E828F83A3858208858309124B97EE0E
:1047C3002415F582EF124DBE850882850983E02406
:1047D30008F08E828F83A3A3A3A3A3E0601A8E8223
:1047E3008F83A3858208858309124B7B8E828F83F7
:1047F300A3A3A3A3A3124947EE24191241F9EE245C
:104803001B1241F9A3124E02E070030248B6EE24D4
:1048130019F8EF3400F98E828F83A385820885838C
:1048230009E0FAE50A2AF582E50B1231BD8882898F
:1048330083124947FAE50A2AF582E50B1231BDC016
:10484300E0EE241A1230EDD0E012494788828983C2
:10485300E06059F89026C8E493C398500575110C8D
:104863008008EE24191231BAF5118E828F83A3E0EA
:10487300F8E50A28F50CE50B12492B120936E51168
:10488300C333FCE433FD7A147B0C12492512094D22
:10489300EE241B1230ED7414F0A3740CF0E511C375
:1048A30033F8850882850983E0288006EE241812F0
:1048B3005A5FF08E828F83A3E0F88E828F83E0C3EA
:1048C300985003024745A3E0FA8A08E50A2508F849
:1048D300E50B3400F9EE241DF582EF124ECA12499E
:1048E30057C39AC0E0EE24171230EDD0E0124DC743
:1048F300602BEE2417F8EF3400F9880889098882C1
:10490300F583E024F2124EAB240EFAA3E03400FB4D
:1049130088828983124D4E124935C398F0A90F023C
:10492300462712141E7403223400F50D750E007809
:104933000C2290034EE0F9120BDEE9F8850882851C
:104943000983E022F0850882850983E004F022A32D
:10495300A3A3A3A3F08E828F83E02274F4120439FD
:104963008A088B09EA1249ECF0EA1313543F1249FF
:10497300E5A3A3A3F0EAC413131249ECA3A3F0EB3A
:104983001249DE1249F67409780A120B651249DCE2
:104993001249F5740A780A120B65E50A5401C0E05E
:1049A300EC2418F582ED1230F0D0E01249FB740BC1
:1049B300780A120B651249DCA31249F5740C780AC4
:1049C300120B651249DCA3A3A3A3A3A3A3A3F074AF
:1049D3000D7808120B65022D1CE50A54018C828D9B
:1049E3008322540F8C828D832254038C828D83A364
:1049F300A322A3A3A3A3A3A3F08A0A8B0B22C0829F
:104A0300C08379008A828B83A3A3A3A3A3A3E0908B
:104A1300034D600FE070228A828B83A3A3E0701999
:104A2300098016E060138A828B8312511C9003560F
:104A3300E06A7003A3E06B70E70242F874F01204BB
:104A4300398A0A8B0B890C8C088D09124B88124BFF
:104A53006C850882850983124BB6E5081254F4E588
:104A630009124BABC0E0E5082411F582E5091230C9
:104A7300F0D0E0124BA3C0E01237EE1230F0D0E0DA
:104A8300124ED27408124EEB6011124B54E50824F7
:104A930013124EC6124ED2E02408F085088285090F
:104AA30083A3A3A3A3A3A3A3A3E06017850882857D
:104AB3000983A3124B93E5082415124EC6124957D6
:104AC3002408F0850882850983A3A3A3A3A3E06038
:104AD30019850882850983A3AE82AF83124B7B8538
:104AE300088285098312495204F0AA08AB09120E01
:104AF3006CE9F50D7056850882850983A3A3A3A3EA
:104B0300A3A3124B5F7014E0FA8A0EE50A250EF890
:104B1300E50B124DB3E50CC39A8021124B93E824A5
:104B23000EF8E9124DB390034EE0F9120BDE8E82BC
:104B33008F83E0F8E50CC39824F2C399C0E0E5083D
:104B43002417F582E5091230F0D0E0F0A90D0254E4
:104B5300E3E50A2408F8E50B3400F922124B63223B
:104B6300E0850882850983A322850A82850B83A3B6
:104B7300A3124BCCE0F9EA22E0F8E50A28F582E536
:104B83000B124DDA228A828B831254E8120E6622AC
:104B9300AE82AF83E0F8E50A28F8E50B3400F9228A
:104BA300124BDFA3A3A3E022123F45E8124BD8A385
:104BB300A3E022A3A3A3A3A3A3A3A3A3124BD8124B
:104BC3004BCCA3A3E0F9EAF822E0FA850A82850B2D
:104BD30083A3A3A322F0A3E9124BDF22F0850A8269
:104BE300850B83A3A3A3A322C082C0837AC57B03BF
:104BF30079E2121C827AC57B030242F8C082C08329
:104C03009003560242F5C082C08374FE1209CB851D
:104C13001882851983AA82AB83794B124C291251CE
:104C23002574020242CE121C8285188285198322C2
:104C3300C082C083794A121C820242F874F61204BD
:104C4300399003CDE0FE04F0EEF9120E1E8B09EA53
:104C5300450970EDEE60EAF9024D7F74F0120439F4
:104C6300EAFEEBFF8C088D09890A7410120BB3E07E
:104C7300F50B7411120BB3E0F50C120F3EEA4B70F7
:104C830013E50C7042A90AAC08AD09EEFAEFFB126A
:104C93000F56806EE50A6021EA2402F582EB123199
:104CA300BD850A082508F8E4340013E813F07009F9
:104CB3008A828B83A3A37401F0E50C6045E50B7036
:104CC300068A828B83E4F07401650C7035E50B90E2
:104CD30003D47004E4F0802AE004F0900D71E0F84E
:104CE3009003D4E0C398401AE4F0900359E06E7047
:104CF30003A3E06F700CEEFAEFFB7901120CC21202
:104D03004D080254E37A017B009003B0E0F91215D9
:104D1300AA22C082C08374016A7001EB70077A0112
:104D2300124D3F8012900D68124D4EEA4B600512F2
:104D33002A988003124D080242F87A207B009003E0
:104D4300B0E0F912147E223400F583EAF0A3EBF00D
:104D530022C082C083900D6A0238F8C082C083905B
:104D63000D6C0238F81257F622EE240CF582EF345C
:104D730000F5831242EFE8492212094D7F02020631
:104D830051A2F0E433851882851983124DA079521C
:104D9300121C8822124DA07942121C8822F0AA828A
:104DA300AB8322AA08AB099003B0E0F9121E4A2292
:104DB3003400F9E508241DF582E509123F45E8F0C2
:104DC300A3E9F0221255B2A3A3E022A3F0EE241527
:104DD300124DD722F582EF3400F583E022124DE421
:104DE300223400F583E0F8A3E0F98882898322E086
:104DF300F8124DF822A3E0F98E828F83A3A322F049
:104E0300EE2418123F4222F0EE2416123F4222747F
:104E1300F4120439EAFEEBFF7A007B04124D0C1204
:104E23004EA1124DC19003657409F0120E788A08E1
:104E33008B09AC08AD09EE24131230ED1251251283
:104E43004FF5640170487A0F124E9460418A828B49
:104E5300837402124EABFAA3E0FB8A828B83A3E036
:104E6300FC8A828B83A3A3E0FBEC850882850983FC
:104E7300A3A3124D4F8882898312512912471D1211
:104E83004DCEFAA3E0FB794A121C88124DA60231DB
:104E9300B27B001214488A088B09EA450922900361
:104EA300361242EF900D6C22F0EE241DF8EF124EF5
:104EB300B522124430E022124EBE223400F5837430
:104EC30001F022F582E509123F45E8F0A3E9221239
:104ED3004ED622124EDA22F0850882850983A32258
:104EE300124EDAA3A3A3A322124EE3A3A3E022123A
:104EF30052FC120ECC22EE2417F582EF124EBE1294
:104F03000E78EE241A123F42EAF0A3EBF02274F477
:104F130012043974F31209CB8908EAFEEBFF7C0D06
:104F23007D007900851882851983AA82AB831214C8
:104F33002AEE241D1230ED1257E7A3E0F8741F5830
:104F4300600A7901121C587900024FECE8A2E5507F
:104F530008740C120BB37401F0E8A2E75008740B49
:104F6300120BB37401F0E8A2E6740A5008120BB3F3
:104F73007401F08008120BB3E064017005EE241392
:104F83008003EE24151256247402120BB3AA82ABCB
:104F930083121C701230EA124FFA124DC1740A12B6
:104FA3000BB3E064017033122ACB703B120E848A78
:104FB3000A8B0BA80AA90BEE240B1231BA687003F3
:104FC300A3E0697022120E78EAFCEBFD7402120B67
:104FD300B3AA82AB83124FF5600D851882851983BE
:104FE300AA82AB83120CBCA908740D0231AFEEFA8E
:104FF300EFFB121C6AE922E0124FFF22F8A3E0F94B
:105003008518828519832274F612043974F3120900
:10501300CB8A088B09ECFEEDFF7C0D7D00790085C2
:105023001882851983AA82AB8312598CA3A3A3A3E5
:10503300A3A3A3A3A312509412509DF8A2E5500872
:10504300740B120BB37401F0E8A2E75008740A1250
:105053000BB37401F0E8A2E6EE500424138002249B
:10506300151256247402120BB3125086A3A3E0C088
:10507300E0740C120BB3D0E01252F4120CB6740DA0
:10508300024D7CAA82AB83121C708508828509833A
:1050930022E0124FFFE8F0A3E922F0123F3F12573C
:1050A300EBA3E02274F712043974E11209CBEAFE90
:1050B300EBFF8E828F83125129A3A3A3E0A2E050BA
:1050C300518E828F83122C2B8A828B83A3A3A3A35B
:1050D300A3A3E054FE1251418A828B8312513AE01A
:1050E300F98A828B83E0241CFAA3E0123B5B125102
:1050F30025120E72E9701B741D120BB3125134701A
:1051030011851882851983AC82AD83EEFAEFFB1209
:105113000EBA0253668E828F83A3A3A3A3A3A3A372
:10512300A3A31231A82212512D221257EFA3A3A336
:1051330022123F77640422E0241B124429221242E4
:10514300D7AC82AD8322E9F87900740468600A74ED
:105153000A6860057403687001090208FF74F61297
:1051630004398A828B837420F0A3A37401F0120C98
:10517300688A088B09AE08AF09EE4F60108E828FE4
:10518300837401F09003A3E07003124EF9EEFAEF7B
:10519300FB024D7FC082C0839003B97401F0E9A282
:1051A300E350037403F0E9A2E15004E0D2E2F00219
:1051B30042F874F612043979007C008A088B097866
:1051C30008120697F8FF07E851E651E651E651E663
:1051D30051DF51E351E851DC510C80097C04800517
:1051E3000C80F67C089003B9E05C6003098003EC53
:1051F300600109024D7F74F61204398A828B83E0C1
:105203007012A3124D76600C8A828B831251241282
:105213001DB480047A007B00024D7F74F5120439BB
:1052230074F31209CB8A088B09ECFEEDFF750A12A1
:10523300EA4509700579000252ED900356E06508CE
:105243007004A3E065097014120E78EAFCEBFD12FA
:105253004FF17005750A018003750A008518828570
:105263001983E4F004120BB3E508F0A3E509125225
:10527300F4120C2CE960277403120BB3AA82AB83DC
:10528300120C0EE964017016750A017403120BB354
:10529300AC82AD83124FF16021750A00801C741239
:1052A300650A70169003A2E06402700EEEFCEFFD37
:1052B300AA08AB09120C44E970DFEEFCEFFDAA0863
:1052C300AB09120F44E9F8740A687005750A018086
:1052D3001774A0687012EEFCEFFDAA08AB09120F59
:1052E30050AA08AB09120F62A90A740D025CF47488
:1052F300021252F8221252FC221242D7AA82AB8324
:105303002274F7120439EAFEEBFF8E828F83A3A384
:10531300A3A3A3A3A3A3E06015EE24151230ED12FB
:105323003198120EE4E964017004790180258E82BC
:105333008F83A3A3A3A3A3A3A3E06015EE24131257
:1053430030ED125358FAA3E0FB120EE4E964016056
:10535300D979008013123C47A3A3A3A3A3A3A3A3B8
:10536300A3E022741F12094D7F0102065174F0124B
:10537300043974FD1209CB8A088B09ECFEEDFF8911
:105383000B7413120BB3E0F50C750A017401120BC5
:10539300B3740412581F6048E50C601DEA2417F526
:1053A30082EB125A6212580D8A828B83E0D2E7F0A5
:1053B300EA2414F582EB1241FC1254F3EB124DE094
:1053C3007403125D85EE88828983A3A3F0EF88823C
:1053D3008983A3A3123CF1123CF8120C62E9F50A8B
:1053E300A90A74030254E074EC12043974F5120927
:1053F300CB8A0A8B0B890C8C0E8D0F741F120BB387
:10540300E0F50D7420120BB3E0F510A3E0F5117E67
:1054130001EE120BB3740AF0E97007E50DC33324F0
:105423000AF01255C570030254C71255DA7409F015
:10543300A3E50CC43354E0450D1255ECE50C702D77
:105443007C008023ECC333F8E433F9E51028F8E556
:105453001139F9888289831254D48882898312345A
:105463000AF0A30EAF830CECC3950D40D7E50824D7
:1054730017F582E509124EBA120E78E508241AF5DB
:1054830082E509124D4A7403120BB3AC82AD83AAB1
:105493000AAB0B120C14E96019E5082416F582E532
:1054A300091254CE120BB3A882A983E5082418125B
:1054B3004DBA850882850983125D81AA08AB09125A
:1054C3000C62E9FEEEF9740B0255BD124EBE740375
:1054D30022E08E828F83F0A3AE82AF832212094D26
:1054E3007F08020651123F9FF9EA2400E439FB22A8
:1054F300EA240BF5822274EE1204398A0C8B0D898F
:105503000E8C088D097412120BB3E0F50F7413128D
:105513000BB31255A69005A3124D766077E50FC322
:1055230033F8E433F9E8240EFAE93400FB121448A3
:105533008A108B11AE10AF11EE4F60588E828F839D
:1055430074D4F0A3A3E50CF0A3E50D1255AEE50E5C
:10555300F0AC08AD09EE2405FAEF125828EE240D3D
:105563001230EDE50FF0850A08850B09750A0078FE
:1055730008120936E50FC333FCE433FDEE240EFABB
:10558300EF12559D12094DEEFAEFFB9005A312574A
:10559300E7121E55024627FAE5093400FB12141ED2
:1055A300740322E0F50AA3E0F50B221255B222128E
:1055B30055B622124210A3A3A32212094D7F0C0257
:1055C3000651851882851983AA82AB83120ECC8A71
:1055D300088B09EA450922EA240BF582EB124DDA1E
:1055E300FEA3E0FF8E828F8322F0A3AE82AF83AC53
:1055F3000EAD0FEEFAEFFB1255FE22121C7012567F
:105603000522EE2408FEEF3400FF22E0FA8E828F9B
:1056130083A3A3E022FEA3E03400FF8E828F83E006
:1056230022123F4212562B22E0FCA3E0FD2212314C
:10563300A8120E602274F6120439EAFEEBFF9003FF
:10564300BA801388828983E06E7003A3E06F603AA7
:1056530088828983A3A3124D7670E87A047B0012B3
:1056630014E48A088B09A808A909E849601C888200
:1056730089831256949003BA12512588828983A391
:10568300A3124D4E9003BA124DC1024D7F8A828BF5
:1056930083EEF0A3EFF02274F41204397E0090033A
:1056A300BA80070E88828983A3A3124D7670F4EE25
:1056B300C333FAE433FB125742607E7F009003BA90
:1056C300802488828983125627EFC333FAE433FB9D
:1056D300E5082AF582E5093BF583ECF0A3EDF00F2D
:1056E30088828983A3A3124D7670D79003AB122BC4
:1056F300057003A3E0697808701912093AEEF50AF8
:10570300780A12093E7C777D0379009003AB125728
:105713004D801A12093AEEF50A780A12093E7C778F
:105723007D0379009003AB125125120EF674031218
:10573300094DAA08AB091214EA120C7A0231B2120B
:1057430014E48A088B09EA4509221231A8120EFCD7
:1057530022C082C08380128A828B83A3A3123F500C
:105763009003BA124DC11214EA9003BA123E60704C
:10577300E60242F874F6120439900363123F7C90F8
:1057830003CE1257D6124DC17ACE7B037950121C29
:10579300889003CE122D24FAEFFB120F5C9003CEF8
:1057A300123F7C9005A5124D7660257A067B001288
:1057B3001448EA4B601A8A828B8374D5F0A3A3E45E
:1057C3001257FC0412580D9005A51257E7121E55E7
:1057D300024D7F1257DA22E0F8A3E0F99003632227
:1057E3008E828F831257EB221257EF22E0F8125763
:1057F300F522A3E0F583888222125800221258046E
:1058030022F08A828B83A3A3A322125800A3EEF073
:10581300A3EFF022F582EF124DDAF922124EF2EAEB
:105823004B22FAE5093400FB121C7022124DF9A336
:10583300A3A3A3A3A3A3229026CAE4932401F8E479
:105843003400F97A027B002274F71204397E008057
:1058530004125E380E12595C40F77E00EE12587740
:1058630074FEF0A30412588CE4F00EEEC3940340CC
:10587300EB02536B75F003A4F8A9F074BC28F87419
:105883000339F988828983A32212589022F08882EF
:1058930089832274F71204397F0080010F9026D286
:1058A300E493F8EFC3985026EF125A486A7003A3A3
:1058B300E06B70E8125DE56C7003A3E06D600A7441
:1058C300FF6C700374FF6D70D312595380047A0018
:1058D3007B0002536B74F61204397CFF7DFF7AFE62
:1058E3007BFF120F20EA4B70407508008036E508F5
:1058F30075F017A4F8A9F074AF28F582740A125A48
:105903005A600C74AE28F582740A125A5A701374D2
:10591300A028FE740A39FF8E828F83125A67EEFA2B
:10592300EFFB05081259C240C5024D7F74F41204FF
:10593300398A088B09ECFEEDFF800B120F32EEFC67
:10594300EFFDAA08AB09120F20EA4B70EE0231B249
:1059530074A028FA740A39FB229026D2E493F8EE55
:10596300C3982274F7120439EAFEEBFFEE4F60107E
:1059730012598674FEF0A304125D8B14F0A304F095
:1059830002536B7C177D00790012142A8E828F8359
:105993002274F7120439EAFEEBFF7508008018E55C
:1059A3000875F017A4F8A9F0125DF07003A3E06F77
:1059B3006003125E4005081259C240E302536B9024
:1059C30026D2E493F8E508C3982274F61204391238
:1059D3000F208A088B09A808A909E849600AE82466
:1059E3000DFAE93400FB80047A007B00024D7F74DA
:1059F300F41204398A0A8B0BECFEEDFF750800756F
:105A03000900802EE50975F017A4F8A9F0125E2BA2
:105A1300601EE509125A48650A7004A3E0650B701D
:105A23000375080AEEFCEFFD125CE760034308A070
:105A330005099026D2E493F8E509C3985004E508D4
:105A430060C2022D1C75F017A4F8A9F0125A532254
:105A530074A028F582740A39F583E022F582EF12E7
:105A63003F45E4221231A8120D5822125890A3A3E5
:105A7300A3A3A3A3A3A32274F21204398A088B0954
:105A8300ECFEEDFF740E120BB31255A6750C007CE1
:105A9300007D018010121442E50CF5F0EA84ACF0AD
:105AA300750C007D00780079008003125C24125C81
:105AB300804003025B46E8FAE9FBEA75F017A4FAB3
:105AC30085F00D75F017EBA4250D125C5C7003A334
:105AD300E0F460D7125C3A65087004A3E0650960DE
:105AE300CA125C3A6E7003A3E06F60BF125C3A6542
:105AF3000A7004A3E0650B60B2E8FAE9FBEA75F00B
:105B030017A4FA75F017EBA4250DFB74AE2AF582E2
:105B1300740A125C1B509474016D050C608DE50CC6
:105B2300C39C4087E875F017A4F8AAF075F017E94D
